{"contracts/invoice/InvoiceEscrow.sol":{"InvoiceEscrow":{"abi":[{"inputs":[{"internalType":"string","name":"_invoiceId","type":"string"},{"internalType":"string","name":"_invoiceNumber","type":"string"},{"internalType":"address","name":"_seller","type":"address"},{"internalType":"address","name":"_buyer","type":"address"},{"internalType":"uint256","name":"_totalAmount","type":"uint256"},{"internalType":"uint256","name":"_dueDate","type":"uint256"},{"internalType":"address","name":"_paymentToken","type":"address"},{"internalType":"address","name":"_arbiter","type":"address"}],"stateMutability":"nonpayable","type":"constructor"},{"inputs":[{"internalType":"address","name":"owner","type":"address"}],"name":"OwnableInvalidOwner","type":"error"},{"inputs":[{"internalType":"address","name":"account","type":"address"}],"name":"OwnableUnauthorizedAccount","type":"error"},{"inputs":[],"name":"ReentrancyGuardReentrantCall","type":"error"},{"inputs":[{"internalType":"address","name":"token","type":"address"}],"name":"SafeERC20FailedOperation","type":"error"},{"anonymous":false,"inputs":[{"indexed":true,"internalType":"address","name":"raiser","type":"address"},{"indexed":false,"internalType":"string","name":"reason","type":"string"},{"indexed":false,"internalType":"uint256","name":"timestamp","type":"uint256"}],"name":"DisputeRaised","type":"event"},{"anonymous":false,"inputs":[{"indexed":false,"internalType":"bool","name":"sellerFavored","type":"bool"},{"indexed":false,"internalType":"uint256","name":"timestamp","type":"uint256"}],"name":"DisputeResolved","type":"event"},{"anonymous":false,"inputs":[{"indexed":false,"internalType":"uint256","name":"timestamp","type":"uint256"}],"name":"InvoiceCancelled","type":"event"},{"anonymous":false,"inputs":[{"indexed":false,"internalType":"uint256","name":"timestamp","type":"uint256"}],"name":"InvoiceCompleted","type":"event"},{"anonymous":false,"inputs":[{"indexed":true,"internalType":"address","name":"previousOwner","type":"address"},{"indexed":true,"internalType":"address","name":"newOwner","type":"address"}],"name":"OwnershipTransferred","type":"event"},{"anonymous":false,"inputs":[{"indexed":true,"internalType":"address","name":"recipient","type":"address"},{"indexed":false,"internalType":"uint256","name":"amount","type":"uint256"}],"name":"PaymentDistributed","type":"event"},{"anonymous":false,"inputs":[{"indexed":true,"internalType":"address","name":"payer","type":"address"},{"indexed":false,"internalType":"uint256","name":"amount","type":"uint256"},{"indexed":false,"internalType":"uint256","name":"timestamp","type":"uint256"}],"name":"PaymentReceived","type":"event"},{"anonymous":false,"inputs":[{"indexed":true,"internalType":"address","name":"recipient","type":"address"},{"indexed":false,"internalType":"uint256","name":"percentage","type":"uint256"},{"indexed":false,"internalType":"uint256","name":"fixedAmount","type":"uint256"}],"name":"PaymentSplitAdded","type":"event"},{"inputs":[{"internalType":"address","name":"recipient","type":"address"},{"internalType":"uint256","name":"percentage","type":"uint256"},{"internalType":"uint256","name":"fixedAmount","type":"uint256"},{"internalType":"bool","name":"isPrimary","type":"bool"}],"name":"addPaymentSplit","outputs":[],"stateMutability":"nonpayable","type":"function"},{"inputs":[],"name":"arbiter","outputs":[{"internalType":"address","name":"","type":"address"}],"stateMutability":"view","type":"function"},{"inputs":[],"name":"autoRelease","outputs":[],"stateMutability":"nonpayable","type":"function"},{"inputs":[],"name":"buyer","outputs":[{"internalType":"address","name":"","type":"address"}],"stateMutability":"view","type":"function"},{"inputs":[],"name":"cancel","outputs":[],"stateMutability":"nonpayable","type":"function"},{"inputs":[],"name":"disputeRaisedAt","outputs":[{"internalType":"uint256","name":"","type":"uint256"}],"stateMutability":"view","type":"function"},{"inputs":[],"name":"disputeReason","outputs":[{"internalType":"string","name":"","type":"string"}],"stateMutability":"view","type":"function"},{"inputs":[],"name":"distributePayments","outputs":[],"stateMutability":"nonpayable","type":"function"},{"inputs":[],"name":"dueDate","outputs":[{"internalType":"uint256","name":"","type":"uint256"}],"stateMutability":"view","type":"function"},{"inputs":[],"name":"getDaysOverdue","outputs":[{"internalType":"uint256","name":"","type":"uint256"}],"stateMutability":"view","type":"function"},{"inputs":[],"name":"getPaymentProgress","outputs":[{"internalType":"uint256","name":"","type":"uint256"}],"stateMutability":"view","type":"function"},{"inputs":[{"internalType":"uint256","name":"index","type":"uint256"}],"name":"getPaymentSplit","outputs":[{"internalType":"address","name":"recipient","type":"address"},{"internalType":"uint256","name":"percentage","type":"uint256"},{"internalType":"uint256","name":"fixedAmount","type":"uint256"},{"internalType":"bool","name":"isPrimary","type":"bool"}],"stateMutability":"view","type":"function"},{"inputs":[],"name":"getPaymentSplitsCount","outputs":[{"internalType":"uint256","name":"","type":"uint256"}],"stateMutability":"view","type":"function"},{"inputs":[],"name":"getRemainingAmount","outputs":[{"internalType":"uint256","name":"","type":"uint256"}],"stateMutability":"view","type":"function"},{"inputs":[],"name":"invoiceId","outputs":[{"internalType":"string","name":"","type":"string"}],"stateMutability":"view","type":"function"},{"inputs":[],"name":"invoiceNumber","outputs":[{"internalType":"string","name":"","type":"string"}],"stateMutability":"view","type":"function"},{"inputs":[],"name":"isCancelled","outputs":[{"internalType":"bool","name":"","type":"bool"}],"stateMutability":"view","type":"function"},{"inputs":[],"name":"isCompleted","outputs":[{"internalType":"bool","name":"","type":"bool"}],"stateMutability":"view","type":"function"},{"inputs":[],"name":"isDisputed","outputs":[{"internalType":"bool","name":"","type":"bool"}],"stateMutability":"view","type":"function"},{"inputs":[],"name":"isOverdue","outputs":[{"internalType":"bool","name":"","type":"bool"}],"stateMutability":"view","type":"function"},{"inputs":[],"name":"owner","outputs":[{"internalType":"address","name":"","type":"address"}],"stateMutability":"view","type":"function"},{"inputs":[],"name":"paidAmount","outputs":[{"internalType":"uint256","name":"","type":"uint256"}],"stateMutability":"view","type":"function"},{"inputs":[{"internalType":"uint256","name":"amount","type":"uint256"}],"name":"pay","outputs":[],"stateMutability":"payable","type":"function"},{"inputs":[],"name":"payFull","outputs":[],"stateMutability":"payable","type":"function"},{"inputs":[{"internalType":"uint256","name":"","type":"uint256"}],"name":"paymentSplits","outputs":[{"internalType":"address","name":"recipient","type":"address"},{"internalType":"uint256","name":"percentage","type":"uint256"},{"internalType":"uint256","name":"fixedAmount","type":"uint256"},{"internalType":"bool","name":"isPrimary","type":"bool"}],"stateMutability":"view","type":"function"},{"inputs":[],"name":"paymentToken","outputs":[{"internalType":"address","name":"","type":"address"}],"stateMutability":"view","type":"function"},{"inputs":[{"internalType":"string","name":"reason","type":"string"}],"name":"raiseDispute","outputs":[],"stateMutability":"nonpayable","type":"function"},{"inputs":[],"name":"releaseFunds","outputs":[],"stateMutability":"nonpayable","type":"function"},{"inputs":[],"name":"renounceOwnership","outputs":[],"stateMutability":"nonpayable","type":"function"},{"inputs":[{"internalType":"bool","name":"sellerFavored","type":"bool"}],"name":"resolveDispute","outputs":[],"stateMutability":"nonpayable","type":"function"},{"inputs":[],"name":"seller","outputs":[{"internalType":"address","name":"","type":"address"}],"stateMutability":"view","type":"function"},{"inputs":[],"name":"tokenDecimals","outputs":[{"internalType":"uint8","name":"","type":"uint8"}],"stateMutability":"view","type":"function"},{"inputs":[],"name":"totalAmount","outputs":[{"internalType":"uint256","name":"","type":"uint256"}],"stateMutability":"view","type":"function"},{"inputs":[],"name":"totalSplitPercentage","outputs":[{"internalType":"uint256","name":"","type":"uint256"}],"stateMutability":"view","type":"function"},{"inputs":[{"internalType":"address","name":"newOwner","type":"address"}],"name":"transferOwnership","outputs":[],"stateMutability":"nonpayable","type":"function"},{"inputs":[{"internalType":"address","name":"newArbiter","type":"address"}],"name":"updateArbiter","outputs":[],"stateMutability":"nonpayable","type":"function"},{"stateMutability":"payable","type":"receive"}],"evm":{"bytecode":{"linkReferences":{},"object":"608060409080825234620003235762002a77803803809162000022828562000692565b833981019061010081830312620003235780516001600160401b03811162000323578262000052918301620006b6565b602082015190926001600160401b038211620003235762000075918301620006b6565b620000828483016200072d565b62000090606084016200072d565b60808401519160a085015193620000b860e0620000b060c089016200072d565b97016200072d565b9633156200067a5760008054336001600160a01b03198216811783558b519290916001600160a01b0316907f8be0079c531659141344cd1fd0a4f28419497f9722a3daafe3b4186f6b6457e09080a3600180556001600160a01b038416156200064757506001600160a01b0384161562000613578415620005da574286111562000596578051906001600160401b0382116200048a5760025490600182811c921680156200058b575b6020831014620004695781601f8493116200052a575b50602090601f8311600114620004ac57600092620004a0575b50508160011b916000199060031b1c1916176002555b8051906001600160401b0382116200048a5760035490600182811c921680156200047f575b6020831014620004695781601f849311620003f7575b50602090601f831160011462000368576000926200035c575b50508160011b916000199060031b1c1916176003555b600480546001600160a01b03199081166001600160a01b039384161790915560058054821693831693909317909255600692909255600892909255600980546301000000600160b81b03198116601886901b6301000000600160b81b0316908117909255600c80549094169583169590951790925591909116919082156200033c575050602060049183519283809263313ce56760e01b82525afa9081156200033157600091620002e9575b506009805460ff60b81b191660b89290921b60ff60b81b169190911790555b516123149081620007438239f35b90506020813d60201162000328575b81620003076020938362000692565b8101031262000323575160ff81168103620003235738620002bc565b600080fd5b3d9150620002f8565b82513d6000823e3d90fd5b6301000000600160c01b031990911617600960b91b1760095550620002db565b015190503880620001fa565b6003600090815293507fc2575a0e9e593c00f959f8c92f12db2869c3395a3b0502d05e2516446f71f85b91905b601f1984168510620003db576001945083601f19811610620003c1575b505050811b0160035562000210565b015160001960f88460031b161c19169055388080620003b2565b8181015183556020948501946001909301929091019062000395565b60036000529091507fc2575a0e9e593c00f959f8c92f12db2869c3395a3b0502d05e2516446f71f85b601f840160051c81016020851062000461575b90849392915b601f830160051c8201811062000451575050620001e1565b6000815585945060010162000439565b508062000433565b634e487b7160e01b600052602260045260246000fd5b91607f1691620001cb565b634e487b7160e01b600052604160045260246000fd5b01519050388062000190565b60026000908152935060008051602062002a5783398151915291905b601f19841685106200050e576001945083601f19811610620004f4575b505050811b01600255620001a6565b015160001960f88460031b161c19169055388080620004e5565b81810151835560209485019460019093019290910190620004c8565b600260005290915060008051602062002a57833981519152601f840160051c81016020851062000583575b90849392915b601f830160051c820181106200057357505062000177565b600081558594506001016200055b565b508062000555565b91607f169162000161565b885162461bcd60e51b815260206004820152601a60248201527f4475652064617465206d75737420626520696e206675747572650000000000006044820152606490fd5b885162461bcd60e51b81526020600482015260126024820152710416d6f756e74206d757374206265203e20360741b6044820152606490fd5b885162461bcd60e51b815260206004820152600d60248201526c24b73b30b634b210313abcb2b960991b6044820152606490fd5b62461bcd60e51b815260206004820152600e60248201526d24b73b30b634b21039b2b63632b960911b6044820152606490fd5b8851631e4fbdf760e01b815260006004820152602490fd5b601f909101601f19168101906001600160401b038211908210176200048a57604052565b919080601f8401121562000323578251906001600160401b0382116200048a5760405191602091620006f2601f8301601f191684018562000692565b818452828287010111620003235760005b8181106200071957508260009394955001015290565b858101830151848201840152820162000703565b51906001600160a01b0382168203620003235756fe608060409080825260049081361015610056575b50361561001f57600080fd5b6020606492519162461bcd60e51b835282015260126024820152712ab9b2903830bc941490333ab731ba34b7b760711b6044820152fd5b600090813560e01c9081630335729e14611cb75750806308551a5314611c8e57806312fa769f14611c6f5780631a39d8ef14611c505780632466847314611ba65780633013ce2914611b79578063325ac88014611af35780633b95731714611abc5780633b97e85614611a975780633f0f17ed1461181f578063529151ec146118025780635d696d23146117e557806369d895751461153b57806370c8628614611491578063715018a6146114375780637150d8ae1461140e578063725a3b4b146110d9578063786716fe146110ba5780637bf6c10414610fdd57806389e1e82a14610c965780638da5cb5b14610c6e57806395ee122114610c475780639ee7fd4014610b715780639f60be5c14610adb578063a2c7274514610abc578063a36693b114610849578063acaef1f81461082a578063b21862a6146107ba578063b95d8dd41461079b578063c290d691146105fe578063dabaae11146105d3578063dd84b5f614610400578063ea8a1af0146102c7578063f2fde38b1461023b578063fa391c64146102175763fe25e00a03610013578234610213578160031936011261021357600c5490516001600160a01b039091168152602090f35b5080fd5b50823461021357816003193601126102135760209060ff6009541690519015158152f35b509190346102c35760203660031901126102c357610257611db2565b90610260611e1d565b6001600160a01b039182169283156102ad57505082546001600160a01b0319811683178455167f8be0079c531659141344cd1fd0a4f28419497f9722a3daafe3b4186f6b6457e08380a380f35b51631e4fbdf760e01b8152908101849052602490fd5b8280fd5b509190346102c357826003193601126102c3578054336001600160a01b03918216149081156103f3575b50156103c05760075461037e576009549060ff8260081c16610347575061ff00191661010017600955514281527f2e9842040508f80e6420769a8673529eb3af5b952f53af83d9c9d3432da7804690602090a180f35b606490602084519162461bcd60e51b83528201526011602482015270105b1c9958591e4818d85b98d95b1b1959607a1b6044820152fd5b6020606492519162461bcd60e51b8352820152601b60248201527f43616e6e6f742063616e63656c206166746572207061796d656e7400000000006044820152fd5b6020606492519162461bcd60e51b8352820152600e60248201526d139bdd08185d5d1a1bdc9a5e995960921b6044820152fd5b90508354163314386102f1565b5091346102c357826003193601126102c35761041a612008565b60ff9161042a8360095416612038565b600a9283541561059c57600790815492865b86548110156104e85761045761045182611dcd565b5061208b565b8087018051156104ce57515b8681116104c7575b80610481575b505061047c9061207c565b61043c565b60008051602061229f8339815191526020836104b68461047c97969b6104b18260018060a01b0380965116612159565b61202b565b995116928a51908152a29038610471565b508561046b565b506127106104e286546020840151906120cb565b04610463565b509293915093836104fc575b856001805580f35b915491546001600160a01b0392831694865b828110610549575b50505090836020926105388560008051602061229f8339815191529697612159565b519485521692a238808080806104f4565b81600361055583611dcd565b5001541661056b576105669061207c565b61050e565b60008051602061229f83398151915295965084939250602094915061058f90611dcd565b5054169493819293610516565b506020606492519162461bcd60e51b835282015260116024820152704e6f207061796d656e742073706c69747360781b6044820152fd5b5082346102135781600319360112610213576020906105f76006546007549061202b565b9051908152f35b50919060203660031901126102c357803590610618612008565b6009549060ff82166107585761063460ff8360081c1615611e49565b82156107205761064683600754611e89565b600654106106e6575060181c6001600160a01b031681816106ca5761066d91503414611f02565b7f5677b5d4cf976ac32defbd95a6a5aaf0d1fee450a11fc26f3c11aae6e6c33d0661069a82600754611e89565b928360075580519283524260208401523392a2600654146106bd575b6001805580f35b6106c5612120565b6106b6565b6106e1916106d83415611eac565b30903390611f45565b61066d565b606490602085519162461bcd60e51b83528201526014602482015273115e18d959591cc81d1bdd185b08185b5bdd5b9d60621b6044820152fd5b606490602085519162461bcd60e51b835282015260126024820152710416d6f756e74206d757374206265203e20360741b6044820152fd5b606490602085519162461bcd60e51b8352820152601960248201527f496e766f69636520616c726561647920636f6d706c65746564000000000000006044820152fd5b508234610213578160031936011261021357602090600d549051908152f35b509034610213576020366003190112610213573590600a5482101561082757506107e390611dcd565b5080546001820154600283015460039093015493516001600160a01b0390921682526020820152604081019190915260ff90911615156060820152608090f35b0390f35b80fd5b508234610213578160031936011261021357602090600b549051908152f35b5091346102c357826003193601126102c357610863612008565b6009549161088360ff8461087982809716612038565b60101c16156120de565b60085462278d008101809111610aa957421115610a6757600a805490939015610a24576108ae612008565b6108bb8160095416612038565b83541561059c57600790815492865b865481101561096b576108df61045182611dcd565b80870180511561095157515b86811161094a575b80610909575b50506109049061207c565b6108ca565b60008051602061229f8339815191526020836109398461090497969b6104b18260018060a01b0380965116612159565b995116928a51908152a290386108f9565b50856108f3565b5061271061096586546020840151906120cb565b046108eb565b50929391509383610984575b5050600180555082915050f35b915491546001600160a01b0392831694865b8281106109d1575b50505090836020926109c08560008051602061229f8339815191529697612159565b519485521692a23880808080610977565b8160036109dd83611dcd565b500154166109f3576109ee9061207c565b610996565b60008051602061229f833981519152959650849392506020949150610a1790611dcd565b505416949381929361099e565b50805460075492935060008051602061229f833981519152926020926001600160a01b03929091610a56918416612159565b5416926007549051908152a26106b6565b6020606492519162461bcd60e51b8352820152601860248201527f477261636520706572696f64206e6f7420656c617073656400000000000000006044820152fd5b634e487b7160e01b855260118252602485fd5b508234610213578160031936011261021357602090600a549051908152f35b50346108275760203660031901126108275750803590600a54821015610b3e5750610451610b0891611dcd565b80516020808301518484015160609485015195516001600160a01b03909416845291830152604082015291151590820152608090f35b606490602084519162461bcd60e51b8352820152600d60248201526c092dcecc2d8d2c840d2dcc8caf609b1b6044820152fd5b5091826003193601126102c357610b86612008565b610b956006546007549061202b565b918215610c1057506009547f5677b5d4cf976ac32defbd95a6a5aaf0d1fee450a11fc26f3c11aae6e6c33d06919060181c6001600160a01b03168381610bfd57610be191503414611f02565b60065460075580519283524260208401523392a26106b6612120565b610c0b916106d83415611eac565b610be1565b6020606492519162461bcd60e51b83528201526012602482015271105b1c9958591e48199d5b1b1e481c185a5960721b6044820152fd5b50823461021357816003193601126102135760209060ff60095460081c1690519015158152f35b508234610213578160031936011261021357905490516001600160a01b039091168152602090f35b5091346102c357602080600319360112610fd9578235908115159485830361082757600c546001600160a01b0390811633148015610fcd575b15610f9b576009549360ff94858160101c1615610f645762ff0000191660095515610f1c57600a805490949015610ed757610d08612008565b610d158160095416612038565b845415610ea057600797885495845b8154811015610dbc57610d3961045182611dcd565b808a01805115610da357515b898111610d9c575b80610d63575b5050610d5e9061207c565b610d24565b60008051602061229f8339815191528988610d8b84869e6104b18285610d5e9b9a5116612159565b9c5116928d51908152a29038610d53565b5088610d4d565b50612710610db68d548a840151906120cb565b04610d45565b509197909593985083610df2575b505050506000805160206122bf8339815191529350600180555b82519182524290820152a180f35b54905490821696885b828110610e42575b5050508260008051602061229f8339815191529187610e31856000805160206122bf8339815191529a612159565b87519485521692a238808080610dca565b816003610e4e83611dcd565b50015416610e6457610e5f9061207c565b610dfb565b6000805160206122bf833981519152985085925083915092610e9460008051602061229f83398151915294611dcd565b50541697819350610e03565b855162461bcd60e51b815280880185905260116024820152704e6f207061796d656e742073706c69747360781b6044820152606490fd5b509095925084610efc826000805160206122bf83398151915297541660075490612159565b541660008051602061229f833981519152826007548651908152a2610de4565b909592506000805160206122bf8339815191529450610f42816005541660075490612159565b6005541660008051602061229f833981519152826007548651908152a2610de4565b865162461bcd60e51b815280890186905260116024820152704e6f20616374697665206469737075746560781b6044820152606490fd5b845162461bcd60e51b8152808701849052600c60248201526b27b7363c9030b93134ba32b960a11b6044820152606490fd5b50808254163314610ccf565b8380fd5b50823461021357816003193601126102135780519082600e54610fff81611cdb565b808552916001918083169081156110925750600114611035575b50505061102b82610823940383611d47565b5191829182611d69565b9450600e85527fbb7b4a454dc3493923482f07822329ed19e8244eff582cc204f8554c3620c3fd5b82861061107a5750505061102b8260206108239582010194611019565b8054602087870181019190915290950194810161105d565b61082397508693506020925061102b94915060ff191682840152151560051b82010194611019565b5082346102135781600319360112610213576020906008549051908152f35b5091346102c35760209081600319360112610fd95782359167ffffffffffffffff9384841161140a573660238501121561140a578381013594851161140a5760249036828787010111611406576009549060ff82161580156113fb575b156113c45761114b60ff8360081c1615611e49565b60ff8260101c1661138f578054336001600160a01b0391821614908115611381575b501561133f57509062010000869262ff000019161760095542600d55611194600e54611cdb565b601f81116112d2575b508694601f831160011461122b5782827fd4882c6b71dfbb8df0a01fa4cd97676f243a56dd525df6b891b2e1700e514e89978a9261121e575b50508360011b906000198560031b1c191617600e555b82855195808752860152016060840137846060858401015242908201526060813394601f80199101168101030190a280f35b83010135905082386111d6565b600e8852601f198316957fbb7b4a454dc3493923482f07822329ed19e8244eff582cc204f8554c3620c3fd90895b8881106112b65750847fd4882c6b71dfbb8df0a01fa4cd97676f243a56dd525df6b891b2e1700e514e89981061129a575b5050600183811b01600e556111ec565b8201830135600019600386901b60f8161c19169055388061128a565b8382018501358355899550600190920191908601908601611259565b909150600e87527fbb7b4a454dc3493923482f07822329ed19e8244eff582cc204f8554c3620c3fd601f870160051c810191848810611335575b90601f889493920160051c01905b818110611327575061119d565b88815587935060010161131a565b909150819061130c565b845162461bcd60e51b81529081018490526018818401527f4f6e6c7920706172746965732063616e206469737075746500000000000000006044820152606490fd5b90506005541633143861116d565b845162461bcd60e51b81529081018490526010818401526f105b1c9958591e48191a5cdc1d5d195960821b6044820152606490fd5b845162461bcd60e51b8152908101849052601281840152714e6f7468696e6720746f206469737075746560701b6044820152606490fd5b506007541515611136565b8680fd5b8580fd5b50823461021357816003193601126102135760055490516001600160a01b039091168152602090f35b5034610827578060031936011261082757611450611e1d565b80546001600160a01b03198116825581906001600160a01b03167f8be0079c531659141344cd1fd0a4f28419497f9722a3daafe3b4186f6b6457e08280a380f35b508234610213578160031936011261021357805190826002546114b381611cdb565b8085529160019180831690811561109257506001146114de5750505061102b82610823940383611d47565b9450600285527f405787fa12a823e0f2b7631cc41b3ba8828b3321ca811111fa75cd3aa3bb5ace5b8286106115235750505061102b8260206108239582010194611019565b80546020878701810191909152909501948101611506565b5091346102c357826003193601126102c357611555612008565b6009549261156b60ff8561087982809816612038565b80546001600160a01b03908116331480156117d9575b80156117ae575b1561176b57600a805490919015611743576115a1612008565b6115ae8660095416612038565b81541561170c57600795865492845b8154811015611657576115d261045182611dcd565b80880180511561163d57515b868111611636575b806115fc575b50506115f79061207c565b6115bd565b60008051602061229f83398151915260208761162584869b6104b182856115f79b9a5116612159565b995116928b51908152a290386115ec565b50856115e6565b506127106116518b546020840151906120cb565b046115de565b50919396509493919384611674575b505060018055508392505050f35b54905490831694865b8281106116b9575b50505090836020926116a78560008051602061229f8339815191529697612159565b519485521692a2388080808080611666565b8160036116c583611dcd565b500154166116db576116d69061207c565b61167d565b60008051602061229f8339815191529596508493925060209491506116ff90611dcd565b5054169493819293611685565b835162461bcd60e51b815260208187015260116024820152704e6f207061796d656e742073706c69747360781b6044820152606490fd5b9050602091945083610a568260008051602061229f8339815191529596541660075490612159565b825162461bcd60e51b8152602081860152601b60248201527f4e6f7420617574686f72697a6564206f7220746f6f206561726c7900000000006044820152606490fd5b5060085462278d0081018091116117c6574211611588565b634e487b7160e01b835260118552602483fd5b50808454163314611581565b5082346102135781600319360112610213576020906105f761226e565b5082346102135781600319360112610213576020906105f7612244565b5082346102135760803660031901126102135761183a611db2565b9060249182359060443590606435908115158092036114065761185b611e1d565b6001600160a01b03908116958615611a6157600a549182158015611a54575b15611a12578415611963575b865161189181611d15565b8881526020810192878452888201948786526060830196875268010000000000000000811015611951578060016118cb9201600a55611dcd565b9c909c61194157505091600393917f14678e4e3111fe0246d0ab7482532a1deae4d3d2f306a302349e69b51c55f3a2999a9b9351166bffffffffffffffffffffffff60a01b845416178355516001830155516002820155019051151560ff8019835416911617905582519182526020820152a280f35b634e487b7160e01b8c528b90528afd5b50634e487b7160e01b8b5260418c528afd5b85151580611a06575b156119cf57600b546127106119818883611e89565b11611998578661199091611e89565b600b55611886565b875162461bcd60e51b81526020818d015260128185015271546f74616c2065786365656473203130302560701b6044820152606490fd5b865162461bcd60e51b81526020818c015260128184015271496e76616c69642070657263656e7461676560701b6044820152606490fd5b5061271086111561196c565b865162461bcd60e51b81526020818c0152601e818401527f43616e6e6f74206d6f6469667920616674657220636f6d706c6574696f6e00006044820152606490fd5b5060ff600954161561187a565b886011606492602089519362461bcd60e51b855284015282015270125b9d985b1a59081c9958da5c1a595b9d607a1b6044820152fd5b50823461021357816003193601126102135760209060ff60095460b81c169051908152f35b50823461021357816003193601126102135760209060085442119081611ae5575b519015158152f35b60095460ff16159150611add565b509190346102c35760203660031901126102c357611b0f611db2565b611b17611e1d565b6001600160a01b0316918215611b445750506bffffffffffffffffffffffff60a01b600c541617600c5580f35b906020606492519162461bcd60e51b8352820152600f60248201526e24b73b30b634b21030b93134ba32b960891b6044820152fd5b508234610213578160031936011261021357600954905160189190911c6001600160a01b03168152602090f35b50823461021357816003193601126102135780519082600354611bc881611cdb565b808552916001918083169081156110925750600114611bf35750505061102b82610823940383611d47565b9450600385527fc2575a0e9e593c00f959f8c92f12db2869c3395a3b0502d05e2516446f71f85b5b828610611c385750505061102b8260206108239582010194611019565b80546020878701810191909152909501948101611c1b565b5082346102135781600319360112610213576020906006549051908152f35b5082346102135781600319360112610213576020906007549051908152f35b509190346102c357826003193601126102c3575490516001600160a01b03909116815260209150f35b90503461021357816003193601126102135760209060ff60095460101c1615158152f35b90600182811c92168015611d0b575b6020831014611cf557565b634e487b7160e01b600052602260045260246000fd5b91607f1691611cea565b6080810190811067ffffffffffffffff821117611d3157604052565b634e487b7160e01b600052604160045260246000fd5b90601f8019910116810190811067ffffffffffffffff821117611d3157604052565b6020808252825181830181905290939260005b828110611d9e57505060409293506000838284010152601f8019910116010190565b818101860151848201604001528501611d7c565b600435906001600160a01b0382168203611dc857565b600080fd5b600a54811015611e0757600a60005260021b7fc65a7bb8d6351c1cf70c95a316cc6a92839c986682d98bc35f958f4883f9d2a80190600090565b634e487b7160e01b600052603260045260246000fd5b6000546001600160a01b03163303611e3157565b60405163118cdaa760e01b8152336004820152602490fd5b15611e5057565b60405162461bcd60e51b8152602060048201526011602482015270125b9d9bda58d94818d85b98d95b1b1959607a1b6044820152606490fd5b91908201809211611e9657565b634e487b7160e01b600052601160045260246000fd5b15611eb357565b60405162461bcd60e51b815260206004820152602160248201527f446f206e6f742073656e642045544820666f7220746f6b656e207061796d656e6044820152601d60fa1b6064820152608490fd5b15611f0957565b60405162461bcd60e51b8152602060048201526014602482015273125b98dbdc9c9958dd0811551208185b5bdd5b9d60621b6044820152606490fd5b6040516323b872dd60e01b60208201526001600160a01b03928316602482015292909116604483015260648083019390935291815260a081019181831067ffffffffffffffff841117611d3157611f9e92604052611fa0565b565b906000602091828151910182855af115611ffc576000513d611ff357506001600160a01b0381163b155b611fd15750565b604051635274afe760e01b81526001600160a01b039091166004820152602490fd5b60011415611fca565b6040513d6000823e3d90fd5b600260015414612019576002600155565b604051633ee5aeb560e01b8152600490fd5b91908203918211611e9657565b1561203f57565b60405162461bcd60e51b8152602060048201526015602482015274125b9d9bda58d9481b9bdd0818dbdb5c1b195d1959605a1b6044820152606490fd5b6000198114611e965760010190565b9060405161209881611d15565b82546001600160a01b03168152600183015460208201526002830154604082015260039092015460ff1615156060830152565b81810292918115918404141715611e9657565b156120e557565b60405162461bcd60e51b8152602060048201526013602482015272125b9d9bda58d9481a5cc8191a5cdc1d5d1959606a1b6044820152606490fd5b600160ff1960095416176009557fe1342ae9bc80b9de7d3947f49a847fdc5b0889dd4a2cd4bd8e9cb58185e009ab6020604051428152a1565b60095460181c6001600160a01b03908116908161221157505060008080809481945af1903d1561220b573d9067ffffffffffffffff82116121f757604051916121ac601f8201601f191660200184611d47565b825260203d92013e5b156121bc57565b60405162461bcd60e51b8152602060048201526013602482015272115512081d1c985b9cd9995c8819985a5b1959606a1b6044820152606490fd5b634e487b7160e01b81526041600452602490fd5b506121b5565b92611f9e936040519363a9059cbb60e01b602086015216602484015260448301526044825261223f82611d15565b611fa0565b60065480156122685760075461271090818102918183041490151715611e96570490565b50600090565b600854804211801590612292575b6122685761228e62015180914261202b565b0490565b5060ff6009541661227c56fe59d9f8b94d1de65b8eeb1b14e24d5d70c2782e96b3abef17ba687f3ee33a754ad05d50c3680c1479ecff533a37ffd7c097dafe4668878f01c70e173c795d4ff9a26469706673582212204c58f897e47482d8c7a695e787c19f9b08a22d47fd3c4463fceecc448c04c4ef64736f6c63430008140033405787fa12a823e0f2b7631cc41b3ba8828b3321ca811111fa75cd3aa3bb5ace","opcodes":"PUSH1 0x80 PUSH1 0x40 SWAP1 DUP1 DUP3 MSTORE CALLVALUE PUSH3 0x323 JUMPI PUSH3 0x2A77 DUP1 CODESIZE SUB DUP1 SWAP2 PUSH3 0x22 DUP3 DUP6 PUSH3 0x692 JUMP JUMPDEST DUP4 CODECOPY DUP2 ADD SWAP1 PUSH2 0x100 DUP2 DUP4 SUB SLT PUSH3 0x323 JUMPI DUP1 MLOAD PUSH1 0x1 PUSH1 0x1 PUSH1 0x40 SHL SUB DUP2 GT PUSH3 0x323 JUMPI DUP3 PUSH3 0x52 SWAP2 DUP4 ADD PUSH3 0x6B6 JUMP JUMPDEST PUSH1 0x20 DUP3 ADD MLOAD SWAP1 SWAP3 PUSH1 0x1 PUSH1 0x1 PUSH1 0x40 SHL SUB DUP3 GT PUSH3 0x323 JUMPI PUSH3 0x75 SWAP2 DUP4 ADD PUSH3 0x6B6 JUMP JUMPDEST PUSH3 0x82 DUP5 DUP4 ADD PUSH3 0x72D JUMP JUMPDEST PUSH3 0x90 PUSH1 0x60 DUP5 ADD PUSH3 0x72D JUMP JUMPDEST PUSH1 0x80 DUP5 ADD MLOAD SWAP2 PUSH1 0xA0 DUP6 ADD MLOAD SWAP4 PUSH3 0xB8 PUSH1 0xE0 PUSH3 0xB0 PUSH1 0xC0 DUP10 ADD PUSH3 0x72D JUMP JUMPDEST SWAP8 ADD PUSH3 0x72D JUMP JUMPDEST SWAP7 CALLER ISZERO PUSH3 0x67A JUMPI PUSH1 0x0 DUP1 SLOAD CALLER PUSH1 0x1 PUSH1 0x1 PUSH1 0xA0 SHL SUB NOT DUP3 AND DUP2 OR DUP4 SSTORE DUP12 MLOAD SWAP3 SWAP1 SWAP2 PUSH1 0x1 PUSH1 0x1 PUSH1 0xA0 SHL SUB AND SWAP1 PUSH32 0x8BE0079C531659141344CD1FD0A4F28419497F9722A3DAAFE3B4186F6B6457E0 SWAP1 DUP1 LOG3 PUSH1 0x1 DUP1 SSTORE PUSH1 0x1 PUSH1 0x1 PUSH1 0xA0 SHL SUB DUP5 AND ISZERO PUSH3 0x647 JUMPI POP PUSH1 0x1 PUSH1 0x1 PUSH1 0xA0 SHL SUB DUP5 AND ISZERO PUSH3 0x613 JUMPI DUP5 ISZERO PUSH3 0x5DA JUMPI TIMESTAMP DUP7 GT ISZERO PUSH3 0x596 JUMPI DUP1 MLOAD SWAP1 PUSH1 0x1 PUSH1 0x1 PUSH1 0x40 SHL SUB DUP3 GT PUSH3 0x48A JUMPI PUSH1 0x2 SLOAD SWAP1 PUSH1 0x1 DUP3 DUP2 SHR SWAP3 AND DUP1 ISZERO PUSH3 0x58B JUMPI JUMPDEST PUSH1 0x20 DUP4 LT EQ PUSH3 0x469 JUMPI DUP2 PUSH1 0x1F DUP5 SWAP4 GT PUSH3 0x52A JUMPI JUMPDEST POP PUSH1 0x20 SWAP1 PUSH1 0x1F DUP4 GT PUSH1 0x1 EQ PUSH3 0x4AC JUMPI PUSH1 0x0 SWAP3 PUSH3 0x4A0 JUMPI JUMPDEST POP POP DUP2 PUSH1 0x1 SHL SWAP2 PUSH1 0x0 NOT SWAP1 PUSH1 0x3 SHL SHR NOT AND OR PUSH1 0x2 SSTORE JUMPDEST DUP1 MLOAD SWAP1 PUSH1 0x1 PUSH1 0x1 PUSH1 0x40 SHL SUB DUP3 GT PUSH3 0x48A JUMPI PUSH1 0x3 SLOAD SWAP1 PUSH1 0x1 DUP3 DUP2 SHR SWAP3 AND DUP1 ISZERO PUSH3 0x47F JUMPI JUMPDEST PUSH1 0x20 DUP4 LT EQ PUSH3 0x469 JUMPI DUP2 PUSH1 0x1F DUP5 SWAP4 GT PUSH3 0x3F7 JUMPI JUMPDEST POP PUSH1 0x20 SWAP1 PUSH1 0x1F DUP4 GT PUSH1 0x1 EQ PUSH3 0x368 JUMPI PUSH1 0x0 SWAP3 PUSH3 0x35C JUMPI JUMPDEST POP POP DUP2 PUSH1 0x1 SHL SWAP2 PUSH1 0x0 NOT SWAP1 PUSH1 0x3 SHL SHR NOT AND OR PUSH1 0x3 SSTORE JUMPDEST PUSH1 0x4 DUP1 SLOAD PUSH1 0x1 PUSH1 0x1 PUSH1 0xA0 SHL SUB NOT SWAP1 DUP2 AND PUSH1 0x1 PUSH1 0x1 PUSH1 0xA0 SHL SUB SWAP4 DUP5 AND OR SWAP1 SWAP2 SSTORE PUSH1 0x5 DUP1 SLOAD DUP3 AND SWAP4 DUP4 AND SWAP4 SWAP1 SWAP4 OR SWAP1 SWAP3 SSTORE PUSH1 0x6 SWAP3 SWAP1 SWAP3 SSTORE PUSH1 0x8 SWAP3 SWAP1 SWAP3 SSTORE PUSH1 0x9 DUP1 SLOAD PUSH4 0x1000000 PUSH1 0x1 PUSH1 0xB8 SHL SUB NOT DUP2 AND PUSH1 0x18 DUP7 SWAP1 SHL PUSH4 0x1000000 PUSH1 0x1 PUSH1 0xB8 SHL SUB AND SWAP1 DUP2 OR SWAP1 SWAP3 SSTORE PUSH1 0xC DUP1 SLOAD SWAP1 SWAP5 AND SWAP6 DUP4 AND SWAP6 SWAP1 SWAP6 OR SWAP1 SWAP3 SSTORE SWAP2 SWAP1 SWAP2 AND SWAP2 SWAP1 DUP3 ISZERO PUSH3 0x33C JUMPI POP POP PUSH1 0x20 PUSH1 0x4 SWAP2 DUP4 MLOAD SWAP3 DUP4 DUP1 SWAP3 PUSH4 0x313CE567 PUSH1 0xE0 SHL DUP3 MSTORE GAS STATICCALL SWAP1 DUP2 ISZERO PUSH3 0x331 JUMPI PUSH1 0x0 SWAP2 PUSH3 0x2E9 JUMPI JUMPDEST POP PUSH1 0x9 DUP1 SLOAD PUSH1 0xFF PUSH1 0xB8 SHL NOT AND PUSH1 0xB8 SWAP3 SWAP1 SWAP3 SHL PUSH1 0xFF PUSH1 0xB8 SHL AND SWAP2 SWAP1 SWAP2 OR SWAP1 SSTORE JUMPDEST MLOAD PUSH2 0x2314 SWAP1 DUP2 PUSH3 0x743 DUP3 CODECOPY RETURN JUMPDEST SWAP1 POP PUSH1 0x20 DUP2 RETURNDATASIZE PUSH1 0x20 GT PUSH3 0x328 JUMPI JUMPDEST DUP2 PUSH3 0x307 PUSH1 0x20 SWAP4 DUP4 PUSH3 0x692 JUMP JUMPDEST DUP2 ADD SUB SLT PUSH3 0x323 JUMPI MLOAD PUSH1 0xFF DUP2 AND DUP2 SUB PUSH3 0x323 JUMPI CODESIZE PUSH3 0x2BC JUMP JUMPDEST PUSH1 0x0 DUP1 REVERT JUMPDEST RETURNDATASIZE SWAP2 POP PUSH3 0x2F8 JUMP JUMPDEST DUP3 MLOAD RETURNDATASIZE PUSH1 0x0 DUP3 RETURNDATACOPY RETURNDATASIZE SWAP1 REVERT JUMPDEST PUSH4 0x1000000 PUSH1 0x1 PUSH1 0xC0 SHL SUB NOT SWAP1 SWAP2 AND OR PUSH1 0x9 PUSH1 0xB9 SHL OR PUSH1 0x9 SSTORE POP PUSH3 0x2DB JUMP JUMPDEST ADD MLOAD SWAP1 POP CODESIZE DUP1 PUSH3 0x1FA JUMP JUMPDEST PUSH1 0x3 PUSH1 0x0 SWAP1 DUP2 MSTORE SWAP4 POP PUSH32 0xC2575A0E9E593C00F959F8C92F12DB2869C3395A3B0502D05E2516446F71F85B SWAP2 SWAP1 JUMPDEST PUSH1 0x1F NOT DUP5 AND DUP6 LT PUSH3 0x3DB JUMPI PUSH1 0x1 SWAP5 POP DUP4 PUSH1 0x1F NOT DUP2 AND LT PUSH3 0x3C1 JUMPI JUMPDEST POP POP POP DUP2 SHL ADD PUSH1 0x3 SSTORE PUSH3 0x210 JUMP JUMPDEST ADD MLOAD PUSH1 0x0 NOT PUSH1 0xF8 DUP5 PUSH1 0x3 SHL AND SHR NOT AND SWAP1 SSTORE CODESIZE DUP1 DUP1 PUSH3 0x3B2 JUMP JUMPDEST DUP2 DUP2 ADD MLOAD DUP4 SSTORE PUSH1 0x20 SWAP5 DUP6 ADD SWAP5 PUSH1 0x1 SWAP1 SWAP4 ADD SWAP3 SWAP1 SWAP2 ADD SWAP1 PUSH3 0x395 JUMP JUMPDEST PUSH1 0x3 PUSH1 0x0 MSTORE SWAP1 SWAP2 POP PUSH32 0xC2575A0E9E593C00F959F8C92F12DB2869C3395A3B0502D05E2516446F71F85B PUSH1 0x1F DUP5 ADD PUSH1 0x5 SHR DUP2 ADD PUSH1 0x20 DUP6 LT PUSH3 0x461 JUMPI JUMPDEST SWAP1 DUP5 SWAP4 SWAP3 SWAP2 JUMPDEST PUSH1 0x1F DUP4 ADD PUSH1 0x5 SHR DUP3 ADD DUP2 LT PUSH3 0x451 JUMPI POP POP PUSH3 0x1E1 JUMP JUMPDEST PUSH1 0x0 DUP2 SSTORE DUP6 SWAP5 POP PUSH1 0x1 ADD PUSH3 0x439 JUMP JUMPDEST POP DUP1 PUSH3 0x433 JUMP JUMPDEST PUSH4 0x4E487B71 PUSH1 0xE0 SHL PUSH1 0x0 MSTORE PUSH1 0x22 PUSH1 0x4 MSTORE PUSH1 0x24 PUSH1 0x0 REVERT JUMPDEST SWAP2 PUSH1 0x7F AND SWAP2 PUSH3 0x1CB JUMP JUMPDEST PUSH4 0x4E487B71 PUSH1 0xE0 SHL PUSH1 0x0 MSTORE PUSH1 0x41 PUSH1 0x4 MSTORE PUSH1 0x24 PUSH1 0x0 REVERT JUMPDEST ADD MLOAD SWAP1 POP CODESIZE DUP1 PUSH3 0x190 JUMP JUMPDEST PUSH1 0x2 PUSH1 0x0 SWAP1 DUP2 MSTORE SWAP4 POP PUSH1 0x0 DUP1 MLOAD PUSH1 0x20 PUSH3 0x2A57 DUP4 CODECOPY DUP2 MLOAD SWAP2 MSTORE SWAP2 SWAP1 JUMPDEST PUSH1 0x1F NOT DUP5 AND DUP6 LT PUSH3 0x50E JUMPI PUSH1 0x1 SWAP5 POP DUP4 PUSH1 0x1F NOT DUP2 AND LT PUSH3 0x4F4 JUMPI JUMPDEST POP POP POP DUP2 SHL ADD PUSH1 0x2 SSTORE PUSH3 0x1A6 JUMP JUMPDEST ADD MLOAD PUSH1 0x0 NOT PUSH1 0xF8 DUP5 PUSH1 0x3 SHL AND SHR NOT AND SWAP1 SSTORE CODESIZE DUP1 DUP1 PUSH3 0x4E5 JUMP JUMPDEST DUP2 DUP2 ADD MLOAD DUP4 SSTORE PUSH1 0x20 SWAP5 DUP6 ADD SWAP5 PUSH1 0x1 SWAP1 SWAP4 ADD SWAP3 SWAP1 SWAP2 ADD SWAP1 PUSH3 0x4C8 JUMP JUMPDEST PUSH1 0x2 PUSH1 0x0 MSTORE SWAP1 SWAP2 POP PUSH1 0x0 DUP1 MLOAD PUSH1 0x20 PUSH3 0x2A57 DUP4 CODECOPY DUP2 MLOAD SWAP2 MSTORE PUSH1 0x1F DUP5 ADD PUSH1 0x5 SHR DUP2 ADD PUSH1 0x20 DUP6 LT PUSH3 0x583 JUMPI JUMPDEST SWAP1 DUP5 SWAP4 SWAP3 SWAP2 JUMPDEST PUSH1 0x1F DUP4 ADD PUSH1 0x5 SHR DUP3 ADD DUP2 LT PUSH3 0x573 JUMPI POP POP PUSH3 0x177 JUMP JUMPDEST PUSH1 0x0 DUP2 SSTORE DUP6 SWAP5 POP PUSH1 0x1 ADD PUSH3 0x55B JUMP JUMPDEST POP DUP1 PUSH3 0x555 JUMP JUMPDEST SWAP2 PUSH1 0x7F AND SWAP2 PUSH3 0x161 JUMP JUMPDEST DUP9 MLOAD PUSH3 0x461BCD PUSH1 0xE5 SHL DUP2 MSTORE PUSH1 0x20 PUSH1 0x4 DUP3 ADD MSTORE PUSH1 0x1A PUSH1 0x24 DUP3 ADD MSTORE PUSH32 0x4475652064617465206D75737420626520696E20667574757265000000000000 PUSH1 0x44 DUP3 ADD MSTORE PUSH1 0x64 SWAP1 REVERT JUMPDEST DUP9 MLOAD PUSH3 0x461BCD PUSH1 0xE5 SHL DUP2 MSTORE PUSH1 0x20 PUSH1 0x4 DUP3 ADD MSTORE PUSH1 0x12 PUSH1 0x24 DUP3 ADD MSTORE PUSH18 0x416D6F756E74206D757374206265203E203 PUSH1 0x74 SHL PUSH1 0x44 DUP3 ADD MSTORE PUSH1 0x64 SWAP1 REVERT JUMPDEST DUP9 MLOAD PUSH3 0x461BCD PUSH1 0xE5 SHL DUP2 MSTORE PUSH1 0x20 PUSH1 0x4 DUP3 ADD MSTORE PUSH1 0xD PUSH1 0x24 DUP3 ADD MSTORE PUSH13 0x24B73B30B634B210313ABCB2B9 PUSH1 0x99 SHL PUSH1 0x44 DUP3 ADD MSTORE PUSH1 0x64 SWAP1 REVERT JUMPDEST PUSH3 0x461BCD PUSH1 0xE5 SHL DUP2 MSTORE PUSH1 0x20 PUSH1 0x4 DUP3 ADD MSTORE PUSH1 0xE PUSH1 0x24 DUP3 ADD MSTORE PUSH14 0x24B73B30B634B21039B2B63632B9 PUSH1 0x91 SHL PUSH1 0x44 DUP3 ADD MSTORE PUSH1 0x64 SWAP1 REVERT JUMPDEST DUP9 MLOAD PUSH4 0x1E4FBDF7 PUSH1 0xE0 SHL DUP2 MSTORE PUSH1 0x0 PUSH1 0x4 DUP3 ADD MSTORE PUSH1 0x24 SWAP1 REVERT JUMPDEST PUSH1 0x1F SWAP1 SWAP2 ADD PUSH1 0x1F NOT AND DUP2 ADD SWAP1 PUSH1 0x1 PUSH1 0x1 PUSH1 0x40 SHL SUB DUP3 GT SWAP1 DUP3 LT OR PUSH3 0x48A JUMPI PUSH1 0x40 MSTORE JUMP JUMPDEST SWAP2 SWAP1 DUP1 PUSH1 0x1F DUP5 ADD SLT ISZERO PUSH3 0x323 JUMPI DUP3 MLOAD SWAP1 PUSH1 0x1 PUSH1 0x1 PUSH1 0x40 SHL SUB DUP3 GT PUSH3 0x48A JUMPI PUSH1 0x40 MLOAD SWAP2 PUSH1 0x20 SWAP2 PUSH3 0x6F2 PUSH1 0x1F DUP4 ADD PUSH1 0x1F NOT AND DUP5 ADD DUP6 PUSH3 0x692 JUMP JUMPDEST DUP2 DUP5 MSTORE DUP3 DUP3 DUP8 ADD ADD GT PUSH3 0x323 JUMPI PUSH1 0x0 JUMPDEST DUP2 DUP2 LT PUSH3 0x719 JUMPI POP DUP3 PUSH1 0x0 SWAP4 SWAP5 SWAP6 POP ADD ADD MSTORE SWAP1 JUMP JUMPDEST DUP6 DUP2 ADD DUP4 ADD MLOAD DUP5 DUP3 ADD DUP5 ADD MSTORE DUP3 ADD PUSH3 0x703 JUMP JUMPDEST MLOAD SWAP1 PUSH1 0x1 PUSH1 0x1 PUSH1 0xA0 SHL SUB DUP3 AND DUP3 SUB PUSH3 0x323 JUMPI JUMP INVALID PUSH1 0x80 PUSH1 0x40 SWAP1 DUP1 DUP3 MSTORE PUSH1 0x4 SWAP1 DUP2 CALLDATASIZE LT ISZERO PUSH2 0x56 JUMPI JUMPDEST POP CALLDATASIZE ISZERO PUSH2 0x1F JUMPI PUSH1 0x0 DUP1 REVERT JUMPDEST PUSH1 0x20 PUSH1 0x64 SWAP3 MLOAD SWAP2 PUSH3 0x461BCD PUSH1 0xE5 SHL DUP4 MSTORE DUP3 ADD MSTORE PUSH1 0x12 PUSH1 0x24 DUP3 ADD MSTORE PUSH18 0x2AB9B2903830BC941490333AB731BA34B7B7 PUSH1 0x71 SHL PUSH1 0x44 DUP3 ADD MSTORE REVERT JUMPDEST PUSH1 0x0 SWAP1 DUP2 CALLDATALOAD PUSH1 0xE0 SHR SWAP1 DUP2 PUSH4 0x335729E EQ PUSH2 0x1CB7 JUMPI POP DUP1 PUSH4 0x8551A53 EQ PUSH2 0x1C8E JUMPI DUP1 PUSH4 0x12FA769F EQ PUSH2 0x1C6F JUMPI DUP1 PUSH4 0x1A39D8EF EQ PUSH2 0x1C50 JUMPI DUP1 PUSH4 0x24668473 EQ PUSH2 0x1BA6 JUMPI DUP1 PUSH4 0x3013CE29 EQ PUSH2 0x1B79 JUMPI DUP1 PUSH4 0x325AC880 EQ PUSH2 0x1AF3 JUMPI DUP1 PUSH4 0x3B957317 EQ PUSH2 0x1ABC JUMPI DUP1 PUSH4 0x3B97E856 EQ PUSH2 0x1A97 JUMPI DUP1 PUSH4 0x3F0F17ED EQ PUSH2 0x181F JUMPI DUP1 PUSH4 0x529151EC EQ PUSH2 0x1802 JUMPI DUP1 PUSH4 0x5D696D23 EQ PUSH2 0x17E5 JUMPI DUP1 PUSH4 0x69D89575 EQ PUSH2 0x153B JUMPI DUP1 PUSH4 0x70C86286 EQ PUSH2 0x1491 JUMPI DUP1 PUSH4 0x715018A6 EQ PUSH2 0x1437 JUMPI DUP1 PUSH4 0x7150D8AE EQ PUSH2 0x140E JUMPI DUP1 PUSH4 0x725A3B4B EQ PUSH2 0x10D9 JUMPI DUP1 PUSH4 0x786716FE EQ PUSH2 0x10BA JUMPI DUP1 PUSH4 0x7BF6C104 EQ PUSH2 0xFDD JUMPI DUP1 PUSH4 0x89E1E82A EQ PUSH2 0xC96 JUMPI DUP1 PUSH4 0x8DA5CB5B EQ PUSH2 0xC6E JUMPI DUP1 PUSH4 0x95EE1221 EQ PUSH2 0xC47 JUMPI DUP1 PUSH4 0x9EE7FD40 EQ PUSH2 0xB71 JUMPI DUP1 PUSH4 0x9F60BE5C EQ PUSH2 0xADB JUMPI DUP1 PUSH4 0xA2C72745 EQ PUSH2 0xABC JUMPI DUP1 PUSH4 0xA36693B1 EQ PUSH2 0x849 JUMPI DUP1 PUSH4 0xACAEF1F8 EQ PUSH2 0x82A JUMPI DUP1 PUSH4 0xB21862A6 EQ PUSH2 0x7BA JUMPI DUP1 PUSH4 0xB95D8DD4 EQ PUSH2 0x79B JUMPI DUP1 PUSH4 0xC290D691 EQ PUSH2 0x5FE JUMPI DUP1 PUSH4 0xDABAAE11 EQ PUSH2 0x5D3 JUMPI DUP1 PUSH4 0xDD84B5F6 EQ PUSH2 0x400 JUMPI DUP1 PUSH4 0xEA8A1AF0 EQ PUSH2 0x2C7 JUMPI DUP1 PUSH4 0xF2FDE38B EQ PUSH2 0x23B JUMPI DUP1 PUSH4 0xFA391C64 EQ PUSH2 0x217 JUMPI PUSH4 0xFE25E00A SUB PUSH2 0x13 JUMPI DUP3 CALLVALUE PUSH2 0x213 JUMPI DUP2 PUSH1 0x3 NOT CALLDATASIZE ADD SLT PUSH2 0x213 JUMPI PUSH1 0xC SLOAD SWAP1 MLOAD PUSH1 0x1 PUSH1 0x1 PUSH1 0xA0 SHL SUB SWAP1 SWAP2 AND DUP2 MSTORE PUSH1 0x20 SWAP1 RETURN JUMPDEST POP DUP1 REVERT JUMPDEST POP DUP3 CALLVALUE PUSH2 0x213 JUMPI DUP2 PUSH1 0x3 NOT CALLDATASIZE ADD SLT PUSH2 0x213 JUMPI PUSH1 0x20 SWAP1 PUSH1 0xFF PUSH1 0x9 SLOAD AND SWAP1 MLOAD SWAP1 ISZERO ISZERO DUP2 MSTORE RETURN JUMPDEST POP SWAP2 SWAP1 CALLVALUE PUSH2 0x2C3 JUMPI PUSH1 0x20 CALLDATASIZE PUSH1 0x3 NOT ADD SLT PUSH2 0x2C3 JUMPI PUSH2 0x257 PUSH2 0x1DB2 JUMP JUMPDEST SWAP1 PUSH2 0x260 PUSH2 0x1E1D JUMP JUMPDEST PUSH1 0x1 PUSH1 0x1 PUSH1 0xA0 SHL SUB SWAP2 DUP3 AND SWAP3 DUP4 ISZERO PUSH2 0x2AD JUMPI POP POP DUP3 SLOAD PUSH1 0x1 PUSH1 0x1 PUSH1 0xA0 SHL SUB NOT DUP2 AND DUP4 OR DUP5 SSTORE AND PUSH32 0x8BE0079C531659141344CD1FD0A4F28419497F9722A3DAAFE3B4186F6B6457E0 DUP4 DUP1 LOG3 DUP1 RETURN JUMPDEST MLOAD PUSH4 0x1E4FBDF7 PUSH1 0xE0 SHL DUP2 MSTORE SWAP1 DUP2 ADD DUP5 SWAP1 MSTORE PUSH1 0x24 SWAP1 REVERT JUMPDEST DUP3 DUP1 REVERT JUMPDEST POP SWAP2 SWAP1 CALLVALUE PUSH2 0x2C3 JUMPI DUP3 PUSH1 0x3 NOT CALLDATASIZE ADD SLT PUSH2 0x2C3 JUMPI DUP1 SLOAD CALLER PUSH1 0x1 PUSH1 0x1 PUSH1 0xA0 SHL SUB SWAP2 DUP3 AND EQ SWAP1 DUP2 ISZERO PUSH2 0x3F3 JUMPI JUMPDEST POP ISZERO PUSH2 0x3C0 JUMPI PUSH1 0x7 SLOAD PUSH2 0x37E JUMPI PUSH1 0x9 SLOAD SWAP1 PUSH1 0xFF DUP3 PUSH1 0x8 SHR AND PUSH2 0x347 JUMPI POP PUSH2 0xFF00 NOT AND PUSH2 0x100 OR PUSH1 0x9 SSTORE MLOAD TIMESTAMP DUP2 MSTORE PUSH32 0x2E9842040508F80E6420769A8673529EB3AF5B952F53AF83D9C9D3432DA78046 SWAP1 PUSH1 0x20 SWAP1 LOG1 DUP1 RETURN JUMPDEST PUSH1 0x64 SWAP1 PUSH1 0x20 DUP5 MLOAD SWAP2 PUSH3 0x461BCD PUSH1 0xE5 SHL DUP4 MSTORE DUP3 ADD MSTORE PUSH1 0x11 PUSH1 0x24 DUP3 ADD MSTORE PUSH17 0x105B1C9958591E4818D85B98D95B1B1959 PUSH1 0x7A SHL PUSH1 0x44 DUP3 ADD MSTORE REVERT JUMPDEST PUSH1 0x20 PUSH1 0x64 SWAP3 MLOAD SWAP2 PUSH3 0x461BCD PUSH1 0xE5 SHL DUP4 MSTORE DUP3 ADD MSTORE PUSH1 0x1B PUSH1 0x24 DUP3 ADD MSTORE PUSH32 0x43616E6E6F742063616E63656C206166746572207061796D656E740000000000 PUSH1 0x44 DUP3 ADD MSTORE REVERT JUMPDEST PUSH1 0x20 PUSH1 0x64 SWAP3 MLOAD SWAP2 PUSH3 0x461BCD PUSH1 0xE5 SHL DUP4 MSTORE DUP3 ADD MSTORE PUSH1 0xE PUSH1 0x24 DUP3 ADD MSTORE PUSH14 0x139BDD08185D5D1A1BDC9A5E9959 PUSH1 0x92 SHL PUSH1 0x44 DUP3 ADD MSTORE REVERT JUMPDEST SWAP1 POP DUP4 SLOAD AND CALLER EQ CODESIZE PUSH2 0x2F1 JUMP JUMPDEST POP SWAP2 CALLVALUE PUSH2 0x2C3 JUMPI DUP3 PUSH1 0x3 NOT CALLDATASIZE ADD SLT PUSH2 0x2C3 JUMPI PUSH2 0x41A PUSH2 0x2008 JUMP JUMPDEST PUSH1 0xFF SWAP2 PUSH2 0x42A DUP4 PUSH1 0x9 SLOAD AND PUSH2 0x2038 JUMP JUMPDEST PUSH1 0xA SWAP3 DUP4 SLOAD ISZERO PUSH2 0x59C JUMPI PUSH1 0x7 SWAP1 DUP2 SLOAD SWAP3 DUP7 JUMPDEST DUP7 SLOAD DUP2 LT ISZERO PUSH2 0x4E8 JUMPI PUSH2 0x457 PUSH2 0x451 DUP3 PUSH2 0x1DCD JUMP JUMPDEST POP PUSH2 0x208B JUMP JUMPDEST DUP1 DUP8 ADD DUP1 MLOAD ISZERO PUSH2 0x4CE JUMPI MLOAD JUMPDEST DUP7 DUP2 GT PUSH2 0x4C7 JUMPI JUMPDEST DUP1 PUSH2 0x481 JUMPI JUMPDEST POP POP PUSH2 0x47C SWAP1 PUSH2 0x207C JUMP JUMPDEST PUSH2 0x43C JUMP JUMPDEST PUSH1 0x0 DUP1 MLOAD PUSH1 0x20 PUSH2 0x229F DUP4 CODECOPY DUP2 MLOAD SWAP2 MSTORE PUSH1 0x20 DUP4 PUSH2 0x4B6 DUP5 PUSH2 0x47C SWAP8 SWAP7 SWAP12 PUSH2 0x4B1 DUP3 PUSH1 0x1 DUP1 PUSH1 0xA0 SHL SUB DUP1 SWAP7 MLOAD AND PUSH2 0x2159 JUMP JUMPDEST PUSH2 0x202B JUMP JUMPDEST SWAP10 MLOAD AND SWAP3 DUP11 MLOAD SWAP1 DUP2 MSTORE LOG2 SWAP1 CODESIZE PUSH2 0x471 JUMP JUMPDEST POP DUP6 PUSH2 0x46B JUMP JUMPDEST POP PUSH2 0x2710 PUSH2 0x4E2 DUP7 SLOAD PUSH1 0x20 DUP5 ADD MLOAD SWAP1 PUSH2 0x20CB JUMP JUMPDEST DIV PUSH2 0x463 JUMP JUMPDEST POP SWAP3 SWAP4 SWAP2 POP SWAP4 DUP4 PUSH2 0x4FC JUMPI JUMPDEST DUP6 PUSH1 0x1 DUP1 SSTORE DUP1 RETURN JUMPDEST SWAP2 SLOAD SWAP2 SLOAD PUSH1 0x1 PUSH1 0x1 PUSH1 0xA0 SHL SUB SWAP3 DUP4 AND SWAP5 DUP7 JUMPDEST DUP3 DUP2 LT PUSH2 0x549 JUMPI JUMPDEST POP POP POP SWAP1 DUP4 PUSH1 0x20 SWAP3 PUSH2 0x538 DUP6 PUSH1 0x0 DUP1 MLOAD PUSH1 0x20 PUSH2 0x229F DUP4 CODECOPY DUP2 MLOAD SWAP2 MSTORE SWAP7 SWAP8 PUSH2 0x2159 JUMP JUMPDEST MLOAD SWAP5 DUP6 MSTORE AND SWAP3 LOG2 CODESIZE DUP1 DUP1 DUP1 DUP1 PUSH2 0x4F4 JUMP JUMPDEST DUP2 PUSH1 0x3 PUSH2 0x555 DUP4 PUSH2 0x1DCD JUMP JUMPDEST POP ADD SLOAD AND PUSH2 0x56B JUMPI PUSH2 0x566 SWAP1 PUSH2 0x207C JUMP JUMPDEST PUSH2 0x50E JUMP JUMPDEST PUSH1 0x0 DUP1 MLOAD PUSH1 0x20 PUSH2 0x229F DUP4 CODECOPY DUP2 MLOAD SWAP2 MSTORE SWAP6 SWAP7 POP DUP5 SWAP4 SWAP3 POP PUSH1 0x20 SWAP5 SWAP2 POP PUSH2 0x58F SWAP1 PUSH2 0x1DCD JUMP JUMPDEST POP SLOAD AND SWAP5 SWAP4 DUP2 SWAP3 SWAP4 PUSH2 0x516 JUMP JUMPDEST POP PUSH1 0x20 PUSH1 0x64 SWAP3 MLOAD SWAP2 PUSH3 0x461BCD PUSH1 0xE5 SHL DUP4 MSTORE DUP3 ADD MSTORE PUSH1 0x11 PUSH1 0x24 DUP3 ADD MSTORE PUSH17 0x4E6F207061796D656E742073706C697473 PUSH1 0x78 SHL PUSH1 0x44 DUP3 ADD MSTORE REVERT JUMPDEST POP DUP3 CALLVALUE PUSH2 0x213 JUMPI DUP2 PUSH1 0x3 NOT CALLDATASIZE ADD SLT PUSH2 0x213 JUMPI PUSH1 0x20 SWAP1 PUSH2 0x5F7 PUSH1 0x6 SLOAD PUSH1 0x7 SLOAD SWAP1 PUSH2 0x202B JUMP JUMPDEST SWAP1 MLOAD SWAP1 DUP2 MSTORE RETURN JUMPDEST POP SWAP2 SWAP1 PUSH1 0x20 CALLDATASIZE PUSH1 0x3 NOT ADD SLT PUSH2 0x2C3 JUMPI DUP1 CALLDATALOAD SWAP1 PUSH2 0x618 PUSH2 0x2008 JUMP JUMPDEST PUSH1 0x9 SLOAD SWAP1 PUSH1 0xFF DUP3 AND PUSH2 0x758 JUMPI PUSH2 0x634 PUSH1 0xFF DUP4 PUSH1 0x8 SHR AND ISZERO PUSH2 0x1E49 JUMP JUMPDEST DUP3 ISZERO PUSH2 0x720 JUMPI PUSH2 0x646 DUP4 PUSH1 0x7 SLOAD PUSH2 0x1E89 JUMP JUMPDEST PUSH1 0x6 SLOAD LT PUSH2 0x6E6 JUMPI POP PUSH1 0x18 SHR PUSH1 0x1 PUSH1 0x1 PUSH1 0xA0 SHL SUB AND DUP2 DUP2 PUSH2 0x6CA JUMPI PUSH2 0x66D SWAP2 POP CALLVALUE EQ PUSH2 0x1F02 JUMP JUMPDEST PUSH32 0x5677B5D4CF976AC32DEFBD95A6A5AAF0D1FEE450A11FC26F3C11AAE6E6C33D06 PUSH2 0x69A DUP3 PUSH1 0x7 SLOAD PUSH2 0x1E89 JUMP JUMPDEST SWAP3 DUP4 PUSH1 0x7 SSTORE DUP1 MLOAD SWAP3 DUP4 MSTORE TIMESTAMP PUSH1 0x20 DUP5 ADD MSTORE CALLER SWAP3 LOG2 PUSH1 0x6 SLOAD EQ PUSH2 0x6BD JUMPI JUMPDEST PUSH1 0x1 DUP1 SSTORE DUP1 RETURN JUMPDEST PUSH2 0x6C5 PUSH2 0x2120 JUMP JUMPDEST PUSH2 0x6B6 JUMP JUMPDEST PUSH2 0x6E1 SWAP2 PUSH2 0x6D8 CALLVALUE ISZERO PUSH2 0x1EAC JUMP JUMPDEST ADDRESS SWAP1 CALLER SWAP1 PUSH2 0x1F45 JUMP JUMPDEST PUSH2 0x66D JUMP JUMPDEST PUSH1 0x64 SWAP1 PUSH1 0x20 DUP6 MLOAD SWAP2 PUSH3 0x461BCD PUSH1 0xE5 SHL DUP4 MSTORE DUP3 ADD MSTORE PUSH1 0x14 PUSH1 0x24 DUP3 ADD MSTORE PUSH20 0x115E18D959591CC81D1BDD185B08185B5BDD5B9D PUSH1 0x62 SHL PUSH1 0x44 DUP3 ADD MSTORE REVERT JUMPDEST PUSH1 0x64 SWAP1 PUSH1 0x20 DUP6 MLOAD SWAP2 PUSH3 0x461BCD PUSH1 0xE5 SHL DUP4 MSTORE DUP3 ADD MSTORE PUSH1 0x12 PUSH1 0x24 DUP3 ADD MSTORE PUSH18 0x416D6F756E74206D757374206265203E203 PUSH1 0x74 SHL PUSH1 0x44 DUP3 ADD MSTORE REVERT JUMPDEST PUSH1 0x64 SWAP1 PUSH1 0x20 DUP6 MLOAD SWAP2 PUSH3 0x461BCD PUSH1 0xE5 SHL DUP4 MSTORE DUP3 ADD MSTORE PUSH1 0x19 PUSH1 0x24 DUP3 ADD MSTORE PUSH32 0x496E766F69636520616C726561647920636F6D706C6574656400000000000000 PUSH1 0x44 DUP3 ADD MSTORE REVERT JUMPDEST POP DUP3 CALLVALUE PUSH2 0x213 JUMPI DUP2 PUSH1 0x3 NOT CALLDATASIZE ADD SLT PUSH2 0x213 JUMPI PUSH1 0x20 SWAP1 PUSH1 0xD SLOAD SWAP1 MLOAD SWAP1 DUP2 MSTORE RETURN JUMPDEST POP SWAP1 CALLVALUE PUSH2 0x213 JUMPI PUSH1 0x20 CALLDATASIZE PUSH1 0x3 NOT ADD SLT PUSH2 0x213 JUMPI CALLDATALOAD SWAP1 PUSH1 0xA SLOAD DUP3 LT ISZERO PUSH2 0x827 JUMPI POP PUSH2 0x7E3 SWAP1 PUSH2 0x1DCD JUMP JUMPDEST POP DUP1 SLOAD PUSH1 0x1 DUP3 ADD SLOAD PUSH1 0x2 DUP4 ADD SLOAD PUSH1 0x3 SWAP1 SWAP4 ADD SLOAD SWAP4 MLOAD PUSH1 0x1 PUSH1 0x1 PUSH1 0xA0 SHL SUB SWAP1 SWAP3 AND DUP3 MSTORE PUSH1 0x20 DUP3 ADD MSTORE PUSH1 0x40 DUP2 ADD SWAP2 SWAP1 SWAP2 MSTORE PUSH1 0xFF SWAP1 SWAP2 AND ISZERO ISZERO PUSH1 0x60 DUP3 ADD MSTORE PUSH1 0x80 SWAP1 RETURN JUMPDEST SUB SWAP1 RETURN JUMPDEST DUP1 REVERT JUMPDEST POP DUP3 CALLVALUE PUSH2 0x213 JUMPI DUP2 PUSH1 0x3 NOT CALLDATASIZE ADD SLT PUSH2 0x213 JUMPI PUSH1 0x20 SWAP1 PUSH1 0xB SLOAD SWAP1 MLOAD SWAP1 DUP2 MSTORE RETURN JUMPDEST POP SWAP2 CALLVALUE PUSH2 0x2C3 JUMPI DUP3 PUSH1 0x3 NOT CALLDATASIZE ADD SLT PUSH2 0x2C3 JUMPI PUSH2 0x863 PUSH2 0x2008 JUMP JUMPDEST PUSH1 0x9 SLOAD SWAP2 PUSH2 0x883 PUSH1 0xFF DUP5 PUSH2 0x879 DUP3 DUP1 SWAP8 AND PUSH2 0x2038 JUMP JUMPDEST PUSH1 0x10 SHR AND ISZERO PUSH2 0x20DE JUMP JUMPDEST PUSH1 0x8 SLOAD PUSH3 0x278D00 DUP2 ADD DUP1 SWAP2 GT PUSH2 0xAA9 JUMPI TIMESTAMP GT ISZERO PUSH2 0xA67 JUMPI PUSH1 0xA DUP1 SLOAD SWAP1 SWAP4 SWAP1 ISZERO PUSH2 0xA24 JUMPI PUSH2 0x8AE PUSH2 0x2008 JUMP JUMPDEST PUSH2 0x8BB DUP2 PUSH1 0x9 SLOAD AND PUSH2 0x2038 JUMP JUMPDEST DUP4 SLOAD ISZERO PUSH2 0x59C JUMPI PUSH1 0x7 SWAP1 DUP2 SLOAD SWAP3 DUP7 JUMPDEST DUP7 SLOAD DUP2 LT ISZERO PUSH2 0x96B JUMPI PUSH2 0x8DF PUSH2 0x451 DUP3 PUSH2 0x1DCD JUMP JUMPDEST DUP1 DUP8 ADD DUP1 MLOAD ISZERO PUSH2 0x951 JUMPI MLOAD JUMPDEST DUP7 DUP2 GT PUSH2 0x94A JUMPI JUMPDEST DUP1 PUSH2 0x909 JUMPI JUMPDEST POP POP PUSH2 0x904 SWAP1 PUSH2 0x207C JUMP JUMPDEST PUSH2 0x8CA JUMP JUMPDEST PUSH1 0x0 DUP1 MLOAD PUSH1 0x20 PUSH2 0x229F DUP4 CODECOPY DUP2 MLOAD SWAP2 MSTORE PUSH1 0x20 DUP4 PUSH2 0x939 DUP5 PUSH2 0x904 SWAP8 SWAP7 SWAP12 PUSH2 0x4B1 DUP3 PUSH1 0x1 DUP1 PUSH1 0xA0 SHL SUB DUP1 SWAP7 MLOAD AND PUSH2 0x2159 JUMP JUMPDEST SWAP10 MLOAD AND SWAP3 DUP11 MLOAD SWAP1 DUP2 MSTORE LOG2 SWAP1 CODESIZE PUSH2 0x8F9 JUMP JUMPDEST POP DUP6 PUSH2 0x8F3 JUMP JUMPDEST POP PUSH2 0x2710 PUSH2 0x965 DUP7 SLOAD PUSH1 0x20 DUP5 ADD MLOAD SWAP1 PUSH2 0x20CB JUMP JUMPDEST DIV PUSH2 0x8EB JUMP JUMPDEST POP SWAP3 SWAP4 SWAP2 POP SWAP4 DUP4 PUSH2 0x984 JUMPI JUMPDEST POP POP PUSH1 0x1 DUP1 SSTORE POP DUP3 SWAP2 POP POP RETURN JUMPDEST SWAP2 SLOAD SWAP2 SLOAD PUSH1 0x1 PUSH1 0x1 PUSH1 0xA0 SHL SUB SWAP3 DUP4 AND SWAP5 DUP7 JUMPDEST DUP3 DUP2 LT PUSH2 0x9D1 JUMPI JUMPDEST POP POP POP SWAP1 DUP4 PUSH1 0x20 SWAP3 PUSH2 0x9C0 DUP6 PUSH1 0x0 DUP1 MLOAD PUSH1 0x20 PUSH2 0x229F DUP4 CODECOPY DUP2 MLOAD SWAP2 MSTORE SWAP7 SWAP8 PUSH2 0x2159 JUMP JUMPDEST MLOAD SWAP5 DUP6 MSTORE AND SWAP3 LOG2 CODESIZE DUP1 DUP1 DUP1 DUP1 PUSH2 0x977 JUMP JUMPDEST DUP2 PUSH1 0x3 PUSH2 0x9DD DUP4 PUSH2 0x1DCD JUMP JUMPDEST POP ADD SLOAD AND PUSH2 0x9F3 JUMPI PUSH2 0x9EE SWAP1 PUSH2 0x207C JUMP JUMPDEST PUSH2 0x996 JUMP JUMPDEST PUSH1 0x0 DUP1 MLOAD PUSH1 0x20 PUSH2 0x229F DUP4 CODECOPY DUP2 MLOAD SWAP2 MSTORE SWAP6 SWAP7 POP DUP5 SWAP4 SWAP3 POP PUSH1 0x20 SWAP5 SWAP2 POP PUSH2 0xA17 SWAP1 PUSH2 0x1DCD JUMP JUMPDEST POP SLOAD AND SWAP5 SWAP4 DUP2 SWAP3 SWAP4 PUSH2 0x99E JUMP JUMPDEST POP DUP1 SLOAD PUSH1 0x7 SLOAD SWAP3 SWAP4 POP PUSH1 0x0 DUP1 MLOAD PUSH1 0x20 PUSH2 0x229F DUP4 CODECOPY DUP2 MLOAD SWAP2 MSTORE SWAP3 PUSH1 0x20 SWAP3 PUSH1 0x1 PUSH1 0x1 PUSH1 0xA0 SHL SUB SWAP3 SWAP1 SWAP2 PUSH2 0xA56 SWAP2 DUP5 AND PUSH2 0x2159 JUMP JUMPDEST SLOAD AND SWAP3 PUSH1 0x7 SLOAD SWAP1 MLOAD SWAP1 DUP2 MSTORE LOG2 PUSH2 0x6B6 JUMP JUMPDEST PUSH1 0x20 PUSH1 0x64 SWAP3 MLOAD SWAP2 PUSH3 0x461BCD PUSH1 0xE5 SHL DUP4 MSTORE DUP3 ADD MSTORE PUSH1 0x18 PUSH1 0x24 DUP3 ADD MSTORE PUSH32 0x477261636520706572696F64206E6F7420656C61707365640000000000000000 PUSH1 0x44 DUP3 ADD MSTORE REVERT JUMPDEST PUSH4 0x4E487B71 PUSH1 0xE0 SHL DUP6 MSTORE PUSH1 0x11 DUP3 MSTORE PUSH1 0x24 DUP6 REVERT JUMPDEST POP DUP3 CALLVALUE PUSH2 0x213 JUMPI DUP2 PUSH1 0x3 NOT CALLDATASIZE ADD SLT PUSH2 0x213 JUMPI PUSH1 0x20 SWAP1 PUSH1 0xA SLOAD SWAP1 MLOAD SWAP1 DUP2 MSTORE RETURN JUMPDEST POP CALLVALUE PUSH2 0x827 JUMPI PUSH1 0x20 CALLDATASIZE PUSH1 0x3 NOT ADD SLT PUSH2 0x827 JUMPI POP DUP1 CALLDATALOAD SWAP1 PUSH1 0xA SLOAD DUP3 LT ISZERO PUSH2 0xB3E JUMPI POP PUSH2 0x451 PUSH2 0xB08 SWAP2 PUSH2 0x1DCD JUMP JUMPDEST DUP1 MLOAD PUSH1 0x20 DUP1 DUP4 ADD MLOAD DUP5 DUP5 ADD MLOAD PUSH1 0x60 SWAP5 DUP6 ADD MLOAD SWAP6 MLOAD PUSH1 0x1 PUSH1 0x1 PUSH1 0xA0 SHL SUB SWAP1 SWAP5 AND DUP5 MSTORE SWAP2 DUP4 ADD MSTORE PUSH1 0x40 DUP3 ADD MSTORE SWAP2 ISZERO ISZERO SWAP1 DUP3 ADD MSTORE PUSH1 0x80 SWAP1 RETURN JUMPDEST PUSH1 0x64 SWAP1 PUSH1 0x20 DUP5 MLOAD SWAP2 PUSH3 0x461BCD PUSH1 0xE5 SHL DUP4 MSTORE DUP3 ADD MSTORE PUSH1 0xD PUSH1 0x24 DUP3 ADD MSTORE PUSH13 0x92DCECC2D8D2C840D2DCC8CAF PUSH1 0x9B SHL PUSH1 0x44 DUP3 ADD MSTORE REVERT JUMPDEST POP SWAP2 DUP3 PUSH1 0x3 NOT CALLDATASIZE ADD SLT PUSH2 0x2C3 JUMPI PUSH2 0xB86 PUSH2 0x2008 JUMP JUMPDEST PUSH2 0xB95 PUSH1 0x6 SLOAD PUSH1 0x7 SLOAD SWAP1 PUSH2 0x202B JUMP JUMPDEST SWAP2 DUP3 ISZERO PUSH2 0xC10 JUMPI POP PUSH1 0x9 SLOAD PUSH32 0x5677B5D4CF976AC32DEFBD95A6A5AAF0D1FEE450A11FC26F3C11AAE6E6C33D06 SWAP2 SWAP1 PUSH1 0x18 SHR PUSH1 0x1 PUSH1 0x1 PUSH1 0xA0 SHL SUB AND DUP4 DUP2 PUSH2 0xBFD JUMPI PUSH2 0xBE1 SWAP2 POP CALLVALUE EQ PUSH2 0x1F02 JUMP JUMPDEST PUSH1 0x6 SLOAD PUSH1 0x7 SSTORE DUP1 MLOAD SWAP3 DUP4 MSTORE TIMESTAMP PUSH1 0x20 DUP5 ADD MSTORE CALLER SWAP3 LOG2 PUSH2 0x6B6 PUSH2 0x2120 JUMP JUMPDEST PUSH2 0xC0B SWAP2 PUSH2 0x6D8 CALLVALUE ISZERO PUSH2 0x1EAC JUMP JUMPDEST PUSH2 0xBE1 JUMP JUMPDEST PUSH1 0x20 PUSH1 0x64 SWAP3 MLOAD SWAP2 PUSH3 0x461BCD PUSH1 0xE5 SHL DUP4 MSTORE DUP3 ADD MSTORE PUSH1 0x12 PUSH1 0x24 DUP3 ADD MSTORE PUSH18 0x105B1C9958591E48199D5B1B1E481C185A59 PUSH1 0x72 SHL PUSH1 0x44 DUP3 ADD MSTORE REVERT JUMPDEST POP DUP3 CALLVALUE PUSH2 0x213 JUMPI DUP2 PUSH1 0x3 NOT CALLDATASIZE ADD SLT PUSH2 0x213 JUMPI PUSH1 0x20 SWAP1 PUSH1 0xFF PUSH1 0x9 SLOAD PUSH1 0x8 SHR AND SWAP1 MLOAD SWAP1 ISZERO ISZERO DUP2 MSTORE RETURN JUMPDEST POP DUP3 CALLVALUE PUSH2 0x213 JUMPI DUP2 PUSH1 0x3 NOT CALLDATASIZE ADD SLT PUSH2 0x213 JUMPI SWAP1 SLOAD SWAP1 MLOAD PUSH1 0x1 PUSH1 0x1 PUSH1 0xA0 SHL SUB SWAP1 SWAP2 AND DUP2 MSTORE PUSH1 0x20 SWAP1 RETURN JUMPDEST POP SWAP2 CALLVALUE PUSH2 0x2C3 JUMPI PUSH1 0x20 DUP1 PUSH1 0x3 NOT CALLDATASIZE ADD SLT PUSH2 0xFD9 JUMPI DUP3 CALLDATALOAD SWAP1 DUP2 ISZERO ISZERO SWAP5 DUP6 DUP4 SUB PUSH2 0x827 JUMPI PUSH1 0xC SLOAD PUSH1 0x1 PUSH1 0x1 PUSH1 0xA0 SHL SUB SWAP1 DUP2 AND CALLER EQ DUP1 ISZERO PUSH2 0xFCD JUMPI JUMPDEST ISZERO PUSH2 0xF9B JUMPI PUSH1 0x9 SLOAD SWAP4 PUSH1 0xFF SWAP5 DUP6 DUP2 PUSH1 0x10 SHR AND ISZERO PUSH2 0xF64 JUMPI PUSH3 0xFF0000 NOT AND PUSH1 0x9 SSTORE ISZERO PUSH2 0xF1C JUMPI PUSH1 0xA DUP1 SLOAD SWAP1 SWAP5 SWAP1 ISZERO PUSH2 0xED7 JUMPI PUSH2 0xD08 PUSH2 0x2008 JUMP JUMPDEST PUSH2 0xD15 DUP2 PUSH1 0x9 SLOAD AND PUSH2 0x2038 JUMP JUMPDEST DUP5 SLOAD ISZERO PUSH2 0xEA0 JUMPI PUSH1 0x7 SWAP8 DUP9 SLOAD SWAP6 DUP5 JUMPDEST DUP2 SLOAD DUP2 LT ISZERO PUSH2 0xDBC JUMPI PUSH2 0xD39 PUSH2 0x451 DUP3 PUSH2 0x1DCD JUMP JUMPDEST DUP1 DUP11 ADD DUP1 MLOAD ISZERO PUSH2 0xDA3 JUMPI MLOAD JUMPDEST DUP10 DUP2 GT PUSH2 0xD9C JUMPI JUMPDEST DUP1 PUSH2 0xD63 JUMPI JUMPDEST POP POP PUSH2 0xD5E SWAP1 PUSH2 0x207C JUMP JUMPDEST PUSH2 0xD24 JUMP JUMPDEST PUSH1 0x0 DUP1 MLOAD PUSH1 0x20 PUSH2 0x229F DUP4 CODECOPY DUP2 MLOAD SWAP2 MSTORE DUP10 DUP9 PUSH2 0xD8B DUP5 DUP7 SWAP15 PUSH2 0x4B1 DUP3 DUP6 PUSH2 0xD5E SWAP12 SWAP11 MLOAD AND PUSH2 0x2159 JUMP JUMPDEST SWAP13 MLOAD AND SWAP3 DUP14 MLOAD SWAP1 DUP2 MSTORE LOG2 SWAP1 CODESIZE PUSH2 0xD53 JUMP JUMPDEST POP DUP9 PUSH2 0xD4D JUMP JUMPDEST POP PUSH2 0x2710 PUSH2 0xDB6 DUP14 SLOAD DUP11 DUP5 ADD MLOAD SWAP1 PUSH2 0x20CB JUMP JUMPDEST DIV PUSH2 0xD45 JUMP JUMPDEST POP SWAP2 SWAP8 SWAP1 SWAP6 SWAP4 SWAP9 POP DUP4 PUSH2 0xDF2 JUMPI JUMPDEST POP POP POP POP PUSH1 0x0 DUP1 MLOAD PUSH1 0x20 PUSH2 0x22BF DUP4 CODECOPY DUP2 MLOAD SWAP2 MSTORE SWAP4 POP PUSH1 0x1 DUP1 SSTORE JUMPDEST DUP3 MLOAD SWAP2 DUP3 MSTORE TIMESTAMP SWAP1 DUP3 ADD MSTORE LOG1 DUP1 RETURN JUMPDEST SLOAD SWAP1 SLOAD SWAP1 DUP3 AND SWAP7 DUP9 JUMPDEST DUP3 DUP2 LT PUSH2 0xE42 JUMPI JUMPDEST POP POP POP DUP3 PUSH1 0x0 DUP1 MLOAD PUSH1 0x20 PUSH2 0x229F DUP4 CODECOPY DUP2 MLOAD SWAP2 MSTORE SWAP2 DUP8 PUSH2 0xE31 DUP6 PUSH1 0x0 DUP1 MLOAD PUSH1 0x20 PUSH2 0x22BF DUP4 CODECOPY DUP2 MLOAD SWAP2 MSTORE SWAP11 PUSH2 0x2159 JUMP JUMPDEST DUP8 MLOAD SWAP5 DUP6 MSTORE AND SWAP3 LOG2 CODESIZE DUP1 DUP1 DUP1 PUSH2 0xDCA JUMP JUMPDEST DUP2 PUSH1 0x3 PUSH2 0xE4E DUP4 PUSH2 0x1DCD JUMP JUMPDEST POP ADD SLOAD AND PUSH2 0xE64 JUMPI PUSH2 0xE5F SWAP1 PUSH2 0x207C JUMP JUMPDEST PUSH2 0xDFB JUMP JUMPDEST PUSH1 0x0 DUP1 MLOAD PUSH1 0x20 PUSH2 0x22BF DUP4 CODECOPY DUP2 MLOAD SWAP2 MSTORE SWAP9 POP DUP6 SWAP3 POP DUP4 SWAP2 POP SWAP3 PUSH2 0xE94 PUSH1 0x0 DUP1 MLOAD PUSH1 0x20 PUSH2 0x229F DUP4 CODECOPY DUP2 MLOAD SWAP2 MSTORE SWAP5 PUSH2 0x1DCD JUMP JUMPDEST POP SLOAD AND SWAP8 DUP2 SWAP4 POP PUSH2 0xE03 JUMP JUMPDEST DUP6 MLOAD PUSH3 0x461BCD PUSH1 0xE5 SHL DUP2 MSTORE DUP1 DUP9 ADD DUP6 SWAP1 MSTORE PUSH1 0x11 PUSH1 0x24 DUP3 ADD MSTORE PUSH17 0x4E6F207061796D656E742073706C697473 PUSH1 0x78 SHL PUSH1 0x44 DUP3 ADD MSTORE PUSH1 0x64 SWAP1 REVERT JUMPDEST POP SWAP1 SWAP6 SWAP3 POP DUP5 PUSH2 0xEFC DUP3 PUSH1 0x0 DUP1 MLOAD PUSH1 0x20 PUSH2 0x22BF DUP4 CODECOPY DUP2 MLOAD SWAP2 MSTORE SWAP8 SLOAD AND PUSH1 0x7 SLOAD SWAP1 PUSH2 0x2159 JUMP JUMPDEST SLOAD AND PUSH1 0x0 DUP1 MLOAD PUSH1 0x20 PUSH2 0x229F DUP4 CODECOPY DUP2 MLOAD SWAP2 MSTORE DUP3 PUSH1 0x7 SLOAD DUP7 MLOAD SWAP1 DUP2 MSTORE LOG2 PUSH2 0xDE4 JUMP JUMPDEST SWAP1 SWAP6 SWAP3 POP PUSH1 0x0 DUP1 MLOAD PUSH1 0x20 PUSH2 0x22BF DUP4 CODECOPY DUP2 MLOAD SWAP2 MSTORE SWAP5 POP PUSH2 0xF42 DUP2 PUSH1 0x5 SLOAD AND PUSH1 0x7 SLOAD SWAP1 PUSH2 0x2159 JUMP JUMPDEST PUSH1 0x5 SLOAD AND PUSH1 0x0 DUP1 MLOAD PUSH1 0x20 PUSH2 0x229F DUP4 CODECOPY DUP2 MLOAD SWAP2 MSTORE DUP3 PUSH1 0x7 SLOAD DUP7 MLOAD SWAP1 DUP2 MSTORE LOG2 PUSH2 0xDE4 JUMP JUMPDEST DUP7 MLOAD PUSH3 0x461BCD PUSH1 0xE5 SHL DUP2 MSTORE DUP1 DUP10 ADD DUP7 SWAP1 MSTORE PUSH1 0x11 PUSH1 0x24 DUP3 ADD MSTORE PUSH17 0x4E6F206163746976652064697370757465 PUSH1 0x78 SHL PUSH1 0x44 DUP3 ADD MSTORE PUSH1 0x64 SWAP1 REVERT JUMPDEST DUP5 MLOAD PUSH3 0x461BCD PUSH1 0xE5 SHL DUP2 MSTORE DUP1 DUP8 ADD DUP5 SWAP1 MSTORE PUSH1 0xC PUSH1 0x24 DUP3 ADD MSTORE PUSH12 0x27B7363C9030B93134BA32B9 PUSH1 0xA1 SHL PUSH1 0x44 DUP3 ADD MSTORE PUSH1 0x64 SWAP1 REVERT JUMPDEST POP DUP1 DUP3 SLOAD AND CALLER EQ PUSH2 0xCCF JUMP JUMPDEST DUP4 DUP1 REVERT JUMPDEST POP DUP3 CALLVALUE PUSH2 0x213 JUMPI DUP2 PUSH1 0x3 NOT CALLDATASIZE ADD SLT PUSH2 0x213 JUMPI DUP1 MLOAD SWAP1 DUP3 PUSH1 0xE SLOAD PUSH2 0xFFF DUP2 PUSH2 0x1CDB JUMP JUMPDEST DUP1 DUP6 MSTORE SWAP2 PUSH1 0x1 SWAP2 DUP1 DUP4 AND SWAP1 DUP2 ISZERO PUSH2 0x1092 JUMPI POP PUSH1 0x1 EQ PUSH2 0x1035 JUMPI JUMPDEST POP POP POP PUSH2 0x102B DUP3 PUSH2 0x823 SWAP5 SUB DUP4 PUSH2 0x1D47 JUMP JUMPDEST MLOAD SWAP2 DUP3 SWAP2 DUP3 PUSH2 0x1D69 JUMP JUMPDEST SWAP5 POP PUSH1 0xE DUP6 MSTORE PUSH32 0xBB7B4A454DC3493923482F07822329ED19E8244EFF582CC204F8554C3620C3FD JUMPDEST DUP3 DUP7 LT PUSH2 0x107A JUMPI POP POP POP PUSH2 0x102B DUP3 PUSH1 0x20 PUSH2 0x823 SWAP6 DUP3 ADD ADD SWAP5 PUSH2 0x1019 JUMP JUMPDEST DUP1 SLOAD PUSH1 0x20 DUP8 DUP8 ADD DUP2 ADD SWAP2 SWAP1 SWAP2 MSTORE SWAP1 SWAP6 ADD SWAP5 DUP2 ADD PUSH2 0x105D JUMP JUMPDEST PUSH2 0x823 SWAP8 POP DUP7 SWAP4 POP PUSH1 0x20 SWAP3 POP PUSH2 0x102B SWAP5 SWAP2 POP PUSH1 0xFF NOT AND DUP3 DUP5 ADD MSTORE ISZERO ISZERO PUSH1 0x5 SHL DUP3 ADD ADD SWAP5 PUSH2 0x1019 JUMP JUMPDEST POP DUP3 CALLVALUE PUSH2 0x213 JUMPI DUP2 PUSH1 0x3 NOT CALLDATASIZE ADD SLT PUSH2 0x213 JUMPI PUSH1 0x20 SWAP1 PUSH1 0x8 SLOAD SWAP1 MLOAD SWAP1 DUP2 MSTORE RETURN JUMPDEST POP SWAP2 CALLVALUE PUSH2 0x2C3 JUMPI PUSH1 0x20 SWAP1 DUP2 PUSH1 0x3 NOT CALLDATASIZE ADD SLT PUSH2 0xFD9 JUMPI DUP3 CALLDATALOAD SWAP2 PUSH8 0xFFFFFFFFFFFFFFFF SWAP4 DUP5 DUP5 GT PUSH2 0x140A JUMPI CALLDATASIZE PUSH1 0x23 DUP6 ADD SLT ISZERO PUSH2 0x140A JUMPI DUP4 DUP2 ADD CALLDATALOAD SWAP5 DUP6 GT PUSH2 0x140A JUMPI PUSH1 0x24 SWAP1 CALLDATASIZE DUP3 DUP8 DUP8 ADD ADD GT PUSH2 0x1406 JUMPI PUSH1 0x9 SLOAD SWAP1 PUSH1 0xFF DUP3 AND ISZERO DUP1 ISZERO PUSH2 0x13FB JUMPI JUMPDEST ISZERO PUSH2 0x13C4 JUMPI PUSH2 0x114B PUSH1 0xFF DUP4 PUSH1 0x8 SHR AND ISZERO PUSH2 0x1E49 JUMP JUMPDEST PUSH1 0xFF DUP3 PUSH1 0x10 SHR AND PUSH2 0x138F JUMPI DUP1 SLOAD CALLER PUSH1 0x1 PUSH1 0x1 PUSH1 0xA0 SHL SUB SWAP2 DUP3 AND EQ SWAP1 DUP2 ISZERO PUSH2 0x1381 JUMPI JUMPDEST POP ISZERO PUSH2 0x133F JUMPI POP SWAP1 PUSH3 0x10000 DUP7 SWAP3 PUSH3 0xFF0000 NOT AND OR PUSH1 0x9 SSTORE TIMESTAMP PUSH1 0xD SSTORE PUSH2 0x1194 PUSH1 0xE SLOAD PUSH2 0x1CDB JUMP JUMPDEST PUSH1 0x1F DUP2 GT PUSH2 0x12D2 JUMPI JUMPDEST POP DUP7 SWAP5 PUSH1 0x1F DUP4 GT PUSH1 0x1 EQ PUSH2 0x122B JUMPI DUP3 DUP3 PUSH32 0xD4882C6B71DFBB8DF0A01FA4CD97676F243A56DD525DF6B891B2E1700E514E89 SWAP8 DUP11 SWAP3 PUSH2 0x121E JUMPI JUMPDEST POP POP DUP4 PUSH1 0x1 SHL SWAP1 PUSH1 0x0 NOT DUP6 PUSH1 0x3 SHL SHR NOT AND OR PUSH1 0xE SSTORE JUMPDEST DUP3 DUP6 MLOAD SWAP6 DUP1 DUP8 MSTORE DUP7 ADD MSTORE ADD PUSH1 0x60 DUP5 ADD CALLDATACOPY DUP5 PUSH1 0x60 DUP6 DUP5 ADD ADD MSTORE TIMESTAMP SWAP1 DUP3 ADD MSTORE PUSH1 0x60 DUP2 CALLER SWAP5 PUSH1 0x1F DUP1 NOT SWAP2 ADD AND DUP2 ADD SUB ADD SWAP1 LOG2 DUP1 RETURN JUMPDEST DUP4 ADD ADD CALLDATALOAD SWAP1 POP DUP3 CODESIZE PUSH2 0x11D6 JUMP JUMPDEST PUSH1 0xE DUP9 MSTORE PUSH1 0x1F NOT DUP4 AND SWAP6 PUSH32 0xBB7B4A454DC3493923482F07822329ED19E8244EFF582CC204F8554C3620C3FD SWAP1 DUP10 JUMPDEST DUP9 DUP2 LT PUSH2 0x12B6 JUMPI POP DUP5 PUSH32 0xD4882C6B71DFBB8DF0A01FA4CD97676F243A56DD525DF6B891B2E1700E514E89 SWAP9 LT PUSH2 0x129A JUMPI JUMPDEST POP POP PUSH1 0x1 DUP4 DUP2 SHL ADD PUSH1 0xE SSTORE PUSH2 0x11EC JUMP JUMPDEST DUP3 ADD DUP4 ADD CALLDATALOAD PUSH1 0x0 NOT PUSH1 0x3 DUP7 SWAP1 SHL PUSH1 0xF8 AND SHR NOT AND SWAP1 SSTORE CODESIZE DUP1 PUSH2 0x128A JUMP JUMPDEST DUP4 DUP3 ADD DUP6 ADD CALLDATALOAD DUP4 SSTORE DUP10 SWAP6 POP PUSH1 0x1 SWAP1 SWAP3 ADD SWAP2 SWAP1 DUP7 ADD SWAP1 DUP7 ADD PUSH2 0x1259 JUMP JUMPDEST SWAP1 SWAP2 POP PUSH1 0xE DUP8 MSTORE PUSH32 0xBB7B4A454DC3493923482F07822329ED19E8244EFF582CC204F8554C3620C3FD PUSH1 0x1F DUP8 ADD PUSH1 0x5 SHR DUP2 ADD SWAP2 DUP5 DUP9 LT PUSH2 0x1335 JUMPI JUMPDEST SWAP1 PUSH1 0x1F DUP9 SWAP5 SWAP4 SWAP3 ADD PUSH1 0x5 SHR ADD SWAP1 JUMPDEST DUP2 DUP2 LT PUSH2 0x1327 JUMPI POP PUSH2 0x119D JUMP JUMPDEST DUP9 DUP2 SSTORE DUP8 SWAP4 POP PUSH1 0x1 ADD PUSH2 0x131A JUMP JUMPDEST SWAP1 SWAP2 POP DUP2 SWAP1 PUSH2 0x130C JUMP JUMPDEST DUP5 MLOAD PUSH3 0x461BCD PUSH1 0xE5 SHL DUP2 MSTORE SWAP1 DUP2 ADD DUP5 SWAP1 MSTORE PUSH1 0x18 DUP2 DUP5 ADD MSTORE PUSH32 0x4F6E6C7920706172746965732063616E20646973707574650000000000000000 PUSH1 0x44 DUP3 ADD MSTORE PUSH1 0x64 SWAP1 REVERT JUMPDEST SWAP1 POP PUSH1 0x5 SLOAD AND CALLER EQ CODESIZE PUSH2 0x116D JUMP JUMPDEST DUP5 MLOAD PUSH3 0x461BCD PUSH1 0xE5 SHL DUP2 MSTORE SWAP1 DUP2 ADD DUP5 SWAP1 MSTORE PUSH1 0x10 DUP2 DUP5 ADD MSTORE PUSH16 0x105B1C9958591E48191A5CDC1D5D1959 PUSH1 0x82 SHL PUSH1 0x44 DUP3 ADD MSTORE PUSH1 0x64 SWAP1 REVERT JUMPDEST DUP5 MLOAD PUSH3 0x461BCD PUSH1 0xE5 SHL DUP2 MSTORE SWAP1 DUP2 ADD DUP5 SWAP1 MSTORE PUSH1 0x12 DUP2 DUP5 ADD MSTORE PUSH18 0x4E6F7468696E6720746F2064697370757465 PUSH1 0x70 SHL PUSH1 0x44 DUP3 ADD MSTORE PUSH1 0x64 SWAP1 REVERT JUMPDEST POP PUSH1 0x7 SLOAD ISZERO ISZERO PUSH2 0x1136 JUMP JUMPDEST DUP7 DUP1 REVERT JUMPDEST DUP6 DUP1 REVERT JUMPDEST POP DUP3 CALLVALUE PUSH2 0x213 JUMPI DUP2 PUSH1 0x3 NOT CALLDATASIZE ADD SLT PUSH2 0x213 JUMPI PUSH1 0x5 SLOAD SWAP1 MLOAD PUSH1 0x1 PUSH1 0x1 PUSH1 0xA0 SHL SUB SWAP1 SWAP2 AND DUP2 MSTORE PUSH1 0x20 SWAP1 RETURN JUMPDEST POP CALLVALUE PUSH2 0x827 JUMPI DUP1 PUSH1 0x3 NOT CALLDATASIZE ADD SLT PUSH2 0x827 JUMPI PUSH2 0x1450 PUSH2 0x1E1D JUMP JUMPDEST DUP1 SLOAD PUSH1 0x1 PUSH1 0x1 PUSH1 0xA0 SHL SUB NOT DUP2 AND DUP3 SSTORE DUP2 SWAP1 PUSH1 0x1 PUSH1 0x1 PUSH1 0xA0 SHL SUB AND PUSH32 0x8BE0079C531659141344CD1FD0A4F28419497F9722A3DAAFE3B4186F6B6457E0 DUP3 DUP1 LOG3 DUP1 RETURN JUMPDEST POP DUP3 CALLVALUE PUSH2 0x213 JUMPI DUP2 PUSH1 0x3 NOT CALLDATASIZE ADD SLT PUSH2 0x213 JUMPI DUP1 MLOAD SWAP1 DUP3 PUSH1 0x2 SLOAD PUSH2 0x14B3 DUP2 PUSH2 0x1CDB JUMP JUMPDEST DUP1 DUP6 MSTORE SWAP2 PUSH1 0x1 SWAP2 DUP1 DUP4 AND SWAP1 DUP2 ISZERO PUSH2 0x1092 JUMPI POP PUSH1 0x1 EQ PUSH2 0x14DE JUMPI POP POP POP PUSH2 0x102B DUP3 PUSH2 0x823 SWAP5 SUB DUP4 PUSH2 0x1D47 JUMP JUMPDEST SWAP5 POP PUSH1 0x2 DUP6 MSTORE PUSH32 0x405787FA12A823E0F2B7631CC41B3BA8828B3321CA811111FA75CD3AA3BB5ACE JUMPDEST DUP3 DUP7 LT PUSH2 0x1523 JUMPI POP POP POP PUSH2 0x102B DUP3 PUSH1 0x20 PUSH2 0x823 SWAP6 DUP3 ADD ADD SWAP5 PUSH2 0x1019 JUMP JUMPDEST DUP1 SLOAD PUSH1 0x20 DUP8 DUP8 ADD DUP2 ADD SWAP2 SWAP1 SWAP2 MSTORE SWAP1 SWAP6 ADD SWAP5 DUP2 ADD PUSH2 0x1506 JUMP JUMPDEST POP SWAP2 CALLVALUE PUSH2 0x2C3 JUMPI DUP3 PUSH1 0x3 NOT CALLDATASIZE ADD SLT PUSH2 0x2C3 JUMPI PUSH2 0x1555 PUSH2 0x2008 JUMP JUMPDEST PUSH1 0x9 SLOAD SWAP3 PUSH2 0x156B PUSH1 0xFF DUP6 PUSH2 0x879 DUP3 DUP1 SWAP9 AND PUSH2 0x2038 JUMP JUMPDEST DUP1 SLOAD PUSH1 0x1 PUSH1 0x1 PUSH1 0xA0 SHL SUB SWAP1 DUP2 AND CALLER EQ DUP1 ISZERO PUSH2 0x17D9 JUMPI JUMPDEST DUP1 ISZERO PUSH2 0x17AE JUMPI JUMPDEST ISZERO PUSH2 0x176B JUMPI PUSH1 0xA DUP1 SLOAD SWAP1 SWAP2 SWAP1 ISZERO PUSH2 0x1743 JUMPI PUSH2 0x15A1 PUSH2 0x2008 JUMP JUMPDEST PUSH2 0x15AE DUP7 PUSH1 0x9 SLOAD AND PUSH2 0x2038 JUMP JUMPDEST DUP2 SLOAD ISZERO PUSH2 0x170C JUMPI PUSH1 0x7 SWAP6 DUP7 SLOAD SWAP3 DUP5 JUMPDEST DUP2 SLOAD DUP2 LT ISZERO PUSH2 0x1657 JUMPI PUSH2 0x15D2 PUSH2 0x451 DUP3 PUSH2 0x1DCD JUMP JUMPDEST DUP1 DUP9 ADD DUP1 MLOAD ISZERO PUSH2 0x163D JUMPI MLOAD JUMPDEST DUP7 DUP2 GT PUSH2 0x1636 JUMPI JUMPDEST DUP1 PUSH2 0x15FC JUMPI JUMPDEST POP POP PUSH2 0x15F7 SWAP1 PUSH2 0x207C JUMP JUMPDEST PUSH2 0x15BD JUMP JUMPDEST PUSH1 0x0 DUP1 MLOAD PUSH1 0x20 PUSH2 0x229F DUP4 CODECOPY DUP2 MLOAD SWAP2 MSTORE PUSH1 0x20 DUP8 PUSH2 0x1625 DUP5 DUP7 SWAP12 PUSH2 0x4B1 DUP3 DUP6 PUSH2 0x15F7 SWAP12 SWAP11 MLOAD AND PUSH2 0x2159 JUMP JUMPDEST SWAP10 MLOAD AND SWAP3 DUP12 MLOAD SWAP1 DUP2 MSTORE LOG2 SWAP1 CODESIZE PUSH2 0x15EC JUMP JUMPDEST POP DUP6 PUSH2 0x15E6 JUMP JUMPDEST POP PUSH2 0x2710 PUSH2 0x1651 DUP12 SLOAD PUSH1 0x20 DUP5 ADD MLOAD SWAP1 PUSH2 0x20CB JUMP JUMPDEST DIV PUSH2 0x15DE JUMP JUMPDEST POP SWAP2 SWAP4 SWAP7 POP SWAP5 SWAP4 SWAP2 SWAP4 DUP5 PUSH2 0x1674 JUMPI JUMPDEST POP POP PUSH1 0x1 DUP1 SSTORE POP DUP4 SWAP3 POP POP POP RETURN JUMPDEST SLOAD SWAP1 SLOAD SWAP1 DUP4 AND SWAP5 DUP7 JUMPDEST DUP3 DUP2 LT PUSH2 0x16B9 JUMPI JUMPDEST POP POP POP SWAP1 DUP4 PUSH1 0x20 SWAP3 PUSH2 0x16A7 DUP6 PUSH1 0x0 DUP1 MLOAD PUSH1 0x20 PUSH2 0x229F DUP4 CODECOPY DUP2 MLOAD SWAP2 MSTORE SWAP7 SWAP8 PUSH2 0x2159 JUMP JUMPDEST MLOAD SWAP5 DUP6 MSTORE AND SWAP3 LOG2 CODESIZE DUP1 DUP1 DUP1 DUP1 DUP1 PUSH2 0x1666 JUMP JUMPDEST DUP2 PUSH1 0x3 PUSH2 0x16C5 DUP4 PUSH2 0x1DCD JUMP JUMPDEST POP ADD SLOAD AND PUSH2 0x16DB JUMPI PUSH2 0x16D6 SWAP1 PUSH2 0x207C JUMP JUMPDEST PUSH2 0x167D JUMP JUMPDEST PUSH1 0x0 DUP1 MLOAD PUSH1 0x20 PUSH2 0x229F DUP4 CODECOPY DUP2 MLOAD SWAP2 MSTORE SWAP6 SWAP7 POP DUP5 SWAP4 SWAP3 POP PUSH1 0x20 SWAP5 SWAP2 POP PUSH2 0x16FF SWAP1 PUSH2 0x1DCD JUMP JUMPDEST POP SLOAD AND SWAP5 SWAP4 DUP2 SWAP3 SWAP4 PUSH2 0x1685 JUMP JUMPDEST DUP4 MLOAD PUSH3 0x461BCD PUSH1 0xE5 SHL DUP2 MSTORE PUSH1 0x20 DUP2 DUP8 ADD MSTORE PUSH1 0x11 PUSH1 0x24 DUP3 ADD MSTORE PUSH17 0x4E6F207061796D656E742073706C697473 PUSH1 0x78 SHL PUSH1 0x44 DUP3 ADD MSTORE PUSH1 0x64 SWAP1 REVERT JUMPDEST SWAP1 POP PUSH1 0x20 SWAP2 SWAP5 POP DUP4 PUSH2 0xA56 DUP3 PUSH1 0x0 DUP1 MLOAD PUSH1 0x20 PUSH2 0x229F DUP4 CODECOPY DUP2 MLOAD SWAP2 MSTORE SWAP6 SWAP7 SLOAD AND PUSH1 0x7 SLOAD SWAP1 PUSH2 0x2159 JUMP JUMPDEST DUP3 MLOAD PUSH3 0x461BCD PUSH1 0xE5 SHL DUP2 MSTORE PUSH1 0x20 DUP2 DUP7 ADD MSTORE PUSH1 0x1B PUSH1 0x24 DUP3 ADD MSTORE PUSH32 0x4E6F7420617574686F72697A6564206F7220746F6F206561726C790000000000 PUSH1 0x44 DUP3 ADD MSTORE PUSH1 0x64 SWAP1 REVERT JUMPDEST POP PUSH1 0x8 SLOAD PUSH3 0x278D00 DUP2 ADD DUP1 SWAP2 GT PUSH2 0x17C6 JUMPI TIMESTAMP GT PUSH2 0x1588 JUMP JUMPDEST PUSH4 0x4E487B71 PUSH1 0xE0 SHL DUP4 MSTORE PUSH1 0x11 DUP6 MSTORE PUSH1 0x24 DUP4 REVERT JUMPDEST POP DUP1 DUP5 SLOAD AND CALLER EQ PUSH2 0x1581 JUMP JUMPDEST POP DUP3 CALLVALUE PUSH2 0x213 JUMPI DUP2 PUSH1 0x3 NOT CALLDATASIZE ADD SLT PUSH2 0x213 JUMPI PUSH1 0x20 SWAP1 PUSH2 0x5F7 PUSH2 0x226E JUMP JUMPDEST POP DUP3 CALLVALUE PUSH2 0x213 JUMPI DUP2 PUSH1 0x3 NOT CALLDATASIZE ADD SLT PUSH2 0x213 JUMPI PUSH1 0x20 SWAP1 PUSH2 0x5F7 PUSH2 0x2244 JUMP JUMPDEST POP DUP3 CALLVALUE PUSH2 0x213 JUMPI PUSH1 0x80 CALLDATASIZE PUSH1 0x3 NOT ADD SLT PUSH2 0x213 JUMPI PUSH2 0x183A PUSH2 0x1DB2 JUMP JUMPDEST SWAP1 PUSH1 0x24 SWAP2 DUP3 CALLDATALOAD SWAP1 PUSH1 0x44 CALLDATALOAD SWAP1 PUSH1 0x64 CALLDATALOAD SWAP1 DUP2 ISZERO ISZERO DUP1 SWAP3 SUB PUSH2 0x1406 JUMPI PUSH2 0x185B PUSH2 0x1E1D JUMP JUMPDEST PUSH1 0x1 PUSH1 0x1 PUSH1 0xA0 SHL SUB SWAP1 DUP2 AND SWAP6 DUP7 ISZERO PUSH2 0x1A61 JUMPI PUSH1 0xA SLOAD SWAP2 DUP3 ISZERO DUP1 ISZERO PUSH2 0x1A54 JUMPI JUMPDEST ISZERO PUSH2 0x1A12 JUMPI DUP5 ISZERO PUSH2 0x1963 JUMPI JUMPDEST DUP7 MLOAD PUSH2 0x1891 DUP2 PUSH2 0x1D15 JUMP JUMPDEST DUP9 DUP2 MSTORE PUSH1 0x20 DUP2 ADD SWAP3 DUP8 DUP5 MSTORE DUP9 DUP3 ADD SWAP5 DUP8 DUP7 MSTORE PUSH1 0x60 DUP4 ADD SWAP7 DUP8 MSTORE PUSH9 0x10000000000000000 DUP2 LT ISZERO PUSH2 0x1951 JUMPI DUP1 PUSH1 0x1 PUSH2 0x18CB SWAP3 ADD PUSH1 0xA SSTORE PUSH2 0x1DCD JUMP JUMPDEST SWAP13 SWAP1 SWAP13 PUSH2 0x1941 JUMPI POP POP SWAP2 PUSH1 0x3 SWAP4 SWAP2 PUSH32 0x14678E4E3111FE0246D0AB7482532A1DEAE4D3D2F306A302349E69B51C55F3A2 SWAP10 SWAP11 SWAP12 SWAP4 MLOAD AND PUSH12 0xFFFFFFFFFFFFFFFFFFFFFFFF PUSH1 0xA0 SHL DUP5 SLOAD AND OR DUP4 SSTORE MLOAD PUSH1 0x1 DUP4 ADD SSTORE MLOAD PUSH1 0x2 DUP3 ADD SSTORE ADD SWAP1 MLOAD ISZERO ISZERO PUSH1 0xFF DUP1 NOT DUP4 SLOAD AND SWAP2 AND OR SWAP1 SSTORE DUP3 MLOAD SWAP2 DUP3 MSTORE PUSH1 0x20 DUP3 ADD MSTORE LOG2 DUP1 RETURN JUMPDEST PUSH4 0x4E487B71 PUSH1 0xE0 SHL DUP13 MSTORE DUP12 SWAP1 MSTORE DUP11 REVERT JUMPDEST POP PUSH4 0x4E487B71 PUSH1 0xE0 SHL DUP12 MSTORE PUSH1 0x41 DUP13 MSTORE DUP11 REVERT JUMPDEST DUP6 ISZERO ISZERO DUP1 PUSH2 0x1A06 JUMPI JUMPDEST ISZERO PUSH2 0x19CF JUMPI PUSH1 0xB SLOAD PUSH2 0x2710 PUSH2 0x1981 DUP9 DUP4 PUSH2 0x1E89 JUMP JUMPDEST GT PUSH2 0x1998 JUMPI DUP7 PUSH2 0x1990 SWAP2 PUSH2 0x1E89 JUMP JUMPDEST PUSH1 0xB SSTORE PUSH2 0x1886 JUMP JUMPDEST DUP8 MLOAD PUSH3 0x461BCD PUSH1 0xE5 SHL DUP2 MSTORE PUSH1 0x20 DUP2 DUP14 ADD MSTORE PUSH1 0x12 DUP2 DUP6 ADD MSTORE PUSH18 0x546F74616C20657863656564732031303025 PUSH1 0x70 SHL PUSH1 0x44 DUP3 ADD MSTORE PUSH1 0x64 SWAP1 REVERT JUMPDEST DUP7 MLOAD PUSH3 0x461BCD PUSH1 0xE5 SHL DUP2 MSTORE PUSH1 0x20 DUP2 DUP13 ADD MSTORE PUSH1 0x12 DUP2 DUP5 ADD MSTORE PUSH18 0x496E76616C69642070657263656E74616765 PUSH1 0x70 SHL PUSH1 0x44 DUP3 ADD MSTORE PUSH1 0x64 SWAP1 REVERT JUMPDEST POP PUSH2 0x2710 DUP7 GT ISZERO PUSH2 0x196C JUMP JUMPDEST DUP7 MLOAD PUSH3 0x461BCD PUSH1 0xE5 SHL DUP2 MSTORE PUSH1 0x20 DUP2 DUP13 ADD MSTORE PUSH1 0x1E DUP2 DUP5 ADD MSTORE PUSH32 0x43616E6E6F74206D6F6469667920616674657220636F6D706C6574696F6E0000 PUSH1 0x44 DUP3 ADD MSTORE PUSH1 0x64 SWAP1 REVERT JUMPDEST POP PUSH1 0xFF PUSH1 0x9 SLOAD AND ISZERO PUSH2 0x187A JUMP JUMPDEST DUP9 PUSH1 0x11 PUSH1 0x64 SWAP3 PUSH1 0x20 DUP10 MLOAD SWAP4 PUSH3 0x461BCD PUSH1 0xE5 SHL DUP6 MSTORE DUP5 ADD MSTORE DUP3 ADD MSTORE PUSH17 0x125B9D985B1A59081C9958DA5C1A595B9D PUSH1 0x7A SHL PUSH1 0x44 DUP3 ADD MSTORE REVERT JUMPDEST POP DUP3 CALLVALUE PUSH2 0x213 JUMPI DUP2 PUSH1 0x3 NOT CALLDATASIZE ADD SLT PUSH2 0x213 JUMPI PUSH1 0x20 SWAP1 PUSH1 0xFF PUSH1 0x9 SLOAD PUSH1 0xB8 SHR AND SWAP1 MLOAD SWAP1 DUP2 MSTORE RETURN JUMPDEST POP DUP3 CALLVALUE PUSH2 0x213 JUMPI DUP2 PUSH1 0x3 NOT CALLDATASIZE ADD SLT PUSH2 0x213 JUMPI PUSH1 0x20 SWAP1 PUSH1 0x8 SLOAD TIMESTAMP GT SWAP1 DUP2 PUSH2 0x1AE5 JUMPI JUMPDEST MLOAD SWAP1 ISZERO ISZERO DUP2 MSTORE RETURN JUMPDEST PUSH1 0x9 SLOAD PUSH1 0xFF AND ISZERO SWAP2 POP PUSH2 0x1ADD JUMP JUMPDEST POP SWAP2 SWAP1 CALLVALUE PUSH2 0x2C3 JUMPI PUSH1 0x20 CALLDATASIZE PUSH1 0x3 NOT ADD SLT PUSH2 0x2C3 JUMPI PUSH2 0x1B0F PUSH2 0x1DB2 JUMP JUMPDEST PUSH2 0x1B17 PUSH2 0x1E1D JUMP JUMPDEST PUSH1 0x1 PUSH1 0x1 PUSH1 0xA0 SHL SUB AND SWAP2 DUP3 ISZERO PUSH2 0x1B44 JUMPI POP POP PUSH12 0xFFFFFFFFFFFFFFFFFFFFFFFF PUSH1 0xA0 SHL PUSH1 0xC SLOAD AND OR PUSH1 0xC SSTORE DUP1 RETURN JUMPDEST SWAP1 PUSH1 0x20 PUSH1 0x64 SWAP3 MLOAD SWAP2 PUSH3 0x461BCD PUSH1 0xE5 SHL DUP4 MSTORE DUP3 ADD MSTORE PUSH1 0xF PUSH1 0x24 DUP3 ADD MSTORE PUSH15 0x24B73B30B634B21030B93134BA32B9 PUSH1 0x89 SHL PUSH1 0x44 DUP3 ADD MSTORE REVERT JUMPDEST POP DUP3 CALLVALUE PUSH2 0x213 JUMPI DUP2 PUSH1 0x3 NOT CALLDATASIZE ADD SLT PUSH2 0x213 JUMPI PUSH1 0x9 SLOAD SWAP1 MLOAD PUSH1 0x18 SWAP2 SWAP1 SWAP2 SHR PUSH1 0x1 PUSH1 0x1 PUSH1 0xA0 SHL SUB AND DUP2 MSTORE PUSH1 0x20 SWAP1 RETURN JUMPDEST POP DUP3 CALLVALUE PUSH2 0x213 JUMPI DUP2 PUSH1 0x3 NOT CALLDATASIZE ADD SLT PUSH2 0x213 JUMPI DUP1 MLOAD SWAP1 DUP3 PUSH1 0x3 SLOAD PUSH2 0x1BC8 DUP2 PUSH2 0x1CDB JUMP JUMPDEST DUP1 DUP6 MSTORE SWAP2 PUSH1 0x1 SWAP2 DUP1 DUP4 AND SWAP1 DUP2 ISZERO PUSH2 0x1092 JUMPI POP PUSH1 0x1 EQ PUSH2 0x1BF3 JUMPI POP POP POP PUSH2 0x102B DUP3 PUSH2 0x823 SWAP5 SUB DUP4 PUSH2 0x1D47 JUMP JUMPDEST SWAP5 POP PUSH1 0x3 DUP6 MSTORE PUSH32 0xC2575A0E9E593C00F959F8C92F12DB2869C3395A3B0502D05E2516446F71F85B JUMPDEST DUP3 DUP7 LT PUSH2 0x1C38 JUMPI POP POP POP PUSH2 0x102B DUP3 PUSH1 0x20 PUSH2 0x823 SWAP6 DUP3 ADD ADD SWAP5 PUSH2 0x1019 JUMP JUMPDEST DUP1 SLOAD PUSH1 0x20 DUP8 DUP8 ADD DUP2 ADD SWAP2 SWAP1 SWAP2 MSTORE SWAP1 SWAP6 ADD SWAP5 DUP2 ADD PUSH2 0x1C1B JUMP JUMPDEST POP DUP3 CALLVALUE PUSH2 0x213 JUMPI DUP2 PUSH1 0x3 NOT CALLDATASIZE ADD SLT PUSH2 0x213 JUMPI PUSH1 0x20 SWAP1 PUSH1 0x6 SLOAD SWAP1 MLOAD SWAP1 DUP2 MSTORE RETURN JUMPDEST POP DUP3 CALLVALUE PUSH2 0x213 JUMPI DUP2 PUSH1 0x3 NOT CALLDATASIZE ADD SLT PUSH2 0x213 JUMPI PUSH1 0x20 SWAP1 PUSH1 0x7 SLOAD SWAP1 MLOAD SWAP1 DUP2 MSTORE RETURN JUMPDEST POP SWAP2 SWAP1 CALLVALUE PUSH2 0x2C3 JUMPI DUP3 PUSH1 0x3 NOT CALLDATASIZE ADD SLT PUSH2 0x2C3 JUMPI SLOAD SWAP1 MLOAD PUSH1 0x1 PUSH1 0x1 PUSH1 0xA0 SHL SUB SWAP1 SWAP2 AND DUP2 MSTORE PUSH1 0x20 SWAP2 POP RETURN JUMPDEST SWAP1 POP CALLVALUE PUSH2 0x213 JUMPI DUP2 PUSH1 0x3 NOT CALLDATASIZE ADD SLT PUSH2 0x213 JUMPI PUSH1 0x20 SWAP1 PUSH1 0xFF PUSH1 0x9 SLOAD PUSH1 0x10 SHR AND ISZERO ISZERO DUP2 MSTORE RETURN JUMPDEST SWAP1 PUSH1 0x1 DUP3 DUP2 SHR SWAP3 AND DUP1 ISZERO PUSH2 0x1D0B JUMPI JUMPDEST PUSH1 0x20 DUP4 LT EQ PUSH2 0x1CF5 JUMPI JUMP JUMPDEST PUSH4 0x4E487B71 PUSH1 0xE0 SHL PUSH1 0x0 MSTORE PUSH1 0x22 PUSH1 0x4 MSTORE PUSH1 0x24 PUSH1 0x0 REVERT JUMPDEST SWAP2 PUSH1 0x7F AND SWAP2 PUSH2 0x1CEA JUMP JUMPDEST PUSH1 0x80 DUP2 ADD SWAP1 DUP2 LT PUSH8 0xFFFFFFFFFFFFFFFF DUP3 GT OR PUSH2 0x1D31 JUMPI PUSH1 0x40 MSTORE JUMP JUMPDEST PUSH4 0x4E487B71 PUSH1 0xE0 SHL PUSH1 0x0 MSTORE PUSH1 0x41 PUSH1 0x4 MSTORE PUSH1 0x24 PUSH1 0x0 REVERT JUMPDEST SWAP1 PUSH1 0x1F DUP1 NOT SWAP2 ADD AND DUP2 ADD SWAP1 DUP2 LT PUSH8 0xFFFFFFFFFFFFFFFF DUP3 GT OR PUSH2 0x1D31 JUMPI PUSH1 0x40 MSTORE JUMP JUMPDEST PUSH1 0x20 DUP1 DUP3 MSTORE DUP3 MLOAD DUP2 DUP4 ADD DUP2 SWAP1 MSTORE SWAP1 SWAP4 SWAP3 PUSH1 0x0 JUMPDEST DUP3 DUP2 LT PUSH2 0x1D9E JUMPI POP POP PUSH1 0x40 SWAP3 SWAP4 POP PUSH1 0x0 DUP4 DUP3 DUP5 ADD ADD MSTORE PUSH1 0x1F DUP1 NOT SWAP2 ADD AND ADD ADD SWAP1 JUMP JUMPDEST DUP2 DUP2 ADD DUP7 ADD MLOAD DUP5 DUP3 ADD PUSH1 0x40 ADD MSTORE DUP6 ADD PUSH2 0x1D7C JUMP JUMPDEST PUSH1 0x4 CALLDATALOAD SWAP1 PUSH1 0x1 PUSH1 0x1 PUSH1 0xA0 SHL SUB DUP3 AND DUP3 SUB PUSH2 0x1DC8 JUMPI JUMP JUMPDEST PUSH1 0x0 DUP1 REVERT JUMPDEST PUSH1 0xA SLOAD DUP2 LT ISZERO PUSH2 0x1E07 JUMPI PUSH1 0xA PUSH1 0x0 MSTORE PUSH1 0x2 SHL PUSH32 0xC65A7BB8D6351C1CF70C95A316CC6A92839C986682D98BC35F958F4883F9D2A8 ADD SWAP1 PUSH1 0x0 SWAP1 JUMP JUMPDEST PUSH4 0x4E487B71 PUSH1 0xE0 SHL PUSH1 0x0 MSTORE PUSH1 0x32 PUSH1 0x4 MSTORE PUSH1 0x24 PUSH1 0x0 REVERT JUMPDEST PUSH1 0x0 SLOAD PUSH1 0x1 PUSH1 0x1 PUSH1 0xA0 SHL SUB AND CALLER SUB PUSH2 0x1E31 JUMPI JUMP JUMPDEST PUSH1 0x40 MLOAD PUSH4 0x118CDAA7 PUSH1 0xE0 SHL DUP2 MSTORE CALLER PUSH1 0x4 DUP3 ADD MSTORE PUSH1 0x24 SWAP1 REVERT JUMPDEST ISZERO PUSH2 0x1E50 JUMPI JUMP JUMPDEST PUSH1 0x40 MLOAD PUSH3 0x461BCD PUSH1 0xE5 SHL DUP2 MSTORE PUSH1 0x20 PUSH1 0x4 DUP3 ADD MSTORE PUSH1 0x11 PUSH1 0x24 DUP3 ADD MSTORE PUSH17 0x125B9D9BDA58D94818D85B98D95B1B1959 PUSH1 0x7A SHL PUSH1 0x44 DUP3 ADD MSTORE PUSH1 0x64 SWAP1 REVERT JUMPDEST SWAP2 SWAP1 DUP3 ADD DUP1 SWAP3 GT PUSH2 0x1E96 JUMPI JUMP JUMPDEST PUSH4 0x4E487B71 PUSH1 0xE0 SHL PUSH1 0x0 MSTORE PUSH1 0x11 PUSH1 0x4 MSTORE PUSH1 0x24 PUSH1 0x0 REVERT JUMPDEST ISZERO PUSH2 0x1EB3 JUMPI JUMP JUMPDEST PUSH1 0x40 MLOAD PUSH3 0x461BCD PUSH1 0xE5 SHL DUP2 MSTORE PUSH1 0x20 PUSH1 0x4 DUP3 ADD MSTORE PUSH1 0x21 PUSH1 0x24 DUP3 ADD MSTORE PUSH32 0x446F206E6F742073656E642045544820666F7220746F6B656E207061796D656E PUSH1 0x44 DUP3 ADD MSTORE PUSH1 0x1D PUSH1 0xFA SHL PUSH1 0x64 DUP3 ADD MSTORE PUSH1 0x84 SWAP1 REVERT JUMPDEST ISZERO PUSH2 0x1F09 JUMPI JUMP JUMPDEST PUSH1 0x40 MLOAD PUSH3 0x461BCD PUSH1 0xE5 SHL DUP2 MSTORE PUSH1 0x20 PUSH1 0x4 DUP3 ADD MSTORE PUSH1 0x14 PUSH1 0x24 DUP3 ADD MSTORE PUSH20 0x125B98DBDC9C9958DD0811551208185B5BDD5B9D PUSH1 0x62 SHL PUSH1 0x44 DUP3 ADD MSTORE PUSH1 0x64 SWAP1 REVERT JUMPDEST PUSH1 0x40 MLOAD PUSH4 0x23B872DD PUSH1 0xE0 SHL PUSH1 0x20 DUP3 ADD MSTORE PUSH1 0x1 PUSH1 0x1 PUSH1 0xA0 SHL SUB SWAP3 DUP4 AND PUSH1 0x24 DUP3 ADD MSTORE SWAP3 SWAP1 SWAP2 AND PUSH1 0x44 DUP4 ADD MSTORE PUSH1 0x64 DUP1 DUP4 ADD SWAP4 SWAP1 SWAP4 MSTORE SWAP2 DUP2 MSTORE PUSH1 0xA0 DUP2 ADD SWAP2 DUP2 DUP4 LT PUSH8 0xFFFFFFFFFFFFFFFF DUP5 GT OR PUSH2 0x1D31 JUMPI PUSH2 0x1F9E SWAP3 PUSH1 0x40 MSTORE PUSH2 0x1FA0 JUMP JUMPDEST JUMP JUMPDEST SWAP1 PUSH1 0x0 PUSH1 0x20 SWAP2 DUP3 DUP2 MLOAD SWAP2 ADD DUP3 DUP6 GAS CALL ISZERO PUSH2 0x1FFC JUMPI PUSH1 0x0 MLOAD RETURNDATASIZE PUSH2 0x1FF3 JUMPI POP PUSH1 0x1 PUSH1 0x1 PUSH1 0xA0 SHL SUB DUP2 AND EXTCODESIZE ISZERO JUMPDEST PUSH2 0x1FD1 JUMPI POP JUMP JUMPDEST PUSH1 0x40 MLOAD PUSH4 0x5274AFE7 PUSH1 0xE0 SHL DUP2 MSTORE PUSH1 0x1 PUSH1 0x1 PUSH1 0xA0 SHL SUB SWAP1 SWAP2 AND PUSH1 0x4 DUP3 ADD MSTORE PUSH1 0x24 SWAP1 REVERT JUMPDEST PUSH1 0x1 EQ ISZERO PUSH2 0x1FCA JUMP JUMPDEST PUSH1 0x40 MLOAD RETURNDATASIZE PUSH1 0x0 DUP3 RETURNDATACOPY RETURNDATASIZE SWAP1 REVERT JUMPDEST PUSH1 0x2 PUSH1 0x1 SLOAD EQ PUSH2 0x2019 JUMPI PUSH1 0x2 PUSH1 0x1 SSTORE JUMP JUMPDEST PUSH1 0x40 MLOAD PUSH4 0x3EE5AEB5 PUSH1 0xE0 SHL DUP2 MSTORE PUSH1 0x4 SWAP1 REVERT JUMPDEST SWAP2 SWAP1 DUP3 SUB SWAP2 DUP3 GT PUSH2 0x1E96 JUMPI JUMP JUMPDEST ISZERO PUSH2 0x203F JUMPI JUMP JUMPDEST PUSH1 0x40 MLOAD PUSH3 0x461BCD PUSH1 0xE5 SHL DUP2 MSTORE PUSH1 0x20 PUSH1 0x4 DUP3 ADD MSTORE PUSH1 0x15 PUSH1 0x24 DUP3 ADD MSTORE PUSH21 0x125B9D9BDA58D9481B9BDD0818DBDB5C1B195D1959 PUSH1 0x5A SHL PUSH1 0x44 DUP3 ADD MSTORE PUSH1 0x64 SWAP1 REVERT JUMPDEST PUSH1 0x0 NOT DUP2 EQ PUSH2 0x1E96 JUMPI PUSH1 0x1 ADD SWAP1 JUMP JUMPDEST SWAP1 PUSH1 0x40 MLOAD PUSH2 0x2098 DUP2 PUSH2 0x1D15 JUMP JUMPDEST DUP3 SLOAD PUSH1 0x1 PUSH1 0x1 PUSH1 0xA0 SHL SUB AND DUP2 MSTORE PUSH1 0x1 DUP4 ADD SLOAD PUSH1 0x20 DUP3 ADD MSTORE PUSH1 0x2 DUP4 ADD SLOAD PUSH1 0x40 DUP3 ADD MSTORE PUSH1 0x3 SWAP1 SWAP3 ADD SLOAD PUSH1 0xFF AND ISZERO ISZERO PUSH1 0x60 DUP4 ADD MSTORE JUMP JUMPDEST DUP2 DUP2 MUL SWAP3 SWAP2 DUP2 ISZERO SWAP2 DUP5 DIV EQ OR ISZERO PUSH2 0x1E96 JUMPI JUMP JUMPDEST ISZERO PUSH2 0x20E5 JUMPI JUMP JUMPDEST PUSH1 0x40 MLOAD PUSH3 0x461BCD PUSH1 0xE5 SHL DUP2 MSTORE PUSH1 0x20 PUSH1 0x4 DUP3 ADD MSTORE PUSH1 0x13 PUSH1 0x24 DUP3 ADD MSTORE PUSH19 0x125B9D9BDA58D9481A5CC8191A5CDC1D5D1959 PUSH1 0x6A SHL PUSH1 0x44 DUP3 ADD MSTORE PUSH1 0x64 SWAP1 REVERT JUMPDEST PUSH1 0x1 PUSH1 0xFF NOT PUSH1 0x9 SLOAD AND OR PUSH1 0x9 SSTORE PUSH32 0xE1342AE9BC80B9DE7D3947F49A847FDC5B0889DD4A2CD4BD8E9CB58185E009AB PUSH1 0x20 PUSH1 0x40 MLOAD TIMESTAMP DUP2 MSTORE LOG1 JUMP JUMPDEST PUSH1 0x9 SLOAD PUSH1 0x18 SHR PUSH1 0x1 PUSH1 0x1 PUSH1 0xA0 SHL SUB SWAP1 DUP2 AND SWAP1 DUP2 PUSH2 0x2211 JUMPI POP POP PUSH1 0x0 DUP1 DUP1 DUP1 SWAP5 DUP2 SWAP5 GAS CALL SWAP1 RETURNDATASIZE ISZERO PUSH2 0x220B JUMPI RETURNDATASIZE SWAP1 PUSH8 0xFFFFFFFFFFFFFFFF DUP3 GT PUSH2 0x21F7 JUMPI PUSH1 0x40 MLOAD SWAP2 PUSH2 0x21AC PUSH1 0x1F DUP3 ADD PUSH1 0x1F NOT AND PUSH1 0x20 ADD DUP5 PUSH2 0x1D47 JUMP JUMPDEST DUP3 MSTORE PUSH1 0x20 RETURNDATASIZE SWAP3 ADD RETURNDATACOPY JUMPDEST ISZERO PUSH2 0x21BC JUMPI JUMP JUMPDEST PUSH1 0x40 MLOAD PUSH3 0x461BCD PUSH1 0xE5 SHL DUP2 MSTORE PUSH1 0x20 PUSH1 0x4 DUP3 ADD MSTORE PUSH1 0x13 PUSH1 0x24 DUP3 ADD MSTORE PUSH19 0x115512081D1C985B9CD9995C8819985A5B1959 PUSH1 0x6A SHL PUSH1 0x44 DUP3 ADD MSTORE PUSH1 0x64 SWAP1 REVERT JUMPDEST PUSH4 0x4E487B71 PUSH1 0xE0 SHL DUP2 MSTORE PUSH1 0x41 PUSH1 0x4 MSTORE PUSH1 0x24 SWAP1 REVERT JUMPDEST POP PUSH2 0x21B5 JUMP JUMPDEST SWAP3 PUSH2 0x1F9E SWAP4 PUSH1 0x40 MLOAD SWAP4 PUSH4 0xA9059CBB PUSH1 0xE0 SHL PUSH1 0x20 DUP7 ADD MSTORE AND PUSH1 0x24 DUP5 ADD MSTORE PUSH1 0x44 DUP4 ADD MSTORE PUSH1 0x44 DUP3 MSTORE PUSH2 0x223F DUP3 PUSH2 0x1D15 JUMP JUMPDEST PUSH2 0x1FA0 JUMP JUMPDEST PUSH1 0x6 SLOAD DUP1 ISZERO PUSH2 0x2268 JUMPI PUSH1 0x7 SLOAD PUSH2 0x2710 SWAP1 DUP2 DUP2 MUL SWAP2 DUP2 DUP4 DIV EQ SWAP1 ISZERO OR ISZERO PUSH2 0x1E96 JUMPI DIV SWAP1 JUMP JUMPDEST POP PUSH1 0x0 SWAP1 JUMP JUMPDEST PUSH1 0x8 SLOAD DUP1 TIMESTAMP GT DUP1 ISZERO SWAP1 PUSH2 0x2292 JUMPI JUMPDEST PUSH2 0x2268 JUMPI PUSH2 0x228E PUSH3 0x15180 SWAP2 TIMESTAMP PUSH2 0x202B JUMP JUMPDEST DIV SWAP1 JUMP JUMPDEST POP PUSH1 0xFF PUSH1 0x9 SLOAD AND PUSH2 0x227C JUMP INVALID MSIZE 0xD9 0xF8 0xB9 0x4D SAR 0xE6 JUMPDEST DUP15 0xEB SHL EQ 0xE2 0x4D 0x5D PUSH17 0xC2782E96B3ABEF17BA687F3EE33A754AD0 0x5D POP 0xC3 PUSH9 0xC1479ECFF533A37FF 0xD7 0xC0 SWAP8 0xDA INVALID CHAINID PUSH9 0x878F01C70E173C795D 0x4F 0xF9 LOG2 PUSH5 0x6970667358 0x22 SLT KECCAK256 0x4C PC 0xF8 SWAP8 0xE4 PUSH21 0x82D8C7A695E787C19F9B08A22D47FD3C4463FCEECC PREVRANDAO DUP13 DIV 0xC4 0xEF PUSH5 0x736F6C6343 STOP ADDMOD EQ STOP CALLER BLOCKHASH JUMPI DUP8 STATICCALL SLT 0xA8 0x23 0xE0 CALLCODE 0xB7 PUSH4 0x1CC41B3B 0xA8 DUP3 DUP12 CALLER 0x21 0xCA DUP2 GT GT STATICCALL PUSH22 0xCD3AA3BB5ACE00000000000000000000000000000000 "},"methodIdentifiers":{"addPaymentSplit(address,uint256,uint256,bool)":"3f0f17ed","arbiter()":"fe25e00a","autoRelease()":"a36693b1","buyer()":"7150d8ae","cancel()":"ea8a1af0","disputeRaisedAt()":"b95d8dd4","disputeReason()":"7bf6c104","distributePayments()":"dd84b5f6","dueDate()":"786716fe","getDaysOverdue()":"5d696d23","getPaymentProgress()":"529151ec","getPaymentSplit(uint256)":"9f60be5c","getPaymentSplitsCount()":"a2c72745","getRemainingAmount()":"dabaae11","invoiceId()":"70c86286","invoiceNumber()":"24668473","isCancelled()":"95ee1221","isCompleted()":"fa391c64","isDisputed()":"0335729e","isOverdue()":"3b957317","owner()":"8da5cb5b","paidAmount()":"12fa769f","pay(uint256)":"c290d691","payFull()":"9ee7fd40","paymentSplits(uint256)":"b21862a6","paymentToken()":"3013ce29","raiseDispute(string)":"725a3b4b","releaseFunds()":"69d89575","renounceOwnership()":"715018a6","resolveDispute(bool)":"89e1e82a","seller()":"08551a53","tokenDecimals()":"3b97e856","totalAmount()":"1a39d8ef","totalSplitPercentage()":"acaef1f8","transferOwnership(address)":"f2fde38b","updateArbiter(address)":"325ac880"}}}}}