{"contracts/invoice/InvoiceRegistry.sol":{"InvoiceRegistry":{"abi":[{"inputs":[],"stateMutability":"nonpayable","type":"constructor"},{"inputs":[],"name":"AccessControlBadConfirmation","type":"error"},{"inputs":[{"internalType":"address","name":"account","type":"address"},{"internalType":"bytes32","name":"neededRole","type":"bytes32"}],"name":"AccessControlUnauthorizedAccount","type":"error"},{"inputs":[],"name":"ReentrancyGuardReentrantCall","type":"error"},{"anonymous":false,"inputs":[{"indexed":true,"internalType":"string","name":"invoiceId","type":"string"},{"indexed":false,"internalType":"string","name":"arweaveTxId","type":"string"}],"name":"ArweaveReferenceAdded","type":"event"},{"anonymous":false,"inputs":[{"indexed":true,"internalType":"string","name":"invoiceId","type":"string"},{"indexed":false,"internalType":"address","name":"escrowAddress","type":"address"}],"name":"EscrowLinked","type":"event"},{"anonymous":false,"inputs":[{"indexed":true,"internalType":"string","name":"invoiceId","type":"string"},{"indexed":false,"internalType":"string","name":"ipfsCid","type":"string"}],"name":"IPFSReferenceAdded","type":"event"},{"anonymous":false,"inputs":[{"indexed":true,"internalType":"string","name":"invoiceId","type":"string"},{"indexed":false,"internalType":"string","name":"invoiceNumber","type":"string"},{"indexed":true,"internalType":"address","name":"seller","type":"address"},{"indexed":true,"internalType":"address","name":"buyer","type":"address"},{"indexed":false,"internalType":"uint256","name":"amount","type":"uint256"}],"name":"InvoiceRegistered","type":"event"},{"anonymous":false,"inputs":[{"indexed":true,"internalType":"string","name":"invoiceId","type":"string"},{"indexed":false,"internalType":"enum InvoiceRegistry.InvoiceStatus","name":"newStatus","type":"uint8"}],"name":"InvoiceUpdated","type":"event"},{"anonymous":false,"inputs":[{"indexed":true,"internalType":"string","name":"invoiceId","type":"string"},{"indexed":false,"internalType":"address","name":"verifier","type":"address"}],"name":"InvoiceVerified","type":"event"},{"anonymous":false,"inputs":[{"indexed":true,"internalType":"string","name":"invoiceId","type":"string"},{"indexed":false,"internalType":"address","name":"payer","type":"address"},{"indexed":false,"internalType":"uint256","name":"amount","type":"uint256"}],"name":"PaymentRecorded","type":"event"},{"anonymous":false,"inputs":[{"indexed":true,"internalType":"bytes32","name":"role","type":"bytes32"},{"indexed":true,"internalType":"bytes32","name":"previousAdminRole","type":"bytes32"},{"indexed":true,"internalType":"bytes32","name":"newAdminRole","type":"bytes32"}],"name":"RoleAdminChanged","type":"event"},{"anonymous":false,"inputs":[{"indexed":true,"internalType":"bytes32","name":"role","type":"bytes32"},{"indexed":true,"internalType":"address","name":"account","type":"address"},{"indexed":true,"internalType":"address","name":"sender","type":"address"}],"name":"RoleGranted","type":"event"},{"anonymous":false,"inputs":[{"indexed":true,"internalType":"bytes32","name":"role","type":"bytes32"},{"indexed":true,"internalType":"address","name":"account","type":"address"},{"indexed":true,"internalType":"address","name":"sender","type":"address"}],"name":"RoleRevoked","type":"event"},{"inputs":[],"name":"DEFAULT_ADMIN_ROLE","outputs":[{"internalType":"bytes32","name":"","type":"bytes32"}],"stateMutability":"view","type":"function"},{"inputs":[],"name":"REGISTRAR_ROLE","outputs":[{"internalType":"bytes32","name":"","type":"bytes32"}],"stateMutability":"view","type":"function"},{"inputs":[],"name":"VERIFIER_ROLE","outputs":[{"internalType":"bytes32","name":"","type":"bytes32"}],"stateMutability":"view","type":"function"},{"inputs":[{"internalType":"string","name":"invoiceId","type":"string"},{"internalType":"string","name":"arweaveTxId","type":"string"}],"name":"addArweaveReference","outputs":[],"stateMutability":"nonpayable","type":"function"},{"inputs":[{"internalType":"string","name":"invoiceId","type":"string"},{"internalType":"string","name":"ipfsCid","type":"string"}],"name":"addIPFSReference","outputs":[],"stateMutability":"nonpayable","type":"function"},{"inputs":[{"internalType":"uint256","name":"","type":"uint256"}],"name":"allInvoiceIds","outputs":[{"internalType":"string","name":"","type":"string"}],"stateMutability":"view","type":"function"},{"inputs":[{"internalType":"string[]","name":"invoiceIds","type":"string[]"},{"internalType":"address[]","name":"payers","type":"address[]"},{"internalType":"uint256[]","name":"amounts","type":"uint256[]"},{"internalType":"string[]","name":"txHashes","type":"string[]"},{"internalType":"uint256[]","name":"chainIds","type":"uint256[]"}],"name":"batchRecordPayments","outputs":[],"stateMutability":"nonpayable","type":"function"},{"inputs":[{"internalType":"string[]","name":"invoiceIds","type":"string[]"},{"internalType":"enum InvoiceRegistry.InvoiceStatus[]","name":"statuses","type":"uint8[]"}],"name":"batchUpdateStatuses","outputs":[],"stateMutability":"nonpayable","type":"function"},{"inputs":[{"internalType":"address","name":"","type":"address"},{"internalType":"uint256","name":"","type":"uint256"}],"name":"buyerInvoices","outputs":[{"internalType":"string","name":"","type":"string"}],"stateMutability":"view","type":"function"},{"inputs":[{"internalType":"address","name":"buyer","type":"address"}],"name":"getBuyerInvoices","outputs":[{"internalType":"string[]","name":"","type":"string[]"}],"stateMutability":"view","type":"function"},{"inputs":[{"internalType":"string","name":"invoiceId","type":"string"}],"name":"getInvoice","outputs":[{"components":[{"internalType":"string","name":"invoiceId","type":"string"},{"internalType":"string","name":"invoiceNumber","type":"string"},{"internalType":"address","name":"seller","type":"address"},{"internalType":"address","name":"buyer","type":"address"},{"internalType":"uint256","name":"totalAmount","type":"uint256"},{"internalType":"uint256","name":"paidAmount","type":"uint256"},{"internalType":"uint256","name":"issueDate","type":"uint256"},{"internalType":"uint256","name":"dueDate","type":"uint256"},{"internalType":"enum InvoiceRegistry.InvoiceStatus","name":"status","type":"uint8"},{"internalType":"string","name":"ipfsCid","type":"string"},{"internalType":"string","name":"arweaveTxId","type":"string"},{"internalType":"address","name":"escrowAddress","type":"address"},{"internalType":"bool","name":"isRecurring","type":"bool"},{"internalType":"bool","name":"isFactored","type":"bool"},{"internalType":"bool","name":"exists","type":"bool"}],"internalType":"struct InvoiceRegistry.InvoiceMetadata","name":"","type":"tuple"}],"stateMutability":"view","type":"function"},{"inputs":[{"internalType":"string","name":"invoiceNumber","type":"string"}],"name":"getInvoiceByNumber","outputs":[{"components":[{"internalType":"string","name":"invoiceId","type":"string"},{"internalType":"string","name":"invoiceNumber","type":"string"},{"internalType":"address","name":"seller","type":"address"},{"internalType":"address","name":"buyer","type":"address"},{"internalType":"uint256","name":"totalAmount","type":"uint256"},{"internalType":"uint256","name":"paidAmount","type":"uint256"},{"internalType":"uint256","name":"issueDate","type":"uint256"},{"internalType":"uint256","name":"dueDate","type":"uint256"},{"internalType":"enum InvoiceRegistry.InvoiceStatus","name":"status","type":"uint8"},{"internalType":"string","name":"ipfsCid","type":"string"},{"internalType":"string","name":"arweaveTxId","type":"string"},{"internalType":"address","name":"escrowAddress","type":"address"},{"internalType":"bool","name":"isRecurring","type":"bool"},{"internalType":"bool","name":"isFactored","type":"bool"},{"internalType":"bool","name":"exists","type":"bool"}],"internalType":"struct InvoiceRegistry.InvoiceMetadata","name":"","type":"tuple"}],"stateMutability":"view","type":"function"},{"inputs":[{"internalType":"string","name":"invoiceId","type":"string"}],"name":"getInvoicePayments","outputs":[{"components":[{"internalType":"address","name":"payer","type":"address"},{"internalType":"uint256","name":"amount","type":"uint256"},{"internalType":"uint256","name":"timestamp","type":"uint256"},{"internalType":"string","name":"txHash","type":"string"},{"internalType":"uint256","name":"chainId","type":"uint256"}],"internalType":"struct InvoiceRegistry.InvoicePayment[]","name":"","type":"tuple[]"}],"stateMutability":"view","type":"function"},{"inputs":[{"internalType":"enum InvoiceRegistry.InvoiceStatus","name":"status","type":"uint8"}],"name":"getInvoicesByStatus","outputs":[{"internalType":"string[]","name":"","type":"string[]"}],"stateMutability":"view","type":"function"},{"inputs":[],"name":"getOverdueInvoices","outputs":[{"internalType":"string[]","name":"","type":"string[]"}],"stateMutability":"view","type":"function"},{"inputs":[{"internalType":"string","name":"invoiceId","type":"string"}],"name":"getPaymentCount","outputs":[{"internalType":"uint256","name":"","type":"uint256"}],"stateMutability":"view","type":"function"},{"inputs":[{"internalType":"bytes32","name":"role","type":"bytes32"}],"name":"getRoleAdmin","outputs":[{"internalType":"bytes32","name":"","type":"bytes32"}],"stateMutability":"view","type":"function"},{"inputs":[{"internalType":"address","name":"seller","type":"address"}],"name":"getSellerInvoices","outputs":[{"internalType":"string[]","name":"","type":"string[]"}],"stateMutability":"view","type":"function"},{"inputs":[],"name":"getStatistics","outputs":[{"internalType":"uint256","name":"totalInvoices","type":"uint256"},{"internalType":"uint256","name":"totalVolume","type":"uint256"},{"internalType":"uint256","name":"totalPaid","type":"uint256"},{"internalType":"uint256","name":"pendingCount","type":"uint256"},{"internalType":"uint256","name":"overdueCount","type":"uint256"},{"internalType":"uint256","name":"disputedCount","type":"uint256"}],"stateMutability":"view","type":"function"},{"inputs":[],"name":"getTotalInvoices","outputs":[{"internalType":"uint256","name":"","type":"uint256"}],"stateMutability":"view","type":"function"},{"inputs":[{"internalType":"bytes32","name":"role","type":"bytes32"},{"internalType":"address","name":"account","type":"address"}],"name":"grantRole","outputs":[],"stateMutability":"nonpayable","type":"function"},{"inputs":[{"internalType":"bytes32","name":"role","type":"bytes32"},{"internalType":"address","name":"account","type":"address"}],"name":"hasRole","outputs":[{"internalType":"bool","name":"","type":"bool"}],"stateMutability":"view","type":"function"},{"inputs":[{"internalType":"string","name":"invoiceId","type":"string"}],"name":"invoiceExists","outputs":[{"internalType":"bool","name":"","type":"bool"}],"stateMutability":"view","type":"function"},{"inputs":[{"internalType":"string","name":"","type":"string"}],"name":"invoiceNumberExists","outputs":[{"internalType":"bool","name":"","type":"bool"}],"stateMutability":"view","type":"function"},{"inputs":[{"internalType":"string","name":"","type":"string"},{"internalType":"uint256","name":"","type":"uint256"}],"name":"invoicePayments","outputs":[{"internalType":"address","name":"payer","type":"address"},{"internalType":"uint256","name":"amount","type":"uint256"},{"internalType":"uint256","name":"timestamp","type":"uint256"},{"internalType":"string","name":"txHash","type":"string"},{"internalType":"uint256","name":"chainId","type":"uint256"}],"stateMutability":"view","type":"function"},{"inputs":[{"internalType":"string","name":"","type":"string"}],"name":"invoices","outputs":[{"internalType":"string","name":"invoiceId","type":"string"},{"internalType":"string","name":"invoiceNumber","type":"string"},{"internalType":"address","name":"seller","type":"address"},{"internalType":"address","name":"buyer","type":"address"},{"internalType":"uint256","name":"totalAmount","type":"uint256"},{"internalType":"uint256","name":"paidAmount","type":"uint256"},{"internalType":"uint256","name":"issueDate","type":"uint256"},{"internalType":"uint256","name":"dueDate","type":"uint256"},{"internalType":"enum InvoiceRegistry.InvoiceStatus","name":"status","type":"uint8"},{"internalType":"string","name":"ipfsCid","type":"string"},{"internalType":"string","name":"arweaveTxId","type":"string"},{"internalType":"address","name":"escrowAddress","type":"address"},{"internalType":"bool","name":"isRecurring","type":"bool"},{"internalType":"bool","name":"isFactored","type":"bool"},{"internalType":"bool","name":"exists","type":"bool"}],"stateMutability":"view","type":"function"},{"inputs":[{"internalType":"string","name":"invoiceId","type":"string"},{"internalType":"address","name":"escrowAddress","type":"address"}],"name":"linkEscrow","outputs":[],"stateMutability":"nonpayable","type":"function"},{"inputs":[{"internalType":"string","name":"invoiceId","type":"string"},{"internalType":"bool","name":"isFactored","type":"bool"}],"name":"markAsFactored","outputs":[],"stateMutability":"nonpayable","type":"function"},{"inputs":[{"internalType":"string","name":"invoiceId","type":"string"},{"internalType":"bool","name":"isRecurring","type":"bool"}],"name":"markAsRecurring","outputs":[],"stateMutability":"nonpayable","type":"function"},{"inputs":[{"internalType":"string","name":"invoiceId","type":"string"},{"internalType":"address","name":"payer","type":"address"},{"internalType":"uint256","name":"amount","type":"uint256"},{"internalType":"string","name":"txHash","type":"string"},{"internalType":"uint256","name":"chainId","type":"uint256"}],"name":"recordPayment","outputs":[],"stateMutability":"nonpayable","type":"function"},{"inputs":[{"internalType":"string","name":"invoiceId","type":"string"},{"internalType":"string","name":"invoiceNumber","type":"string"},{"internalType":"address","name":"seller","type":"address"},{"internalType":"address","name":"buyer","type":"address"},{"internalType":"uint256","name":"totalAmount","type":"uint256"},{"internalType":"uint256","name":"issueDate","type":"uint256"},{"internalType":"uint256","name":"dueDate","type":"uint256"},{"internalType":"string","name":"ipfsCid","type":"string"},{"internalType":"string","name":"arweaveTxId","type":"string"}],"name":"registerInvoice","outputs":[],"stateMutability":"nonpayable","type":"function"},{"inputs":[{"internalType":"bytes32","name":"role","type":"bytes32"},{"internalType":"address","name":"callerConfirmation","type":"address"}],"name":"renounceRole","outputs":[],"stateMutability":"nonpayable","type":"function"},{"inputs":[{"internalType":"bytes32","name":"role","type":"bytes32"},{"internalType":"address","name":"account","type":"address"}],"name":"revokeRole","outputs":[],"stateMutability":"nonpayable","type":"function"},{"inputs":[{"internalType":"address","name":"","type":"address"},{"internalType":"uint256","name":"","type":"uint256"}],"name":"sellerInvoices","outputs":[{"internalType":"string","name":"","type":"string"}],"stateMutability":"view","type":"function"},{"inputs":[{"internalType":"bytes4","name":"interfaceId","type":"bytes4"}],"name":"supportsInterface","outputs":[{"internalType":"bool","name":"","type":"bool"}],"stateMutability":"view","type":"function"},{"inputs":[{"internalType":"string","name":"invoiceId","type":"string"},{"internalType":"enum InvoiceRegistry.InvoiceStatus","name":"newStatus","type":"uint8"}],"name":"updateInvoiceStatus","outputs":[],"stateMutability":"nonpayable","type":"function"},{"inputs":[{"internalType":"string","name":"invoiceId","type":"string"}],"name":"verifyInvoice","outputs":[],"stateMutability":"nonpayable","type":"function"}],"evm":{"bytecode":{"linkReferences":{},"object":"608060405234620000425760018055620000193362000047565b506200002533620000c7565b50620000313362000169565b506040516134449081620002078239f35b600080fd5b6001600160a01b031660008181527fad3228b676f7d3cd4284a5443f17f1962b36e491b30a40b2405849e597ba5fb5602052604081205490919060ff16620000c357818052816020526040822081835260205260408220600160ff1982541617905533916000805160206200364b8339815191528180a4600190565b5090565b6001600160a01b031660008181527f01ddc098da42acdf4176da08ec75800bc0fb2bce2be978b2037bcb0ae696651960205260408120549091907fedcc084d3dcd65a1f7f23c65c46722faca6953d28e43150a467cf43e5c3092389060ff166200016457808352826020526040832082845260205260408320600160ff198254161790556000805160206200364b833981519152339380a4600190565b505090565b6001600160a01b031660008181527f1da0b5176dfe03406af5a6eed66ca01dda9b45ac4da671c3fa379cb93717ef8160205260408120549091907f0ce23c3e399818cfee81a7ab0880f714e53d7672b08df0fa62f2843416e1ea099060ff166200016457808352826020526040832082845260205260408320600160ff198254161790556000805160206200364b833981519152339380a460019056fe608080604052600436101561001357600080fd5b60003560e01c90816301ffc9a71461275b5750806314e3c82d14611e1857806319baae2814611b345780631ffbe45f14611a765780632358f23f14611847578063248a9ca3146118185780632f2ff15d146117d95780633366a9411461176157806333912b1c1461170557806335c3c1e1146116b857806336568abe14611671578063372d6b271461144f57806337c091011461133f5780634a9efcd1146111f05780635131ae7b1461116757806354657fdc1461111a5780636650c56814610fba57806373114f3c14610e8b5780638bf9a00014610e0657806391ca102514610aa657806391d1485414610a595780639761220c14610997578063a217fddf1461097b578063a7b3fe501461091a578063ae974c94146108a2578063bda9ce131461077e578063c301f0a014610736578063cd7e5ab5146106ad578063cf4b8ac814610538578063d547741f146104f7578063d716e9ca146104d9578063dbdf78a414610425578063e739d90d146103de578063e7705db6146103a3578063f68e955314610368578063f906a440146101ff5763f9e18b7c146101b657600080fd5b346101fa5760203660031901126101fa576004356001600160401b0381116101fa576101f16101eb60209236906004016127ae565b90612e0f565b54604051908152f35b600080fd5b346101fa5760203660031901126101fa576004356001600160401b0381116101fa5760206102346103649236906004016127ae565b919061023e6130f6565b5061026560ff600b6040518685823785818881016002815203019020015460b01c16612ff5565b8260405193849283378101600281520301902060ff60405191610287836129bb565b61029081612a13565b835261029e60018201612a13565b6020840152600b60018060a01b039182600282015416604086015282600382015416606086015260048101546080860152600581015460a0860152600681015460c0860152600781015460e0860152610301846008830154166101008701612e69565b61030d60098201612a13565b61012086015261031f600a8201612a13565b6101408601520154908116610160840152818160a01c161515610180840152818160a81c1615156101a084015260b01c1615156101c082015260405191829182612b9e565b0390f35b346101fa5760003660031901126101fa5760206040517fedcc084d3dcd65a1f7f23c65c46722faca6953d28e43150a467cf43e5c3092388152f35b346101fa5760003660031901126101fa5760206040517f0ce23c3e399818cfee81a7ab0880f714e53d7672b08df0fa62f2843416e1ea098152f35b346101fa5760203660031901126101fa576004356006548110156101fa5761041161040b6103649261291c565b90612ab9565b60405191829160208352602083019061282a565b346101fa577f08844f391dbac0a7cd1271abbd738dd0f6dc5f36334f641a1dd16b240c013bd761045436612aca565b9392610461929192612c9a565b61048860ff600b604051858582376020818781016002815203019020015460b01c16612ff5565b6104aa8584600a60405186868237602081888101600281520301902001612ee1565b816040519283928337810160008152039020926104d4604051928392602084526020840191612fd4565b0390a2005b346101fa5760003660031901126101fa576020600654604051908152f35b346101fa5760403660031901126101fa576105366004356105166127db565b90806000526000602052610531600160406000200154612cf6565b612d9a565b005b346101fa5760203660031901126101fa576004356001600160401b0381116101fa57610568903690600401612b5a565b604051818180935160208193019161057f92612807565b81016002815203602001902061059481612a13565b6105a060018301612a13565b91600160a01b60019003908160028201541690826003820154169160048201549060058301546006840154600785015490600886015460ff1692600987016105e790612a13565b956105f4600a8901612a13565b97600b0154986040519c8d9c8d6101e090818152016106129161282a565b8d810360208f01526106239161282a565b9660408d015260608c015260808b015260a08a015260c089015260e0880152610100870161065091612b91565b8581036101208701526106629161282a565b8481036101408601526106749161282a565b9181166101608401528060a01c60ff1615156101808401528060a81c60ff1615156101a084015260b01c60ff1615156101c08301520390f35b346101fa576020806003193601126101fa576001600160a01b036106cf6127f1565b1660005260048152604060002080546106e781613169565b916106f560405193846129f2565b8183526000908152838120938084015b83831061071a5760405180610364878261284f565b600182819261072889612a13565b815201960192019194610705565b346101fa5760203660031901126101fa576004356001600160401b0381116101fa5761077261076c6103649236906004016127ae565b90613213565b60405191829182612b9e565b346101fa5760403660031901126101fa576004356001600160401b0381116101fa576107ae9036906004016127ae565b6107b66127db565b6107be612c9a565b6107e560ff600b604051858782376020818781016002815203019020015460b01c16612ff5565b6001600160a01b0316918215610864577fb796588645ca8a60d8e86b046b01e3b224045cadc685683481fee94ecfb92b6891602091600b604051838382378481858101600281520301902001856bffffffffffffffffffffffff60a01b82541617905581604051928392833781016000815203902092604051908152a2005b60405162461bcd60e51b8152602060048201526016602482015275496e76616c696420657363726f77206164647265737360501b6044820152606490fd5b346101fa576105366020600b6108b7366128e1565b9390916108c2612c9a565b6108e760ff856040518685823785818881016002815203019020015460b01c16612ff5565b82604051938492833760029082019081520301902001805460ff60a81b191691151560a81b60ff60a81b16919091179055565b346101fa5760203660031901126101fa576004356001600160401b0381116101fa5760ff610965602061095281943690600401612b5a565b8160405193828580945193849201612807565b8101600781520301902054166040519015158152f35b346101fa5760003660031901126101fa57602060405160008152f35b346101fa5760403660031901126101fa576004356001600160401b0381116101fa576109c7903690600401612b5a565b6109e36020602435928160405193828580945193849201612807565b810160038152030190209081548110156101fa57610a0091612b75565b5060018060a01b03815416600182015491610a4f6002820154916004610a2860038301612a13565b9101549260405195869586526020860152604085015260a0606085015260a084019061282a565b9060808301520390f35b346101fa5760403660031901126101fa57610a726127db565b600435600052600060205260406000209060018060a01b0316600052602052602060ff604060002054166040519015158152f35b346101fa5760a03660031901126101fa576001600160401b036004358181116101fa57610ad79036906004016127ae565b9091610ae16127db565b6064358281116101fa57610af99036906004016127ae565b9190610b03612c9a565b610b2a60ff600b604051888a82376020818a81016002815203019020015460b01c16612ff5565b610b376044351515612e28565b60405185878237602081878101600281520301902093610b5d6044356005870154613035565b60058601556040518688823760208188810160038152030190209060405191610b85836129d7565b60018060a01b03958686168452610bae6020850195604435875260408601924284523691612b14565b916060850192835260843560808601528054600160401b811015610dda57610bdb91600182018155612b75565b959095610df057845186546001600160a01b031916908916178655516001860155516002850155518051918211610dda57610c2682610c1d6003870154612981565b60038701612e75565b602090601f8311600114610d275760ff956008956004608060209b97876000805160206133ef8339815191529e9c987fb7056c121130ddf88be3afc03981a3642ec66c547d6e5210ee96f7aabd34edd198604098600092610d1c575b50508160011b916000199060031b1c19161760038501555b0151910155600585015460048601548110610d055750858501600588198254161790555b8151888c823780898101600081520390209382519116815260443589820152a20154169381604051928392833781016000815203902092610d026040518092612b91565ba2005b15610cbe5785850160048819825416179055610cbe565b015190503880610c82565b906003850160005260206000209160005b601f1985168110610dc25750956008956004608060209b976001886000805160206133ef8339815191529f9d999860409860ff9e7fb7056c121130ddf88be3afc03981a3642ec66c547d6e5210ee96f7aabd34edd19b601f19811610610da9575b505050811b016003850155610c9a565b015160001960f88460031b161c19169055388080610d99565b91926020600181928685015181550194019201610d38565b634e487b7160e01b600052604160045260246000fd5b634e487b7160e01b600052600060045260246000fd5b346101fa577fe42175610fb2fd4c6d1faacf875e64e70d4795d0b0cfbbc28dcf96d7720b5a1f610e3536612aca565b9392610e42929192612c9a565b610e6960ff600b604051858582376020818781016002815203019020015460b01c16612ff5565b6104aa8584600960405186868237602081888101600281520301902001612ee1565b346101fa5760203660031901126101fa57600a6004358181101591826101fa57600654906000805b838110610f6f5750610ec490613390565b9260009160005b848110610ee05760405180610364888261284f565b8660ff6008610ef7610ef18561291c565b50613180565b01541690610f595782811015610f59578314610f1c575b610f1790613096565b610ecb565b92610f51610f1791610f36610f308761291c565b50612a13565b610f40828a6133da565b52610f4b81896133da565b50613096565b939050610f0e565b634e487b7160e01b600052602160045260246000fd5b8560ff6008610f80610ef18561291c565b01541690610f595783811015610f59578514610fa5575b610fa090613096565b610eb3565b90610fb2610fa091613096565b919050610f97565b346101fa576020806003193601126101fa576004356001600160401b0381116101fa576101eb610fee9136906004016127ae565b90815491610ffb83613169565b9261100960405194856129f2565b8084528284018092600052836000206000915b8383106110bc5750505050604051918083019381845251809452604083019360408160051b85010192916000955b8287106110575785850386f35b909192938280600192603f19898203018552875190848060a01b0382511681528282015183820152604082015160408201526110a26060808401519060a0809185015283019061282a565b91608080910151910152960192019601959291909261104a565b6005866001926040999899516110d1816129d7565b848060a01b0386541681528486015483820152600286015460408201526110fa60038701612a13565b60608201526004860154608082015281520192019201919095949561101c565b346101fa5760403660031901126101fa576111336127f1565b6001600160a01b031660009081526004602052604090208054602435908110156101fa5761040b6104119161036493612969565b346101fa576020806003193601126101fa576001600160a01b036111896127f1565b1660005260058152604060002080546111a181613169565b916111af60405193846129f2565b8183526000908152838120938084015b8383106111d45760405180610364878261284f565b60018281926111e289612a13565b8152019601920191946111bf565b346101fa5760403660031901126101fa576001600160401b036004358181116101fa576112219036906004016128b1565b90916024359081116101fa5761123b9036906004016128b1565b9290611245612c9a565b611250848414613058565b60005b83811061125c57005b6112678185856130a5565b604051929181908437820160ff600b84600293848152602096879103019020015460b01c166112a1575b5061129c9150613096565b611253565b6112ac8288866130e6565b3590600a91828110156101fa5760086112e492866112cb878c8c6130a5565b9283604051948593843782019081520301902001612ec9565b6112ef8287876130a5565b936112fb848a886130e6565b35928310156101fa57846000805160206133ef8339815191529261129c966040519283928337810160008152039020926113386040518092612b91565ba286611291565b346101fa5760203660031901126101fa576004356001600160401b0381116101fa5761136f9036906004016127ae565b3360009081527f1da0b5176dfe03406af5a6eed66ca01dda9b45ac4da671c3fa379cb93717ef8160205260409020549091907f0ce23c3e399818cfee81a7ab0880f714e53d7672b08df0fa62f2843416e1ea099060ff161561143157506113f360ff600b604051858582376020818781016002815203019020015460b01c16612ff5565b8160405192839283378101600081520390207f104e3ff558a4bbdd00a2474b0c5753c7d7cfc043a0f4179b94efaeb1b430f7496020604051338152a2005b6044906040519063e2517d3f60e01b82523360048301526024820152fd5b346101fa5760003660031901126101fa5760065460009081808080805b85811061149957509460c095604051958652602086015260408501526060840152608083015260a0820152f35b6114a28161291c565b506114ac90613180565b96604051906114ba826129bb565b6114c389612a13565b82526114d160018a01612a13565b6020830152600160a01b60019003938460028b015416604084015260039480868c015416606085015260048b0154906080850191825260058c01549b60a0908187019d8e52600681015460c0880152600781015460e088015260ff928184600881940154166101008a019061154591612e69565b61155160098201612a13565b6101208a0152611563600a8201612a13565b6101408a0152600b015492839182166101608a01521c161515610180870152818160a81c1615156101a087015260b01c1615156101c0850152516115a691613035565b98516115b191613035565b92610100820151600a811015610f5957148015611659575b611649575b610100810151600a811015610f5957600814611639575b60e08101514211908161161f575b5061160a575b61160290613096565b95909561146c565b9261161761160291613096565b9390506115f9565b61010091500151600a811015610f595760051415886115f3565b9461164390613096565b946115e5565b9261165390613096565b926115ce565b50610100810151600a811015610f59576004146115c9565b346101fa5760403660031901126101fa5761168a6127db565b336001600160a01b038216036116a65761053690600435612d9a565b60405163334bd91960e11b8152600490fd5b346101fa5760403660031901126101fa576116d16127f1565b6001600160a01b031660009081526005602052604090208054602435908110156101fa5761040b6104119161036493612969565b346101fa5760203660031901126101fa576004356001600160401b0381116101fa5760ff600b602061173c819436906004016127ae565b919082604051938492833781016002815203019020015460b01c166040519015158152f35b346101fa576105366020600b611776366128e1565b939091611781612c9a565b6117a660ff856040518685823785818881016002815203019020015460b01c16612ff5565b82604051938492833760029082019081520301902001805460ff60a01b191691151560a01b60ff60a01b16919091179055565b346101fa5760403660031901126101fa576105366004356117f86127db565b90806000526000602052611813600160406000200154612cf6565b612d1c565b346101fa5760203660031901126101fa5760043560005260006020526020600160406000200154604051908152f35b346101fa5760a03660031901126101fa576004356001600160401b0381116101fa576118779036906004016128b1565b906024356001600160401b0381116101fa576118979036906004016128b1565b92906044356001600160401b0381116101fa576118b89036906004016128b1565b6064959195356001600160401b0381116101fa576118da9036906004016128b1565b966001600160401b03608435116101fa576118fa366084356004016128b1565b989096611905612c9a565b611910858214613058565b61191b868214613058565b60005b81811061192757005b60ff600b602061193884868f6130a5565b919082604051938492833781016002815203019020015460b01c1680611a62575b61196c575b61196790613096565b61191e565b61197781838c6130a5565b9190611984828a8c6130e6565b35906001600160a01b03821682036101fa578d938c92896119c0866119b8818f6119b18f8f9284916130e6565b35956130a5565b9990976130e6565b3591303b156101fa576040516391ca102560e01b815260a060048201529760009689968796611a1e95916119f89160a48a0191612fd4565b6001600160a01b0390941660248801526044870152858303600319016064870152612fd4565b906084830152038183305af18015611a5657611a3c575b905061195e565b6001600160401b038211610dda5761196791604052611a35565b6040513d6000823e3d90fd5b50611a6e8187866130e6565b351515611959565b346101fa5760403660031901126101fa576004356001600160401b0381116101fa57611aa69036906004016127ae565b60243591600a8310156101fa576000805160206133ef83398151915291602091611ace612c9a565b611af460ff600b6040518585823786818781016002815203019020015460b01c16612ff5565b611b14856008604051858582378681878101600281520301902001612ec9565b81604051928392833781016000815203902092610d026040518092612b91565b346101fa5760003660031901126101fa57600680546000805b828110611cd75750611b5e90613390565b9160009060005b838110611b7a5760405180610364878261284f565b611b86610ef18261291c565b604051611b92816129bb565b611b9b82612a13565b8152611ba960018301612a13565b602082015260018060a01b039182600282015416604083015282600382015416606083015260048101546080830152600591828201549060a091828201528683015460c08201526101c060078401549260e0830193845260ff90818060088801541698611c1b61010087019a8b612e69565b611c2760098901612a13565b610120870152600b600a98611c3d8a8201612a13565b610140890152015492839182166101608801521c161515610180850152818160a81c1615156101a085015260b01c1615159101525142119283611cc2575b505050611c91575b611c8c90613096565b611b65565b91611cba611c8c91611ca5610f308661291c565b611caf82896133da565b52610f4b81886133da565b929050611c83565b51919250811015610f59571415868080611c7b565b611ce3610ef18261291c565b604051611cef816129bb565b611cf882612a13565b8152611d0660018301612a13565b602082015260018060a01b039182600282015416604083015282600382015416606083015260048101546080830152600591828201549060a091828201528883015460c08201526101c060078401549260e0830193845260ff90818060088801541698611d7861010087019a8b612e69565b611d8460098901612a13565b610120870152600b600a98611d9a8a8201612a13565b610140890152015492839182166101608801521c161515610180850152818160a81c1615156101a085015260b01c1615159101525142119283611e03575b505050611dee575b611de990613096565b611b4d565b90611dfb611de991613096565b919050611de0565b51919250811015610f59571415858080611dd8565b346101fa576101203660031901126101fa576004356001600160401b0381116101fa57611e499036906004016127ae565b906024356001600160401b0381116101fa57611e699036906004016127ae565b926044356001600160a01b03811681036101fa576064356001600160a01b03811681036101fa5760e4356001600160401b0381116101fa57611eaf9036906004016127ae565b929091610104356001600160401b0381116101fa57611ed29036906004016127ae565b989096611edd612c9a565b600260015414612749576002600155861561270f5760ff600b604051898c823760028a8201526020818b810103019020015460b01c166126d1576001600160a01b0384161561269b576001600160a01b0383161561266657611f426084351515612e28565b60ff604051838382376020818581016007815203019020541661262957604051611f6b816129bb565b611f7636898c612b14565b8152611f83368484612b14565b60208201526001600160a01b038581166040830152841660608201526084356080820152600060a0820181905260a43560c083015260c43560e0830152610100820152611fd1368888612b14565b610120820152611fe2368c8b612b14565b6101408201526000610160820152600061018082015260006101a082015260016101c0820152604051888b82376020818a8101600281520301902081518051906001600160401b038211610dda578190612046826120408654612981565b86612e75565b602090601f83116001146125bd576000926125b2575b50508160011b916000199060031b1c19161781555b60208201518051906001600160401b038211610dda5781906120a38261209a6001870154612981565b60018701612e75565b602090601f831160011461254057600092612535575b50508160011b916000199060031b1c19161760018201555b60408201516002820180546001600160a01b039283166001600160a01b03199182161790915560608401516003840180549190931691161790556080820151600482015560a0820151600582015560c0820151600682015560e08201516007820155610100820151600a811015610f595761214f9060088301612ec9565b6101208201518051906001600160401b038211610dda578190612182826121796009870154612981565b60098701612e75565b602090601f83116001146124c3576000926124b8575b50508160011b916000199060031b1c19161760098201555b6101408201518051906001600160401b038211610dda576121e1826121d8600a860154612981565b600a8601612e75565b602090601f83116001146124425791806101c09492600b94600092612437575b50508160011b916000199060031b1c191617600a8201555b610160840151910180546101808501516101a0860151949095015193151560a81b60ff60a81b1660ff60a01b95151560a01b959095166001600160a01b039093166001600160b81b031990911617919091179290921790151560b01b60ff60b01b16179055600654600160401b811015610dda5780600161229d920160065561291c565b919091610df0576122d0888b7f3b74001c181f1627871d82edbe8fec952804a9ac1ae4852a76d7b4b12059ebb494612ee1565b60018060a01b03851660005260046020526122f0888b6040600020612fa4565b60018060a01b0384166000526005602052612310888b6040600020612fa4565b604051838282376020818581016007815203019020600160ff19825416179055604051888b823780898101600081520390209261235a604051928392604084526040840191612fd4565b60843560208301526001600160a01b0395861696909516940390a4816123e1575b505083612389575b60018055005b7f08844f391dbac0a7cd1271abbd738dd0f6dc5f36334f641a1dd16b240c013bd792816040519283928337810160008152039020926123d5604051928392602084526020840191612fd4565b0390a280808080612383565b7fe42175610fb2fd4c6d1faacf875e64e70d4795d0b0cfbbc28dcf96d7720b5a1f906040518487823780858101600081520390209261242d604051928392602084526020840191612fd4565b0390a2848061237b565b015190503880612201565b90600a840160005260206000209160005b601f19851681106124a05750926101c09492600192600b9583601f19811610612487575b505050811b01600a820155612219565b015160001960f88460031b161c19169055388080612477565b91926020600181928685015181550194019201612453565b015190508e80612198565b9250600984016000526020600020906000935b601f198416851061251a576001945083601f19811610612501575b505050811b0160098201556121b0565b015160001960f88460031b161c191690558e80806124f1565b818101518355602094850194600190930192909101906124d6565b015190508e806120b9565b9250600184016000526020600020906000935b601f1984168510612597576001945083601f1981161061257e575b505050811b0160018201556120d1565b015160001960f88460031b161c191690558e808061256e565b81810151835560209485019460019093019290910190612553565b015190508e8061205c565b9250836000526020600020906000935b601f198416851061260e576001945083601f198116106125f5575b505050811b018155612071565b015160001960f88460031b161c191690558e80806125e8565b818101518355602094850194600190930192909101906125cd565b60405162461bcd60e51b8152602060048201526015602482015274496e766f696365206e756d6265722065786973747360581b6044820152606490fd5b60405162461bcd60e51b815260206004820152600d60248201526c24b73b30b634b210313abcb2b960991b6044820152606490fd5b60405162461bcd60e51b815260206004820152600e60248201526d24b73b30b634b21039b2b63632b960911b6044820152606490fd5b60405162461bcd60e51b8152602060048201526016602482015275496e766f69636520616c72656164792065786973747360501b6044820152606490fd5b60405162461bcd60e51b8152602060048201526012602482015271125b9d985b1a59081a5b9d9bda58d948125160721b6044820152606490fd5b604051633ee5aeb560e01b8152600490fd5b346101fa5760203660031901126101fa576004359063ffffffff60e01b82168092036101fa57602091637965db0b60e01b811490811561279d575b5015158152f35b6301ffc9a760e01b14905083612796565b9181601f840112156101fa578235916001600160401b0383116101fa57602083818601950101116101fa57565b602435906001600160a01b03821682036101fa57565b600435906001600160a01b03821682036101fa57565b60005b83811061281a5750506000910152565b818101518382015260200161280a565b9060209161284381518092818552858086019101612807565b601f01601f1916010190565b602080820190808352835180925260408301928160408460051b8301019501936000915b8483106128835750505050505090565b90919293949584806128a1600193603f198682030187528a5161282a565b9801930193019194939290612873565b9181601f840112156101fa578235916001600160401b0383116101fa576020808501948460051b0101116101fa57565b60406003198201126101fa57600435906001600160401b0382116101fa5761290b916004016127ae565b909160243580151581036101fa5790565b6006548110156129535760066000527ff652222313e28459528d920b65115c16c04f3efc82aaedc97be59f3f377c0d3f0190600090565b634e487b7160e01b600052603260045260246000fd5b80548210156129535760005260206000200190600090565b90600182811c921680156129b1575b602083101461299b57565b634e487b7160e01b600052602260045260246000fd5b91607f1691612990565b6101e081019081106001600160401b03821117610dda57604052565b60a081019081106001600160401b03821117610dda57604052565b90601f801991011681019081106001600160401b03821117610dda57604052565b9060405191826000825492612a2784612981565b908184526001948581169081600014612a965750600114612a53575b5050612a51925003836129f2565b565b9093915060005260209081600020936000915b818310612a7e575050612a5193508201013880612a43565b85548884018501529485019487945091830191612a66565b915050612a5194506020925060ff191682840152151560051b8201013880612a43565b90610df057612ac790612a13565b90565b60406003198201126101fa576001600160401b03916004358381116101fa5782612af6916004016127ae565b939093926024359182116101fa57612b10916004016127ae565b9091565b9291926001600160401b038211610dda5760405191612b3d601f8201601f1916602001846129f2565b8294818452818301116101fa578281602093846000960137010152565b9080601f830112156101fa57816020612ac793359101612b14565b8054821015612953576000526005602060002091020190600090565b90600a821015610f595752565b602081528151612bbc6101e09182602085015261020084019061282a565b92612bd9602082015194601f19958686830301604087015261282a565b612c6860018060a01b0391826040850151166060870152826060850151166080870152608084015160a087015260a084015160c087015260c084015160e0870152612c5360e08501516101009081890152850151612c3d61012091828a0190612b91565b85015191610140928989830301848a015261282a565b9084015161016097878303018888015261282a565b9482015116610180908185015281015115156101a090818501528101511515906101c091828501520151151591015290565b3360009081527f01ddc098da42acdf4176da08ec75800bc0fb2bce2be978b2037bcb0ae696651960205260409020547fedcc084d3dcd65a1f7f23c65c46722faca6953d28e43150a467cf43e5c3092389060ff16156114315750565b80600052600060205260406000203360005260205260ff60406000205416156114315750565b9060009180835282602052604083209160018060a01b03169182845260205260ff60408420541615600014612d9557808352826020526040832082845260205260408320600160ff198254161790557f2f8788117e7eff1d82e926ec794901d17c78024a50270940304540a733656f0d339380a4600190565b505090565b9060009180835282602052604083209160018060a01b03169182845260205260ff604084205416600014612d955780835282602052604083208284526020526040832060ff1981541690557ff6391f5c32d9c69d2a47ea670b442974b53935d1edc7fd64eb21e047a839171b339380a4600190565b6020908260405193849283378101600381520301902090565b15612e2f57565b60405162461bcd60e51b81526020600482015260126024820152710416d6f756e74206d757374206265203e20360741b6044820152606490fd5b600a821015610f595752565b90601f8111612e8357505050565b600091825260208220906020601f850160051c83019410612ebf575b601f0160051c01915b828110612eb457505050565b818155600101612ea8565b9092508290612e9f565b90600a811015610f595760ff80198354169116179055565b9092916001600160401b038111610dda57612f0681612f008454612981565b84612e75565b6000601f8211600114612f405781929394600092612f35575b50508160011b916000199060031b1c1916179055565b013590503880612f1f565b601f198216948382526020918281209281905b888210612f8c57505083600195969710612f72575b505050811b019055565b0135600019600384901b60f8161c19169055388080612f68565b80600184968294958701358155019501920190612f53565b9190918054600160401b811015610dda57612fc491600182018155612969565b929092610df057612a5192612ee1565b908060209392818452848401376000828201840152601f01601f1916010190565b15612ffc57565b60405162461bcd60e51b8152602060048201526011602482015270125b9d9bda58d9481b9bdd08199bdd5b99607a1b6044820152606490fd5b9190820180921161304257565b634e487b7160e01b600052601160045260246000fd5b1561305f57565b60405162461bcd60e51b815260206004820152600f60248201526e098cadccee8d040dad2e6dac2e8c6d608b1b6044820152606490fd5b60001981146130425760010190565b91908110156129535760051b81013590601e19813603018212156101fa5701908135916001600160401b0383116101fa5760200182360381136101fa579190565b91908110156129535760051b0190565b60405190613103826129bb565b8160608152606060208201526101c06000918260408201528260608201528260808201528260a08201528260c08201528260e082015282610100820152606061012082015260606101408201528261016082015282610180820152826101a08201520152565b6001600160401b038111610dda5760051b60200190565b60405190816000825461319281612981565b936001918083169081156131f757506001146131ba575b505060209250600281520301902090565b90915060005260209081600020906000915b8583106131e35750505050602091810138806131a9565b8054878401528694509183019181016131cc565b92505050602093915060ff1916825280151502810138806131a9565b61321b6130f6565b506000916006918254935b8481106132665760405162461bcd60e51b8152602060048201526011602482015270125b9d9bda58d9481b9bdd08199bdd5b99607a1b6044820152606490fd5b613272610ef18261291c565b604090815191613281836129bb565b61328a82612a13565b8352600b61329a60018401612a13565b9160209384860193845260018060a01b039182600283015416908701528160038201541660608701526004810154608087015260058101549160a092838801528a82015460c0880152600782015460e088015260ff938261330686600881960154166101008b01612e69565b61331260098201612a13565b6101208a0152613324600a8201612a13565b6101408a0152015492839182166101608901521c161515610180860152818160a81c1615156101a086015260b01c1615156101c0840152518181519101209061336e368787612b14565b805191012014613387575061338290613096565b613226565b94505050505090565b9061339a82613169565b6133a760405191826129f2565b82815280926133b8601f1991613169565b019060005b8281106133c957505050565b8060606020809385010152016133bd565b80518210156129535760209160051b01019056fe3551e7d1afceec7f2f97f12b8b12561b6e8fb6458ff4a26ce4fbb11d38b08b03a2646970667358221220eaf91e54434051a6841eb2011f2d87f8d91112d06261c5869e3640f2703c57fd64736f6c634300081400332f8788117e7eff1d82e926ec794901d17c78024a50270940304540a733656f0d","opcodes":"PUSH1 0x80 PUSH1 0x40 MSTORE CALLVALUE PUSH3 0x42 JUMPI PUSH1 0x1 DUP1 SSTORE PUSH3 0x19 CALLER PUSH3 0x47 JUMP JUMPDEST POP PUSH3 0x25 CALLER PUSH3 0xC7 JUMP JUMPDEST POP PUSH3 0x31 CALLER PUSH3 0x169 JUMP JUMPDEST POP PUSH1 0x40 MLOAD PUSH2 0x3444 SWAP1 DUP2 PUSH3 0x207 DUP3 CODECOPY RETURN JUMPDEST PUSH1 0x0 DUP1 REVERT JUMPDEST PUSH1 0x1 PUSH1 0x1 PUSH1 0xA0 SHL SUB AND PUSH1 0x0 DUP2 DUP2 MSTORE PUSH32 0xAD3228B676F7D3CD4284A5443F17F1962B36E491B30A40B2405849E597BA5FB5 PUSH1 0x20 MSTORE PUSH1 0x40 DUP2 KECCAK256 SLOAD SWAP1 SWAP2 SWAP1 PUSH1 0xFF AND PUSH3 0xC3 JUMPI DUP2 DUP1 MSTORE DUP2 PUSH1 0x20 MSTORE PUSH1 0x40 DUP3 KECCAK256 DUP2 DUP4 MSTORE PUSH1 0x20 MSTORE PUSH1 0x40 DUP3 KECCAK256 PUSH1 0x1 PUSH1 0xFF NOT DUP3 SLOAD AND OR SWAP1 SSTORE CALLER SWAP2 PUSH1 0x0 DUP1 MLOAD PUSH1 0x20 PUSH3 0x364B DUP4 CODECOPY DUP2 MLOAD SWAP2 MSTORE DUP2 DUP1 LOG4 PUSH1 0x1 SWAP1 JUMP JUMPDEST POP SWAP1 JUMP JUMPDEST PUSH1 0x1 PUSH1 0x1 PUSH1 0xA0 SHL SUB AND PUSH1 0x0 DUP2 DUP2 MSTORE PUSH32 0x1DDC098DA42ACDF4176DA08EC75800BC0FB2BCE2BE978B2037BCB0AE6966519 PUSH1 0x20 MSTORE PUSH1 0x40 DUP2 KECCAK256 SLOAD SWAP1 SWAP2 SWAP1 PUSH32 0xEDCC084D3DCD65A1F7F23C65C46722FACA6953D28E43150A467CF43E5C309238 SWAP1 PUSH1 0xFF AND PUSH3 0x164 JUMPI DUP1 DUP4 MSTORE DUP3 PUSH1 0x20 MSTORE PUSH1 0x40 DUP4 KECCAK256 DUP3 DUP5 MSTORE PUSH1 0x20 MSTORE PUSH1 0x40 DUP4 KECCAK256 PUSH1 0x1 PUSH1 0xFF NOT DUP3 SLOAD AND OR SWAP1 SSTORE PUSH1 0x0 DUP1 MLOAD PUSH1 0x20 PUSH3 0x364B DUP4 CODECOPY DUP2 MLOAD SWAP2 MSTORE CALLER SWAP4 DUP1 LOG4 PUSH1 0x1 SWAP1 JUMP JUMPDEST POP POP SWAP1 JUMP JUMPDEST PUSH1 0x1 PUSH1 0x1 PUSH1 0xA0 SHL SUB AND PUSH1 0x0 DUP2 DUP2 MSTORE PUSH32 0x1DA0B5176DFE03406AF5A6EED66CA01DDA9B45AC4DA671C3FA379CB93717EF81 PUSH1 0x20 MSTORE PUSH1 0x40 DUP2 KECCAK256 SLOAD SWAP1 SWAP2 SWAP1 PUSH32 0xCE23C3E399818CFEE81A7AB0880F714E53D7672B08DF0FA62F2843416E1EA09 SWAP1 PUSH1 0xFF AND PUSH3 0x164 JUMPI DUP1 DUP4 MSTORE DUP3 PUSH1 0x20 MSTORE PUSH1 0x40 DUP4 KECCAK256 DUP3 DUP5 MSTORE PUSH1 0x20 MSTORE PUSH1 0x40 DUP4 KECCAK256 PUSH1 0x1 PUSH1 0xFF NOT DUP3 SLOAD AND OR SWAP1 SSTORE PUSH1 0x0 DUP1 MLOAD PUSH1 0x20 PUSH3 0x364B DUP4 CODECOPY DUP2 MLOAD SWAP2 MSTORE CALLER SWAP4 DUP1 LOG4 PUSH1 0x1 SWAP1 JUMP INVALID PUSH1 0x80 DUP1 PUSH1 0x40 MSTORE PUSH1 0x4 CALLDATASIZE LT ISZERO PUSH2 0x13 JUMPI PUSH1 0x0 DUP1 REVERT JUMPDEST PUSH1 0x0 CALLDATALOAD PUSH1 0xE0 SHR SWAP1 DUP2 PUSH4 0x1FFC9A7 EQ PUSH2 0x275B JUMPI POP DUP1 PUSH4 0x14E3C82D EQ PUSH2 0x1E18 JUMPI DUP1 PUSH4 0x19BAAE28 EQ PUSH2 0x1B34 JUMPI DUP1 PUSH4 0x1FFBE45F EQ PUSH2 0x1A76 JUMPI DUP1 PUSH4 0x2358F23F EQ PUSH2 0x1847 JUMPI DUP1 PUSH4 0x248A9CA3 EQ PUSH2 0x1818 JUMPI DUP1 PUSH4 0x2F2FF15D EQ PUSH2 0x17D9 JUMPI DUP1 PUSH4 0x3366A941 EQ PUSH2 0x1761 JUMPI DUP1 PUSH4 0x33912B1C EQ PUSH2 0x1705 JUMPI DUP1 PUSH4 0x35C3C1E1 EQ PUSH2 0x16B8 JUMPI DUP1 PUSH4 0x36568ABE EQ PUSH2 0x1671 JUMPI DUP1 PUSH4 0x372D6B27 EQ PUSH2 0x144F JUMPI DUP1 PUSH4 0x37C09101 EQ PUSH2 0x133F JUMPI DUP1 PUSH4 0x4A9EFCD1 EQ PUSH2 0x11F0 JUMPI DUP1 PUSH4 0x5131AE7B EQ PUSH2 0x1167 JUMPI DUP1 PUSH4 0x54657FDC EQ PUSH2 0x111A JUMPI DUP1 PUSH4 0x6650C568 EQ PUSH2 0xFBA JUMPI DUP1 PUSH4 0x73114F3C EQ PUSH2 0xE8B JUMPI DUP1 PUSH4 0x8BF9A000 EQ PUSH2 0xE06 JUMPI DUP1 PUSH4 0x91CA1025 EQ PUSH2 0xAA6 JUMPI DUP1 PUSH4 0x91D14854 EQ PUSH2 0xA59 JUMPI DUP1 PUSH4 0x9761220C EQ PUSH2 0x997 JUMPI DUP1 PUSH4 0xA217FDDF EQ PUSH2 0x97B JUMPI DUP1 PUSH4 0xA7B3FE50 EQ PUSH2 0x91A JUMPI DUP1 PUSH4 0xAE974C94 EQ PUSH2 0x8A2 JUMPI DUP1 PUSH4 0xBDA9CE13 EQ PUSH2 0x77E JUMPI DUP1 PUSH4 0xC301F0A0 EQ PUSH2 0x736 JUMPI DUP1 PUSH4 0xCD7E5AB5 EQ PUSH2 0x6AD JUMPI DUP1 PUSH4 0xCF4B8AC8 EQ PUSH2 0x538 JUMPI DUP1 PUSH4 0xD547741F EQ PUSH2 0x4F7 JUMPI DUP1 PUSH4 0xD716E9CA EQ PUSH2 0x4D9 JUMPI DUP1 PUSH4 0xDBDF78A4 EQ PUSH2 0x425 JUMPI DUP1 PUSH4 0xE739D90D EQ PUSH2 0x3DE JUMPI DUP1 PUSH4 0xE7705DB6 EQ PUSH2 0x3A3 JUMPI DUP1 PUSH4 0xF68E9553 EQ PUSH2 0x368 JUMPI DUP1 PUSH4 0xF906A440 EQ PUSH2 0x1FF JUMPI PUSH4 0xF9E18B7C EQ PUSH2 0x1B6 JUMPI PUSH1 0x0 DUP1 REVERT JUMPDEST CALLVALUE PUSH2 0x1FA JUMPI PUSH1 0x20 CALLDATASIZE PUSH1 0x3 NOT ADD SLT PUSH2 0x1FA JUMPI PUSH1 0x4 CALLDATALOAD PUSH1 0x1 PUSH1 0x1 PUSH1 0x40 SHL SUB DUP2 GT PUSH2 0x1FA JUMPI PUSH2 0x1F1 PUSH2 0x1EB PUSH1 0x20 SWAP3 CALLDATASIZE SWAP1 PUSH1 0x4 ADD PUSH2 0x27AE JUMP JUMPDEST SWAP1 PUSH2 0x2E0F JUMP JUMPDEST SLOAD PUSH1 0x40 MLOAD SWAP1 DUP2 MSTORE RETURN JUMPDEST PUSH1 0x0 DUP1 REVERT JUMPDEST CALLVALUE PUSH2 0x1FA JUMPI PUSH1 0x20 CALLDATASIZE PUSH1 0x3 NOT ADD SLT PUSH2 0x1FA JUMPI PUSH1 0x4 CALLDATALOAD PUSH1 0x1 PUSH1 0x1 PUSH1 0x40 SHL SUB DUP2 GT PUSH2 0x1FA JUMPI PUSH1 0x20 PUSH2 0x234 PUSH2 0x364 SWAP3 CALLDATASIZE SWAP1 PUSH1 0x4 ADD PUSH2 0x27AE JUMP JUMPDEST SWAP2 SWAP1 PUSH2 0x23E PUSH2 0x30F6 JUMP JUMPDEST POP PUSH2 0x265 PUSH1 0xFF PUSH1 0xB PUSH1 0x40 MLOAD DUP7 DUP6 DUP3 CALLDATACOPY DUP6 DUP2 DUP9 DUP2 ADD PUSH1 0x2 DUP2 MSTORE SUB ADD SWAP1 KECCAK256 ADD SLOAD PUSH1 0xB0 SHR AND PUSH2 0x2FF5 JUMP JUMPDEST DUP3 PUSH1 0x40 MLOAD SWAP4 DUP5 SWAP3 DUP4 CALLDATACOPY DUP2 ADD PUSH1 0x2 DUP2 MSTORE SUB ADD SWAP1 KECCAK256 PUSH1 0xFF PUSH1 0x40 MLOAD SWAP2 PUSH2 0x287 DUP4 PUSH2 0x29BB JUMP JUMPDEST PUSH2 0x290 DUP2 PUSH2 0x2A13 JUMP JUMPDEST DUP4 MSTORE PUSH2 0x29E PUSH1 0x1 DUP3 ADD PUSH2 0x2A13 JUMP JUMPDEST PUSH1 0x20 DUP5 ADD MSTORE PUSH1 0xB PUSH1 0x1 DUP1 PUSH1 0xA0 SHL SUB SWAP2 DUP3 PUSH1 0x2 DUP3 ADD SLOAD AND PUSH1 0x40 DUP7 ADD MSTORE DUP3 PUSH1 0x3 DUP3 ADD SLOAD AND PUSH1 0x60 DUP7 ADD MSTORE PUSH1 0x4 DUP2 ADD SLOAD PUSH1 0x80 DUP7 ADD MSTORE PUSH1 0x5 DUP2 ADD SLOAD PUSH1 0xA0 DUP7 ADD MSTORE PUSH1 0x6 DUP2 ADD SLOAD PUSH1 0xC0 DUP7 ADD MSTORE PUSH1 0x7 DUP2 ADD SLOAD PUSH1 0xE0 DUP7 ADD MSTORE PUSH2 0x301 DUP5 PUSH1 0x8 DUP4 ADD SLOAD AND PUSH2 0x100 DUP8 ADD PUSH2 0x2E69 JUMP JUMPDEST PUSH2 0x30D PUSH1 0x9 DUP3 ADD PUSH2 0x2A13 JUMP JUMPDEST PUSH2 0x120 DUP7 ADD MSTORE PUSH2 0x31F PUSH1 0xA DUP3 ADD PUSH2 0x2A13 JUMP JUMPDEST PUSH2 0x140 DUP7 ADD MSTORE ADD SLOAD SWAP1 DUP2 AND PUSH2 0x160 DUP5 ADD MSTORE DUP2 DUP2 PUSH1 0xA0 SHR AND ISZERO ISZERO PUSH2 0x180 DUP5 ADD MSTORE DUP2 DUP2 PUSH1 0xA8 SHR AND ISZERO ISZERO PUSH2 0x1A0 DUP5 ADD MSTORE PUSH1 0xB0 SHR AND ISZERO ISZERO PUSH2 0x1C0 DUP3 ADD MSTORE PUSH1 0x40 MLOAD SWAP2 DUP3 SWAP2 DUP3 PUSH2 0x2B9E JUMP JUMPDEST SUB SWAP1 RETURN JUMPDEST CALLVALUE PUSH2 0x1FA JUMPI PUSH1 0x0 CALLDATASIZE PUSH1 0x3 NOT ADD SLT PUSH2 0x1FA JUMPI PUSH1 0x20 PUSH1 0x40 MLOAD PUSH32 0xEDCC084D3DCD65A1F7F23C65C46722FACA6953D28E43150A467CF43E5C309238 DUP2 MSTORE RETURN JUMPDEST CALLVALUE PUSH2 0x1FA JUMPI PUSH1 0x0 CALLDATASIZE PUSH1 0x3 NOT ADD SLT PUSH2 0x1FA JUMPI PUSH1 0x20 PUSH1 0x40 MLOAD PUSH32 0xCE23C3E399818CFEE81A7AB0880F714E53D7672B08DF0FA62F2843416E1EA09 DUP2 MSTORE RETURN JUMPDEST CALLVALUE PUSH2 0x1FA JUMPI PUSH1 0x20 CALLDATASIZE PUSH1 0x3 NOT ADD SLT PUSH2 0x1FA JUMPI PUSH1 0x4 CALLDATALOAD PUSH1 0x6 SLOAD DUP2 LT ISZERO PUSH2 0x1FA JUMPI PUSH2 0x411 PUSH2 0x40B PUSH2 0x364 SWAP3 PUSH2 0x291C JUMP JUMPDEST SWAP1 PUSH2 0x2AB9 JUMP JUMPDEST PUSH1 0x40 MLOAD SWAP2 DUP3 SWAP2 PUSH1 0x20 DUP4 MSTORE PUSH1 0x20 DUP4 ADD SWAP1 PUSH2 0x282A JUMP JUMPDEST CALLVALUE PUSH2 0x1FA JUMPI PUSH32 0x8844F391DBAC0A7CD1271ABBD738DD0F6DC5F36334F641A1DD16B240C013BD7 PUSH2 0x454 CALLDATASIZE PUSH2 0x2ACA JUMP JUMPDEST SWAP4 SWAP3 PUSH2 0x461 SWAP3 SWAP2 SWAP3 PUSH2 0x2C9A JUMP JUMPDEST PUSH2 0x488 PUSH1 0xFF PUSH1 0xB PUSH1 0x40 MLOAD DUP6 DUP6 DUP3 CALLDATACOPY PUSH1 0x20 DUP2 DUP8 DUP2 ADD PUSH1 0x2 DUP2 MSTORE SUB ADD SWAP1 KECCAK256 ADD SLOAD PUSH1 0xB0 SHR AND PUSH2 0x2FF5 JUMP JUMPDEST PUSH2 0x4AA DUP6 DUP5 PUSH1 0xA PUSH1 0x40 MLOAD DUP7 DUP7 DUP3 CALLDATACOPY PUSH1 0x20 DUP2 DUP9 DUP2 ADD PUSH1 0x2 DUP2 MSTORE SUB ADD SWAP1 KECCAK256 ADD PUSH2 0x2EE1 JUMP JUMPDEST DUP2 PUSH1 0x40 MLOAD SWAP3 DUP4 SWAP3 DUP4 CALLDATACOPY DUP2 ADD PUSH1 0x0 DUP2 MSTORE SUB SWAP1 KECCAK256 SWAP3 PUSH2 0x4D4 PUSH1 0x40 MLOAD SWAP3 DUP4 SWAP3 PUSH1 0x20 DUP5 MSTORE PUSH1 0x20 DUP5 ADD SWAP2 PUSH2 0x2FD4 JUMP JUMPDEST SUB SWAP1 LOG2 STOP JUMPDEST CALLVALUE PUSH2 0x1FA JUMPI PUSH1 0x0 CALLDATASIZE PUSH1 0x3 NOT ADD SLT PUSH2 0x1FA JUMPI PUSH1 0x20 PUSH1 0x6 SLOAD PUSH1 0x40 MLOAD SWAP1 DUP2 MSTORE RETURN JUMPDEST CALLVALUE PUSH2 0x1FA JUMPI PUSH1 0x40 CALLDATASIZE PUSH1 0x3 NOT ADD SLT PUSH2 0x1FA JUMPI PUSH2 0x536 PUSH1 0x4 CALLDATALOAD PUSH2 0x516 PUSH2 0x27DB JUMP JUMPDEST SWAP1 DUP1 PUSH1 0x0 MSTORE PUSH1 0x0 PUSH1 0x20 MSTORE PUSH2 0x531 PUSH1 0x1 PUSH1 0x40 PUSH1 0x0 KECCAK256 ADD SLOAD PUSH2 0x2CF6 JUMP JUMPDEST PUSH2 0x2D9A JUMP JUMPDEST STOP JUMPDEST CALLVALUE PUSH2 0x1FA JUMPI PUSH1 0x20 CALLDATASIZE PUSH1 0x3 NOT ADD SLT PUSH2 0x1FA JUMPI PUSH1 0x4 CALLDATALOAD PUSH1 0x1 PUSH1 0x1 PUSH1 0x40 SHL SUB DUP2 GT PUSH2 0x1FA JUMPI PUSH2 0x568 SWAP1 CALLDATASIZE SWAP1 PUSH1 0x4 ADD PUSH2 0x2B5A JUMP JUMPDEST PUSH1 0x40 MLOAD DUP2 DUP2 DUP1 SWAP4 MLOAD PUSH1 0x20 DUP2 SWAP4 ADD SWAP2 PUSH2 0x57F SWAP3 PUSH2 0x2807 JUMP JUMPDEST DUP2 ADD PUSH1 0x2 DUP2 MSTORE SUB PUSH1 0x20 ADD SWAP1 KECCAK256 PUSH2 0x594 DUP2 PUSH2 0x2A13 JUMP JUMPDEST PUSH2 0x5A0 PUSH1 0x1 DUP4 ADD PUSH2 0x2A13 JUMP JUMPDEST SWAP2 PUSH1 0x1 PUSH1 0xA0 SHL PUSH1 0x1 SWAP1 SUB SWAP1 DUP2 PUSH1 0x2 DUP3 ADD SLOAD AND SWAP1 DUP3 PUSH1 0x3 DUP3 ADD SLOAD AND SWAP2 PUSH1 0x4 DUP3 ADD SLOAD SWAP1 PUSH1 0x5 DUP4 ADD SLOAD PUSH1 0x6 DUP5 ADD SLOAD PUSH1 0x7 DUP6 ADD SLOAD SWAP1 PUSH1 0x8 DUP7 ADD SLOAD PUSH1 0xFF AND SWAP3 PUSH1 0x9 DUP8 ADD PUSH2 0x5E7 SWAP1 PUSH2 0x2A13 JUMP JUMPDEST SWAP6 PUSH2 0x5F4 PUSH1 0xA DUP10 ADD PUSH2 0x2A13 JUMP JUMPDEST SWAP8 PUSH1 0xB ADD SLOAD SWAP9 PUSH1 0x40 MLOAD SWAP13 DUP14 SWAP13 DUP14 PUSH2 0x1E0 SWAP1 DUP2 DUP2 MSTORE ADD PUSH2 0x612 SWAP2 PUSH2 0x282A JUMP JUMPDEST DUP14 DUP2 SUB PUSH1 0x20 DUP16 ADD MSTORE PUSH2 0x623 SWAP2 PUSH2 0x282A JUMP JUMPDEST SWAP7 PUSH1 0x40 DUP14 ADD MSTORE PUSH1 0x60 DUP13 ADD MSTORE PUSH1 0x80 DUP12 ADD MSTORE PUSH1 0xA0 DUP11 ADD MSTORE PUSH1 0xC0 DUP10 ADD MSTORE PUSH1 0xE0 DUP9 ADD MSTORE PUSH2 0x100 DUP8 ADD PUSH2 0x650 SWAP2 PUSH2 0x2B91 JUMP JUMPDEST DUP6 DUP2 SUB PUSH2 0x120 DUP8 ADD MSTORE PUSH2 0x662 SWAP2 PUSH2 0x282A JUMP JUMPDEST DUP5 DUP2 SUB PUSH2 0x140 DUP7 ADD MSTORE PUSH2 0x674 SWAP2 PUSH2 0x282A JUMP JUMPDEST SWAP2 DUP2 AND PUSH2 0x160 DUP5 ADD MSTORE DUP1 PUSH1 0xA0 SHR PUSH1 0xFF AND ISZERO ISZERO PUSH2 0x180 DUP5 ADD MSTORE DUP1 PUSH1 0xA8 SHR PUSH1 0xFF AND ISZERO ISZERO PUSH2 0x1A0 DUP5 ADD MSTORE PUSH1 0xB0 SHR PUSH1 0xFF AND ISZERO ISZERO PUSH2 0x1C0 DUP4 ADD MSTORE SUB SWAP1 RETURN JUMPDEST CALLVALUE PUSH2 0x1FA JUMPI PUSH1 0x20 DUP1 PUSH1 0x3 NOT CALLDATASIZE ADD SLT PUSH2 0x1FA JUMPI PUSH1 0x1 PUSH1 0x1 PUSH1 0xA0 SHL SUB PUSH2 0x6CF PUSH2 0x27F1 JUMP JUMPDEST AND PUSH1 0x0 MSTORE PUSH1 0x4 DUP2 MSTORE PUSH1 0x40 PUSH1 0x0 KECCAK256 DUP1 SLOAD PUSH2 0x6E7 DUP2 PUSH2 0x3169 JUMP JUMPDEST SWAP2 PUSH2 0x6F5 PUSH1 0x40 MLOAD SWAP4 DUP5 PUSH2 0x29F2 JUMP JUMPDEST DUP2 DUP4 MSTORE PUSH1 0x0 SWAP1 DUP2 MSTORE DUP4 DUP2 KECCAK256 SWAP4 DUP1 DUP5 ADD JUMPDEST DUP4 DUP4 LT PUSH2 0x71A JUMPI PUSH1 0x40 MLOAD DUP1 PUSH2 0x364 DUP8 DUP3 PUSH2 0x284F JUMP JUMPDEST PUSH1 0x1 DUP3 DUP2 SWAP3 PUSH2 0x728 DUP10 PUSH2 0x2A13 JUMP JUMPDEST DUP2 MSTORE ADD SWAP7 ADD SWAP3 ADD SWAP2 SWAP5 PUSH2 0x705 JUMP JUMPDEST CALLVALUE PUSH2 0x1FA JUMPI PUSH1 0x20 CALLDATASIZE PUSH1 0x3 NOT ADD SLT PUSH2 0x1FA JUMPI PUSH1 0x4 CALLDATALOAD PUSH1 0x1 PUSH1 0x1 PUSH1 0x40 SHL SUB DUP2 GT PUSH2 0x1FA JUMPI PUSH2 0x772 PUSH2 0x76C PUSH2 0x364 SWAP3 CALLDATASIZE SWAP1 PUSH1 0x4 ADD PUSH2 0x27AE JUMP JUMPDEST SWAP1 PUSH2 0x3213 JUMP JUMPDEST PUSH1 0x40 MLOAD SWAP2 DUP3 SWAP2 DUP3 PUSH2 0x2B9E JUMP JUMPDEST CALLVALUE PUSH2 0x1FA JUMPI PUSH1 0x40 CALLDATASIZE PUSH1 0x3 NOT ADD SLT PUSH2 0x1FA JUMPI PUSH1 0x4 CALLDATALOAD PUSH1 0x1 PUSH1 0x1 PUSH1 0x40 SHL SUB DUP2 GT PUSH2 0x1FA JUMPI PUSH2 0x7AE SWAP1 CALLDATASIZE SWAP1 PUSH1 0x4 ADD PUSH2 0x27AE JUMP JUMPDEST PUSH2 0x7B6 PUSH2 0x27DB JUMP JUMPDEST PUSH2 0x7BE PUSH2 0x2C9A JUMP JUMPDEST PUSH2 0x7E5 PUSH1 0xFF PUSH1 0xB PUSH1 0x40 MLOAD DUP6 DUP8 DUP3 CALLDATACOPY PUSH1 0x20 DUP2 DUP8 DUP2 ADD PUSH1 0x2 DUP2 MSTORE SUB ADD SWAP1 KECCAK256 ADD SLOAD PUSH1 0xB0 SHR AND PUSH2 0x2FF5 JUMP JUMPDEST PUSH1 0x1 PUSH1 0x1 PUSH1 0xA0 SHL SUB AND SWAP2 DUP3 ISZERO PUSH2 0x864 JUMPI PUSH32 0xB796588645CA8A60D8E86B046B01E3B224045CADC685683481FEE94ECFB92B68 SWAP2 PUSH1 0x20 SWAP2 PUSH1 0xB PUSH1 0x40 MLOAD DUP4 DUP4 DUP3 CALLDATACOPY DUP5 DUP2 DUP6 DUP2 ADD PUSH1 0x2 DUP2 MSTORE SUB ADD SWAP1 KECCAK256 ADD DUP6 PUSH12 0xFFFFFFFFFFFFFFFFFFFFFFFF PUSH1 0xA0 SHL DUP3 SLOAD AND OR SWAP1 SSTORE DUP2 PUSH1 0x40 MLOAD SWAP3 DUP4 SWAP3 DUP4 CALLDATACOPY DUP2 ADD PUSH1 0x0 DUP2 MSTORE SUB SWAP1 KECCAK256 SWAP3 PUSH1 0x40 MLOAD SWAP1 DUP2 MSTORE LOG2 STOP JUMPDEST PUSH1 0x40 MLOAD PUSH3 0x461BCD PUSH1 0xE5 SHL DUP2 MSTORE PUSH1 0x20 PUSH1 0x4 DUP3 ADD MSTORE PUSH1 0x16 PUSH1 0x24 DUP3 ADD MSTORE PUSH22 0x496E76616C696420657363726F772061646472657373 PUSH1 0x50 SHL PUSH1 0x44 DUP3 ADD MSTORE PUSH1 0x64 SWAP1 REVERT JUMPDEST CALLVALUE PUSH2 0x1FA JUMPI PUSH2 0x536 PUSH1 0x20 PUSH1 0xB PUSH2 0x8B7 CALLDATASIZE PUSH2 0x28E1 JUMP JUMPDEST SWAP4 SWAP1 SWAP2 PUSH2 0x8C2 PUSH2 0x2C9A JUMP JUMPDEST PUSH2 0x8E7 PUSH1 0xFF DUP6 PUSH1 0x40 MLOAD DUP7 DUP6 DUP3 CALLDATACOPY DUP6 DUP2 DUP9 DUP2 ADD PUSH1 0x2 DUP2 MSTORE SUB ADD SWAP1 KECCAK256 ADD SLOAD PUSH1 0xB0 SHR AND PUSH2 0x2FF5 JUMP JUMPDEST DUP3 PUSH1 0x40 MLOAD SWAP4 DUP5 SWAP3 DUP4 CALLDATACOPY PUSH1 0x2 SWAP1 DUP3 ADD SWAP1 DUP2 MSTORE SUB ADD SWAP1 KECCAK256 ADD DUP1 SLOAD PUSH1 0xFF PUSH1 0xA8 SHL NOT AND SWAP2 ISZERO ISZERO PUSH1 0xA8 SHL PUSH1 0xFF PUSH1 0xA8 SHL AND SWAP2 SWAP1 SWAP2 OR SWAP1 SSTORE JUMP JUMPDEST CALLVALUE PUSH2 0x1FA JUMPI PUSH1 0x20 CALLDATASIZE PUSH1 0x3 NOT ADD SLT PUSH2 0x1FA JUMPI PUSH1 0x4 CALLDATALOAD PUSH1 0x1 PUSH1 0x1 PUSH1 0x40 SHL SUB DUP2 GT PUSH2 0x1FA JUMPI PUSH1 0xFF PUSH2 0x965 PUSH1 0x20 PUSH2 0x952 DUP2 SWAP5 CALLDATASIZE SWAP1 PUSH1 0x4 ADD PUSH2 0x2B5A JUMP JUMPDEST DUP2 PUSH1 0x40 MLOAD SWAP4 DUP3 DUP6 DUP1 SWAP5 MLOAD SWAP4 DUP5 SWAP3 ADD PUSH2 0x2807 JUMP JUMPDEST DUP2 ADD PUSH1 0x7 DUP2 MSTORE SUB ADD SWAP1 KECCAK256 SLOAD AND PUSH1 0x40 MLOAD SWAP1 ISZERO ISZERO DUP2 MSTORE RETURN JUMPDEST CALLVALUE PUSH2 0x1FA JUMPI PUSH1 0x0 CALLDATASIZE PUSH1 0x3 NOT ADD SLT PUSH2 0x1FA JUMPI PUSH1 0x20 PUSH1 0x40 MLOAD PUSH1 0x0 DUP2 MSTORE RETURN JUMPDEST CALLVALUE PUSH2 0x1FA JUMPI PUSH1 0x40 CALLDATASIZE PUSH1 0x3 NOT ADD SLT PUSH2 0x1FA JUMPI PUSH1 0x4 CALLDATALOAD PUSH1 0x1 PUSH1 0x1 PUSH1 0x40 SHL SUB DUP2 GT PUSH2 0x1FA JUMPI PUSH2 0x9C7 SWAP1 CALLDATASIZE SWAP1 PUSH1 0x4 ADD PUSH2 0x2B5A JUMP JUMPDEST PUSH2 0x9E3 PUSH1 0x20 PUSH1 0x24 CALLDATALOAD SWAP3 DUP2 PUSH1 0x40 MLOAD SWAP4 DUP3 DUP6 DUP1 SWAP5 MLOAD SWAP4 DUP5 SWAP3 ADD PUSH2 0x2807 JUMP JUMPDEST DUP2 ADD PUSH1 0x3 DUP2 MSTORE SUB ADD SWAP1 KECCAK256 SWAP1 DUP2 SLOAD DUP2 LT ISZERO PUSH2 0x1FA JUMPI PUSH2 0xA00 SWAP2 PUSH2 0x2B75 JUMP JUMPDEST POP PUSH1 0x1 DUP1 PUSH1 0xA0 SHL SUB DUP2 SLOAD AND PUSH1 0x1 DUP3 ADD SLOAD SWAP2 PUSH2 0xA4F PUSH1 0x2 DUP3 ADD SLOAD SWAP2 PUSH1 0x4 PUSH2 0xA28 PUSH1 0x3 DUP4 ADD PUSH2 0x2A13 JUMP JUMPDEST SWAP2 ADD SLOAD SWAP3 PUSH1 0x40 MLOAD SWAP6 DUP7 SWAP6 DUP7 MSTORE PUSH1 0x20 DUP7 ADD MSTORE PUSH1 0x40 DUP6 ADD MSTORE PUSH1 0xA0 PUSH1 0x60 DUP6 ADD MSTORE PUSH1 0xA0 DUP5 ADD SWAP1 PUSH2 0x282A JUMP JUMPDEST SWAP1 PUSH1 0x80 DUP4 ADD MSTORE SUB SWAP1 RETURN JUMPDEST CALLVALUE PUSH2 0x1FA JUMPI PUSH1 0x40 CALLDATASIZE PUSH1 0x3 NOT ADD SLT PUSH2 0x1FA JUMPI PUSH2 0xA72 PUSH2 0x27DB JUMP JUMPDEST PUSH1 0x4 CALLDATALOAD PUSH1 0x0 MSTORE PUSH1 0x0 PUSH1 0x20 MSTORE PUSH1 0x40 PUSH1 0x0 KECCAK256 SWAP1 PUSH1 0x1 DUP1 PUSH1 0xA0 SHL SUB AND PUSH1 0x0 MSTORE PUSH1 0x20 MSTORE PUSH1 0x20 PUSH1 0xFF PUSH1 0x40 PUSH1 0x0 KECCAK256 SLOAD AND PUSH1 0x40 MLOAD SWAP1 ISZERO ISZERO DUP2 MSTORE RETURN JUMPDEST CALLVALUE PUSH2 0x1FA JUMPI PUSH1 0xA0 CALLDATASIZE PUSH1 0x3 NOT ADD SLT PUSH2 0x1FA JUMPI PUSH1 0x1 PUSH1 0x1 PUSH1 0x40 SHL SUB PUSH1 0x4 CALLDATALOAD DUP2 DUP2 GT PUSH2 0x1FA JUMPI PUSH2 0xAD7 SWAP1 CALLDATASIZE SWAP1 PUSH1 0x4 ADD PUSH2 0x27AE JUMP JUMPDEST SWAP1 SWAP2 PUSH2 0xAE1 PUSH2 0x27DB JUMP JUMPDEST PUSH1 0x64 CALLDATALOAD DUP3 DUP2 GT PUSH2 0x1FA JUMPI PUSH2 0xAF9 SWAP1 CALLDATASIZE SWAP1 PUSH1 0x4 ADD PUSH2 0x27AE JUMP JUMPDEST SWAP2 SWAP1 PUSH2 0xB03 PUSH2 0x2C9A JUMP JUMPDEST PUSH2 0xB2A PUSH1 0xFF PUSH1 0xB PUSH1 0x40 MLOAD DUP9 DUP11 DUP3 CALLDATACOPY PUSH1 0x20 DUP2 DUP11 DUP2 ADD PUSH1 0x2 DUP2 MSTORE SUB ADD SWAP1 KECCAK256 ADD SLOAD PUSH1 0xB0 SHR AND PUSH2 0x2FF5 JUMP JUMPDEST PUSH2 0xB37 PUSH1 0x44 CALLDATALOAD ISZERO ISZERO PUSH2 0x2E28 JUMP JUMPDEST PUSH1 0x40 MLOAD DUP6 DUP8 DUP3 CALLDATACOPY PUSH1 0x20 DUP2 DUP8 DUP2 ADD PUSH1 0x2 DUP2 MSTORE SUB ADD SWAP1 KECCAK256 SWAP4 PUSH2 0xB5D PUSH1 0x44 CALLDATALOAD PUSH1 0x5 DUP8 ADD SLOAD PUSH2 0x3035 JUMP JUMPDEST PUSH1 0x5 DUP7 ADD SSTORE PUSH1 0x40 MLOAD DUP7 DUP9 DUP3 CALLDATACOPY PUSH1 0x20 DUP2 DUP9 DUP2 ADD PUSH1 0x3 DUP2 MSTORE SUB ADD SWAP1 KECCAK256 SWAP1 PUSH1 0x40 MLOAD SWAP2 PUSH2 0xB85 DUP4 PUSH2 0x29D7 JUMP JUMPDEST PUSH1 0x1 DUP1 PUSH1 0xA0 SHL SUB SWAP6 DUP7 DUP7 AND DUP5 MSTORE PUSH2 0xBAE PUSH1 0x20 DUP6 ADD SWAP6 PUSH1 0x44 CALLDATALOAD DUP8 MSTORE PUSH1 0x40 DUP7 ADD SWAP3 TIMESTAMP DUP5 MSTORE CALLDATASIZE SWAP2 PUSH2 0x2B14 JUMP JUMPDEST SWAP2 PUSH1 0x60 DUP6 ADD SWAP3 DUP4 MSTORE PUSH1 0x84 CALLDATALOAD PUSH1 0x80 DUP7 ADD MSTORE DUP1 SLOAD PUSH1 0x1 PUSH1 0x40 SHL DUP2 LT ISZERO PUSH2 0xDDA JUMPI PUSH2 0xBDB SWAP2 PUSH1 0x1 DUP3 ADD DUP2 SSTORE PUSH2 0x2B75 JUMP JUMPDEST SWAP6 SWAP1 SWAP6 PUSH2 0xDF0 JUMPI DUP5 MLOAD DUP7 SLOAD PUSH1 0x1 PUSH1 0x1 PUSH1 0xA0 SHL SUB NOT AND SWAP1 DUP10 AND OR DUP7 SSTORE MLOAD PUSH1 0x1 DUP7 ADD SSTORE MLOAD PUSH1 0x2 DUP6 ADD SSTORE MLOAD DUP1 MLOAD SWAP2 DUP3 GT PUSH2 0xDDA JUMPI PUSH2 0xC26 DUP3 PUSH2 0xC1D PUSH1 0x3 DUP8 ADD SLOAD PUSH2 0x2981 JUMP JUMPDEST PUSH1 0x3 DUP8 ADD PUSH2 0x2E75 JUMP JUMPDEST PUSH1 0x20 SWAP1 PUSH1 0x1F DUP4 GT PUSH1 0x1 EQ PUSH2 0xD27 JUMPI PUSH1 0xFF SWAP6 PUSH1 0x8 SWAP6 PUSH1 0x4 PUSH1 0x80 PUSH1 0x20 SWAP12 SWAP8 DUP8 PUSH1 0x0 DUP1 MLOAD PUSH1 0x20 PUSH2 0x33EF DUP4 CODECOPY DUP2 MLOAD SWAP2 MSTORE SWAP15 SWAP13 SWAP9 PUSH32 0xB7056C121130DDF88BE3AFC03981A3642EC66C547D6E5210EE96F7AABD34EDD1 SWAP9 PUSH1 0x40 SWAP9 PUSH1 0x0 SWAP3 PUSH2 0xD1C JUMPI JUMPDEST POP POP DUP2 PUSH1 0x1 SHL SWAP2 PUSH1 0x0 NOT SWAP1 PUSH1 0x3 SHL SHR NOT AND OR PUSH1 0x3 DUP6 ADD SSTORE JUMPDEST ADD MLOAD SWAP2 ADD SSTORE PUSH1 0x5 DUP6 ADD SLOAD PUSH1 0x4 DUP7 ADD SLOAD DUP2 LT PUSH2 0xD05 JUMPI POP DUP6 DUP6 ADD PUSH1 0x5 DUP9 NOT DUP3 SLOAD AND OR SWAP1 SSTORE JUMPDEST DUP2 MLOAD DUP9 DUP13 DUP3 CALLDATACOPY DUP1 DUP10 DUP2 ADD PUSH1 0x0 DUP2 MSTORE SUB SWAP1 KECCAK256 SWAP4 DUP3 MLOAD SWAP2 AND DUP2 MSTORE PUSH1 0x44 CALLDATALOAD DUP10 DUP3 ADD MSTORE LOG2 ADD SLOAD AND SWAP4 DUP2 PUSH1 0x40 MLOAD SWAP3 DUP4 SWAP3 DUP4 CALLDATACOPY DUP2 ADD PUSH1 0x0 DUP2 MSTORE SUB SWAP1 KECCAK256 SWAP3 PUSH2 0xD02 PUSH1 0x40 MLOAD DUP1 SWAP3 PUSH2 0x2B91 JUMP JUMPDEST LOG2 STOP JUMPDEST ISZERO PUSH2 0xCBE JUMPI DUP6 DUP6 ADD PUSH1 0x4 DUP9 NOT DUP3 SLOAD AND OR SWAP1 SSTORE PUSH2 0xCBE JUMP JUMPDEST ADD MLOAD SWAP1 POP CODESIZE DUP1 PUSH2 0xC82 JUMP JUMPDEST SWAP1 PUSH1 0x3 DUP6 ADD PUSH1 0x0 MSTORE PUSH1 0x20 PUSH1 0x0 KECCAK256 SWAP2 PUSH1 0x0 JUMPDEST PUSH1 0x1F NOT DUP6 AND DUP2 LT PUSH2 0xDC2 JUMPI POP SWAP6 PUSH1 0x8 SWAP6 PUSH1 0x4 PUSH1 0x80 PUSH1 0x20 SWAP12 SWAP8 PUSH1 0x1 DUP9 PUSH1 0x0 DUP1 MLOAD PUSH1 0x20 PUSH2 0x33EF DUP4 CODECOPY DUP2 MLOAD SWAP2 MSTORE SWAP16 SWAP14 SWAP10 SWAP9 PUSH1 0x40 SWAP9 PUSH1 0xFF SWAP15 PUSH32 0xB7056C121130DDF88BE3AFC03981A3642EC66C547D6E5210EE96F7AABD34EDD1 SWAP12 PUSH1 0x1F NOT DUP2 AND LT PUSH2 0xDA9 JUMPI JUMPDEST POP POP POP DUP2 SHL ADD PUSH1 0x3 DUP6 ADD SSTORE PUSH2 0xC9A JUMP JUMPDEST ADD MLOAD PUSH1 0x0 NOT PUSH1 0xF8 DUP5 PUSH1 0x3 SHL AND SHR NOT AND SWAP1 SSTORE CODESIZE DUP1 DUP1 PUSH2 0xD99 JUMP JUMPDEST SWAP2 SWAP3 PUSH1 0x20 PUSH1 0x1 DUP2 SWAP3 DUP7 DUP6 ADD MLOAD DUP2 SSTORE ADD SWAP5 ADD SWAP3 ADD PUSH2 0xD38 JUMP JUMPDEST PUSH4 0x4E487B71 PUSH1 0xE0 SHL PUSH1 0x0 MSTORE PUSH1 0x41 PUSH1 0x4 MSTORE PUSH1 0x24 PUSH1 0x0 REVERT JUMPDEST PUSH4 0x4E487B71 PUSH1 0xE0 SHL PUSH1 0x0 MSTORE PUSH1 0x0 PUSH1 0x4 MSTORE PUSH1 0x24 PUSH1 0x0 REVERT JUMPDEST CALLVALUE PUSH2 0x1FA JUMPI PUSH32 0xE42175610FB2FD4C6D1FAACF875E64E70D4795D0B0CFBBC28DCF96D7720B5A1F PUSH2 0xE35 CALLDATASIZE PUSH2 0x2ACA JUMP JUMPDEST SWAP4 SWAP3 PUSH2 0xE42 SWAP3 SWAP2 SWAP3 PUSH2 0x2C9A JUMP JUMPDEST PUSH2 0xE69 PUSH1 0xFF PUSH1 0xB PUSH1 0x40 MLOAD DUP6 DUP6 DUP3 CALLDATACOPY PUSH1 0x20 DUP2 DUP8 DUP2 ADD PUSH1 0x2 DUP2 MSTORE SUB ADD SWAP1 KECCAK256 ADD SLOAD PUSH1 0xB0 SHR AND PUSH2 0x2FF5 JUMP JUMPDEST PUSH2 0x4AA DUP6 DUP5 PUSH1 0x9 PUSH1 0x40 MLOAD DUP7 DUP7 DUP3 CALLDATACOPY PUSH1 0x20 DUP2 DUP9 DUP2 ADD PUSH1 0x2 DUP2 MSTORE SUB ADD SWAP1 KECCAK256 ADD PUSH2 0x2EE1 JUMP JUMPDEST CALLVALUE PUSH2 0x1FA JUMPI PUSH1 0x20 CALLDATASIZE PUSH1 0x3 NOT ADD SLT PUSH2 0x1FA JUMPI PUSH1 0xA PUSH1 0x4 CALLDATALOAD DUP2 DUP2 LT ISZERO SWAP2 DUP3 PUSH2 0x1FA JUMPI PUSH1 0x6 SLOAD SWAP1 PUSH1 0x0 DUP1 JUMPDEST DUP4 DUP2 LT PUSH2 0xF6F JUMPI POP PUSH2 0xEC4 SWAP1 PUSH2 0x3390 JUMP JUMPDEST SWAP3 PUSH1 0x0 SWAP2 PUSH1 0x0 JUMPDEST DUP5 DUP2 LT PUSH2 0xEE0 JUMPI PUSH1 0x40 MLOAD DUP1 PUSH2 0x364 DUP9 DUP3 PUSH2 0x284F JUMP JUMPDEST DUP7 PUSH1 0xFF PUSH1 0x8 PUSH2 0xEF7 PUSH2 0xEF1 DUP6 PUSH2 0x291C JUMP JUMPDEST POP PUSH2 0x3180 JUMP JUMPDEST ADD SLOAD AND SWAP1 PUSH2 0xF59 JUMPI DUP3 DUP2 LT ISZERO PUSH2 0xF59 JUMPI DUP4 EQ PUSH2 0xF1C JUMPI JUMPDEST PUSH2 0xF17 SWAP1 PUSH2 0x3096 JUMP JUMPDEST PUSH2 0xECB JUMP JUMPDEST SWAP3 PUSH2 0xF51 PUSH2 0xF17 SWAP2 PUSH2 0xF36 PUSH2 0xF30 DUP8 PUSH2 0x291C JUMP JUMPDEST POP PUSH2 0x2A13 JUMP JUMPDEST PUSH2 0xF40 DUP3 DUP11 PUSH2 0x33DA JUMP JUMPDEST MSTORE PUSH2 0xF4B DUP2 DUP10 PUSH2 0x33DA JUMP JUMPDEST POP PUSH2 0x3096 JUMP JUMPDEST SWAP4 SWAP1 POP PUSH2 0xF0E JUMP JUMPDEST PUSH4 0x4E487B71 PUSH1 0xE0 SHL PUSH1 0x0 MSTORE PUSH1 0x21 PUSH1 0x4 MSTORE PUSH1 0x24 PUSH1 0x0 REVERT JUMPDEST DUP6 PUSH1 0xFF PUSH1 0x8 PUSH2 0xF80 PUSH2 0xEF1 DUP6 PUSH2 0x291C JUMP JUMPDEST ADD SLOAD AND SWAP1 PUSH2 0xF59 JUMPI DUP4 DUP2 LT ISZERO PUSH2 0xF59 JUMPI DUP6 EQ PUSH2 0xFA5 JUMPI JUMPDEST PUSH2 0xFA0 SWAP1 PUSH2 0x3096 JUMP JUMPDEST PUSH2 0xEB3 JUMP JUMPDEST SWAP1 PUSH2 0xFB2 PUSH2 0xFA0 SWAP2 PUSH2 0x3096 JUMP JUMPDEST SWAP2 SWAP1 POP PUSH2 0xF97 JUMP JUMPDEST CALLVALUE PUSH2 0x1FA JUMPI PUSH1 0x20 DUP1 PUSH1 0x3 NOT CALLDATASIZE ADD SLT PUSH2 0x1FA JUMPI PUSH1 0x4 CALLDATALOAD PUSH1 0x1 PUSH1 0x1 PUSH1 0x40 SHL SUB DUP2 GT PUSH2 0x1FA JUMPI PUSH2 0x1EB PUSH2 0xFEE SWAP2 CALLDATASIZE SWAP1 PUSH1 0x4 ADD PUSH2 0x27AE JUMP JUMPDEST SWAP1 DUP2 SLOAD SWAP2 PUSH2 0xFFB DUP4 PUSH2 0x3169 JUMP JUMPDEST SWAP3 PUSH2 0x1009 PUSH1 0x40 MLOAD SWAP5 DUP6 PUSH2 0x29F2 JUMP JUMPDEST DUP1 DUP5 MSTORE DUP3 DUP5 ADD DUP1 SWAP3 PUSH1 0x0 MSTORE DUP4 PUSH1 0x0 KECCAK256 PUSH1 0x0 SWAP2 JUMPDEST DUP4 DUP4 LT PUSH2 0x10BC JUMPI POP POP POP POP PUSH1 0x40 MLOAD SWAP2 DUP1 DUP4 ADD SWAP4 DUP2 DUP5 MSTORE MLOAD DUP1 SWAP5 MSTORE PUSH1 0x40 DUP4 ADD SWAP4 PUSH1 0x40 DUP2 PUSH1 0x5 SHL DUP6 ADD ADD SWAP3 SWAP2 PUSH1 0x0 SWAP6 JUMPDEST DUP3 DUP8 LT PUSH2 0x1057 JUMPI DUP6 DUP6 SUB DUP7 RETURN JUMPDEST SWAP1 SWAP2 SWAP3 SWAP4 DUP3 DUP1 PUSH1 0x1 SWAP3 PUSH1 0x3F NOT DUP10 DUP3 SUB ADD DUP6 MSTORE DUP8 MLOAD SWAP1 DUP5 DUP1 PUSH1 0xA0 SHL SUB DUP3 MLOAD AND DUP2 MSTORE DUP3 DUP3 ADD MLOAD DUP4 DUP3 ADD MSTORE PUSH1 0x40 DUP3 ADD MLOAD PUSH1 0x40 DUP3 ADD MSTORE PUSH2 0x10A2 PUSH1 0x60 DUP1 DUP5 ADD MLOAD SWAP1 PUSH1 0xA0 DUP1 SWAP2 DUP6 ADD MSTORE DUP4 ADD SWAP1 PUSH2 0x282A JUMP JUMPDEST SWAP2 PUSH1 0x80 DUP1 SWAP2 ADD MLOAD SWAP2 ADD MSTORE SWAP7 ADD SWAP3 ADD SWAP7 ADD SWAP6 SWAP3 SWAP2 SWAP1 SWAP3 PUSH2 0x104A JUMP JUMPDEST PUSH1 0x5 DUP7 PUSH1 0x1 SWAP3 PUSH1 0x40 SWAP10 SWAP9 SWAP10 MLOAD PUSH2 0x10D1 DUP2 PUSH2 0x29D7 JUMP JUMPDEST DUP5 DUP1 PUSH1 0xA0 SHL SUB DUP7 SLOAD AND DUP2 MSTORE DUP5 DUP7 ADD SLOAD DUP4 DUP3 ADD MSTORE PUSH1 0x2 DUP7 ADD SLOAD PUSH1 0x40 DUP3 ADD MSTORE PUSH2 0x10FA PUSH1 0x3 DUP8 ADD PUSH2 0x2A13 JUMP JUMPDEST PUSH1 0x60 DUP3 ADD MSTORE PUSH1 0x4 DUP7 ADD SLOAD PUSH1 0x80 DUP3 ADD MSTORE DUP2 MSTORE ADD SWAP3 ADD SWAP3 ADD SWAP2 SWAP1 SWAP6 SWAP5 SWAP6 PUSH2 0x101C JUMP JUMPDEST CALLVALUE PUSH2 0x1FA JUMPI PUSH1 0x40 CALLDATASIZE PUSH1 0x3 NOT ADD SLT PUSH2 0x1FA JUMPI PUSH2 0x1133 PUSH2 0x27F1 JUMP JUMPDEST PUSH1 0x1 PUSH1 0x1 PUSH1 0xA0 SHL SUB AND PUSH1 0x0 SWAP1 DUP2 MSTORE PUSH1 0x4 PUSH1 0x20 MSTORE PUSH1 0x40 SWAP1 KECCAK256 DUP1 SLOAD PUSH1 0x24 CALLDATALOAD SWAP1 DUP2 LT ISZERO PUSH2 0x1FA JUMPI PUSH2 0x40B PUSH2 0x411 SWAP2 PUSH2 0x364 SWAP4 PUSH2 0x2969 JUMP JUMPDEST CALLVALUE PUSH2 0x1FA JUMPI PUSH1 0x20 DUP1 PUSH1 0x3 NOT CALLDATASIZE ADD SLT PUSH2 0x1FA JUMPI PUSH1 0x1 PUSH1 0x1 PUSH1 0xA0 SHL SUB PUSH2 0x1189 PUSH2 0x27F1 JUMP JUMPDEST AND PUSH1 0x0 MSTORE PUSH1 0x5 DUP2 MSTORE PUSH1 0x40 PUSH1 0x0 KECCAK256 DUP1 SLOAD PUSH2 0x11A1 DUP2 PUSH2 0x3169 JUMP JUMPDEST SWAP2 PUSH2 0x11AF PUSH1 0x40 MLOAD SWAP4 DUP5 PUSH2 0x29F2 JUMP JUMPDEST DUP2 DUP4 MSTORE PUSH1 0x0 SWAP1 DUP2 MSTORE DUP4 DUP2 KECCAK256 SWAP4 DUP1 DUP5 ADD JUMPDEST DUP4 DUP4 LT PUSH2 0x11D4 JUMPI PUSH1 0x40 MLOAD DUP1 PUSH2 0x364 DUP8 DUP3 PUSH2 0x284F JUMP JUMPDEST PUSH1 0x1 DUP3 DUP2 SWAP3 PUSH2 0x11E2 DUP10 PUSH2 0x2A13 JUMP JUMPDEST DUP2 MSTORE ADD SWAP7 ADD SWAP3 ADD SWAP2 SWAP5 PUSH2 0x11BF JUMP JUMPDEST CALLVALUE PUSH2 0x1FA JUMPI PUSH1 0x40 CALLDATASIZE PUSH1 0x3 NOT ADD SLT PUSH2 0x1FA JUMPI PUSH1 0x1 PUSH1 0x1 PUSH1 0x40 SHL SUB PUSH1 0x4 CALLDATALOAD DUP2 DUP2 GT PUSH2 0x1FA JUMPI PUSH2 0x1221 SWAP1 CALLDATASIZE SWAP1 PUSH1 0x4 ADD PUSH2 0x28B1 JUMP JUMPDEST SWAP1 SWAP2 PUSH1 0x24 CALLDATALOAD SWAP1 DUP2 GT PUSH2 0x1FA JUMPI PUSH2 0x123B SWAP1 CALLDATASIZE SWAP1 PUSH1 0x4 ADD PUSH2 0x28B1 JUMP JUMPDEST SWAP3 SWAP1 PUSH2 0x1245 PUSH2 0x2C9A JUMP JUMPDEST PUSH2 0x1250 DUP5 DUP5 EQ PUSH2 0x3058 JUMP JUMPDEST PUSH1 0x0 JUMPDEST DUP4 DUP2 LT PUSH2 0x125C JUMPI STOP JUMPDEST PUSH2 0x1267 DUP2 DUP6 DUP6 PUSH2 0x30A5 JUMP JUMPDEST PUSH1 0x40 MLOAD SWAP3 SWAP2 DUP2 SWAP1 DUP5 CALLDATACOPY DUP3 ADD PUSH1 0xFF PUSH1 0xB DUP5 PUSH1 0x2 SWAP4 DUP5 DUP2 MSTORE PUSH1 0x20 SWAP7 DUP8 SWAP2 SUB ADD SWAP1 KECCAK256 ADD SLOAD PUSH1 0xB0 SHR AND PUSH2 0x12A1 JUMPI JUMPDEST POP PUSH2 0x129C SWAP2 POP PUSH2 0x3096 JUMP JUMPDEST PUSH2 0x1253 JUMP JUMPDEST PUSH2 0x12AC DUP3 DUP9 DUP7 PUSH2 0x30E6 JUMP JUMPDEST CALLDATALOAD SWAP1 PUSH1 0xA SWAP2 DUP3 DUP2 LT ISZERO PUSH2 0x1FA JUMPI PUSH1 0x8 PUSH2 0x12E4 SWAP3 DUP7 PUSH2 0x12CB DUP8 DUP13 DUP13 PUSH2 0x30A5 JUMP JUMPDEST SWAP3 DUP4 PUSH1 0x40 MLOAD SWAP5 DUP6 SWAP4 DUP5 CALLDATACOPY DUP3 ADD SWAP1 DUP2 MSTORE SUB ADD SWAP1 KECCAK256 ADD PUSH2 0x2EC9 JUMP JUMPDEST PUSH2 0x12EF DUP3 DUP8 DUP8 PUSH2 0x30A5 JUMP JUMPDEST SWAP4 PUSH2 0x12FB DUP5 DUP11 DUP9 PUSH2 0x30E6 JUMP JUMPDEST CALLDATALOAD SWAP3 DUP4 LT ISZERO PUSH2 0x1FA JUMPI DUP5 PUSH1 0x0 DUP1 MLOAD PUSH1 0x20 PUSH2 0x33EF DUP4 CODECOPY DUP2 MLOAD SWAP2 MSTORE SWAP3 PUSH2 0x129C SWAP7 PUSH1 0x40 MLOAD SWAP3 DUP4 SWAP3 DUP4 CALLDATACOPY DUP2 ADD PUSH1 0x0 DUP2 MSTORE SUB SWAP1 KECCAK256 SWAP3 PUSH2 0x1338 PUSH1 0x40 MLOAD DUP1 SWAP3 PUSH2 0x2B91 JUMP JUMPDEST LOG2 DUP7 PUSH2 0x1291 JUMP JUMPDEST CALLVALUE PUSH2 0x1FA JUMPI PUSH1 0x20 CALLDATASIZE PUSH1 0x3 NOT ADD SLT PUSH2 0x1FA JUMPI PUSH1 0x4 CALLDATALOAD PUSH1 0x1 PUSH1 0x1 PUSH1 0x40 SHL SUB DUP2 GT PUSH2 0x1FA JUMPI PUSH2 0x136F SWAP1 CALLDATASIZE SWAP1 PUSH1 0x4 ADD PUSH2 0x27AE JUMP JUMPDEST CALLER PUSH1 0x0 SWAP1 DUP2 MSTORE PUSH32 0x1DA0B5176DFE03406AF5A6EED66CA01DDA9B45AC4DA671C3FA379CB93717EF81 PUSH1 0x20 MSTORE PUSH1 0x40 SWAP1 KECCAK256 SLOAD SWAP1 SWAP2 SWAP1 PUSH32 0xCE23C3E399818CFEE81A7AB0880F714E53D7672B08DF0FA62F2843416E1EA09 SWAP1 PUSH1 0xFF AND ISZERO PUSH2 0x1431 JUMPI POP PUSH2 0x13F3 PUSH1 0xFF PUSH1 0xB PUSH1 0x40 MLOAD DUP6 DUP6 DUP3 CALLDATACOPY PUSH1 0x20 DUP2 DUP8 DUP2 ADD PUSH1 0x2 DUP2 MSTORE SUB ADD SWAP1 KECCAK256 ADD SLOAD PUSH1 0xB0 SHR AND PUSH2 0x2FF5 JUMP JUMPDEST DUP2 PUSH1 0x40 MLOAD SWAP3 DUP4 SWAP3 DUP4 CALLDATACOPY DUP2 ADD PUSH1 0x0 DUP2 MSTORE SUB SWAP1 KECCAK256 PUSH32 0x104E3FF558A4BBDD00A2474B0C5753C7D7CFC043A0F4179B94EFAEB1B430F749 PUSH1 0x20 PUSH1 0x40 MLOAD CALLER DUP2 MSTORE LOG2 STOP JUMPDEST PUSH1 0x44 SWAP1 PUSH1 0x40 MLOAD SWAP1 PUSH4 0xE2517D3F PUSH1 0xE0 SHL DUP3 MSTORE CALLER PUSH1 0x4 DUP4 ADD MSTORE PUSH1 0x24 DUP3 ADD MSTORE REVERT JUMPDEST CALLVALUE PUSH2 0x1FA JUMPI PUSH1 0x0 CALLDATASIZE PUSH1 0x3 NOT ADD SLT PUSH2 0x1FA JUMPI PUSH1 0x6 SLOAD PUSH1 0x0 SWAP1 DUP2 DUP1 DUP1 DUP1 DUP1 JUMPDEST DUP6 DUP2 LT PUSH2 0x1499 JUMPI POP SWAP5 PUSH1 0xC0 SWAP6 PUSH1 0x40 MLOAD SWAP6 DUP7 MSTORE PUSH1 0x20 DUP7 ADD MSTORE PUSH1 0x40 DUP6 ADD MSTORE PUSH1 0x60 DUP5 ADD MSTORE PUSH1 0x80 DUP4 ADD MSTORE PUSH1 0xA0 DUP3 ADD MSTORE RETURN JUMPDEST PUSH2 0x14A2 DUP2 PUSH2 0x291C JUMP JUMPDEST POP PUSH2 0x14AC SWAP1 PUSH2 0x3180 JUMP JUMPDEST SWAP7 PUSH1 0x40 MLOAD SWAP1 PUSH2 0x14BA DUP3 PUSH2 0x29BB JUMP JUMPDEST PUSH2 0x14C3 DUP10 PUSH2 0x2A13 JUMP JUMPDEST DUP3 MSTORE PUSH2 0x14D1 PUSH1 0x1 DUP11 ADD PUSH2 0x2A13 JUMP JUMPDEST PUSH1 0x20 DUP4 ADD MSTORE PUSH1 0x1 PUSH1 0xA0 SHL PUSH1 0x1 SWAP1 SUB SWAP4 DUP5 PUSH1 0x2 DUP12 ADD SLOAD AND PUSH1 0x40 DUP5 ADD MSTORE PUSH1 0x3 SWAP5 DUP1 DUP7 DUP13 ADD SLOAD AND PUSH1 0x60 DUP6 ADD MSTORE PUSH1 0x4 DUP12 ADD SLOAD SWAP1 PUSH1 0x80 DUP6 ADD SWAP2 DUP3 MSTORE PUSH1 0x5 DUP13 ADD SLOAD SWAP12 PUSH1 0xA0 SWAP1 DUP2 DUP8 ADD SWAP14 DUP15 MSTORE PUSH1 0x6 DUP2 ADD SLOAD PUSH1 0xC0 DUP9 ADD MSTORE PUSH1 0x7 DUP2 ADD SLOAD PUSH1 0xE0 DUP9 ADD MSTORE PUSH1 0xFF SWAP3 DUP2 DUP5 PUSH1 0x8 DUP2 SWAP5 ADD SLOAD AND PUSH2 0x100 DUP11 ADD SWAP1 PUSH2 0x1545 SWAP2 PUSH2 0x2E69 JUMP JUMPDEST PUSH2 0x1551 PUSH1 0x9 DUP3 ADD PUSH2 0x2A13 JUMP JUMPDEST PUSH2 0x120 DUP11 ADD MSTORE PUSH2 0x1563 PUSH1 0xA DUP3 ADD PUSH2 0x2A13 JUMP JUMPDEST PUSH2 0x140 DUP11 ADD MSTORE PUSH1 0xB ADD SLOAD SWAP3 DUP4 SWAP2 DUP3 AND PUSH2 0x160 DUP11 ADD MSTORE SHR AND ISZERO ISZERO PUSH2 0x180 DUP8 ADD MSTORE DUP2 DUP2 PUSH1 0xA8 SHR AND ISZERO ISZERO PUSH2 0x1A0 DUP8 ADD MSTORE PUSH1 0xB0 SHR AND ISZERO ISZERO PUSH2 0x1C0 DUP6 ADD MSTORE MLOAD PUSH2 0x15A6 SWAP2 PUSH2 0x3035 JUMP JUMPDEST SWAP9 MLOAD PUSH2 0x15B1 SWAP2 PUSH2 0x3035 JUMP JUMPDEST SWAP3 PUSH2 0x100 DUP3 ADD MLOAD PUSH1 0xA DUP2 LT ISZERO PUSH2 0xF59 JUMPI EQ DUP1 ISZERO PUSH2 0x1659 JUMPI JUMPDEST PUSH2 0x1649 JUMPI JUMPDEST PUSH2 0x100 DUP2 ADD MLOAD PUSH1 0xA DUP2 LT ISZERO PUSH2 0xF59 JUMPI PUSH1 0x8 EQ PUSH2 0x1639 JUMPI JUMPDEST PUSH1 0xE0 DUP2 ADD MLOAD TIMESTAMP GT SWAP1 DUP2 PUSH2 0x161F JUMPI JUMPDEST POP PUSH2 0x160A JUMPI JUMPDEST PUSH2 0x1602 SWAP1 PUSH2 0x3096 JUMP JUMPDEST SWAP6 SWAP1 SWAP6 PUSH2 0x146C JUMP JUMPDEST SWAP3 PUSH2 0x1617 PUSH2 0x1602 SWAP2 PUSH2 0x3096 JUMP JUMPDEST SWAP4 SWAP1 POP PUSH2 0x15F9 JUMP JUMPDEST PUSH2 0x100 SWAP2 POP ADD MLOAD PUSH1 0xA DUP2 LT ISZERO PUSH2 0xF59 JUMPI PUSH1 0x5 EQ ISZERO DUP9 PUSH2 0x15F3 JUMP JUMPDEST SWAP5 PUSH2 0x1643 SWAP1 PUSH2 0x3096 JUMP JUMPDEST SWAP5 PUSH2 0x15E5 JUMP JUMPDEST SWAP3 PUSH2 0x1653 SWAP1 PUSH2 0x3096 JUMP JUMPDEST SWAP3 PUSH2 0x15CE JUMP JUMPDEST POP PUSH2 0x100 DUP2 ADD MLOAD PUSH1 0xA DUP2 LT ISZERO PUSH2 0xF59 JUMPI PUSH1 0x4 EQ PUSH2 0x15C9 JUMP JUMPDEST CALLVALUE PUSH2 0x1FA JUMPI PUSH1 0x40 CALLDATASIZE PUSH1 0x3 NOT ADD SLT PUSH2 0x1FA JUMPI PUSH2 0x168A PUSH2 0x27DB JUMP JUMPDEST CALLER PUSH1 0x1 PUSH1 0x1 PUSH1 0xA0 SHL SUB DUP3 AND SUB PUSH2 0x16A6 JUMPI PUSH2 0x536 SWAP1 PUSH1 0x4 CALLDATALOAD PUSH2 0x2D9A JUMP JUMPDEST PUSH1 0x40 MLOAD PUSH4 0x334BD919 PUSH1 0xE1 SHL DUP2 MSTORE PUSH1 0x4 SWAP1 REVERT JUMPDEST CALLVALUE PUSH2 0x1FA JUMPI PUSH1 0x40 CALLDATASIZE PUSH1 0x3 NOT ADD SLT PUSH2 0x1FA JUMPI PUSH2 0x16D1 PUSH2 0x27F1 JUMP JUMPDEST PUSH1 0x1 PUSH1 0x1 PUSH1 0xA0 SHL SUB AND PUSH1 0x0 SWAP1 DUP2 MSTORE PUSH1 0x5 PUSH1 0x20 MSTORE PUSH1 0x40 SWAP1 KECCAK256 DUP1 SLOAD PUSH1 0x24 CALLDATALOAD SWAP1 DUP2 LT ISZERO PUSH2 0x1FA JUMPI PUSH2 0x40B PUSH2 0x411 SWAP2 PUSH2 0x364 SWAP4 PUSH2 0x2969 JUMP JUMPDEST CALLVALUE PUSH2 0x1FA JUMPI PUSH1 0x20 CALLDATASIZE PUSH1 0x3 NOT ADD SLT PUSH2 0x1FA JUMPI PUSH1 0x4 CALLDATALOAD PUSH1 0x1 PUSH1 0x1 PUSH1 0x40 SHL SUB DUP2 GT PUSH2 0x1FA JUMPI PUSH1 0xFF PUSH1 0xB PUSH1 0x20 PUSH2 0x173C DUP2 SWAP5 CALLDATASIZE SWAP1 PUSH1 0x4 ADD PUSH2 0x27AE JUMP JUMPDEST SWAP2 SWAP1 DUP3 PUSH1 0x40 MLOAD SWAP4 DUP5 SWAP3 DUP4 CALLDATACOPY DUP2 ADD PUSH1 0x2 DUP2 MSTORE SUB ADD SWAP1 KECCAK256 ADD SLOAD PUSH1 0xB0 SHR AND PUSH1 0x40 MLOAD SWAP1 ISZERO ISZERO DUP2 MSTORE RETURN JUMPDEST CALLVALUE PUSH2 0x1FA JUMPI PUSH2 0x536 PUSH1 0x20 PUSH1 0xB PUSH2 0x1776 CALLDATASIZE PUSH2 0x28E1 JUMP JUMPDEST SWAP4 SWAP1 SWAP2 PUSH2 0x1781 PUSH2 0x2C9A JUMP JUMPDEST PUSH2 0x17A6 PUSH1 0xFF DUP6 PUSH1 0x40 MLOAD DUP7 DUP6 DUP3 CALLDATACOPY DUP6 DUP2 DUP9 DUP2 ADD PUSH1 0x2 DUP2 MSTORE SUB ADD SWAP1 KECCAK256 ADD SLOAD PUSH1 0xB0 SHR AND PUSH2 0x2FF5 JUMP JUMPDEST DUP3 PUSH1 0x40 MLOAD SWAP4 DUP5 SWAP3 DUP4 CALLDATACOPY PUSH1 0x2 SWAP1 DUP3 ADD SWAP1 DUP2 MSTORE SUB ADD SWAP1 KECCAK256 ADD DUP1 SLOAD PUSH1 0xFF PUSH1 0xA0 SHL NOT AND SWAP2 ISZERO ISZERO PUSH1 0xA0 SHL PUSH1 0xFF PUSH1 0xA0 SHL AND SWAP2 SWAP1 SWAP2 OR SWAP1 SSTORE JUMP JUMPDEST CALLVALUE PUSH2 0x1FA JUMPI PUSH1 0x40 CALLDATASIZE PUSH1 0x3 NOT ADD SLT PUSH2 0x1FA JUMPI PUSH2 0x536 PUSH1 0x4 CALLDATALOAD PUSH2 0x17F8 PUSH2 0x27DB JUMP JUMPDEST SWAP1 DUP1 PUSH1 0x0 MSTORE PUSH1 0x0 PUSH1 0x20 MSTORE PUSH2 0x1813 PUSH1 0x1 PUSH1 0x40 PUSH1 0x0 KECCAK256 ADD SLOAD PUSH2 0x2CF6 JUMP JUMPDEST PUSH2 0x2D1C JUMP JUMPDEST CALLVALUE PUSH2 0x1FA JUMPI PUSH1 0x20 CALLDATASIZE PUSH1 0x3 NOT ADD SLT PUSH2 0x1FA JUMPI PUSH1 0x4 CALLDATALOAD PUSH1 0x0 MSTORE PUSH1 0x0 PUSH1 0x20 MSTORE PUSH1 0x20 PUSH1 0x1 PUSH1 0x40 PUSH1 0x0 KECCAK256 ADD SLOAD PUSH1 0x40 MLOAD SWAP1 DUP2 MSTORE RETURN JUMPDEST CALLVALUE PUSH2 0x1FA JUMPI PUSH1 0xA0 CALLDATASIZE PUSH1 0x3 NOT ADD SLT PUSH2 0x1FA JUMPI PUSH1 0x4 CALLDATALOAD PUSH1 0x1 PUSH1 0x1 PUSH1 0x40 SHL SUB DUP2 GT PUSH2 0x1FA JUMPI PUSH2 0x1877 SWAP1 CALLDATASIZE SWAP1 PUSH1 0x4 ADD PUSH2 0x28B1 JUMP JUMPDEST SWAP1 PUSH1 0x24 CALLDATALOAD PUSH1 0x1 PUSH1 0x1 PUSH1 0x40 SHL SUB DUP2 GT PUSH2 0x1FA JUMPI PUSH2 0x1897 SWAP1 CALLDATASIZE SWAP1 PUSH1 0x4 ADD PUSH2 0x28B1 JUMP JUMPDEST SWAP3 SWAP1 PUSH1 0x44 CALLDATALOAD PUSH1 0x1 PUSH1 0x1 PUSH1 0x40 SHL SUB DUP2 GT PUSH2 0x1FA JUMPI PUSH2 0x18B8 SWAP1 CALLDATASIZE SWAP1 PUSH1 0x4 ADD PUSH2 0x28B1 JUMP JUMPDEST PUSH1 0x64 SWAP6 SWAP2 SWAP6 CALLDATALOAD PUSH1 0x1 PUSH1 0x1 PUSH1 0x40 SHL SUB DUP2 GT PUSH2 0x1FA JUMPI PUSH2 0x18DA SWAP1 CALLDATASIZE SWAP1 PUSH1 0x4 ADD PUSH2 0x28B1 JUMP JUMPDEST SWAP7 PUSH1 0x1 PUSH1 0x1 PUSH1 0x40 SHL SUB PUSH1 0x84 CALLDATALOAD GT PUSH2 0x1FA JUMPI PUSH2 0x18FA CALLDATASIZE PUSH1 0x84 CALLDATALOAD PUSH1 0x4 ADD PUSH2 0x28B1 JUMP JUMPDEST SWAP9 SWAP1 SWAP7 PUSH2 0x1905 PUSH2 0x2C9A JUMP JUMPDEST PUSH2 0x1910 DUP6 DUP3 EQ PUSH2 0x3058 JUMP JUMPDEST PUSH2 0x191B DUP7 DUP3 EQ PUSH2 0x3058 JUMP JUMPDEST PUSH1 0x0 JUMPDEST DUP2 DUP2 LT PUSH2 0x1927 JUMPI STOP JUMPDEST PUSH1 0xFF PUSH1 0xB PUSH1 0x20 PUSH2 0x1938 DUP5 DUP7 DUP16 PUSH2 0x30A5 JUMP JUMPDEST SWAP2 SWAP1 DUP3 PUSH1 0x40 MLOAD SWAP4 DUP5 SWAP3 DUP4 CALLDATACOPY DUP2 ADD PUSH1 0x2 DUP2 MSTORE SUB ADD SWAP1 KECCAK256 ADD SLOAD PUSH1 0xB0 SHR AND DUP1 PUSH2 0x1A62 JUMPI JUMPDEST PUSH2 0x196C JUMPI JUMPDEST PUSH2 0x1967 SWAP1 PUSH2 0x3096 JUMP JUMPDEST PUSH2 0x191E JUMP JUMPDEST PUSH2 0x1977 DUP2 DUP4 DUP13 PUSH2 0x30A5 JUMP JUMPDEST SWAP2 SWAP1 PUSH2 0x1984 DUP3 DUP11 DUP13 PUSH2 0x30E6 JUMP JUMPDEST CALLDATALOAD SWAP1 PUSH1 0x1 PUSH1 0x1 PUSH1 0xA0 SHL SUB DUP3 AND DUP3 SUB PUSH2 0x1FA JUMPI DUP14 SWAP4 DUP13 SWAP3 DUP10 PUSH2 0x19C0 DUP7 PUSH2 0x19B8 DUP2 DUP16 PUSH2 0x19B1 DUP16 DUP16 SWAP3 DUP5 SWAP2 PUSH2 0x30E6 JUMP JUMPDEST CALLDATALOAD SWAP6 PUSH2 0x30A5 JUMP JUMPDEST SWAP10 SWAP1 SWAP8 PUSH2 0x30E6 JUMP JUMPDEST CALLDATALOAD SWAP2 ADDRESS EXTCODESIZE ISZERO PUSH2 0x1FA JUMPI PUSH1 0x40 MLOAD PUSH4 0x91CA1025 PUSH1 0xE0 SHL DUP2 MSTORE PUSH1 0xA0 PUSH1 0x4 DUP3 ADD MSTORE SWAP8 PUSH1 0x0 SWAP7 DUP10 SWAP7 DUP8 SWAP7 PUSH2 0x1A1E SWAP6 SWAP2 PUSH2 0x19F8 SWAP2 PUSH1 0xA4 DUP11 ADD SWAP2 PUSH2 0x2FD4 JUMP JUMPDEST PUSH1 0x1 PUSH1 0x1 PUSH1 0xA0 SHL SUB SWAP1 SWAP5 AND PUSH1 0x24 DUP9 ADD MSTORE PUSH1 0x44 DUP8 ADD MSTORE DUP6 DUP4 SUB PUSH1 0x3 NOT ADD PUSH1 0x64 DUP8 ADD MSTORE PUSH2 0x2FD4 JUMP JUMPDEST SWAP1 PUSH1 0x84 DUP4 ADD MSTORE SUB DUP2 DUP4 ADDRESS GAS CALL DUP1 ISZERO PUSH2 0x1A56 JUMPI PUSH2 0x1A3C JUMPI JUMPDEST SWAP1 POP PUSH2 0x195E JUMP JUMPDEST PUSH1 0x1 PUSH1 0x1 PUSH1 0x40 SHL SUB DUP3 GT PUSH2 0xDDA JUMPI PUSH2 0x1967 SWAP2 PUSH1 0x40 MSTORE PUSH2 0x1A35 JUMP JUMPDEST PUSH1 0x40 MLOAD RETURNDATASIZE PUSH1 0x0 DUP3 RETURNDATACOPY RETURNDATASIZE SWAP1 REVERT JUMPDEST POP PUSH2 0x1A6E DUP2 DUP8 DUP7 PUSH2 0x30E6 JUMP JUMPDEST CALLDATALOAD ISZERO ISZERO PUSH2 0x1959 JUMP JUMPDEST CALLVALUE PUSH2 0x1FA JUMPI PUSH1 0x40 CALLDATASIZE PUSH1 0x3 NOT ADD SLT PUSH2 0x1FA JUMPI PUSH1 0x4 CALLDATALOAD PUSH1 0x1 PUSH1 0x1 PUSH1 0x40 SHL SUB DUP2 GT PUSH2 0x1FA JUMPI PUSH2 0x1AA6 SWAP1 CALLDATASIZE SWAP1 PUSH1 0x4 ADD PUSH2 0x27AE JUMP JUMPDEST PUSH1 0x24 CALLDATALOAD SWAP2 PUSH1 0xA DUP4 LT ISZERO PUSH2 0x1FA JUMPI PUSH1 0x0 DUP1 MLOAD PUSH1 0x20 PUSH2 0x33EF DUP4 CODECOPY DUP2 MLOAD SWAP2 MSTORE SWAP2 PUSH1 0x20 SWAP2 PUSH2 0x1ACE PUSH2 0x2C9A JUMP JUMPDEST PUSH2 0x1AF4 PUSH1 0xFF PUSH1 0xB PUSH1 0x40 MLOAD DUP6 DUP6 DUP3 CALLDATACOPY DUP7 DUP2 DUP8 DUP2 ADD PUSH1 0x2 DUP2 MSTORE SUB ADD SWAP1 KECCAK256 ADD SLOAD PUSH1 0xB0 SHR AND PUSH2 0x2FF5 JUMP JUMPDEST PUSH2 0x1B14 DUP6 PUSH1 0x8 PUSH1 0x40 MLOAD DUP6 DUP6 DUP3 CALLDATACOPY DUP7 DUP2 DUP8 DUP2 ADD PUSH1 0x2 DUP2 MSTORE SUB ADD SWAP1 KECCAK256 ADD PUSH2 0x2EC9 JUMP JUMPDEST DUP2 PUSH1 0x40 MLOAD SWAP3 DUP4 SWAP3 DUP4 CALLDATACOPY DUP2 ADD PUSH1 0x0 DUP2 MSTORE SUB SWAP1 KECCAK256 SWAP3 PUSH2 0xD02 PUSH1 0x40 MLOAD DUP1 SWAP3 PUSH2 0x2B91 JUMP JUMPDEST CALLVALUE PUSH2 0x1FA JUMPI PUSH1 0x0 CALLDATASIZE PUSH1 0x3 NOT ADD SLT PUSH2 0x1FA JUMPI PUSH1 0x6 DUP1 SLOAD PUSH1 0x0 DUP1 JUMPDEST DUP3 DUP2 LT PUSH2 0x1CD7 JUMPI POP PUSH2 0x1B5E SWAP1 PUSH2 0x3390 JUMP JUMPDEST SWAP2 PUSH1 0x0 SWAP1 PUSH1 0x0 JUMPDEST DUP4 DUP2 LT PUSH2 0x1B7A JUMPI PUSH1 0x40 MLOAD DUP1 PUSH2 0x364 DUP8 DUP3 PUSH2 0x284F JUMP JUMPDEST PUSH2 0x1B86 PUSH2 0xEF1 DUP3 PUSH2 0x291C JUMP JUMPDEST PUSH1 0x40 MLOAD PUSH2 0x1B92 DUP2 PUSH2 0x29BB JUMP JUMPDEST PUSH2 0x1B9B DUP3 PUSH2 0x2A13 JUMP JUMPDEST DUP2 MSTORE PUSH2 0x1BA9 PUSH1 0x1 DUP4 ADD PUSH2 0x2A13 JUMP JUMPDEST PUSH1 0x20 DUP3 ADD MSTORE PUSH1 0x1 DUP1 PUSH1 0xA0 SHL SUB SWAP2 DUP3 PUSH1 0x2 DUP3 ADD SLOAD AND PUSH1 0x40 DUP4 ADD MSTORE DUP3 PUSH1 0x3 DUP3 ADD SLOAD AND PUSH1 0x60 DUP4 ADD MSTORE PUSH1 0x4 DUP2 ADD SLOAD PUSH1 0x80 DUP4 ADD MSTORE PUSH1 0x5 SWAP2 DUP3 DUP3 ADD SLOAD SWAP1 PUSH1 0xA0 SWAP2 DUP3 DUP3 ADD MSTORE DUP7 DUP4 ADD SLOAD PUSH1 0xC0 DUP3 ADD MSTORE PUSH2 0x1C0 PUSH1 0x7 DUP5 ADD SLOAD SWAP3 PUSH1 0xE0 DUP4 ADD SWAP4 DUP5 MSTORE PUSH1 0xFF SWAP1 DUP2 DUP1 PUSH1 0x8 DUP9 ADD SLOAD AND SWAP9 PUSH2 0x1C1B PUSH2 0x100 DUP8 ADD SWAP11 DUP12 PUSH2 0x2E69 JUMP JUMPDEST PUSH2 0x1C27 PUSH1 0x9 DUP10 ADD PUSH2 0x2A13 JUMP JUMPDEST PUSH2 0x120 DUP8 ADD MSTORE PUSH1 0xB PUSH1 0xA SWAP9 PUSH2 0x1C3D DUP11 DUP3 ADD PUSH2 0x2A13 JUMP JUMPDEST PUSH2 0x140 DUP10 ADD MSTORE ADD SLOAD SWAP3 DUP4 SWAP2 DUP3 AND PUSH2 0x160 DUP9 ADD MSTORE SHR AND ISZERO ISZERO PUSH2 0x180 DUP6 ADD MSTORE DUP2 DUP2 PUSH1 0xA8 SHR AND ISZERO ISZERO PUSH2 0x1A0 DUP6 ADD MSTORE PUSH1 0xB0 SHR AND ISZERO ISZERO SWAP2 ADD MSTORE MLOAD TIMESTAMP GT SWAP3 DUP4 PUSH2 0x1CC2 JUMPI JUMPDEST POP POP POP PUSH2 0x1C91 JUMPI JUMPDEST PUSH2 0x1C8C SWAP1 PUSH2 0x3096 JUMP JUMPDEST PUSH2 0x1B65 JUMP JUMPDEST SWAP2 PUSH2 0x1CBA PUSH2 0x1C8C SWAP2 PUSH2 0x1CA5 PUSH2 0xF30 DUP7 PUSH2 0x291C JUMP JUMPDEST PUSH2 0x1CAF DUP3 DUP10 PUSH2 0x33DA JUMP JUMPDEST MSTORE PUSH2 0xF4B DUP2 DUP9 PUSH2 0x33DA JUMP JUMPDEST SWAP3 SWAP1 POP PUSH2 0x1C83 JUMP JUMPDEST MLOAD SWAP2 SWAP3 POP DUP2 LT ISZERO PUSH2 0xF59 JUMPI EQ ISZERO DUP7 DUP1 DUP1 PUSH2 0x1C7B JUMP JUMPDEST PUSH2 0x1CE3 PUSH2 0xEF1 DUP3 PUSH2 0x291C JUMP JUMPDEST PUSH1 0x40 MLOAD PUSH2 0x1CEF DUP2 PUSH2 0x29BB JUMP JUMPDEST PUSH2 0x1CF8 DUP3 PUSH2 0x2A13 JUMP JUMPDEST DUP2 MSTORE PUSH2 0x1D06 PUSH1 0x1 DUP4 ADD PUSH2 0x2A13 JUMP JUMPDEST PUSH1 0x20 DUP3 ADD MSTORE PUSH1 0x1 DUP1 PUSH1 0xA0 SHL SUB SWAP2 DUP3 PUSH1 0x2 DUP3 ADD SLOAD AND PUSH1 0x40 DUP4 ADD MSTORE DUP3 PUSH1 0x3 DUP3 ADD SLOAD AND PUSH1 0x60 DUP4 ADD MSTORE PUSH1 0x4 DUP2 ADD SLOAD PUSH1 0x80 DUP4 ADD MSTORE PUSH1 0x5 SWAP2 DUP3 DUP3 ADD SLOAD SWAP1 PUSH1 0xA0 SWAP2 DUP3 DUP3 ADD MSTORE DUP9 DUP4 ADD SLOAD PUSH1 0xC0 DUP3 ADD MSTORE PUSH2 0x1C0 PUSH1 0x7 DUP5 ADD SLOAD SWAP3 PUSH1 0xE0 DUP4 ADD SWAP4 DUP5 MSTORE PUSH1 0xFF SWAP1 DUP2 DUP1 PUSH1 0x8 DUP9 ADD SLOAD AND SWAP9 PUSH2 0x1D78 PUSH2 0x100 DUP8 ADD SWAP11 DUP12 PUSH2 0x2E69 JUMP JUMPDEST PUSH2 0x1D84 PUSH1 0x9 DUP10 ADD PUSH2 0x2A13 JUMP JUMPDEST PUSH2 0x120 DUP8 ADD MSTORE PUSH1 0xB PUSH1 0xA SWAP9 PUSH2 0x1D9A DUP11 DUP3 ADD PUSH2 0x2A13 JUMP JUMPDEST PUSH2 0x140 DUP10 ADD MSTORE ADD SLOAD SWAP3 DUP4 SWAP2 DUP3 AND PUSH2 0x160 DUP9 ADD MSTORE SHR AND ISZERO ISZERO PUSH2 0x180 DUP6 ADD MSTORE DUP2 DUP2 PUSH1 0xA8 SHR AND ISZERO ISZERO PUSH2 0x1A0 DUP6 ADD MSTORE PUSH1 0xB0 SHR AND ISZERO ISZERO SWAP2 ADD MSTORE MLOAD TIMESTAMP GT SWAP3 DUP4 PUSH2 0x1E03 JUMPI JUMPDEST POP POP POP PUSH2 0x1DEE JUMPI JUMPDEST PUSH2 0x1DE9 SWAP1 PUSH2 0x3096 JUMP JUMPDEST PUSH2 0x1B4D JUMP JUMPDEST SWAP1 PUSH2 0x1DFB PUSH2 0x1DE9 SWAP2 PUSH2 0x3096 JUMP JUMPDEST SWAP2 SWAP1 POP PUSH2 0x1DE0 JUMP JUMPDEST MLOAD SWAP2 SWAP3 POP DUP2 LT ISZERO PUSH2 0xF59 JUMPI EQ ISZERO DUP6 DUP1 DUP1 PUSH2 0x1DD8 JUMP JUMPDEST CALLVALUE PUSH2 0x1FA JUMPI PUSH2 0x120 CALLDATASIZE PUSH1 0x3 NOT ADD SLT PUSH2 0x1FA JUMPI PUSH1 0x4 CALLDATALOAD PUSH1 0x1 PUSH1 0x1 PUSH1 0x40 SHL SUB DUP2 GT PUSH2 0x1FA JUMPI PUSH2 0x1E49 SWAP1 CALLDATASIZE SWAP1 PUSH1 0x4 ADD PUSH2 0x27AE JUMP JUMPDEST SWAP1 PUSH1 0x24 CALLDATALOAD PUSH1 0x1 PUSH1 0x1 PUSH1 0x40 SHL SUB DUP2 GT PUSH2 0x1FA JUMPI PUSH2 0x1E69 SWAP1 CALLDATASIZE SWAP1 PUSH1 0x4 ADD PUSH2 0x27AE JUMP JUMPDEST SWAP3 PUSH1 0x44 CALLDATALOAD PUSH1 0x1 PUSH1 0x1 PUSH1 0xA0 SHL SUB DUP2 AND DUP2 SUB PUSH2 0x1FA JUMPI PUSH1 0x64 CALLDATALOAD PUSH1 0x1 PUSH1 0x1 PUSH1 0xA0 SHL SUB DUP2 AND DUP2 SUB PUSH2 0x1FA JUMPI PUSH1 0xE4 CALLDATALOAD PUSH1 0x1 PUSH1 0x1 PUSH1 0x40 SHL SUB DUP2 GT PUSH2 0x1FA JUMPI PUSH2 0x1EAF SWAP1 CALLDATASIZE SWAP1 PUSH1 0x4 ADD PUSH2 0x27AE JUMP JUMPDEST SWAP3 SWAP1 SWAP2 PUSH2 0x104 CALLDATALOAD PUSH1 0x1 PUSH1 0x1 PUSH1 0x40 SHL SUB DUP2 GT PUSH2 0x1FA JUMPI PUSH2 0x1ED2 SWAP1 CALLDATASIZE SWAP1 PUSH1 0x4 ADD PUSH2 0x27AE JUMP JUMPDEST SWAP9 SWAP1 SWAP7 PUSH2 0x1EDD PUSH2 0x2C9A JUMP JUMPDEST PUSH1 0x2 PUSH1 0x1 SLOAD EQ PUSH2 0x2749 JUMPI PUSH1 0x2 PUSH1 0x1 SSTORE DUP7 ISZERO PUSH2 0x270F JUMPI PUSH1 0xFF PUSH1 0xB PUSH1 0x40 MLOAD DUP10 DUP13 DUP3 CALLDATACOPY PUSH1 0x2 DUP11 DUP3 ADD MSTORE PUSH1 0x20 DUP2 DUP12 DUP2 ADD SUB ADD SWAP1 KECCAK256 ADD SLOAD PUSH1 0xB0 SHR AND PUSH2 0x26D1 JUMPI PUSH1 0x1 PUSH1 0x1 PUSH1 0xA0 SHL SUB DUP5 AND ISZERO PUSH2 0x269B JUMPI PUSH1 0x1 PUSH1 0x1 PUSH1 0xA0 SHL SUB DUP4 AND ISZERO PUSH2 0x2666 JUMPI PUSH2 0x1F42 PUSH1 0x84 CALLDATALOAD ISZERO ISZERO PUSH2 0x2E28 JUMP JUMPDEST PUSH1 0xFF PUSH1 0x40 MLOAD DUP4 DUP4 DUP3 CALLDATACOPY PUSH1 0x20 DUP2 DUP6 DUP2 ADD PUSH1 0x7 DUP2 MSTORE SUB ADD SWAP1 KECCAK256 SLOAD AND PUSH2 0x2629 JUMPI PUSH1 0x40 MLOAD PUSH2 0x1F6B DUP2 PUSH2 0x29BB JUMP JUMPDEST PUSH2 0x1F76 CALLDATASIZE DUP10 DUP13 PUSH2 0x2B14 JUMP JUMPDEST DUP2 MSTORE PUSH2 0x1F83 CALLDATASIZE DUP5 DUP5 PUSH2 0x2B14 JUMP JUMPDEST PUSH1 0x20 DUP3 ADD MSTORE PUSH1 0x1 PUSH1 0x1 PUSH1 0xA0 SHL SUB DUP6 DUP2 AND PUSH1 0x40 DUP4 ADD MSTORE DUP5 AND PUSH1 0x60 DUP3 ADD MSTORE PUSH1 0x84 CALLDATALOAD PUSH1 0x80 DUP3 ADD MSTORE PUSH1 0x0 PUSH1 0xA0 DUP3 ADD DUP2 SWAP1 MSTORE PUSH1 0xA4 CALLDATALOAD PUSH1 0xC0 DUP4 ADD MSTORE PUSH1 0xC4 CALLDATALOAD PUSH1 0xE0 DUP4 ADD MSTORE PUSH2 0x100 DUP3 ADD MSTORE PUSH2 0x1FD1 CALLDATASIZE DUP9 DUP9 PUSH2 0x2B14 JUMP JUMPDEST PUSH2 0x120 DUP3 ADD MSTORE PUSH2 0x1FE2 CALLDATASIZE DUP13 DUP12 PUSH2 0x2B14 JUMP JUMPDEST PUSH2 0x140 DUP3 ADD MSTORE PUSH1 0x0 PUSH2 0x160 DUP3 ADD MSTORE PUSH1 0x0 PUSH2 0x180 DUP3 ADD MSTORE PUSH1 0x0 PUSH2 0x1A0 DUP3 ADD MSTORE PUSH1 0x1 PUSH2 0x1C0 DUP3 ADD MSTORE PUSH1 0x40 MLOAD DUP9 DUP12 DUP3 CALLDATACOPY PUSH1 0x20 DUP2 DUP11 DUP2 ADD PUSH1 0x2 DUP2 MSTORE SUB ADD SWAP1 KECCAK256 DUP2 MLOAD DUP1 MLOAD SWAP1 PUSH1 0x1 PUSH1 0x1 PUSH1 0x40 SHL SUB DUP3 GT PUSH2 0xDDA JUMPI DUP2 SWAP1 PUSH2 0x2046 DUP3 PUSH2 0x2040 DUP7 SLOAD PUSH2 0x2981 JUMP JUMPDEST DUP7 PUSH2 0x2E75 JUMP JUMPDEST PUSH1 0x20 SWAP1 PUSH1 0x1F DUP4 GT PUSH1 0x1 EQ PUSH2 0x25BD JUMPI PUSH1 0x0 SWAP3 PUSH2 0x25B2 JUMPI JUMPDEST POP POP DUP2 PUSH1 0x1 SHL SWAP2 PUSH1 0x0 NOT SWAP1 PUSH1 0x3 SHL SHR NOT AND OR DUP2 SSTORE JUMPDEST PUSH1 0x20 DUP3 ADD MLOAD DUP1 MLOAD SWAP1 PUSH1 0x1 PUSH1 0x1 PUSH1 0x40 SHL SUB DUP3 GT PUSH2 0xDDA JUMPI DUP2 SWAP1 PUSH2 0x20A3 DUP3 PUSH2 0x209A PUSH1 0x1 DUP8 ADD SLOAD PUSH2 0x2981 JUMP JUMPDEST PUSH1 0x1 DUP8 ADD PUSH2 0x2E75 JUMP JUMPDEST PUSH1 0x20 SWAP1 PUSH1 0x1F DUP4 GT PUSH1 0x1 EQ PUSH2 0x2540 JUMPI PUSH1 0x0 SWAP3 PUSH2 0x2535 JUMPI JUMPDEST POP POP DUP2 PUSH1 0x1 SHL SWAP2 PUSH1 0x0 NOT SWAP1 PUSH1 0x3 SHL SHR NOT AND OR PUSH1 0x1 DUP3 ADD SSTORE JUMPDEST PUSH1 0x40 DUP3 ADD MLOAD PUSH1 0x2 DUP3 ADD DUP1 SLOAD PUSH1 0x1 PUSH1 0x1 PUSH1 0xA0 SHL SUB SWAP3 DUP4 AND PUSH1 0x1 PUSH1 0x1 PUSH1 0xA0 SHL SUB NOT SWAP2 DUP3 AND OR SWAP1 SWAP2 SSTORE PUSH1 0x60 DUP5 ADD MLOAD PUSH1 0x3 DUP5 ADD DUP1 SLOAD SWAP2 SWAP1 SWAP4 AND SWAP2 AND OR SWAP1 SSTORE PUSH1 0x80 DUP3 ADD MLOAD PUSH1 0x4 DUP3 ADD SSTORE PUSH1 0xA0 DUP3 ADD MLOAD PUSH1 0x5 DUP3 ADD SSTORE PUSH1 0xC0 DUP3 ADD MLOAD PUSH1 0x6 DUP3 ADD SSTORE PUSH1 0xE0 DUP3 ADD MLOAD PUSH1 0x7 DUP3 ADD SSTORE PUSH2 0x100 DUP3 ADD MLOAD PUSH1 0xA DUP2 LT ISZERO PUSH2 0xF59 JUMPI PUSH2 0x214F SWAP1 PUSH1 0x8 DUP4 ADD PUSH2 0x2EC9 JUMP JUMPDEST PUSH2 0x120 DUP3 ADD MLOAD DUP1 MLOAD SWAP1 PUSH1 0x1 PUSH1 0x1 PUSH1 0x40 SHL SUB DUP3 GT PUSH2 0xDDA JUMPI DUP2 SWAP1 PUSH2 0x2182 DUP3 PUSH2 0x2179 PUSH1 0x9 DUP8 ADD SLOAD PUSH2 0x2981 JUMP JUMPDEST PUSH1 0x9 DUP8 ADD PUSH2 0x2E75 JUMP JUMPDEST PUSH1 0x20 SWAP1 PUSH1 0x1F DUP4 GT PUSH1 0x1 EQ PUSH2 0x24C3 JUMPI PUSH1 0x0 SWAP3 PUSH2 0x24B8 JUMPI JUMPDEST POP POP DUP2 PUSH1 0x1 SHL SWAP2 PUSH1 0x0 NOT SWAP1 PUSH1 0x3 SHL SHR NOT AND OR PUSH1 0x9 DUP3 ADD SSTORE JUMPDEST PUSH2 0x140 DUP3 ADD MLOAD DUP1 MLOAD SWAP1 PUSH1 0x1 PUSH1 0x1 PUSH1 0x40 SHL SUB DUP3 GT PUSH2 0xDDA JUMPI PUSH2 0x21E1 DUP3 PUSH2 0x21D8 PUSH1 0xA DUP7 ADD SLOAD PUSH2 0x2981 JUMP JUMPDEST PUSH1 0xA DUP7 ADD PUSH2 0x2E75 JUMP JUMPDEST PUSH1 0x20 SWAP1 PUSH1 0x1F DUP4 GT PUSH1 0x1 EQ PUSH2 0x2442 JUMPI SWAP2 DUP1 PUSH2 0x1C0 SWAP5 SWAP3 PUSH1 0xB SWAP5 PUSH1 0x0 SWAP3 PUSH2 0x2437 JUMPI JUMPDEST POP POP DUP2 PUSH1 0x1 SHL SWAP2 PUSH1 0x0 NOT SWAP1 PUSH1 0x3 SHL SHR NOT AND OR PUSH1 0xA DUP3 ADD SSTORE JUMPDEST PUSH2 0x160 DUP5 ADD MLOAD SWAP2 ADD DUP1 SLOAD PUSH2 0x180 DUP6 ADD MLOAD PUSH2 0x1A0 DUP7 ADD MLOAD SWAP5 SWAP1 SWAP6 ADD MLOAD SWAP4 ISZERO ISZERO PUSH1 0xA8 SHL PUSH1 0xFF PUSH1 0xA8 SHL AND PUSH1 0xFF PUSH1 0xA0 SHL SWAP6 ISZERO ISZERO PUSH1 0xA0 SHL SWAP6 SWAP1 SWAP6 AND PUSH1 0x1 PUSH1 0x1 PUSH1 0xA0 SHL SUB SWAP1 SWAP4 AND PUSH1 0x1 PUSH1 0x1 PUSH1 0xB8 SHL SUB NOT SWAP1 SWAP2 AND OR SWAP2 SWAP1 SWAP2 OR SWAP3 SWAP1 SWAP3 OR SWAP1 ISZERO ISZERO PUSH1 0xB0 SHL PUSH1 0xFF PUSH1 0xB0 SHL AND OR SWAP1 SSTORE PUSH1 0x6 SLOAD PUSH1 0x1 PUSH1 0x40 SHL DUP2 LT ISZERO PUSH2 0xDDA JUMPI DUP1 PUSH1 0x1 PUSH2 0x229D SWAP3 ADD PUSH1 0x6 SSTORE PUSH2 0x291C JUMP JUMPDEST SWAP2 SWAP1 SWAP2 PUSH2 0xDF0 JUMPI PUSH2 0x22D0 DUP9 DUP12 PUSH32 0x3B74001C181F1627871D82EDBE8FEC952804A9AC1AE4852A76D7B4B12059EBB4 SWAP5 PUSH2 0x2EE1 JUMP JUMPDEST PUSH1 0x1 DUP1 PUSH1 0xA0 SHL SUB DUP6 AND PUSH1 0x0 MSTORE PUSH1 0x4 PUSH1 0x20 MSTORE PUSH2 0x22F0 DUP9 DUP12 PUSH1 0x40 PUSH1 0x0 KECCAK256 PUSH2 0x2FA4 JUMP JUMPDEST PUSH1 0x1 DUP1 PUSH1 0xA0 SHL SUB DUP5 AND PUSH1 0x0 MSTORE PUSH1 0x5 PUSH1 0x20 MSTORE PUSH2 0x2310 DUP9 DUP12 PUSH1 0x40 PUSH1 0x0 KECCAK256 PUSH2 0x2FA4 JUMP JUMPDEST PUSH1 0x40 MLOAD DUP4 DUP3 DUP3 CALLDATACOPY PUSH1 0x20 DUP2 DUP6 DUP2 ADD PUSH1 0x7 DUP2 MSTORE SUB ADD SWAP1 KECCAK256 PUSH1 0x1 PUSH1 0xFF NOT DUP3 SLOAD AND OR SWAP1 SSTORE PUSH1 0x40 MLOAD DUP9 DUP12 DUP3 CALLDATACOPY DUP1 DUP10 DUP2 ADD PUSH1 0x0 DUP2 MSTORE SUB SWAP1 KECCAK256 SWAP3 PUSH2 0x235A PUSH1 0x40 MLOAD SWAP3 DUP4 SWAP3 PUSH1 0x40 DUP5 MSTORE PUSH1 0x40 DUP5 ADD SWAP2 PUSH2 0x2FD4 JUMP JUMPDEST PUSH1 0x84 CALLDATALOAD PUSH1 0x20 DUP4 ADD MSTORE PUSH1 0x1 PUSH1 0x1 PUSH1 0xA0 SHL SUB SWAP6 DUP7 AND SWAP7 SWAP1 SWAP6 AND SWAP5 SUB SWAP1 LOG4 DUP2 PUSH2 0x23E1 JUMPI JUMPDEST POP POP DUP4 PUSH2 0x2389 JUMPI JUMPDEST PUSH1 0x1 DUP1 SSTORE STOP JUMPDEST PUSH32 0x8844F391DBAC0A7CD1271ABBD738DD0F6DC5F36334F641A1DD16B240C013BD7 SWAP3 DUP2 PUSH1 0x40 MLOAD SWAP3 DUP4 SWAP3 DUP4 CALLDATACOPY DUP2 ADD PUSH1 0x0 DUP2 MSTORE SUB SWAP1 KECCAK256 SWAP3 PUSH2 0x23D5 PUSH1 0x40 MLOAD SWAP3 DUP4 SWAP3 PUSH1 0x20 DUP5 MSTORE PUSH1 0x20 DUP5 ADD SWAP2 PUSH2 0x2FD4 JUMP JUMPDEST SUB SWAP1 LOG2 DUP1 DUP1 DUP1 DUP1 PUSH2 0x2383 JUMP JUMPDEST PUSH32 0xE42175610FB2FD4C6D1FAACF875E64E70D4795D0B0CFBBC28DCF96D7720B5A1F SWAP1 PUSH1 0x40 MLOAD DUP5 DUP8 DUP3 CALLDATACOPY DUP1 DUP6 DUP2 ADD PUSH1 0x0 DUP2 MSTORE SUB SWAP1 KECCAK256 SWAP3 PUSH2 0x242D PUSH1 0x40 MLOAD SWAP3 DUP4 SWAP3 PUSH1 0x20 DUP5 MSTORE PUSH1 0x20 DUP5 ADD SWAP2 PUSH2 0x2FD4 JUMP JUMPDEST SUB SWAP1 LOG2 DUP5 DUP1 PUSH2 0x237B JUMP JUMPDEST ADD MLOAD SWAP1 POP CODESIZE DUP1 PUSH2 0x2201 JUMP JUMPDEST SWAP1 PUSH1 0xA DUP5 ADD PUSH1 0x0 MSTORE PUSH1 0x20 PUSH1 0x0 KECCAK256 SWAP2 PUSH1 0x0 JUMPDEST PUSH1 0x1F NOT DUP6 AND DUP2 LT PUSH2 0x24A0 JUMPI POP SWAP3 PUSH2 0x1C0 SWAP5 SWAP3 PUSH1 0x1 SWAP3 PUSH1 0xB SWAP6 DUP4 PUSH1 0x1F NOT DUP2 AND LT PUSH2 0x2487 JUMPI JUMPDEST POP POP POP DUP2 SHL ADD PUSH1 0xA DUP3 ADD SSTORE PUSH2 0x2219 JUMP JUMPDEST ADD MLOAD PUSH1 0x0 NOT PUSH1 0xF8 DUP5 PUSH1 0x3 SHL AND SHR NOT AND SWAP1 SSTORE CODESIZE DUP1 DUP1 PUSH2 0x2477 JUMP JUMPDEST SWAP2 SWAP3 PUSH1 0x20 PUSH1 0x1 DUP2 SWAP3 DUP7 DUP6 ADD MLOAD DUP2 SSTORE ADD SWAP5 ADD SWAP3 ADD PUSH2 0x2453 JUMP JUMPDEST ADD MLOAD SWAP1 POP DUP15 DUP1 PUSH2 0x2198 JUMP JUMPDEST SWAP3 POP PUSH1 0x9 DUP5 ADD PUSH1 0x0 MSTORE PUSH1 0x20 PUSH1 0x0 KECCAK256 SWAP1 PUSH1 0x0 SWAP4 JUMPDEST PUSH1 0x1F NOT DUP5 AND DUP6 LT PUSH2 0x251A JUMPI PUSH1 0x1 SWAP5 POP DUP4 PUSH1 0x1F NOT DUP2 AND LT PUSH2 0x2501 JUMPI JUMPDEST POP POP POP DUP2 SHL ADD PUSH1 0x9 DUP3 ADD SSTORE PUSH2 0x21B0 JUMP JUMPDEST ADD MLOAD PUSH1 0x0 NOT PUSH1 0xF8 DUP5 PUSH1 0x3 SHL AND SHR NOT AND SWAP1 SSTORE DUP15 DUP1 DUP1 PUSH2 0x24F1 JUMP JUMPDEST DUP2 DUP2 ADD MLOAD DUP4 SSTORE PUSH1 0x20 SWAP5 DUP6 ADD SWAP5 PUSH1 0x1 SWAP1 SWAP4 ADD SWAP3 SWAP1 SWAP2 ADD SWAP1 PUSH2 0x24D6 JUMP JUMPDEST ADD MLOAD SWAP1 POP DUP15 DUP1 PUSH2 0x20B9 JUMP JUMPDEST SWAP3 POP PUSH1 0x1 DUP5 ADD PUSH1 0x0 MSTORE PUSH1 0x20 PUSH1 0x0 KECCAK256 SWAP1 PUSH1 0x0 SWAP4 JUMPDEST PUSH1 0x1F NOT DUP5 AND DUP6 LT PUSH2 0x2597 JUMPI PUSH1 0x1 SWAP5 POP DUP4 PUSH1 0x1F NOT DUP2 AND LT PUSH2 0x257E JUMPI JUMPDEST POP POP POP DUP2 SHL ADD PUSH1 0x1 DUP3 ADD SSTORE PUSH2 0x20D1 JUMP JUMPDEST ADD MLOAD PUSH1 0x0 NOT PUSH1 0xF8 DUP5 PUSH1 0x3 SHL AND SHR NOT AND SWAP1 SSTORE DUP15 DUP1 DUP1 PUSH2 0x256E JUMP JUMPDEST DUP2 DUP2 ADD MLOAD DUP4 SSTORE PUSH1 0x20 SWAP5 DUP6 ADD SWAP5 PUSH1 0x1 SWAP1 SWAP4 ADD SWAP3 SWAP1 SWAP2 ADD SWAP1 PUSH2 0x2553 JUMP JUMPDEST ADD MLOAD SWAP1 POP DUP15 DUP1 PUSH2 0x205C JUMP JUMPDEST SWAP3 POP DUP4 PUSH1 0x0 MSTORE PUSH1 0x20 PUSH1 0x0 KECCAK256 SWAP1 PUSH1 0x0 SWAP4 JUMPDEST PUSH1 0x1F NOT DUP5 AND DUP6 LT PUSH2 0x260E JUMPI PUSH1 0x1 SWAP5 POP DUP4 PUSH1 0x1F NOT DUP2 AND LT PUSH2 0x25F5 JUMPI JUMPDEST POP POP POP DUP2 SHL ADD DUP2 SSTORE PUSH2 0x2071 JUMP JUMPDEST ADD MLOAD PUSH1 0x0 NOT PUSH1 0xF8 DUP5 PUSH1 0x3 SHL AND SHR NOT AND SWAP1 SSTORE DUP15 DUP1 DUP1 PUSH2 0x25E8 JUMP JUMPDEST DUP2 DUP2 ADD MLOAD DUP4 SSTORE PUSH1 0x20 SWAP5 DUP6 ADD SWAP5 PUSH1 0x1 SWAP1 SWAP4 ADD SWAP3 SWAP1 SWAP2 ADD SWAP1 PUSH2 0x25CD JUMP JUMPDEST PUSH1 0x40 MLOAD PUSH3 0x461BCD PUSH1 0xE5 SHL DUP2 MSTORE PUSH1 0x20 PUSH1 0x4 DUP3 ADD MSTORE PUSH1 0x15 PUSH1 0x24 DUP3 ADD MSTORE PUSH21 0x496E766F696365206E756D62657220657869737473 PUSH1 0x58 SHL PUSH1 0x44 DUP3 ADD MSTORE PUSH1 0x64 SWAP1 REVERT JUMPDEST PUSH1 0x40 MLOAD PUSH3 0x461BCD PUSH1 0xE5 SHL DUP2 MSTORE PUSH1 0x20 PUSH1 0x4 DUP3 ADD MSTORE PUSH1 0xD PUSH1 0x24 DUP3 ADD MSTORE PUSH13 0x24B73B30B634B210313ABCB2B9 PUSH1 0x99 SHL PUSH1 0x44 DUP3 ADD MSTORE PUSH1 0x64 SWAP1 REVERT JUMPDEST PUSH1 0x40 MLOAD PUSH3 0x461BCD PUSH1 0xE5 SHL DUP2 MSTORE PUSH1 0x20 PUSH1 0x4 DUP3 ADD MSTORE PUSH1 0xE PUSH1 0x24 DUP3 ADD MSTORE PUSH14 0x24B73B30B634B21039B2B63632B9 PUSH1 0x91 SHL PUSH1 0x44 DUP3 ADD MSTORE PUSH1 0x64 SWAP1 REVERT JUMPDEST PUSH1 0x40 MLOAD PUSH3 0x461BCD PUSH1 0xE5 SHL DUP2 MSTORE PUSH1 0x20 PUSH1 0x4 DUP3 ADD MSTORE PUSH1 0x16 PUSH1 0x24 DUP3 ADD MSTORE PUSH22 0x496E766F69636520616C726561647920657869737473 PUSH1 0x50 SHL PUSH1 0x44 DUP3 ADD MSTORE PUSH1 0x64 SWAP1 REVERT JUMPDEST PUSH1 0x40 MLOAD PUSH3 0x461BCD PUSH1 0xE5 SHL DUP2 MSTORE PUSH1 0x20 PUSH1 0x4 DUP3 ADD MSTORE PUSH1 0x12 PUSH1 0x24 DUP3 ADD MSTORE PUSH18 0x125B9D985B1A59081A5B9D9BDA58D9481251 PUSH1 0x72 SHL PUSH1 0x44 DUP3 ADD MSTORE PUSH1 0x64 SWAP1 REVERT JUMPDEST PUSH1 0x40 MLOAD PUSH4 0x3EE5AEB5 PUSH1 0xE0 SHL DUP2 MSTORE PUSH1 0x4 SWAP1 REVERT JUMPDEST CALLVALUE PUSH2 0x1FA JUMPI PUSH1 0x20 CALLDATASIZE PUSH1 0x3 NOT ADD SLT PUSH2 0x1FA JUMPI PUSH1 0x4 CALLDATALOAD SWAP1 PUSH4 0xFFFFFFFF PUSH1 0xE0 SHL DUP3 AND DUP1 SWAP3 SUB PUSH2 0x1FA JUMPI PUSH1 0x20 SWAP2 PUSH4 0x7965DB0B PUSH1 0xE0 SHL DUP2 EQ SWAP1 DUP2 ISZERO PUSH2 0x279D JUMPI JUMPDEST POP ISZERO ISZERO DUP2 MSTORE RETURN JUMPDEST PUSH4 0x1FFC9A7 PUSH1 0xE0 SHL EQ SWAP1 POP DUP4 PUSH2 0x2796 JUMP JUMPDEST SWAP2 DUP2 PUSH1 0x1F DUP5 ADD SLT ISZERO PUSH2 0x1FA JUMPI DUP3 CALLDATALOAD SWAP2 PUSH1 0x1 PUSH1 0x1 PUSH1 0x40 SHL SUB DUP4 GT PUSH2 0x1FA JUMPI PUSH1 0x20 DUP4 DUP2 DUP7 ADD SWAP6 ADD ADD GT PUSH2 0x1FA JUMPI JUMP JUMPDEST PUSH1 0x24 CALLDATALOAD SWAP1 PUSH1 0x1 PUSH1 0x1 PUSH1 0xA0 SHL SUB DUP3 AND DUP3 SUB PUSH2 0x1FA JUMPI JUMP JUMPDEST PUSH1 0x4 CALLDATALOAD SWAP1 PUSH1 0x1 PUSH1 0x1 PUSH1 0xA0 SHL SUB DUP3 AND DUP3 SUB PUSH2 0x1FA JUMPI JUMP JUMPDEST PUSH1 0x0 JUMPDEST DUP4 DUP2 LT PUSH2 0x281A JUMPI POP POP PUSH1 0x0 SWAP2 ADD MSTORE JUMP JUMPDEST DUP2 DUP2 ADD MLOAD DUP4 DUP3 ADD MSTORE PUSH1 0x20 ADD PUSH2 0x280A JUMP JUMPDEST SWAP1 PUSH1 0x20 SWAP2 PUSH2 0x2843 DUP2 MLOAD DUP1 SWAP3 DUP2 DUP6 MSTORE DUP6 DUP1 DUP7 ADD SWAP2 ADD PUSH2 0x2807 JUMP JUMPDEST PUSH1 0x1F ADD PUSH1 0x1F NOT AND ADD ADD SWAP1 JUMP JUMPDEST PUSH1 0x20 DUP1 DUP3 ADD SWAP1 DUP1 DUP4 MSTORE DUP4 MLOAD DUP1 SWAP3 MSTORE PUSH1 0x40 DUP4 ADD SWAP3 DUP2 PUSH1 0x40 DUP5 PUSH1 0x5 SHL DUP4 ADD ADD SWAP6 ADD SWAP4 PUSH1 0x0 SWAP2 JUMPDEST DUP5 DUP4 LT PUSH2 0x2883 JUMPI POP POP POP POP POP POP SWAP1 JUMP JUMPDEST SWAP1 SWAP2 SWAP3 SWAP4 SWAP5 SWAP6 DUP5 DUP1 PUSH2 0x28A1 PUSH1 0x1 SWAP4 PUSH1 0x3F NOT DUP7 DUP3 SUB ADD DUP8 MSTORE DUP11 MLOAD PUSH2 0x282A JUMP JUMPDEST SWAP9 ADD SWAP4 ADD SWAP4 ADD SWAP2 SWAP5 SWAP4 SWAP3 SWAP1 PUSH2 0x2873 JUMP JUMPDEST SWAP2 DUP2 PUSH1 0x1F DUP5 ADD SLT ISZERO PUSH2 0x1FA JUMPI DUP3 CALLDATALOAD SWAP2 PUSH1 0x1 PUSH1 0x1 PUSH1 0x40 SHL SUB DUP4 GT PUSH2 0x1FA JUMPI PUSH1 0x20 DUP1 DUP6 ADD SWAP5 DUP5 PUSH1 0x5 SHL ADD ADD GT PUSH2 0x1FA JUMPI JUMP JUMPDEST PUSH1 0x40 PUSH1 0x3 NOT DUP3 ADD SLT PUSH2 0x1FA JUMPI PUSH1 0x4 CALLDATALOAD SWAP1 PUSH1 0x1 PUSH1 0x1 PUSH1 0x40 SHL SUB DUP3 GT PUSH2 0x1FA JUMPI PUSH2 0x290B SWAP2 PUSH1 0x4 ADD PUSH2 0x27AE JUMP JUMPDEST SWAP1 SWAP2 PUSH1 0x24 CALLDATALOAD DUP1 ISZERO ISZERO DUP2 SUB PUSH2 0x1FA JUMPI SWAP1 JUMP JUMPDEST PUSH1 0x6 SLOAD DUP2 LT ISZERO PUSH2 0x2953 JUMPI PUSH1 0x6 PUSH1 0x0 MSTORE PUSH32 0xF652222313E28459528D920B65115C16C04F3EFC82AAEDC97BE59F3F377C0D3F ADD SWAP1 PUSH1 0x0 SWAP1 JUMP JUMPDEST PUSH4 0x4E487B71 PUSH1 0xE0 SHL PUSH1 0x0 MSTORE PUSH1 0x32 PUSH1 0x4 MSTORE PUSH1 0x24 PUSH1 0x0 REVERT JUMPDEST DUP1 SLOAD DUP3 LT ISZERO PUSH2 0x2953 JUMPI PUSH1 0x0 MSTORE PUSH1 0x20 PUSH1 0x0 KECCAK256 ADD SWAP1 PUSH1 0x0 SWAP1 JUMP JUMPDEST SWAP1 PUSH1 0x1 DUP3 DUP2 SHR SWAP3 AND DUP1 ISZERO PUSH2 0x29B1 JUMPI JUMPDEST PUSH1 0x20 DUP4 LT EQ PUSH2 0x299B JUMPI JUMP JUMPDEST PUSH4 0x4E487B71 PUSH1 0xE0 SHL PUSH1 0x0 MSTORE PUSH1 0x22 PUSH1 0x4 MSTORE PUSH1 0x24 PUSH1 0x0 REVERT JUMPDEST SWAP2 PUSH1 0x7F AND SWAP2 PUSH2 0x2990 JUMP JUMPDEST PUSH2 0x1E0 DUP2 ADD SWAP1 DUP2 LT PUSH1 0x1 PUSH1 0x1 PUSH1 0x40 SHL SUB DUP3 GT OR PUSH2 0xDDA JUMPI PUSH1 0x40 MSTORE JUMP JUMPDEST PUSH1 0xA0 DUP2 ADD SWAP1 DUP2 LT PUSH1 0x1 PUSH1 0x1 PUSH1 0x40 SHL SUB DUP3 GT OR PUSH2 0xDDA JUMPI PUSH1 0x40 MSTORE JUMP JUMPDEST SWAP1 PUSH1 0x1F DUP1 NOT SWAP2 ADD AND DUP2 ADD SWAP1 DUP2 LT PUSH1 0x1 PUSH1 0x1 PUSH1 0x40 SHL SUB DUP3 GT OR PUSH2 0xDDA JUMPI PUSH1 0x40 MSTORE JUMP JUMPDEST SWAP1 PUSH1 0x40 MLOAD SWAP2 DUP3 PUSH1 0x0 DUP3 SLOAD SWAP3 PUSH2 0x2A27 DUP5 PUSH2 0x2981 JUMP JUMPDEST SWAP1 DUP2 DUP5 MSTORE PUSH1 0x1 SWAP5 DUP6 DUP2 AND SWAP1 DUP2 PUSH1 0x0 EQ PUSH2 0x2A96 JUMPI POP PUSH1 0x1 EQ PUSH2 0x2A53 JUMPI JUMPDEST POP POP PUSH2 0x2A51 SWAP3 POP SUB DUP4 PUSH2 0x29F2 JUMP JUMPDEST JUMP JUMPDEST SWAP1 SWAP4 SWAP2 POP PUSH1 0x0 MSTORE PUSH1 0x20 SWAP1 DUP2 PUSH1 0x0 KECCAK256 SWAP4 PUSH1 0x0 SWAP2 JUMPDEST DUP2 DUP4 LT PUSH2 0x2A7E JUMPI POP POP PUSH2 0x2A51 SWAP4 POP DUP3 ADD ADD CODESIZE DUP1 PUSH2 0x2A43 JUMP JUMPDEST DUP6 SLOAD DUP9 DUP5 ADD DUP6 ADD MSTORE SWAP5 DUP6 ADD SWAP5 DUP8 SWAP5 POP SWAP2 DUP4 ADD SWAP2 PUSH2 0x2A66 JUMP JUMPDEST SWAP2 POP POP PUSH2 0x2A51 SWAP5 POP PUSH1 0x20 SWAP3 POP PUSH1 0xFF NOT AND DUP3 DUP5 ADD MSTORE ISZERO ISZERO PUSH1 0x5 SHL DUP3 ADD ADD CODESIZE DUP1 PUSH2 0x2A43 JUMP JUMPDEST SWAP1 PUSH2 0xDF0 JUMPI PUSH2 0x2AC7 SWAP1 PUSH2 0x2A13 JUMP JUMPDEST SWAP1 JUMP JUMPDEST PUSH1 0x40 PUSH1 0x3 NOT DUP3 ADD SLT PUSH2 0x1FA JUMPI PUSH1 0x1 PUSH1 0x1 PUSH1 0x40 SHL SUB SWAP2 PUSH1 0x4 CALLDATALOAD DUP4 DUP2 GT PUSH2 0x1FA JUMPI DUP3 PUSH2 0x2AF6 SWAP2 PUSH1 0x4 ADD PUSH2 0x27AE JUMP JUMPDEST SWAP4 SWAP1 SWAP4 SWAP3 PUSH1 0x24 CALLDATALOAD SWAP2 DUP3 GT PUSH2 0x1FA JUMPI PUSH2 0x2B10 SWAP2 PUSH1 0x4 ADD PUSH2 0x27AE JUMP JUMPDEST SWAP1 SWAP2 JUMP JUMPDEST SWAP3 SWAP2 SWAP3 PUSH1 0x1 PUSH1 0x1 PUSH1 0x40 SHL SUB DUP3 GT PUSH2 0xDDA JUMPI PUSH1 0x40 MLOAD SWAP2 PUSH2 0x2B3D PUSH1 0x1F DUP3 ADD PUSH1 0x1F NOT AND PUSH1 0x20 ADD DUP5 PUSH2 0x29F2 JUMP JUMPDEST DUP3 SWAP5 DUP2 DUP5 MSTORE DUP2 DUP4 ADD GT PUSH2 0x1FA JUMPI DUP3 DUP2 PUSH1 0x20 SWAP4 DUP5 PUSH1 0x0 SWAP7 ADD CALLDATACOPY ADD ADD MSTORE JUMP JUMPDEST SWAP1 DUP1 PUSH1 0x1F DUP4 ADD SLT ISZERO PUSH2 0x1FA JUMPI DUP2 PUSH1 0x20 PUSH2 0x2AC7 SWAP4 CALLDATALOAD SWAP2 ADD PUSH2 0x2B14 JUMP JUMPDEST DUP1 SLOAD DUP3 LT ISZERO PUSH2 0x2953 JUMPI PUSH1 0x0 MSTORE PUSH1 0x5 PUSH1 0x20 PUSH1 0x0 KECCAK256 SWAP2 MUL ADD SWAP1 PUSH1 0x0 SWAP1 JUMP JUMPDEST SWAP1 PUSH1 0xA DUP3 LT ISZERO PUSH2 0xF59 JUMPI MSTORE JUMP JUMPDEST PUSH1 0x20 DUP2 MSTORE DUP2 MLOAD PUSH2 0x2BBC PUSH2 0x1E0 SWAP2 DUP3 PUSH1 0x20 DUP6 ADD MSTORE PUSH2 0x200 DUP5 ADD SWAP1 PUSH2 0x282A JUMP JUMPDEST SWAP3 PUSH2 0x2BD9 PUSH1 0x20 DUP3 ADD MLOAD SWAP5 PUSH1 0x1F NOT SWAP6 DUP7 DUP7 DUP4 SUB ADD PUSH1 0x40 DUP8 ADD MSTORE PUSH2 0x282A JUMP JUMPDEST PUSH2 0x2C68 PUSH1 0x1 DUP1 PUSH1 0xA0 SHL SUB SWAP2 DUP3 PUSH1 0x40 DUP6 ADD MLOAD AND PUSH1 0x60 DUP8 ADD MSTORE DUP3 PUSH1 0x60 DUP6 ADD MLOAD AND PUSH1 0x80 DUP8 ADD MSTORE PUSH1 0x80 DUP5 ADD MLOAD PUSH1 0xA0 DUP8 ADD MSTORE PUSH1 0xA0 DUP5 ADD MLOAD PUSH1 0xC0 DUP8 ADD MSTORE PUSH1 0xC0 DUP5 ADD MLOAD PUSH1 0xE0 DUP8 ADD MSTORE PUSH2 0x2C53 PUSH1 0xE0 DUP6 ADD MLOAD PUSH2 0x100 SWAP1 DUP2 DUP10 ADD MSTORE DUP6 ADD MLOAD PUSH2 0x2C3D PUSH2 0x120 SWAP2 DUP3 DUP11 ADD SWAP1 PUSH2 0x2B91 JUMP JUMPDEST DUP6 ADD MLOAD SWAP2 PUSH2 0x140 SWAP3 DUP10 DUP10 DUP4 SUB ADD DUP5 DUP11 ADD MSTORE PUSH2 0x282A JUMP JUMPDEST SWAP1 DUP5 ADD MLOAD PUSH2 0x160 SWAP8 DUP8 DUP4 SUB ADD DUP9 DUP9 ADD MSTORE PUSH2 0x282A JUMP JUMPDEST SWAP5 DUP3 ADD MLOAD AND PUSH2 0x180 SWAP1 DUP2 DUP6 ADD MSTORE DUP2 ADD MLOAD ISZERO ISZERO PUSH2 0x1A0 SWAP1 DUP2 DUP6 ADD MSTORE DUP2 ADD MLOAD ISZERO ISZERO SWAP1 PUSH2 0x1C0 SWAP2 DUP3 DUP6 ADD MSTORE ADD MLOAD ISZERO ISZERO SWAP2 ADD MSTORE SWAP1 JUMP JUMPDEST CALLER PUSH1 0x0 SWAP1 DUP2 MSTORE PUSH32 0x1DDC098DA42ACDF4176DA08EC75800BC0FB2BCE2BE978B2037BCB0AE6966519 PUSH1 0x20 MSTORE PUSH1 0x40 SWAP1 KECCAK256 SLOAD PUSH32 0xEDCC084D3DCD65A1F7F23C65C46722FACA6953D28E43150A467CF43E5C309238 SWAP1 PUSH1 0xFF AND ISZERO PUSH2 0x1431 JUMPI POP JUMP JUMPDEST DUP1 PUSH1 0x0 MSTORE PUSH1 0x0 PUSH1 0x20 MSTORE PUSH1 0x40 PUSH1 0x0 KECCAK256 CALLER PUSH1 0x0 MSTORE PUSH1 0x20 MSTORE PUSH1 0xFF PUSH1 0x40 PUSH1 0x0 KECCAK256 SLOAD AND ISZERO PUSH2 0x1431 JUMPI POP JUMP JUMPDEST SWAP1 PUSH1 0x0 SWAP2 DUP1 DUP4 MSTORE DUP3 PUSH1 0x20 MSTORE PUSH1 0x40 DUP4 KECCAK256 SWAP2 PUSH1 0x1 DUP1 PUSH1 0xA0 SHL SUB AND SWAP2 DUP3 DUP5 MSTORE PUSH1 0x20 MSTORE PUSH1 0xFF PUSH1 0x40 DUP5 KECCAK256 SLOAD AND ISZERO PUSH1 0x0 EQ PUSH2 0x2D95 JUMPI DUP1 DUP4 MSTORE DUP3 PUSH1 0x20 MSTORE PUSH1 0x40 DUP4 KECCAK256 DUP3 DUP5 MSTORE PUSH1 0x20 MSTORE PUSH1 0x40 DUP4 KECCAK256 PUSH1 0x1 PUSH1 0xFF NOT DUP3 SLOAD AND OR SWAP1 SSTORE PUSH32 0x2F8788117E7EFF1D82E926EC794901D17C78024A50270940304540A733656F0D CALLER SWAP4 DUP1 LOG4 PUSH1 0x1 SWAP1 JUMP JUMPDEST POP POP SWAP1 JUMP JUMPDEST SWAP1 PUSH1 0x0 SWAP2 DUP1 DUP4 MSTORE DUP3 PUSH1 0x20 MSTORE PUSH1 0x40 DUP4 KECCAK256 SWAP2 PUSH1 0x1 DUP1 PUSH1 0xA0 SHL SUB AND SWAP2 DUP3 DUP5 MSTORE PUSH1 0x20 MSTORE PUSH1 0xFF PUSH1 0x40 DUP5 KECCAK256 SLOAD AND PUSH1 0x0 EQ PUSH2 0x2D95 JUMPI DUP1 DUP4 MSTORE DUP3 PUSH1 0x20 MSTORE PUSH1 0x40 DUP4 KECCAK256 DUP3 DUP5 MSTORE PUSH1 0x20 MSTORE PUSH1 0x40 DUP4 KECCAK256 PUSH1 0xFF NOT DUP2 SLOAD AND SWAP1 SSTORE PUSH32 0xF6391F5C32D9C69D2A47EA670B442974B53935D1EDC7FD64EB21E047A839171B CALLER SWAP4 DUP1 LOG4 PUSH1 0x1 SWAP1 JUMP JUMPDEST PUSH1 0x20 SWAP1 DUP3 PUSH1 0x40 MLOAD SWAP4 DUP5 SWAP3 DUP4 CALLDATACOPY DUP2 ADD PUSH1 0x3 DUP2 MSTORE SUB ADD SWAP1 KECCAK256 SWAP1 JUMP JUMPDEST ISZERO PUSH2 0x2E2F JUMPI JUMP JUMPDEST PUSH1 0x40 MLOAD PUSH3 0x461BCD PUSH1 0xE5 SHL DUP2 MSTORE PUSH1 0x20 PUSH1 0x4 DUP3 ADD MSTORE PUSH1 0x12 PUSH1 0x24 DUP3 ADD MSTORE PUSH18 0x416D6F756E74206D757374206265203E203 PUSH1 0x74 SHL PUSH1 0x44 DUP3 ADD MSTORE PUSH1 0x64 SWAP1 REVERT JUMPDEST PUSH1 0xA DUP3 LT ISZERO PUSH2 0xF59 JUMPI MSTORE JUMP JUMPDEST SWAP1 PUSH1 0x1F DUP2 GT PUSH2 0x2E83 JUMPI POP POP POP JUMP JUMPDEST PUSH1 0x0 SWAP2 DUP3 MSTORE PUSH1 0x20 DUP3 KECCAK256 SWAP1 PUSH1 0x20 PUSH1 0x1F DUP6 ADD PUSH1 0x5 SHR DUP4 ADD SWAP5 LT PUSH2 0x2EBF JUMPI JUMPDEST PUSH1 0x1F ADD PUSH1 0x5 SHR ADD SWAP2 JUMPDEST DUP3 DUP2 LT PUSH2 0x2EB4 JUMPI POP POP POP JUMP JUMPDEST DUP2 DUP2 SSTORE PUSH1 0x1 ADD PUSH2 0x2EA8 JUMP JUMPDEST SWAP1 SWAP3 POP DUP3 SWAP1 PUSH2 0x2E9F JUMP JUMPDEST SWAP1 PUSH1 0xA DUP2 LT ISZERO PUSH2 0xF59 JUMPI PUSH1 0xFF DUP1 NOT DUP4 SLOAD AND SWAP2 AND OR SWAP1 SSTORE JUMP JUMPDEST SWAP1 SWAP3 SWAP2 PUSH1 0x1 PUSH1 0x1 PUSH1 0x40 SHL SUB DUP2 GT PUSH2 0xDDA JUMPI PUSH2 0x2F06 DUP2 PUSH2 0x2F00 DUP5 SLOAD PUSH2 0x2981 JUMP JUMPDEST DUP5 PUSH2 0x2E75 JUMP JUMPDEST PUSH1 0x0 PUSH1 0x1F DUP3 GT PUSH1 0x1 EQ PUSH2 0x2F40 JUMPI DUP2 SWAP3 SWAP4 SWAP5 PUSH1 0x0 SWAP3 PUSH2 0x2F35 JUMPI JUMPDEST POP POP DUP2 PUSH1 0x1 SHL SWAP2 PUSH1 0x0 NOT SWAP1 PUSH1 0x3 SHL SHR NOT AND OR SWAP1 SSTORE JUMP JUMPDEST ADD CALLDATALOAD SWAP1 POP CODESIZE DUP1 PUSH2 0x2F1F JUMP JUMPDEST PUSH1 0x1F NOT DUP3 AND SWAP5 DUP4 DUP3 MSTORE PUSH1 0x20 SWAP2 DUP3 DUP2 KECCAK256 SWAP3 DUP2 SWAP1 JUMPDEST DUP9 DUP3 LT PUSH2 0x2F8C JUMPI POP POP DUP4 PUSH1 0x1 SWAP6 SWAP7 SWAP8 LT PUSH2 0x2F72 JUMPI JUMPDEST POP POP POP DUP2 SHL ADD SWAP1 SSTORE JUMP JUMPDEST ADD CALLDATALOAD PUSH1 0x0 NOT PUSH1 0x3 DUP5 SWAP1 SHL PUSH1 0xF8 AND SHR NOT AND SWAP1 SSTORE CODESIZE DUP1 DUP1 PUSH2 0x2F68 JUMP JUMPDEST DUP1 PUSH1 0x1 DUP5 SWAP7 DUP3 SWAP5 SWAP6 DUP8 ADD CALLDATALOAD DUP2 SSTORE ADD SWAP6 ADD SWAP3 ADD SWAP1 PUSH2 0x2F53 JUMP JUMPDEST SWAP2 SWAP1 SWAP2 DUP1 SLOAD PUSH1 0x1 PUSH1 0x40 SHL DUP2 LT ISZERO PUSH2 0xDDA JUMPI PUSH2 0x2FC4 SWAP2 PUSH1 0x1 DUP3 ADD DUP2 SSTORE PUSH2 0x2969 JUMP JUMPDEST SWAP3 SWAP1 SWAP3 PUSH2 0xDF0 JUMPI PUSH2 0x2A51 SWAP3 PUSH2 0x2EE1 JUMP JUMPDEST SWAP1 DUP1 PUSH1 0x20 SWAP4 SWAP3 DUP2 DUP5 MSTORE DUP5 DUP5 ADD CALLDATACOPY PUSH1 0x0 DUP3 DUP3 ADD DUP5 ADD MSTORE PUSH1 0x1F ADD PUSH1 0x1F NOT AND ADD ADD SWAP1 JUMP JUMPDEST ISZERO PUSH2 0x2FFC JUMPI JUMP JUMPDEST PUSH1 0x40 MLOAD PUSH3 0x461BCD PUSH1 0xE5 SHL DUP2 MSTORE PUSH1 0x20 PUSH1 0x4 DUP3 ADD MSTORE PUSH1 0x11 PUSH1 0x24 DUP3 ADD MSTORE PUSH17 0x125B9D9BDA58D9481B9BDD08199BDD5B99 PUSH1 0x7A SHL PUSH1 0x44 DUP3 ADD MSTORE PUSH1 0x64 SWAP1 REVERT JUMPDEST SWAP2 SWAP1 DUP3 ADD DUP1 SWAP3 GT PUSH2 0x3042 JUMPI JUMP JUMPDEST PUSH4 0x4E487B71 PUSH1 0xE0 SHL PUSH1 0x0 MSTORE PUSH1 0x11 PUSH1 0x4 MSTORE PUSH1 0x24 PUSH1 0x0 REVERT JUMPDEST ISZERO PUSH2 0x305F JUMPI JUMP JUMPDEST PUSH1 0x40 MLOAD PUSH3 0x461BCD PUSH1 0xE5 SHL DUP2 MSTORE PUSH1 0x20 PUSH1 0x4 DUP3 ADD MSTORE PUSH1 0xF PUSH1 0x24 DUP3 ADD MSTORE PUSH15 0x98CADCCEE8D040DAD2E6DAC2E8C6D PUSH1 0x8B SHL PUSH1 0x44 DUP3 ADD MSTORE PUSH1 0x64 SWAP1 REVERT JUMPDEST PUSH1 0x0 NOT DUP2 EQ PUSH2 0x3042 JUMPI PUSH1 0x1 ADD SWAP1 JUMP JUMPDEST SWAP2 SWAP1 DUP2 LT ISZERO PUSH2 0x2953 JUMPI PUSH1 0x5 SHL DUP2 ADD CALLDATALOAD SWAP1 PUSH1 0x1E NOT DUP2 CALLDATASIZE SUB ADD DUP3 SLT ISZERO PUSH2 0x1FA JUMPI ADD SWAP1 DUP2 CALLDATALOAD SWAP2 PUSH1 0x1 PUSH1 0x1 PUSH1 0x40 SHL SUB DUP4 GT PUSH2 0x1FA JUMPI PUSH1 0x20 ADD DUP3 CALLDATASIZE SUB DUP2 SGT PUSH2 0x1FA JUMPI SWAP2 SWAP1 JUMP JUMPDEST SWAP2 SWAP1 DUP2 LT ISZERO PUSH2 0x2953 JUMPI PUSH1 0x5 SHL ADD SWAP1 JUMP JUMPDEST PUSH1 0x40 MLOAD SWAP1 PUSH2 0x3103 DUP3 PUSH2 0x29BB JUMP JUMPDEST DUP2 PUSH1 0x60 DUP2 MSTORE PUSH1 0x60 PUSH1 0x20 DUP3 ADD MSTORE PUSH2 0x1C0 PUSH1 0x0 SWAP2 DUP3 PUSH1 0x40 DUP3 ADD MSTORE DUP3 PUSH1 0x60 DUP3 ADD MSTORE DUP3 PUSH1 0x80 DUP3 ADD MSTORE DUP3 PUSH1 0xA0 DUP3 ADD MSTORE DUP3 PUSH1 0xC0 DUP3 ADD MSTORE DUP3 PUSH1 0xE0 DUP3 ADD MSTORE DUP3 PUSH2 0x100 DUP3 ADD MSTORE PUSH1 0x60 PUSH2 0x120 DUP3 ADD MSTORE PUSH1 0x60 PUSH2 0x140 DUP3 ADD MSTORE DUP3 PUSH2 0x160 DUP3 ADD MSTORE DUP3 PUSH2 0x180 DUP3 ADD MSTORE DUP3 PUSH2 0x1A0 DUP3 ADD MSTORE ADD MSTORE JUMP JUMPDEST PUSH1 0x1 PUSH1 0x1 PUSH1 0x40 SHL SUB DUP2 GT PUSH2 0xDDA JUMPI PUSH1 0x5 SHL PUSH1 0x20 ADD SWAP1 JUMP JUMPDEST PUSH1 0x40 MLOAD SWAP1 DUP2 PUSH1 0x0 DUP3 SLOAD PUSH2 0x3192 DUP2 PUSH2 0x2981 JUMP JUMPDEST SWAP4 PUSH1 0x1 SWAP2 DUP1 DUP4 AND SWAP1 DUP2 ISZERO PUSH2 0x31F7 JUMPI POP PUSH1 0x1 EQ PUSH2 0x31BA JUMPI JUMPDEST POP POP PUSH1 0x20 SWAP3 POP PUSH1 0x2 DUP2 MSTORE SUB ADD SWAP1 KECCAK256 SWAP1 JUMP JUMPDEST SWAP1 SWAP2 POP PUSH1 0x0 MSTORE PUSH1 0x20 SWAP1 DUP2 PUSH1 0x0 KECCAK256 SWAP1 PUSH1 0x0 SWAP2 JUMPDEST DUP6 DUP4 LT PUSH2 0x31E3 JUMPI POP POP POP POP PUSH1 0x20 SWAP2 DUP2 ADD CODESIZE DUP1 PUSH2 0x31A9 JUMP JUMPDEST DUP1 SLOAD DUP8 DUP5 ADD MSTORE DUP7 SWAP5 POP SWAP2 DUP4 ADD SWAP2 DUP2 ADD PUSH2 0x31CC JUMP JUMPDEST SWAP3 POP POP POP PUSH1 0x20 SWAP4 SWAP2 POP PUSH1 0xFF NOT AND DUP3 MSTORE DUP1 ISZERO ISZERO MUL DUP2 ADD CODESIZE DUP1 PUSH2 0x31A9 JUMP JUMPDEST PUSH2 0x321B PUSH2 0x30F6 JUMP JUMPDEST POP PUSH1 0x0 SWAP2 PUSH1 0x6 SWAP2 DUP3 SLOAD SWAP4 JUMPDEST DUP5 DUP2 LT PUSH2 0x3266 JUMPI PUSH1 0x40 MLOAD PUSH3 0x461BCD PUSH1 0xE5 SHL DUP2 MSTORE PUSH1 0x20 PUSH1 0x4 DUP3 ADD MSTORE PUSH1 0x11 PUSH1 0x24 DUP3 ADD MSTORE PUSH17 0x125B9D9BDA58D9481B9BDD08199BDD5B99 PUSH1 0x7A SHL PUSH1 0x44 DUP3 ADD MSTORE PUSH1 0x64 SWAP1 REVERT JUMPDEST PUSH2 0x3272 PUSH2 0xEF1 DUP3 PUSH2 0x291C JUMP JUMPDEST PUSH1 0x40 SWAP1 DUP2 MLOAD SWAP2 PUSH2 0x3281 DUP4 PUSH2 0x29BB JUMP JUMPDEST PUSH2 0x328A DUP3 PUSH2 0x2A13 JUMP JUMPDEST DUP4 MSTORE PUSH1 0xB PUSH2 0x329A PUSH1 0x1 DUP5 ADD PUSH2 0x2A13 JUMP JUMPDEST SWAP2 PUSH1 0x20 SWAP4 DUP5 DUP7 ADD SWAP4 DUP5 MSTORE PUSH1 0x1 DUP1 PUSH1 0xA0 SHL SUB SWAP2 DUP3 PUSH1 0x2 DUP4 ADD SLOAD AND SWAP1 DUP8 ADD MSTORE DUP2 PUSH1 0x3 DUP3 ADD SLOAD AND PUSH1 0x60 DUP8 ADD MSTORE PUSH1 0x4 DUP2 ADD SLOAD PUSH1 0x80 DUP8 ADD MSTORE PUSH1 0x5 DUP2 ADD SLOAD SWAP2 PUSH1 0xA0 SWAP3 DUP4 DUP9 ADD MSTORE DUP11 DUP3 ADD SLOAD PUSH1 0xC0 DUP9 ADD MSTORE PUSH1 0x7 DUP3 ADD SLOAD PUSH1 0xE0 DUP9 ADD MSTORE PUSH1 0xFF SWAP4 DUP3 PUSH2 0x3306 DUP7 PUSH1 0x8 DUP2 SWAP7 ADD SLOAD AND PUSH2 0x100 DUP12 ADD PUSH2 0x2E69 JUMP JUMPDEST PUSH2 0x3312 PUSH1 0x9 DUP3 ADD PUSH2 0x2A13 JUMP JUMPDEST PUSH2 0x120 DUP11 ADD MSTORE PUSH2 0x3324 PUSH1 0xA DUP3 ADD PUSH2 0x2A13 JUMP JUMPDEST PUSH2 0x140 DUP11 ADD MSTORE ADD SLOAD SWAP3 DUP4 SWAP2 DUP3 AND PUSH2 0x160 DUP10 ADD MSTORE SHR AND ISZERO ISZERO PUSH2 0x180 DUP7 ADD MSTORE DUP2 DUP2 PUSH1 0xA8 SHR AND ISZERO ISZERO PUSH2 0x1A0 DUP7 ADD MSTORE PUSH1 0xB0 SHR AND ISZERO ISZERO PUSH2 0x1C0 DUP5 ADD MSTORE MLOAD DUP2 DUP2 MLOAD SWAP2 ADD KECCAK256 SWAP1 PUSH2 0x336E CALLDATASIZE DUP8 DUP8 PUSH2 0x2B14 JUMP JUMPDEST DUP1 MLOAD SWAP2 ADD KECCAK256 EQ PUSH2 0x3387 JUMPI POP PUSH2 0x3382 SWAP1 PUSH2 0x3096 JUMP JUMPDEST PUSH2 0x3226 JUMP JUMPDEST SWAP5 POP POP POP POP POP SWAP1 JUMP JUMPDEST SWAP1 PUSH2 0x339A DUP3 PUSH2 0x3169 JUMP JUMPDEST PUSH2 0x33A7 PUSH1 0x40 MLOAD SWAP2 DUP3 PUSH2 0x29F2 JUMP JUMPDEST DUP3 DUP2 MSTORE DUP1 SWAP3 PUSH2 0x33B8 PUSH1 0x1F NOT SWAP2 PUSH2 0x3169 JUMP JUMPDEST ADD SWAP1 PUSH1 0x0 JUMPDEST DUP3 DUP2 LT PUSH2 0x33C9 JUMPI POP POP POP JUMP JUMPDEST DUP1 PUSH1 0x60 PUSH1 0x20 DUP1 SWAP4 DUP6 ADD ADD MSTORE ADD PUSH2 0x33BD JUMP JUMPDEST DUP1 MLOAD DUP3 LT ISZERO PUSH2 0x2953 JUMPI PUSH1 0x20 SWAP2 PUSH1 0x5 SHL ADD ADD SWAP1 JUMP INVALID CALLDATALOAD MLOAD 0xE7 0xD1 0xAF 0xCE 0xEC PUSH32 0x2F97F12B8B12561B6E8FB6458FF4A26CE4FBB11D38B08B03A264697066735822 SLT KECCAK256 0xEA 0xF9 0x1E SLOAD NUMBER BLOCKHASH MLOAD 0xA6 DUP5 0x1E 0xB2 ADD 0x1F 0x2D DUP8 0xF8 0xD9 GT SLT 0xD0 PUSH3 0x61C586 SWAP15 CALLDATASIZE BLOCKHASH CALLCODE PUSH17 0x3C57FD64736F6C634300081400332F8788 GT PUSH31 0x7EFF1D82E926EC794901D17C78024A50270940304540A733656F0D00000000 "},"methodIdentifiers":{"DEFAULT_ADMIN_ROLE()":"a217fddf","REGISTRAR_ROLE()":"f68e9553","VERIFIER_ROLE()":"e7705db6","addArweaveReference(string,string)":"dbdf78a4","addIPFSReference(string,string)":"8bf9a000","allInvoiceIds(uint256)":"e739d90d","batchRecordPayments(string[],address[],uint256[],string[],uint256[])":"2358f23f","batchUpdateStatuses(string[],uint8[])":"4a9efcd1","buyerInvoices(address,uint256)":"35c3c1e1","getBuyerInvoices(address)":"5131ae7b","getInvoice(string)":"f906a440","getInvoiceByNumber(string)":"c301f0a0","getInvoicePayments(string)":"6650c568","getInvoicesByStatus(uint8)":"73114f3c","getOverdueInvoices()":"19baae28","getPaymentCount(string)":"f9e18b7c","getRoleAdmin(bytes32)":"248a9ca3","getSellerInvoices(address)":"cd7e5ab5","getStatistics()":"372d6b27","getTotalInvoices()":"d716e9ca","grantRole(bytes32,address)":"2f2ff15d","hasRole(bytes32,address)":"91d14854","invoiceExists(string)":"33912b1c","invoiceNumberExists(string)":"a7b3fe50","invoicePayments(string,uint256)":"9761220c","invoices(string)":"cf4b8ac8","linkEscrow(string,address)":"bda9ce13","markAsFactored(string,bool)":"ae974c94","markAsRecurring(string,bool)":"3366a941","recordPayment(string,address,uint256,string,uint256)":"91ca1025","registerInvoice(string,string,address,address,uint256,uint256,uint256,string,string)":"14e3c82d","renounceRole(bytes32,address)":"36568abe","revokeRole(bytes32,address)":"d547741f","sellerInvoices(address,uint256)":"54657fdc","supportsInterface(bytes4)":"01ffc9a7","updateInvoiceStatus(string,uint8)":"1ffbe45f","verifyInvoice(string)":"37c09101"}}}}}