{"contracts/registry/UniversalResolver.sol":{"UniversalResolver":{"abi":[{"inputs":[{"internalType":"contract IUniversalRegistry","name":"_registry","type":"address"}],"stateMutability":"nonpayable","type":"constructor"},{"anonymous":false,"inputs":[{"indexed":true,"internalType":"bytes32","name":"node","type":"bytes32"},{"indexed":true,"internalType":"uint256","name":"contentType","type":"uint256"}],"name":"ABIChanged","type":"event"},{"anonymous":false,"inputs":[{"indexed":true,"internalType":"bytes32","name":"node","type":"bytes32"},{"indexed":false,"internalType":"uint256","name":"coinType","type":"uint256"},{"indexed":false,"internalType":"bytes","name":"newAddress","type":"bytes"}],"name":"AddressChanged","type":"event"},{"anonymous":false,"inputs":[{"indexed":true,"internalType":"bytes32","name":"node","type":"bytes32"},{"indexed":false,"internalType":"bytes","name":"hash","type":"bytes"}],"name":"ContenthashChanged","type":"event"},{"anonymous":false,"inputs":[{"indexed":true,"internalType":"bytes32","name":"node","type":"bytes32"},{"indexed":false,"internalType":"string","name":"name","type":"string"}],"name":"NameChanged","type":"event"},{"anonymous":false,"inputs":[{"indexed":true,"internalType":"bytes32","name":"node","type":"bytes32"},{"indexed":true,"internalType":"string","name":"key","type":"string"},{"indexed":false,"internalType":"string","name":"value","type":"string"}],"name":"TextChanged","type":"event"},{"inputs":[{"internalType":"bytes32","name":"node","type":"bytes32"},{"internalType":"uint256","name":"contentTypes","type":"uint256"}],"name":"ABI","outputs":[{"internalType":"uint256","name":"","type":"uint256"},{"internalType":"bytes","name":"","type":"bytes"}],"stateMutability":"view","type":"function"},{"inputs":[{"internalType":"bytes32","name":"","type":"bytes32"},{"internalType":"uint256","name":"","type":"uint256"}],"name":"abis","outputs":[{"internalType":"bytes","name":"","type":"bytes"}],"stateMutability":"view","type":"function"},{"inputs":[{"internalType":"bytes32","name":"node","type":"bytes32"}],"name":"addr","outputs":[{"internalType":"address","name":"","type":"address"}],"stateMutability":"view","type":"function"},{"inputs":[{"internalType":"bytes32","name":"node","type":"bytes32"},{"internalType":"uint256","name":"coinType","type":"uint256"}],"name":"addr","outputs":[{"internalType":"bytes","name":"","type":"bytes"}],"stateMutability":"view","type":"function"},{"inputs":[{"internalType":"bytes32","name":"","type":"bytes32"},{"internalType":"uint256","name":"","type":"uint256"}],"name":"addresses","outputs":[{"internalType":"bytes","name":"","type":"bytes"}],"stateMutability":"view","type":"function"},{"inputs":[{"internalType":"bytes32","name":"node","type":"bytes32"}],"name":"contenthash","outputs":[{"internalType":"bytes","name":"","type":"bytes"}],"stateMutability":"view","type":"function"},{"inputs":[{"internalType":"address","name":"addr","type":"address"}],"name":"name","outputs":[{"internalType":"string","name":"","type":"string"}],"stateMutability":"view","type":"function"},{"inputs":[{"internalType":"address","name":"","type":"address"}],"name":"names","outputs":[{"internalType":"string","name":"","type":"string"}],"stateMutability":"view","type":"function"},{"inputs":[],"name":"registry","outputs":[{"internalType":"contract IUniversalRegistry","name":"","type":"address"}],"stateMutability":"view","type":"function"},{"inputs":[{"internalType":"bytes32","name":"node","type":"bytes32"},{"internalType":"uint256","name":"contentType","type":"uint256"},{"internalType":"bytes","name":"data","type":"bytes"}],"name":"setABI","outputs":[],"stateMutability":"nonpayable","type":"function"},{"inputs":[{"internalType":"bytes32","name":"node","type":"bytes32"},{"internalType":"uint256","name":"coinType","type":"uint256"},{"internalType":"bytes","name":"a","type":"bytes"}],"name":"setAddr","outputs":[],"stateMutability":"nonpayable","type":"function"},{"inputs":[{"internalType":"bytes32","name":"node","type":"bytes32"},{"internalType":"address","name":"a","type":"address"}],"name":"setAddr","outputs":[],"stateMutability":"nonpayable","type":"function"},{"inputs":[{"internalType":"bytes32","name":"node","type":"bytes32"},{"internalType":"bytes","name":"hash","type":"bytes"}],"name":"setContenthash","outputs":[],"stateMutability":"nonpayable","type":"function"},{"inputs":[{"internalType":"bytes32","name":"node","type":"bytes32"},{"internalType":"string","name":"name","type":"string"}],"name":"setName","outputs":[],"stateMutability":"nonpayable","type":"function"},{"inputs":[{"internalType":"bytes32","name":"node","type":"bytes32"},{"internalType":"uint256","name":"coinType","type":"uint256"},{"internalType":"bytes","name":"a","type":"bytes"},{"internalType":"string[]","name":"textKeys","type":"string[]"},{"internalType":"string[]","name":"textValues","type":"string[]"}],"name":"setRecords","outputs":[],"stateMutability":"nonpayable","type":"function"},{"inputs":[{"internalType":"bytes32","name":"node","type":"bytes32"},{"internalType":"string","name":"key","type":"string"},{"internalType":"string","name":"value","type":"string"}],"name":"setText","outputs":[],"stateMutability":"nonpayable","type":"function"},{"inputs":[{"internalType":"bytes4","name":"interfaceID","type":"bytes4"}],"name":"supportsInterface","outputs":[{"internalType":"bool","name":"","type":"bool"}],"stateMutability":"pure","type":"function"},{"inputs":[{"internalType":"bytes32","name":"node","type":"bytes32"},{"internalType":"string","name":"key","type":"string"}],"name":"text","outputs":[{"internalType":"string","name":"","type":"string"}],"stateMutability":"view","type":"function"},{"inputs":[{"internalType":"bytes32","name":"","type":"bytes32"},{"internalType":"string","name":"","type":"string"}],"name":"texts","outputs":[{"internalType":"string","name":"","type":"string"}],"stateMutability":"view","type":"function"}],"evm":{"bytecode":{"linkReferences":{},"object":"60803461007457601f61179e38819003918201601f19168301916001600160401b038311848410176100795780849260209460405283398101031261007457516001600160a01b0381169081900361007457600080546001600160a01b03191691909117905560405161170e90816100908239f35b600080fd5b634e487b7160e01b600052604160045260246000fdfe6080604052600436101561001257600080fd5b60003560e01c8063019848921461011f57806301ffc9a71461013d57806310f13a8c146101385780632203ab5614610133578063304e6ade1461012e5780633b3b57de1461012957806359d1d43c146101245780635cf3d3461461011f578063623195b01461011a5780636f7662f11461011557806377372213146101105780637b1039991461010b5780638b95dd7114610106578063b76b70d5146100ed578063bc1c58d114610101578063d5fa2b00146100fc578063d799b7d6146100f7578063ea5822c6146100f25763f1cb7e06146100ed57600080fd5b610db6565b611262565b610ff6565b610e30565b610dfa565b610c48565b610c1f565b610ad2565b610a8e565b6108f4565b6101b4565b610752565b610722565b610589565b61051a565b610306565b61021a565b6001600160a01b0381160361015357565b600080fd5b60005b83811061016b5750506000910152565b818101518382015260200161015b565b9060209161019481518092818552858086019101610158565b601f01601f1916010190565b9060206101b192818152019061017b565b90565b34610153576020366003190112610153576004356101d181610142565b60018060a01b031660005260026020526102166101fb6102026040600020604051928380926107c7565b038261088e565b60405191829160208352602083019061017b565b0390f35b346101535760203660031901126101535760043563ffffffff60e01b811680910361015357610216906301ffc9a760e01b81149081156102c8575b81156102b7575b81156102a6575b8115610295575b8115610284575b5060405190151581529081906020820190565b63bc1c58d160e01b14905038610271565b631674750f60e21b8114915061026a565b63691f343160e01b81149150610263565b6378e5bf0360e11b8114915061025c565b631d9dabef60e11b81149150610255565b9181601f84011215610153578235916001600160401b038311610153576020838186019501011161015357565b34610153576060366003190112610153576001600160401b036004356024358281116101535761033a9036906004016102d9565b604492919235848111610153576103559036906004016102d9565b91909360018060a01b0395600096808854166040519182916302571be360e01b835288600484015282602460209586935afa908115610515576103a2928b926104e6575b50163314611324565b858852600381526103b76040892085856114d7565b9185116104e1576103d2856103cc845461078d565b84611361565b8790601f861160011461044a5750918493917fd8c9334b1a9c2f9da342a0a2b32629c1a229b6445dad78947f674b44444a755095610429948a9161043f575b508560011b906000198760031b1c19161790556114f0565b93610439604051928392836114c6565b0390a380f35b905088013538610411565b90601f19861661045f84600052602060002090565b928a905b8a8383106104c95750505091869593917fd8c9334b1a9c2f9da342a0a2b32629c1a229b6445dad78947f674b44444a7550976104299694106104af575b5050600185811b0190556114f0565b890135600019600388901b60f8161c1916905538806104a0565b60018596839496849301358155019501930190610463565b61085d565b610507919250843d861161050e575b6104ff818361088e565b810190611303565b9038610399565b503d6104f5565b611318565b346101535760403660031901126101535761053960243560043561162a565b90610216604051928392835260406020840152604083019061017b565b9060406003198301126101535760043591602435906001600160401b03821161015357610585916004016102d9565b9091565b346101535761059736610556565b9160018060a01b0392600092848454166040519586916302571be360e01b83528560048401528260246020998a935afa908115610515576105e192879261070a5750163314611324565b82845260048552604084206001600160401b0383116104e15761060e83610608835461078d565b83611361565b8495601f841160011461067c57508285967fe379c1624ed7e714cc0937528a32359d69d5281337765313dba4e081b72d7578959691610671575b508360011b906000198560031b1c19161790555b61066b604051928392836114c6565b0390a280f35b905082013538610648565b601f1984169661069183600052602060002090565b9187905b8982106106f2575050847fe379c1624ed7e714cc0937528a32359d69d5281337765313dba4e081b72d7578969798106106d8575b5050600183811b01905561065c565b830135600019600386901b60f8161c1916905538806106c9565b80600184958294958901358155019401920190610695565b610507919250883d8a1161050e576104ff818361088e565b34610153576020366003190112610153576020610740600435611581565b6040516001600160a01b039091168152f35b34610153576102166101fb61020261078161076c36610556565b909160005260036020526040600020916114d7565b604051928380926107c7565b90600182811c921680156107bd575b60208310146107a757565b634e487b7160e01b600052602260045260246000fd5b91607f169161079c565b90600092918054916107d88361078d565b91828252600193848116908160001461083a57506001146107fa575b50505050565b90919394506000526020928360002092846000945b8386106108265750505050010190388080806107f4565b80548587018301529401938590820161080f565b9294505050602093945060ff191683830152151560051b010190388080806107f4565b634e487b7160e01b600052604160045260246000fd5b604081019081106001600160401b038211176104e157604052565b90601f801991011681019081106001600160401b038211176104e157604052565b6101b16101fb91604051928380926107c7565b6060600319820112610153576004359160243591604435906001600160401b03821161015357610585916004016102d9565b3461015357610902366108c2565b600080546040516302571be360e01b8152600481018790529195936020939290916001600160a01b039085908390602490829085165afa90811561051557610953928992610a595750163314611324565b8386526005835260408620858752835260408620926001600160401b0383116104e157829161098c83610986875461078d565b87611361565b8791601f84116001146109e8575087926109dd575b50508160011b916000199060031b1c19161790555b7faa121bbeef5f32f5961a2a28966e769023910fc9479059ee3495d4c1a696efe38380a380f35b0135905038806109a1565b925090601f1984166109ff86600052602060002090565b9389905b828210610a41575050908460019594939210610a27575b505050811b0190556109b6565b0135600019600384901b60f8161c19169055388080610a1a565b80600185978294968801358155019601930190610a03565b610507919250863d881161050e576104ff818361088e565b90610a8c610a8592604051938480926107c7565b038361088e565b565b3461015357604036600319011261015357600435600052600560205260406000206024356000526020526102166101fb6102026040600020604051928380926107c7565b3461015357610ae036610556565b9160018060a01b0392600092848454166040519586916302571be360e01b83528560048401528260246020998a935afa90811561051557610b2a92879261070a5750163314611324565b33845260028552604084206001600160401b0383116104e157610b5183610608835461078d565b8495601f8411600114610bac57508285967fb7d29e911041e8d9b843369e890bcb72c9388692ba48b65ac54e7214c4c348f795969161067157508360011b906000198560031b1c191617905561066b604051928392836114c6565b601f19841696610bc183600052602060002090565b9187905b898210610c07575050847fb7d29e911041e8d9b843369e890bcb72c9388692ba48b65ac54e7214c4c348f7969798106106d8575050600183811b01905561065c565b80600184958294958901358155019401920190610bc5565b34610153576000366003190112610153576000546040516001600160a01b039091168152602090f35b3461015357610c56366108c2565b600080546040516302571be360e01b81526004810187905291959492916020916001600160a01b039083908390602490829085165afa90811561051557610ca69289926104e65750163314611324565b848652600180825260408720848852825260408720916001600160401b0384116104e157610cde84610cd8855461078d565b85611361565b8790601f8511600114610d3557509183806000805160206116b98339815191529796959361066b958b93610d2a575b501b906000198460031b1c19161790555b60405193849384611497565b880135925038610d0d565b90601f198516610d4a85600052602060002090565b928a905b828210610d9f575050918593916000805160206116b983398151915298979661066b969410610d85575b505082811b019055610d1e565b870135600019600386901b60f8161c191690553880610d78565b808685968294968d01358155019501930190610d4e565b3461015357604036600319011261015357600435600052600160205260406000206024356000526020526102166101fb6102026040600020604051928380926107c7565b346101535760203660031901126101535760043560005260046020526102166101fb6102026040600020604051928380926107c7565b346101535760408060031936011261015357600435602435610e5181610142565b6000805484516302571be360e01b8152600481018590529194916020916001600160a01b039083908390602490829085165afa90811561051557610e9e9288926104e65750163314611324565b815192610eaa84610873565b6014845260601b81840152838552600190818152828620603c87528152828620918451916001600160401b0383116104e157610ef083610eea865461078d565b86611361565b80601f8411600114610f4457509180806000805160206116b983398151915297959361066b97958b93610f39575b501b916000199060031b1c19161790555b51918291826114ae565b870151925038610f1e565b90601f939293198316610f5c86600052602060002090565b928a905b828210610faf5750509183916000805160206116b983398151915298969461066b98969410610f96575b5050811b019055610f2f565b86015160001960f88460031b161c191690553880610f8a565b808785968294968d01518155019501930190610f60565b9181601f84011215610153578235916001600160401b038311610153576020808501948460051b01011161015357565b346101535760a0366003190112610153576001600160401b03602435600480356044358481116101535761102d90369084016102d9565b9490606435828111610153576110469036908601610fc6565b969092608435908111610153576110609036908701610fc6565b92909660018060a01b03966024886000541698602060409a8b51938480926302571be360e01b82528d888301525afa908115610515576110aa926000926112085750163314611324565b848a036111cd57509082918693611177575b5050505060005b8681106110cc57005b8086857fd8c9334b1a9c2f9da342a0a2b32629c1a229b6445dad78947f674b44444a75508561115b6111538661114b8f998a6111456111348f6111406111729f9161113a8f8f946111218f8b9390849161152a565b9790966000526003602052604060002090565b9361152a565b906114d7565b6113b5565b8d61152a565b94909761152a565b9290956114f0565b9361116a8b51928392836114c6565b0390a3611505565b6110c3565b6111c1836111b66000805160206116b98339815191529585611140866111a78b6000526001602052604060002090565b90600052602052604060002090565b895193849384611497565b0390a2823880806110bc565b606490602089519162461bcd60e51b83528201526015602482015274082e4e4c2f240d8cadccee8d040dad2e6dac2e8c6d605b1b6044820152fd5b61050791925060203d811161050e576104ff818361088e565b6001600160401b0381116104e157601f01601f191660200190565b602090611256928260405194838680955193849201610158565b82019081520301902090565b34610153576040366003190112610153576024356001600160401b038111610153573660238201121561015357806004013561129d81611221565b916112ab604051938461088e565b8183523660248383010111610153576102169260006020846112f79560246112f2960183860137830101526112ec6004356000526003602052604060002090565b9061123c565b6108af565b604051918291826101a0565b9081602091031261015357516101b181610142565b6040513d6000823e3d90fd5b1561132b57565b60405162461bcd60e51b815260206004820152600e60248201526d139bdd08185d5d1a1bdc9a5cd95960921b6044820152606490fd5b90601f811161136f57505050565b600091825260208220906020601f850160051c830194106113ab575b601f0160051c01915b8281106113a057505050565b818155600101611394565b909250829061138b565b9092916001600160401b0381116104e1576113d4816103cc845461078d565b6000601f821160011461140e5781929394600092611403575b50508160011b916000199060031b1c1916179055565b0135905038806113ed565b601f1982169461142384600052602060002090565b91805b87811061145e575083600195969710611444575b505050811b019055565b0135600019600384901b60f8161c1916905538808061143a565b90926020600181928686013581550194019101611426565b908060209392818452848401376000828201840152601f01601f1916010190565b6040906101b1949281528160208201520191611476565b9060406101b192603c8152816020820152019061017b565b9160206101b1938181520191611476565b6020919283604051948593843782019081520301902090565b81604051928392833781016000815203902090565b60001981146115145760010190565b634e487b7160e01b600052601160045260246000fd5b919081101561156b5760051b81013590601e19813603018212156101535701908135916001600160401b038311610153576020018236038113610153579190565b634e487b7160e01b600052603260045260246000fd5b60005260016020526040600020603c6000526020526101fb6115ad6040600020604051928380926107c7565b80518015611600576014116115c3576014015190565b60405162461bcd60e51b8152602060048201526015602482015274496e76616c6964206164647265737320627974657360581b6044820152606490fd5b5050600090565b60405190602082018281106001600160401b038211176104e15760405260008252565b60005b610100811061164657505050611641611607565b600091565b6001811b80841615158061168d575b611668575061166390611505565b61162d565b939250506000526101b160206005815260409081600020908560005252600020610a71565b50826000526116b1602060058152604090816000209084600052526000205461078d565b151561165556fe65412581168e88a1e60c6459d7f44ae83ad0832e670826c05a4e2476b57af752a2646970667358221220ee2d82d00bd7763f99577467d26d549a3ade31f4c4b5b653daf857a596a248c764736f6c63430008140033","opcodes":"PUSH1 0x80 CALLVALUE PUSH2 0x74 JUMPI PUSH1 0x1F PUSH2 0x179E CODESIZE DUP2 SWAP1 SUB SWAP2 DUP3 ADD PUSH1 0x1F NOT AND DUP4 ADD SWAP2 PUSH1 0x1 PUSH1 0x1 PUSH1 0x40 SHL SUB DUP4 GT DUP5 DUP5 LT OR PUSH2 0x79 JUMPI DUP1 DUP5 SWAP3 PUSH1 0x20 SWAP5 PUSH1 0x40 MSTORE DUP4 CODECOPY DUP2 ADD SUB SLT PUSH2 0x74 JUMPI MLOAD PUSH1 0x1 PUSH1 0x1 PUSH1 0xA0 SHL SUB DUP2 AND SWAP1 DUP2 SWAP1 SUB PUSH2 0x74 JUMPI PUSH1 0x0 DUP1 SLOAD PUSH1 0x1 PUSH1 0x1 PUSH1 0xA0 SHL SUB NOT AND SWAP2 SWAP1 SWAP2 OR SWAP1 SSTORE PUSH1 0x40 MLOAD PUSH2 0x170E SWAP1 DUP2 PUSH2 0x90 DUP3 CODECOPY RETURN JUMPDEST PUSH1 0x0 DUP1 REVERT JUMPDEST PUSH4 0x4E487B71 PUSH1 0xE0 SHL PUSH1 0x0 MSTORE PUSH1 0x41 PUSH1 0x4 MSTORE PUSH1 0x24 PUSH1 0x0 REVERT INVALID PUSH1 0x80 PUSH1 0x40 MSTORE PUSH1 0x4 CALLDATASIZE LT ISZERO PUSH2 0x12 JUMPI PUSH1 0x0 DUP1 REVERT JUMPDEST PUSH1 0x0 CALLDATALOAD PUSH1 0xE0 SHR DUP1 PUSH4 0x1984892 EQ PUSH2 0x11F JUMPI DUP1 PUSH4 0x1FFC9A7 EQ PUSH2 0x13D JUMPI DUP1 PUSH4 0x10F13A8C EQ PUSH2 0x138 JUMPI DUP1 PUSH4 0x2203AB56 EQ PUSH2 0x133 JUMPI DUP1 PUSH4 0x304E6ADE EQ PUSH2 0x12E JUMPI DUP1 PUSH4 0x3B3B57DE EQ PUSH2 0x129 JUMPI DUP1 PUSH4 0x59D1D43C EQ PUSH2 0x124 JUMPI DUP1 PUSH4 0x5CF3D346 EQ PUSH2 0x11F JUMPI DUP1 PUSH4 0x623195B0 EQ PUSH2 0x11A JUMPI DUP1 PUSH4 0x6F7662F1 EQ PUSH2 0x115 JUMPI DUP1 PUSH4 0x77372213 EQ PUSH2 0x110 JUMPI DUP1 PUSH4 0x7B103999 EQ PUSH2 0x10B JUMPI DUP1 PUSH4 0x8B95DD71 EQ PUSH2 0x106 JUMPI DUP1 PUSH4 0xB76B70D5 EQ PUSH2 0xED JUMPI DUP1 PUSH4 0xBC1C58D1 EQ PUSH2 0x101 JUMPI DUP1 PUSH4 0xD5FA2B00 EQ PUSH2 0xFC JUMPI DUP1 PUSH4 0xD799B7D6 EQ PUSH2 0xF7 JUMPI DUP1 PUSH4 0xEA5822C6 EQ PUSH2 0xF2 JUMPI PUSH4 0xF1CB7E06 EQ PUSH2 0xED JUMPI PUSH1 0x0 DUP1 REVERT JUMPDEST PUSH2 0xDB6 JUMP JUMPDEST PUSH2 0x1262 JUMP JUMPDEST PUSH2 0xFF6 JUMP JUMPDEST PUSH2 0xE30 JUMP JUMPDEST PUSH2 0xDFA JUMP JUMPDEST PUSH2 0xC48 JUMP JUMPDEST PUSH2 0xC1F JUMP JUMPDEST PUSH2 0xAD2 JUMP JUMPDEST PUSH2 0xA8E JUMP JUMPDEST PUSH2 0x8F4 JUMP JUMPDEST PUSH2 0x1B4 JUMP JUMPDEST PUSH2 0x752 JUMP JUMPDEST PUSH2 0x722 JUMP JUMPDEST PUSH2 0x589 JUMP JUMPDEST PUSH2 0x51A JUMP JUMPDEST PUSH2 0x306 JUMP JUMPDEST PUSH2 0x21A JUMP JUMPDEST PUSH1 0x1 PUSH1 0x1 PUSH1 0xA0 SHL SUB DUP2 AND SUB PUSH2 0x153 JUMPI JUMP JUMPDEST PUSH1 0x0 DUP1 REVERT JUMPDEST PUSH1 0x0 JUMPDEST DUP4 DUP2 LT PUSH2 0x16B JUMPI POP POP PUSH1 0x0 SWAP2 ADD MSTORE JUMP JUMPDEST DUP2 DUP2 ADD MLOAD DUP4 DUP3 ADD MSTORE PUSH1 0x20 ADD PUSH2 0x15B JUMP JUMPDEST SWAP1 PUSH1 0x20 SWAP2 PUSH2 0x194 DUP2 MLOAD DUP1 SWAP3 DUP2 DUP6 MSTORE DUP6 DUP1 DUP7 ADD SWAP2 ADD PUSH2 0x158 JUMP JUMPDEST PUSH1 0x1F ADD PUSH1 0x1F NOT AND ADD ADD SWAP1 JUMP JUMPDEST SWAP1 PUSH1 0x20 PUSH2 0x1B1 SWAP3 DUP2 DUP2 MSTORE ADD SWAP1 PUSH2 0x17B JUMP JUMPDEST SWAP1 JUMP JUMPDEST CALLVALUE PUSH2 0x153 JUMPI PUSH1 0x20 CALLDATASIZE PUSH1 0x3 NOT ADD SLT PUSH2 0x153 JUMPI PUSH1 0x4 CALLDATALOAD PUSH2 0x1D1 DUP2 PUSH2 0x142 JUMP JUMPDEST PUSH1 0x1 DUP1 PUSH1 0xA0 SHL SUB AND PUSH1 0x0 MSTORE PUSH1 0x2 PUSH1 0x20 MSTORE PUSH2 0x216 PUSH2 0x1FB PUSH2 0x202 PUSH1 0x40 PUSH1 0x0 KECCAK256 PUSH1 0x40 MLOAD SWAP3 DUP4 DUP1 SWAP3 PUSH2 0x7C7 JUMP JUMPDEST SUB DUP3 PUSH2 0x88E JUMP JUMPDEST PUSH1 0x40 MLOAD SWAP2 DUP3 SWAP2 PUSH1 0x20 DUP4 MSTORE PUSH1 0x20 DUP4 ADD SWAP1 PUSH2 0x17B JUMP JUMPDEST SUB SWAP1 RETURN JUMPDEST CALLVALUE PUSH2 0x153 JUMPI PUSH1 0x20 CALLDATASIZE PUSH1 0x3 NOT ADD SLT PUSH2 0x153 JUMPI PUSH1 0x4 CALLDATALOAD PUSH4 0xFFFFFFFF PUSH1 0xE0 SHL DUP2 AND DUP1 SWAP2 SUB PUSH2 0x153 JUMPI PUSH2 0x216 SWAP1 PUSH4 0x1FFC9A7 PUSH1 0xE0 SHL DUP2 EQ SWAP1 DUP2 ISZERO PUSH2 0x2C8 JUMPI JUMPDEST DUP2 ISZERO PUSH2 0x2B7 JUMPI JUMPDEST DUP2 ISZERO PUSH2 0x2A6 JUMPI JUMPDEST DUP2 ISZERO PUSH2 0x295 JUMPI JUMPDEST DUP2 ISZERO PUSH2 0x284 JUMPI JUMPDEST POP PUSH1 0x40 MLOAD SWAP1 ISZERO ISZERO DUP2 MSTORE SWAP1 DUP2 SWAP1 PUSH1 0x20 DUP3 ADD SWAP1 JUMP JUMPDEST PUSH4 0xBC1C58D1 PUSH1 0xE0 SHL EQ SWAP1 POP CODESIZE PUSH2 0x271 JUMP JUMPDEST PUSH4 0x1674750F PUSH1 0xE2 SHL DUP2 EQ SWAP2 POP PUSH2 0x26A JUMP JUMPDEST PUSH4 0x691F3431 PUSH1 0xE0 SHL DUP2 EQ SWAP2 POP PUSH2 0x263 JUMP JUMPDEST PUSH4 0x78E5BF03 PUSH1 0xE1 SHL DUP2 EQ SWAP2 POP PUSH2 0x25C JUMP JUMPDEST PUSH4 0x1D9DABEF PUSH1 0xE1 SHL DUP2 EQ SWAP2 POP PUSH2 0x255 JUMP JUMPDEST SWAP2 DUP2 PUSH1 0x1F DUP5 ADD SLT ISZERO PUSH2 0x153 JUMPI DUP3 CALLDATALOAD SWAP2 PUSH1 0x1 PUSH1 0x1 PUSH1 0x40 SHL SUB DUP4 GT PUSH2 0x153 JUMPI PUSH1 0x20 DUP4 DUP2 DUP7 ADD SWAP6 ADD ADD GT PUSH2 0x153 JUMPI JUMP JUMPDEST CALLVALUE PUSH2 0x153 JUMPI PUSH1 0x60 CALLDATASIZE PUSH1 0x3 NOT ADD SLT PUSH2 0x153 JUMPI PUSH1 0x1 PUSH1 0x1 PUSH1 0x40 SHL SUB PUSH1 0x4 CALLDATALOAD PUSH1 0x24 CALLDATALOAD DUP3 DUP2 GT PUSH2 0x153 JUMPI PUSH2 0x33A SWAP1 CALLDATASIZE SWAP1 PUSH1 0x4 ADD PUSH2 0x2D9 JUMP JUMPDEST PUSH1 0x44 SWAP3 SWAP2 SWAP3 CALLDATALOAD DUP5 DUP2 GT PUSH2 0x153 JUMPI PUSH2 0x355 SWAP1 CALLDATASIZE SWAP1 PUSH1 0x4 ADD PUSH2 0x2D9 JUMP JUMPDEST SWAP2 SWAP1 SWAP4 PUSH1 0x1 DUP1 PUSH1 0xA0 SHL SUB SWAP6 PUSH1 0x0 SWAP7 DUP1 DUP9 SLOAD AND PUSH1 0x40 MLOAD SWAP2 DUP3 SWAP2 PUSH4 0x2571BE3 PUSH1 0xE0 SHL DUP4 MSTORE DUP9 PUSH1 0x4 DUP5 ADD MSTORE DUP3 PUSH1 0x24 PUSH1 0x20 SWAP6 DUP7 SWAP4 GAS STATICCALL SWAP1 DUP2 ISZERO PUSH2 0x515 JUMPI PUSH2 0x3A2 SWAP3 DUP12 SWAP3 PUSH2 0x4E6 JUMPI JUMPDEST POP AND CALLER EQ PUSH2 0x1324 JUMP JUMPDEST DUP6 DUP9 MSTORE PUSH1 0x3 DUP2 MSTORE PUSH2 0x3B7 PUSH1 0x40 DUP10 KECCAK256 DUP6 DUP6 PUSH2 0x14D7 JUMP JUMPDEST SWAP2 DUP6 GT PUSH2 0x4E1 JUMPI PUSH2 0x3D2 DUP6 PUSH2 0x3CC DUP5 SLOAD PUSH2 0x78D JUMP JUMPDEST DUP5 PUSH2 0x1361 JUMP JUMPDEST DUP8 SWAP1 PUSH1 0x1F DUP7 GT PUSH1 0x1 EQ PUSH2 0x44A JUMPI POP SWAP2 DUP5 SWAP4 SWAP2 PUSH32 0xD8C9334B1A9C2F9DA342A0A2B32629C1A229B6445DAD78947F674B44444A7550 SWAP6 PUSH2 0x429 SWAP5 DUP11 SWAP2 PUSH2 0x43F JUMPI JUMPDEST POP DUP6 PUSH1 0x1 SHL SWAP1 PUSH1 0x0 NOT DUP8 PUSH1 0x3 SHL SHR NOT AND OR SWAP1 SSTORE PUSH2 0x14F0 JUMP JUMPDEST SWAP4 PUSH2 0x439 PUSH1 0x40 MLOAD SWAP3 DUP4 SWAP3 DUP4 PUSH2 0x14C6 JUMP JUMPDEST SUB SWAP1 LOG3 DUP1 RETURN JUMPDEST SWAP1 POP DUP9 ADD CALLDATALOAD CODESIZE PUSH2 0x411 JUMP JUMPDEST SWAP1 PUSH1 0x1F NOT DUP7 AND PUSH2 0x45F DUP5 PUSH1 0x0 MSTORE PUSH1 0x20 PUSH1 0x0 KECCAK256 SWAP1 JUMP JUMPDEST SWAP3 DUP11 SWAP1 JUMPDEST DUP11 DUP4 DUP4 LT PUSH2 0x4C9 JUMPI POP POP POP SWAP2 DUP7 SWAP6 SWAP4 SWAP2 PUSH32 0xD8C9334B1A9C2F9DA342A0A2B32629C1A229B6445DAD78947F674B44444A7550 SWAP8 PUSH2 0x429 SWAP7 SWAP5 LT PUSH2 0x4AF JUMPI JUMPDEST POP POP PUSH1 0x1 DUP6 DUP2 SHL ADD SWAP1 SSTORE PUSH2 0x14F0 JUMP JUMPDEST DUP10 ADD CALLDATALOAD PUSH1 0x0 NOT PUSH1 0x3 DUP9 SWAP1 SHL PUSH1 0xF8 AND SHR NOT AND SWAP1 SSTORE CODESIZE DUP1 PUSH2 0x4A0 JUMP JUMPDEST PUSH1 0x1 DUP6 SWAP7 DUP4 SWAP5 SWAP7 DUP5 SWAP4 ADD CALLDATALOAD DUP2 SSTORE ADD SWAP6 ADD SWAP4 ADD SWAP1 PUSH2 0x463 JUMP JUMPDEST PUSH2 0x85D JUMP JUMPDEST PUSH2 0x507 SWAP2 SWAP3 POP DUP5 RETURNDATASIZE DUP7 GT PUSH2 0x50E JUMPI JUMPDEST PUSH2 0x4FF DUP2 DUP4 PUSH2 0x88E JUMP JUMPDEST DUP2 ADD SWAP1 PUSH2 0x1303 JUMP JUMPDEST SWAP1 CODESIZE PUSH2 0x399 JUMP JUMPDEST POP RETURNDATASIZE PUSH2 0x4F5 JUMP JUMPDEST PUSH2 0x1318 JUMP JUMPDEST CALLVALUE PUSH2 0x153 JUMPI PUSH1 0x40 CALLDATASIZE PUSH1 0x3 NOT ADD SLT PUSH2 0x153 JUMPI PUSH2 0x539 PUSH1 0x24 CALLDATALOAD PUSH1 0x4 CALLDATALOAD PUSH2 0x162A JUMP JUMPDEST SWAP1 PUSH2 0x216 PUSH1 0x40 MLOAD SWAP3 DUP4 SWAP3 DUP4 MSTORE PUSH1 0x40 PUSH1 0x20 DUP5 ADD MSTORE PUSH1 0x40 DUP4 ADD SWAP1 PUSH2 0x17B JUMP JUMPDEST SWAP1 PUSH1 0x40 PUSH1 0x3 NOT DUP4 ADD SLT PUSH2 0x153 JUMPI PUSH1 0x4 CALLDATALOAD SWAP2 PUSH1 0x24 CALLDATALOAD SWAP1 PUSH1 0x1 PUSH1 0x1 PUSH1 0x40 SHL SUB DUP3 GT PUSH2 0x153 JUMPI PUSH2 0x585 SWAP2 PUSH1 0x4 ADD PUSH2 0x2D9 JUMP JUMPDEST SWAP1 SWAP2 JUMP JUMPDEST CALLVALUE PUSH2 0x153 JUMPI PUSH2 0x597 CALLDATASIZE PUSH2 0x556 JUMP JUMPDEST SWAP2 PUSH1 0x1 DUP1 PUSH1 0xA0 SHL SUB SWAP3 PUSH1 0x0 SWAP3 DUP5 DUP5 SLOAD AND PUSH1 0x40 MLOAD SWAP6 DUP7 SWAP2 PUSH4 0x2571BE3 PUSH1 0xE0 SHL DUP4 MSTORE DUP6 PUSH1 0x4 DUP5 ADD MSTORE DUP3 PUSH1 0x24 PUSH1 0x20 SWAP10 DUP11 SWAP4 GAS STATICCALL SWAP1 DUP2 ISZERO PUSH2 0x515 JUMPI PUSH2 0x5E1 SWAP3 DUP8 SWAP3 PUSH2 0x70A JUMPI POP AND CALLER EQ PUSH2 0x1324 JUMP JUMPDEST DUP3 DUP5 MSTORE PUSH1 0x4 DUP6 MSTORE PUSH1 0x40 DUP5 KECCAK256 PUSH1 0x1 PUSH1 0x1 PUSH1 0x40 SHL SUB DUP4 GT PUSH2 0x4E1 JUMPI PUSH2 0x60E DUP4 PUSH2 0x608 DUP4 SLOAD PUSH2 0x78D JUMP JUMPDEST DUP4 PUSH2 0x1361 JUMP JUMPDEST DUP5 SWAP6 PUSH1 0x1F DUP5 GT PUSH1 0x1 EQ PUSH2 0x67C JUMPI POP DUP3 DUP6 SWAP7 PUSH32 0xE379C1624ED7E714CC0937528A32359D69D5281337765313DBA4E081B72D7578 SWAP6 SWAP7 SWAP2 PUSH2 0x671 JUMPI JUMPDEST POP DUP4 PUSH1 0x1 SHL SWAP1 PUSH1 0x0 NOT DUP6 PUSH1 0x3 SHL SHR NOT AND OR SWAP1 SSTORE JUMPDEST PUSH2 0x66B PUSH1 0x40 MLOAD SWAP3 DUP4 SWAP3 DUP4 PUSH2 0x14C6 JUMP JUMPDEST SUB SWAP1 LOG2 DUP1 RETURN JUMPDEST SWAP1 POP DUP3 ADD CALLDATALOAD CODESIZE PUSH2 0x648 JUMP JUMPDEST PUSH1 0x1F NOT DUP5 AND SWAP7 PUSH2 0x691 DUP4 PUSH1 0x0 MSTORE PUSH1 0x20 PUSH1 0x0 KECCAK256 SWAP1 JUMP JUMPDEST SWAP2 DUP8 SWAP1 JUMPDEST DUP10 DUP3 LT PUSH2 0x6F2 JUMPI POP POP DUP5 PUSH32 0xE379C1624ED7E714CC0937528A32359D69D5281337765313DBA4E081B72D7578 SWAP7 SWAP8 SWAP9 LT PUSH2 0x6D8 JUMPI JUMPDEST POP POP PUSH1 0x1 DUP4 DUP2 SHL ADD SWAP1 SSTORE PUSH2 0x65C JUMP JUMPDEST DUP4 ADD CALLDATALOAD PUSH1 0x0 NOT PUSH1 0x3 DUP7 SWAP1 SHL PUSH1 0xF8 AND SHR NOT AND SWAP1 SSTORE CODESIZE DUP1 PUSH2 0x6C9 JUMP JUMPDEST DUP1 PUSH1 0x1 DUP5 SWAP6 DUP3 SWAP5 SWAP6 DUP10 ADD CALLDATALOAD DUP2 SSTORE ADD SWAP5 ADD SWAP3 ADD SWAP1 PUSH2 0x695 JUMP JUMPDEST PUSH2 0x507 SWAP2 SWAP3 POP DUP9 RETURNDATASIZE DUP11 GT PUSH2 0x50E JUMPI PUSH2 0x4FF DUP2 DUP4 PUSH2 0x88E JUMP JUMPDEST CALLVALUE PUSH2 0x153 JUMPI PUSH1 0x20 CALLDATASIZE PUSH1 0x3 NOT ADD SLT PUSH2 0x153 JUMPI PUSH1 0x20 PUSH2 0x740 PUSH1 0x4 CALLDATALOAD PUSH2 0x1581 JUMP JUMPDEST PUSH1 0x40 MLOAD PUSH1 0x1 PUSH1 0x1 PUSH1 0xA0 SHL SUB SWAP1 SWAP2 AND DUP2 MSTORE RETURN JUMPDEST CALLVALUE PUSH2 0x153 JUMPI PUSH2 0x216 PUSH2 0x1FB PUSH2 0x202 PUSH2 0x781 PUSH2 0x76C CALLDATASIZE PUSH2 0x556 JUMP JUMPDEST SWAP1 SWAP2 PUSH1 0x0 MSTORE PUSH1 0x3 PUSH1 0x20 MSTORE PUSH1 0x40 PUSH1 0x0 KECCAK256 SWAP2 PUSH2 0x14D7 JUMP JUMPDEST PUSH1 0x40 MLOAD SWAP3 DUP4 DUP1 SWAP3 PUSH2 0x7C7 JUMP JUMPDEST SWAP1 PUSH1 0x1 DUP3 DUP2 SHR SWAP3 AND DUP1 ISZERO PUSH2 0x7BD JUMPI JUMPDEST PUSH1 0x20 DUP4 LT EQ PUSH2 0x7A7 JUMPI JUMP JUMPDEST PUSH4 0x4E487B71 PUSH1 0xE0 SHL PUSH1 0x0 MSTORE PUSH1 0x22 PUSH1 0x4 MSTORE PUSH1 0x24 PUSH1 0x0 REVERT JUMPDEST SWAP2 PUSH1 0x7F AND SWAP2 PUSH2 0x79C JUMP JUMPDEST SWAP1 PUSH1 0x0 SWAP3 SWAP2 DUP1 SLOAD SWAP2 PUSH2 0x7D8 DUP4 PUSH2 0x78D JUMP JUMPDEST SWAP2 DUP3 DUP3 MSTORE PUSH1 0x1 SWAP4 DUP5 DUP2 AND SWAP1 DUP2 PUSH1 0x0 EQ PUSH2 0x83A JUMPI POP PUSH1 0x1 EQ PUSH2 0x7FA JUMPI JUMPDEST POP POP POP POP JUMP JUMPDEST SWAP1 SWAP2 SWAP4 SWAP5 POP PUSH1 0x0 MSTORE PUSH1 0x20 SWAP3 DUP4 PUSH1 0x0 KECCAK256 SWAP3 DUP5 PUSH1 0x0 SWAP5 JUMPDEST DUP4 DUP7 LT PUSH2 0x826 JUMPI POP POP POP POP ADD ADD SWAP1 CODESIZE DUP1 DUP1 DUP1 PUSH2 0x7F4 JUMP JUMPDEST DUP1 SLOAD DUP6 DUP8 ADD DUP4 ADD MSTORE SWAP5 ADD SWAP4 DUP6 SWAP1 DUP3 ADD PUSH2 0x80F JUMP JUMPDEST SWAP3 SWAP5 POP POP POP PUSH1 0x20 SWAP4 SWAP5 POP PUSH1 0xFF NOT AND DUP4 DUP4 ADD MSTORE ISZERO ISZERO PUSH1 0x5 SHL ADD ADD SWAP1 CODESIZE DUP1 DUP1 DUP1 PUSH2 0x7F4 JUMP JUMPDEST PUSH4 0x4E487B71 PUSH1 0xE0 SHL PUSH1 0x0 MSTORE PUSH1 0x41 PUSH1 0x4 MSTORE PUSH1 0x24 PUSH1 0x0 REVERT JUMPDEST PUSH1 0x40 DUP2 ADD SWAP1 DUP2 LT PUSH1 0x1 PUSH1 0x1 PUSH1 0x40 SHL SUB DUP3 GT OR PUSH2 0x4E1 JUMPI PUSH1 0x40 MSTORE JUMP JUMPDEST SWAP1 PUSH1 0x1F DUP1 NOT SWAP2 ADD AND DUP2 ADD SWAP1 DUP2 LT PUSH1 0x1 PUSH1 0x1 PUSH1 0x40 SHL SUB DUP3 GT OR PUSH2 0x4E1 JUMPI PUSH1 0x40 MSTORE JUMP JUMPDEST PUSH2 0x1B1 PUSH2 0x1FB SWAP2 PUSH1 0x40 MLOAD SWAP3 DUP4 DUP1 SWAP3 PUSH2 0x7C7 JUMP JUMPDEST PUSH1 0x60 PUSH1 0x3 NOT DUP3 ADD SLT PUSH2 0x153 JUMPI PUSH1 0x4 CALLDATALOAD SWAP2 PUSH1 0x24 CALLDATALOAD SWAP2 PUSH1 0x44 CALLDATALOAD SWAP1 PUSH1 0x1 PUSH1 0x1 PUSH1 0x40 SHL SUB DUP3 GT PUSH2 0x153 JUMPI PUSH2 0x585 SWAP2 PUSH1 0x4 ADD PUSH2 0x2D9 JUMP JUMPDEST CALLVALUE PUSH2 0x153 JUMPI PUSH2 0x902 CALLDATASIZE PUSH2 0x8C2 JUMP JUMPDEST PUSH1 0x0 DUP1 SLOAD PUSH1 0x40 MLOAD PUSH4 0x2571BE3 PUSH1 0xE0 SHL DUP2 MSTORE PUSH1 0x4 DUP2 ADD DUP8 SWAP1 MSTORE SWAP2 SWAP6 SWAP4 PUSH1 0x20 SWAP4 SWAP3 SWAP1 SWAP2 PUSH1 0x1 PUSH1 0x1 PUSH1 0xA0 SHL SUB SWAP1 DUP6 SWAP1 DUP4 SWAP1 PUSH1 0x24 SWAP1 DUP3 SWAP1 DUP6 AND GAS STATICCALL SWAP1 DUP2 ISZERO PUSH2 0x515 JUMPI PUSH2 0x953 SWAP3 DUP10 SWAP3 PUSH2 0xA59 JUMPI POP AND CALLER EQ PUSH2 0x1324 JUMP JUMPDEST DUP4 DUP7 MSTORE PUSH1 0x5 DUP4 MSTORE PUSH1 0x40 DUP7 KECCAK256 DUP6 DUP8 MSTORE DUP4 MSTORE PUSH1 0x40 DUP7 KECCAK256 SWAP3 PUSH1 0x1 PUSH1 0x1 PUSH1 0x40 SHL SUB DUP4 GT PUSH2 0x4E1 JUMPI DUP3 SWAP2 PUSH2 0x98C DUP4 PUSH2 0x986 DUP8 SLOAD PUSH2 0x78D JUMP JUMPDEST DUP8 PUSH2 0x1361 JUMP JUMPDEST DUP8 SWAP2 PUSH1 0x1F DUP5 GT PUSH1 0x1 EQ PUSH2 0x9E8 JUMPI POP DUP8 SWAP3 PUSH2 0x9DD JUMPI JUMPDEST POP POP DUP2 PUSH1 0x1 SHL SWAP2 PUSH1 0x0 NOT SWAP1 PUSH1 0x3 SHL SHR NOT AND OR SWAP1 SSTORE JUMPDEST PUSH32 0xAA121BBEEF5F32F5961A2A28966E769023910FC9479059EE3495D4C1A696EFE3 DUP4 DUP1 LOG3 DUP1 RETURN JUMPDEST ADD CALLDATALOAD SWAP1 POP CODESIZE DUP1 PUSH2 0x9A1 JUMP JUMPDEST SWAP3 POP SWAP1 PUSH1 0x1F NOT DUP5 AND PUSH2 0x9FF DUP7 PUSH1 0x0 MSTORE PUSH1 0x20 PUSH1 0x0 KECCAK256 SWAP1 JUMP JUMPDEST SWAP4 DUP10 SWAP1 JUMPDEST DUP3 DUP3 LT PUSH2 0xA41 JUMPI POP POP SWAP1 DUP5 PUSH1 0x1 SWAP6 SWAP5 SWAP4 SWAP3 LT PUSH2 0xA27 JUMPI JUMPDEST POP POP POP DUP2 SHL ADD SWAP1 SSTORE PUSH2 0x9B6 JUMP JUMPDEST ADD CALLDATALOAD PUSH1 0x0 NOT PUSH1 0x3 DUP5 SWAP1 SHL PUSH1 0xF8 AND SHR NOT AND SWAP1 SSTORE CODESIZE DUP1 DUP1 PUSH2 0xA1A JUMP JUMPDEST DUP1 PUSH1 0x1 DUP6 SWAP8 DUP3 SWAP5 SWAP7 DUP9 ADD CALLDATALOAD DUP2 SSTORE ADD SWAP7 ADD SWAP4 ADD SWAP1 PUSH2 0xA03 JUMP JUMPDEST PUSH2 0x507 SWAP2 SWAP3 POP DUP7 RETURNDATASIZE DUP9 GT PUSH2 0x50E JUMPI PUSH2 0x4FF DUP2 DUP4 PUSH2 0x88E JUMP JUMPDEST SWAP1 PUSH2 0xA8C PUSH2 0xA85 SWAP3 PUSH1 0x40 MLOAD SWAP4 DUP5 DUP1 SWAP3 PUSH2 0x7C7 JUMP JUMPDEST SUB DUP4 PUSH2 0x88E JUMP JUMPDEST JUMP JUMPDEST CALLVALUE PUSH2 0x153 JUMPI PUSH1 0x40 CALLDATASIZE PUSH1 0x3 NOT ADD SLT PUSH2 0x153 JUMPI PUSH1 0x4 CALLDATALOAD PUSH1 0x0 MSTORE PUSH1 0x5 PUSH1 0x20 MSTORE PUSH1 0x40 PUSH1 0x0 KECCAK256 PUSH1 0x24 CALLDATALOAD PUSH1 0x0 MSTORE PUSH1 0x20 MSTORE PUSH2 0x216 PUSH2 0x1FB PUSH2 0x202 PUSH1 0x40 PUSH1 0x0 KECCAK256 PUSH1 0x40 MLOAD SWAP3 DUP4 DUP1 SWAP3 PUSH2 0x7C7 JUMP JUMPDEST CALLVALUE PUSH2 0x153 JUMPI PUSH2 0xAE0 CALLDATASIZE PUSH2 0x556 JUMP JUMPDEST SWAP2 PUSH1 0x1 DUP1 PUSH1 0xA0 SHL SUB SWAP3 PUSH1 0x0 SWAP3 DUP5 DUP5 SLOAD AND PUSH1 0x40 MLOAD SWAP6 DUP7 SWAP2 PUSH4 0x2571BE3 PUSH1 0xE0 SHL DUP4 MSTORE DUP6 PUSH1 0x4 DUP5 ADD MSTORE DUP3 PUSH1 0x24 PUSH1 0x20 SWAP10 DUP11 SWAP4 GAS STATICCALL SWAP1 DUP2 ISZERO PUSH2 0x515 JUMPI PUSH2 0xB2A SWAP3 DUP8 SWAP3 PUSH2 0x70A JUMPI POP AND CALLER EQ PUSH2 0x1324 JUMP JUMPDEST CALLER DUP5 MSTORE PUSH1 0x2 DUP6 MSTORE PUSH1 0x40 DUP5 KECCAK256 PUSH1 0x1 PUSH1 0x1 PUSH1 0x40 SHL SUB DUP4 GT PUSH2 0x4E1 JUMPI PUSH2 0xB51 DUP4 PUSH2 0x608 DUP4 SLOAD PUSH2 0x78D JUMP JUMPDEST DUP5 SWAP6 PUSH1 0x1F DUP5 GT PUSH1 0x1 EQ PUSH2 0xBAC JUMPI POP DUP3 DUP6 SWAP7 PUSH32 0xB7D29E911041E8D9B843369E890BCB72C9388692BA48B65AC54E7214C4C348F7 SWAP6 SWAP7 SWAP2 PUSH2 0x671 JUMPI POP DUP4 PUSH1 0x1 SHL SWAP1 PUSH1 0x0 NOT DUP6 PUSH1 0x3 SHL SHR NOT AND OR SWAP1 SSTORE PUSH2 0x66B PUSH1 0x40 MLOAD SWAP3 DUP4 SWAP3 DUP4 PUSH2 0x14C6 JUMP JUMPDEST PUSH1 0x1F NOT DUP5 AND SWAP7 PUSH2 0xBC1 DUP4 PUSH1 0x0 MSTORE PUSH1 0x20 PUSH1 0x0 KECCAK256 SWAP1 JUMP JUMPDEST SWAP2 DUP8 SWAP1 JUMPDEST DUP10 DUP3 LT PUSH2 0xC07 JUMPI POP POP DUP5 PUSH32 0xB7D29E911041E8D9B843369E890BCB72C9388692BA48B65AC54E7214C4C348F7 SWAP7 SWAP8 SWAP9 LT PUSH2 0x6D8 JUMPI POP POP PUSH1 0x1 DUP4 DUP2 SHL ADD SWAP1 SSTORE PUSH2 0x65C JUMP JUMPDEST DUP1 PUSH1 0x1 DUP5 SWAP6 DUP3 SWAP5 SWAP6 DUP10 ADD CALLDATALOAD DUP2 SSTORE ADD SWAP5 ADD SWAP3 ADD SWAP1 PUSH2 0xBC5 JUMP JUMPDEST CALLVALUE PUSH2 0x153 JUMPI PUSH1 0x0 CALLDATASIZE PUSH1 0x3 NOT ADD SLT PUSH2 0x153 JUMPI PUSH1 0x0 SLOAD PUSH1 0x40 MLOAD PUSH1 0x1 PUSH1 0x1 PUSH1 0xA0 SHL SUB SWAP1 SWAP2 AND DUP2 MSTORE PUSH1 0x20 SWAP1 RETURN JUMPDEST CALLVALUE PUSH2 0x153 JUMPI PUSH2 0xC56 CALLDATASIZE PUSH2 0x8C2 JUMP JUMPDEST PUSH1 0x0 DUP1 SLOAD PUSH1 0x40 MLOAD PUSH4 0x2571BE3 PUSH1 0xE0 SHL DUP2 MSTORE PUSH1 0x4 DUP2 ADD DUP8 SWAP1 MSTORE SWAP2 SWAP6 SWAP5 SWAP3 SWAP2 PUSH1 0x20 SWAP2 PUSH1 0x1 PUSH1 0x1 PUSH1 0xA0 SHL SUB SWAP1 DUP4 SWAP1 DUP4 SWAP1 PUSH1 0x24 SWAP1 DUP3 SWAP1 DUP6 AND GAS STATICCALL SWAP1 DUP2 ISZERO PUSH2 0x515 JUMPI PUSH2 0xCA6 SWAP3 DUP10 SWAP3 PUSH2 0x4E6 JUMPI POP AND CALLER EQ PUSH2 0x1324 JUMP JUMPDEST DUP5 DUP7 MSTORE PUSH1 0x1 DUP1 DUP3 MSTORE PUSH1 0x40 DUP8 KECCAK256 DUP5 DUP9 MSTORE DUP3 MSTORE PUSH1 0x40 DUP8 KECCAK256 SWAP2 PUSH1 0x1 PUSH1 0x1 PUSH1 0x40 SHL SUB DUP5 GT PUSH2 0x4E1 JUMPI PUSH2 0xCDE DUP5 PUSH2 0xCD8 DUP6 SLOAD PUSH2 0x78D JUMP JUMPDEST DUP6 PUSH2 0x1361 JUMP JUMPDEST DUP8 SWAP1 PUSH1 0x1F DUP6 GT PUSH1 0x1 EQ PUSH2 0xD35 JUMPI POP SWAP2 DUP4 DUP1 PUSH1 0x0 DUP1 MLOAD PUSH1 0x20 PUSH2 0x16B9 DUP4 CODECOPY DUP2 MLOAD SWAP2 MSTORE SWAP8 SWAP7 SWAP6 SWAP4 PUSH2 0x66B SWAP6 DUP12 SWAP4 PUSH2 0xD2A JUMPI JUMPDEST POP SHL SWAP1 PUSH1 0x0 NOT DUP5 PUSH1 0x3 SHL SHR NOT AND OR SWAP1 SSTORE JUMPDEST PUSH1 0x40 MLOAD SWAP4 DUP5 SWAP4 DUP5 PUSH2 0x1497 JUMP JUMPDEST DUP9 ADD CALLDATALOAD SWAP3 POP CODESIZE PUSH2 0xD0D JUMP JUMPDEST SWAP1 PUSH1 0x1F NOT DUP6 AND PUSH2 0xD4A DUP6 PUSH1 0x0 MSTORE PUSH1 0x20 PUSH1 0x0 KECCAK256 SWAP1 JUMP JUMPDEST SWAP3 DUP11 SWAP1 JUMPDEST DUP3 DUP3 LT PUSH2 0xD9F JUMPI POP POP SWAP2 DUP6 SWAP4 SWAP2 PUSH1 0x0 DUP1 MLOAD PUSH1 0x20 PUSH2 0x16B9 DUP4 CODECOPY DUP2 MLOAD SWAP2 MSTORE SWAP9 SWAP8 SWAP7 PUSH2 0x66B SWAP7 SWAP5 LT PUSH2 0xD85 JUMPI JUMPDEST POP POP DUP3 DUP2 SHL ADD SWAP1 SSTORE PUSH2 0xD1E JUMP JUMPDEST DUP8 ADD CALLDATALOAD PUSH1 0x0 NOT PUSH1 0x3 DUP7 SWAP1 SHL PUSH1 0xF8 AND SHR NOT AND SWAP1 SSTORE CODESIZE DUP1 PUSH2 0xD78 JUMP JUMPDEST DUP1 DUP7 DUP6 SWAP7 DUP3 SWAP5 SWAP7 DUP14 ADD CALLDATALOAD DUP2 SSTORE ADD SWAP6 ADD SWAP4 ADD SWAP1 PUSH2 0xD4E JUMP JUMPDEST CALLVALUE PUSH2 0x153 JUMPI PUSH1 0x40 CALLDATASIZE PUSH1 0x3 NOT ADD SLT PUSH2 0x153 JUMPI PUSH1 0x4 CALLDATALOAD PUSH1 0x0 MSTORE PUSH1 0x1 PUSH1 0x20 MSTORE PUSH1 0x40 PUSH1 0x0 KECCAK256 PUSH1 0x24 CALLDATALOAD PUSH1 0x0 MSTORE PUSH1 0x20 MSTORE PUSH2 0x216 PUSH2 0x1FB PUSH2 0x202 PUSH1 0x40 PUSH1 0x0 KECCAK256 PUSH1 0x40 MLOAD SWAP3 DUP4 DUP1 SWAP3 PUSH2 0x7C7 JUMP JUMPDEST CALLVALUE PUSH2 0x153 JUMPI PUSH1 0x20 CALLDATASIZE PUSH1 0x3 NOT ADD SLT PUSH2 0x153 JUMPI PUSH1 0x4 CALLDATALOAD PUSH1 0x0 MSTORE PUSH1 0x4 PUSH1 0x20 MSTORE PUSH2 0x216 PUSH2 0x1FB PUSH2 0x202 PUSH1 0x40 PUSH1 0x0 KECCAK256 PUSH1 0x40 MLOAD SWAP3 DUP4 DUP1 SWAP3 PUSH2 0x7C7 JUMP JUMPDEST CALLVALUE PUSH2 0x153 JUMPI PUSH1 0x40 DUP1 PUSH1 0x3 NOT CALLDATASIZE ADD SLT PUSH2 0x153 JUMPI PUSH1 0x4 CALLDATALOAD PUSH1 0x24 CALLDATALOAD PUSH2 0xE51 DUP2 PUSH2 0x142 JUMP JUMPDEST PUSH1 0x0 DUP1 SLOAD DUP5 MLOAD PUSH4 0x2571BE3 PUSH1 0xE0 SHL DUP2 MSTORE PUSH1 0x4 DUP2 ADD DUP6 SWAP1 MSTORE SWAP2 SWAP5 SWAP2 PUSH1 0x20 SWAP2 PUSH1 0x1 PUSH1 0x1 PUSH1 0xA0 SHL SUB SWAP1 DUP4 SWAP1 DUP4 SWAP1 PUSH1 0x24 SWAP1 DUP3 SWAP1 DUP6 AND GAS STATICCALL SWAP1 DUP2 ISZERO PUSH2 0x515 JUMPI PUSH2 0xE9E SWAP3 DUP9 SWAP3 PUSH2 0x4E6 JUMPI POP AND CALLER EQ PUSH2 0x1324 JUMP JUMPDEST DUP2 MLOAD SWAP3 PUSH2 0xEAA DUP5 PUSH2 0x873 JUMP JUMPDEST PUSH1 0x14 DUP5 MSTORE PUSH1 0x60 SHL DUP2 DUP5 ADD MSTORE DUP4 DUP6 MSTORE PUSH1 0x1 SWAP1 DUP2 DUP2 MSTORE DUP3 DUP7 KECCAK256 PUSH1 0x3C DUP8 MSTORE DUP2 MSTORE DUP3 DUP7 KECCAK256 SWAP2 DUP5 MLOAD SWAP2 PUSH1 0x1 PUSH1 0x1 PUSH1 0x40 SHL SUB DUP4 GT PUSH2 0x4E1 JUMPI PUSH2 0xEF0 DUP4 PUSH2 0xEEA DUP7 SLOAD PUSH2 0x78D JUMP JUMPDEST DUP7 PUSH2 0x1361 JUMP JUMPDEST DUP1 PUSH1 0x1F DUP5 GT PUSH1 0x1 EQ PUSH2 0xF44 JUMPI POP SWAP2 DUP1 DUP1 PUSH1 0x0 DUP1 MLOAD PUSH1 0x20 PUSH2 0x16B9 DUP4 CODECOPY DUP2 MLOAD SWAP2 MSTORE SWAP8 SWAP6 SWAP4 PUSH2 0x66B SWAP8 SWAP6 DUP12 SWAP4 PUSH2 0xF39 JUMPI JUMPDEST POP SHL SWAP2 PUSH1 0x0 NOT SWAP1 PUSH1 0x3 SHL SHR NOT AND OR SWAP1 SSTORE JUMPDEST MLOAD SWAP2 DUP3 SWAP2 DUP3 PUSH2 0x14AE JUMP JUMPDEST DUP8 ADD MLOAD SWAP3 POP CODESIZE PUSH2 0xF1E JUMP JUMPDEST SWAP1 PUSH1 0x1F SWAP4 SWAP3 SWAP4 NOT DUP4 AND PUSH2 0xF5C DUP7 PUSH1 0x0 MSTORE PUSH1 0x20 PUSH1 0x0 KECCAK256 SWAP1 JUMP JUMPDEST SWAP3 DUP11 SWAP1 JUMPDEST DUP3 DUP3 LT PUSH2 0xFAF JUMPI POP POP SWAP2 DUP4 SWAP2 PUSH1 0x0 DUP1 MLOAD PUSH1 0x20 PUSH2 0x16B9 DUP4 CODECOPY DUP2 MLOAD SWAP2 MSTORE SWAP9 SWAP7 SWAP5 PUSH2 0x66B SWAP9 SWAP7 SWAP5 LT PUSH2 0xF96 JUMPI JUMPDEST POP POP DUP2 SHL ADD SWAP1 SSTORE PUSH2 0xF2F JUMP JUMPDEST DUP7 ADD MLOAD PUSH1 0x0 NOT PUSH1 0xF8 DUP5 PUSH1 0x3 SHL AND SHR NOT AND SWAP1 SSTORE CODESIZE DUP1 PUSH2 0xF8A JUMP JUMPDEST DUP1 DUP8 DUP6 SWAP7 DUP3 SWAP5 SWAP7 DUP14 ADD MLOAD DUP2 SSTORE ADD SWAP6 ADD SWAP4 ADD SWAP1 PUSH2 0xF60 JUMP JUMPDEST SWAP2 DUP2 PUSH1 0x1F DUP5 ADD SLT ISZERO PUSH2 0x153 JUMPI DUP3 CALLDATALOAD SWAP2 PUSH1 0x1 PUSH1 0x1 PUSH1 0x40 SHL SUB DUP4 GT PUSH2 0x153 JUMPI PUSH1 0x20 DUP1 DUP6 ADD SWAP5 DUP5 PUSH1 0x5 SHL ADD ADD GT PUSH2 0x153 JUMPI JUMP JUMPDEST CALLVALUE PUSH2 0x153 JUMPI PUSH1 0xA0 CALLDATASIZE PUSH1 0x3 NOT ADD SLT PUSH2 0x153 JUMPI PUSH1 0x1 PUSH1 0x1 PUSH1 0x40 SHL SUB PUSH1 0x24 CALLDATALOAD PUSH1 0x4 DUP1 CALLDATALOAD PUSH1 0x44 CALLDATALOAD DUP5 DUP2 GT PUSH2 0x153 JUMPI PUSH2 0x102D SWAP1 CALLDATASIZE SWAP1 DUP5 ADD PUSH2 0x2D9 JUMP JUMPDEST SWAP5 SWAP1 PUSH1 0x64 CALLDATALOAD DUP3 DUP2 GT PUSH2 0x153 JUMPI PUSH2 0x1046 SWAP1 CALLDATASIZE SWAP1 DUP7 ADD PUSH2 0xFC6 JUMP JUMPDEST SWAP7 SWAP1 SWAP3 PUSH1 0x84 CALLDATALOAD SWAP1 DUP2 GT PUSH2 0x153 JUMPI PUSH2 0x1060 SWAP1 CALLDATASIZE SWAP1 DUP8 ADD PUSH2 0xFC6 JUMP JUMPDEST SWAP3 SWAP1 SWAP7 PUSH1 0x1 DUP1 PUSH1 0xA0 SHL SUB SWAP7 PUSH1 0x24 DUP9 PUSH1 0x0 SLOAD AND SWAP9 PUSH1 0x20 PUSH1 0x40 SWAP11 DUP12 MLOAD SWAP4 DUP5 DUP1 SWAP3 PUSH4 0x2571BE3 PUSH1 0xE0 SHL DUP3 MSTORE DUP14 DUP9 DUP4 ADD MSTORE GAS STATICCALL SWAP1 DUP2 ISZERO PUSH2 0x515 JUMPI PUSH2 0x10AA SWAP3 PUSH1 0x0 SWAP3 PUSH2 0x1208 JUMPI POP AND CALLER EQ PUSH2 0x1324 JUMP JUMPDEST DUP5 DUP11 SUB PUSH2 0x11CD JUMPI POP SWAP1 DUP3 SWAP2 DUP7 SWAP4 PUSH2 0x1177 JUMPI JUMPDEST POP POP POP POP PUSH1 0x0 JUMPDEST DUP7 DUP2 LT PUSH2 0x10CC JUMPI STOP JUMPDEST DUP1 DUP7 DUP6 PUSH32 0xD8C9334B1A9C2F9DA342A0A2B32629C1A229B6445DAD78947F674B44444A7550 DUP6 PUSH2 0x115B PUSH2 0x1153 DUP7 PUSH2 0x114B DUP16 SWAP10 DUP11 PUSH2 0x1145 PUSH2 0x1134 DUP16 PUSH2 0x1140 PUSH2 0x1172 SWAP16 SWAP2 PUSH2 0x113A DUP16 DUP16 SWAP5 PUSH2 0x1121 DUP16 DUP12 SWAP4 SWAP1 DUP5 SWAP2 PUSH2 0x152A JUMP JUMPDEST SWAP8 SWAP1 SWAP7 PUSH1 0x0 MSTORE PUSH1 0x3 PUSH1 0x20 MSTORE PUSH1 0x40 PUSH1 0x0 KECCAK256 SWAP1 JUMP JUMPDEST SWAP4 PUSH2 0x152A JUMP JUMPDEST SWAP1 PUSH2 0x14D7 JUMP JUMPDEST PUSH2 0x13B5 JUMP JUMPDEST DUP14 PUSH2 0x152A JUMP JUMPDEST SWAP5 SWAP1 SWAP8 PUSH2 0x152A JUMP JUMPDEST SWAP3 SWAP1 SWAP6 PUSH2 0x14F0 JUMP JUMPDEST SWAP4 PUSH2 0x116A DUP12 MLOAD SWAP3 DUP4 SWAP3 DUP4 PUSH2 0x14C6 JUMP JUMPDEST SUB SWAP1 LOG3 PUSH2 0x1505 JUMP JUMPDEST PUSH2 0x10C3 JUMP JUMPDEST PUSH2 0x11C1 DUP4 PUSH2 0x11B6 PUSH1 0x0 DUP1 MLOAD PUSH1 0x20 PUSH2 0x16B9 DUP4 CODECOPY DUP2 MLOAD SWAP2 MSTORE SWAP6 DUP6 PUSH2 0x1140 DUP7 PUSH2 0x11A7 DUP12 PUSH1 0x0 MSTORE PUSH1 0x1 PUSH1 0x20 MSTORE PUSH1 0x40 PUSH1 0x0 KECCAK256 SWAP1 JUMP JUMPDEST SWAP1 PUSH1 0x0 MSTORE PUSH1 0x20 MSTORE PUSH1 0x40 PUSH1 0x0 KECCAK256 SWAP1 JUMP JUMPDEST DUP10 MLOAD SWAP4 DUP5 SWAP4 DUP5 PUSH2 0x1497 JUMP JUMPDEST SUB SWAP1 LOG2 DUP3 CODESIZE DUP1 DUP1 PUSH2 0x10BC JUMP JUMPDEST PUSH1 0x64 SWAP1 PUSH1 0x20 DUP10 MLOAD SWAP2 PUSH3 0x461BCD PUSH1 0xE5 SHL DUP4 MSTORE DUP3 ADD MSTORE PUSH1 0x15 PUSH1 0x24 DUP3 ADD MSTORE PUSH21 0x82E4E4C2F240D8CADCCEE8D040DAD2E6DAC2E8C6D PUSH1 0x5B SHL PUSH1 0x44 DUP3 ADD MSTORE REVERT JUMPDEST PUSH2 0x507 SWAP2 SWAP3 POP PUSH1 0x20 RETURNDATASIZE DUP2 GT PUSH2 0x50E JUMPI PUSH2 0x4FF DUP2 DUP4 PUSH2 0x88E JUMP JUMPDEST PUSH1 0x1 PUSH1 0x1 PUSH1 0x40 SHL SUB DUP2 GT PUSH2 0x4E1 JUMPI PUSH1 0x1F ADD PUSH1 0x1F NOT AND PUSH1 0x20 ADD SWAP1 JUMP JUMPDEST PUSH1 0x20 SWAP1 PUSH2 0x1256 SWAP3 DUP3 PUSH1 0x40 MLOAD SWAP5 DUP4 DUP7 DUP1 SWAP6 MLOAD SWAP4 DUP5 SWAP3 ADD PUSH2 0x158 JUMP JUMPDEST DUP3 ADD SWAP1 DUP2 MSTORE SUB ADD SWAP1 KECCAK256 SWAP1 JUMP JUMPDEST CALLVALUE PUSH2 0x153 JUMPI PUSH1 0x40 CALLDATASIZE PUSH1 0x3 NOT ADD SLT PUSH2 0x153 JUMPI PUSH1 0x24 CALLDATALOAD PUSH1 0x1 PUSH1 0x1 PUSH1 0x40 SHL SUB DUP2 GT PUSH2 0x153 JUMPI CALLDATASIZE PUSH1 0x23 DUP3 ADD SLT ISZERO PUSH2 0x153 JUMPI DUP1 PUSH1 0x4 ADD CALLDATALOAD PUSH2 0x129D DUP2 PUSH2 0x1221 JUMP JUMPDEST SWAP2 PUSH2 0x12AB PUSH1 0x40 MLOAD SWAP4 DUP5 PUSH2 0x88E JUMP JUMPDEST DUP2 DUP4 MSTORE CALLDATASIZE PUSH1 0x24 DUP4 DUP4 ADD ADD GT PUSH2 0x153 JUMPI PUSH2 0x216 SWAP3 PUSH1 0x0 PUSH1 0x20 DUP5 PUSH2 0x12F7 SWAP6 PUSH1 0x24 PUSH2 0x12F2 SWAP7 ADD DUP4 DUP7 ADD CALLDATACOPY DUP4 ADD ADD MSTORE PUSH2 0x12EC PUSH1 0x4 CALLDATALOAD PUSH1 0x0 MSTORE PUSH1 0x3 PUSH1 0x20 MSTORE PUSH1 0x40 PUSH1 0x0 KECCAK256 SWAP1 JUMP JUMPDEST SWAP1 PUSH2 0x123C JUMP JUMPDEST PUSH2 0x8AF JUMP JUMPDEST PUSH1 0x40 MLOAD SWAP2 DUP3 SWAP2 DUP3 PUSH2 0x1A0 JUMP JUMPDEST SWAP1 DUP2 PUSH1 0x20 SWAP2 SUB SLT PUSH2 0x153 JUMPI MLOAD PUSH2 0x1B1 DUP2 PUSH2 0x142 JUMP JUMPDEST PUSH1 0x40 MLOAD RETURNDATASIZE PUSH1 0x0 DUP3 RETURNDATACOPY RETURNDATASIZE SWAP1 REVERT JUMPDEST ISZERO PUSH2 0x132B JUMPI JUMP JUMPDEST PUSH1 0x40 MLOAD PUSH3 0x461BCD PUSH1 0xE5 SHL DUP2 MSTORE PUSH1 0x20 PUSH1 0x4 DUP3 ADD MSTORE PUSH1 0xE PUSH1 0x24 DUP3 ADD MSTORE PUSH14 0x139BDD08185D5D1A1BDC9A5CD959 PUSH1 0x92 SHL PUSH1 0x44 DUP3 ADD MSTORE PUSH1 0x64 SWAP1 REVERT JUMPDEST SWAP1 PUSH1 0x1F DUP2 GT PUSH2 0x136F JUMPI POP POP POP JUMP JUMPDEST PUSH1 0x0 SWAP2 DUP3 MSTORE PUSH1 0x20 DUP3 KECCAK256 SWAP1 PUSH1 0x20 PUSH1 0x1F DUP6 ADD PUSH1 0x5 SHR DUP4 ADD SWAP5 LT PUSH2 0x13AB JUMPI JUMPDEST PUSH1 0x1F ADD PUSH1 0x5 SHR ADD SWAP2 JUMPDEST DUP3 DUP2 LT PUSH2 0x13A0 JUMPI POP POP POP JUMP JUMPDEST DUP2 DUP2 SSTORE PUSH1 0x1 ADD PUSH2 0x1394 JUMP JUMPDEST SWAP1 SWAP3 POP DUP3 SWAP1 PUSH2 0x138B JUMP JUMPDEST SWAP1 SWAP3 SWAP2 PUSH1 0x1 PUSH1 0x1 PUSH1 0x40 SHL SUB DUP2 GT PUSH2 0x4E1 JUMPI PUSH2 0x13D4 DUP2 PUSH2 0x3CC DUP5 SLOAD PUSH2 0x78D JUMP JUMPDEST PUSH1 0x0 PUSH1 0x1F DUP3 GT PUSH1 0x1 EQ PUSH2 0x140E JUMPI DUP2 SWAP3 SWAP4 SWAP5 PUSH1 0x0 SWAP3 PUSH2 0x1403 JUMPI JUMPDEST POP POP DUP2 PUSH1 0x1 SHL SWAP2 PUSH1 0x0 NOT SWAP1 PUSH1 0x3 SHL SHR NOT AND OR SWAP1 SSTORE JUMP JUMPDEST ADD CALLDATALOAD SWAP1 POP CODESIZE DUP1 PUSH2 0x13ED JUMP JUMPDEST PUSH1 0x1F NOT DUP3 AND SWAP5 PUSH2 0x1423 DUP5 PUSH1 0x0 MSTORE PUSH1 0x20 PUSH1 0x0 KECCAK256 SWAP1 JUMP JUMPDEST SWAP2 DUP1 JUMPDEST DUP8 DUP2 LT PUSH2 0x145E JUMPI POP DUP4 PUSH1 0x1 SWAP6 SWAP7 SWAP8 LT PUSH2 0x1444 JUMPI JUMPDEST POP POP POP DUP2 SHL ADD SWAP1 SSTORE JUMP JUMPDEST ADD CALLDATALOAD PUSH1 0x0 NOT PUSH1 0x3 DUP5 SWAP1 SHL PUSH1 0xF8 AND SHR NOT AND SWAP1 SSTORE CODESIZE DUP1 DUP1 PUSH2 0x143A JUMP JUMPDEST SWAP1 SWAP3 PUSH1 0x20 PUSH1 0x1 DUP2 SWAP3 DUP7 DUP7 ADD CALLDATALOAD DUP2 SSTORE ADD SWAP5 ADD SWAP2 ADD PUSH2 0x1426 JUMP JUMPDEST SWAP1 DUP1 PUSH1 0x20 SWAP4 SWAP3 DUP2 DUP5 MSTORE DUP5 DUP5 ADD CALLDATACOPY PUSH1 0x0 DUP3 DUP3 ADD DUP5 ADD MSTORE PUSH1 0x1F ADD PUSH1 0x1F NOT AND ADD ADD SWAP1 JUMP JUMPDEST PUSH1 0x40 SWAP1 PUSH2 0x1B1 SWAP5 SWAP3 DUP2 MSTORE DUP2 PUSH1 0x20 DUP3 ADD MSTORE ADD SWAP2 PUSH2 0x1476 JUMP JUMPDEST SWAP1 PUSH1 0x40 PUSH2 0x1B1 SWAP3 PUSH1 0x3C DUP2 MSTORE DUP2 PUSH1 0x20 DUP3 ADD MSTORE ADD SWAP1 PUSH2 0x17B JUMP JUMPDEST SWAP2 PUSH1 0x20 PUSH2 0x1B1 SWAP4 DUP2 DUP2 MSTORE ADD SWAP2 PUSH2 0x1476 JUMP JUMPDEST PUSH1 0x20 SWAP2 SWAP3 DUP4 PUSH1 0x40 MLOAD SWAP5 DUP6 SWAP4 DUP5 CALLDATACOPY DUP3 ADD SWAP1 DUP2 MSTORE SUB ADD SWAP1 KECCAK256 SWAP1 JUMP JUMPDEST DUP2 PUSH1 0x40 MLOAD SWAP3 DUP4 SWAP3 DUP4 CALLDATACOPY DUP2 ADD PUSH1 0x0 DUP2 MSTORE SUB SWAP1 KECCAK256 SWAP1 JUMP JUMPDEST PUSH1 0x0 NOT DUP2 EQ PUSH2 0x1514 JUMPI PUSH1 0x1 ADD SWAP1 JUMP JUMPDEST PUSH4 0x4E487B71 PUSH1 0xE0 SHL PUSH1 0x0 MSTORE PUSH1 0x11 PUSH1 0x4 MSTORE PUSH1 0x24 PUSH1 0x0 REVERT JUMPDEST SWAP2 SWAP1 DUP2 LT ISZERO PUSH2 0x156B JUMPI PUSH1 0x5 SHL DUP2 ADD CALLDATALOAD SWAP1 PUSH1 0x1E NOT DUP2 CALLDATASIZE SUB ADD DUP3 SLT ISZERO PUSH2 0x153 JUMPI ADD SWAP1 DUP2 CALLDATALOAD SWAP2 PUSH1 0x1 PUSH1 0x1 PUSH1 0x40 SHL SUB DUP4 GT PUSH2 0x153 JUMPI PUSH1 0x20 ADD DUP3 CALLDATASIZE SUB DUP2 SGT PUSH2 0x153 JUMPI SWAP2 SWAP1 JUMP JUMPDEST PUSH4 0x4E487B71 PUSH1 0xE0 SHL PUSH1 0x0 MSTORE PUSH1 0x32 PUSH1 0x4 MSTORE PUSH1 0x24 PUSH1 0x0 REVERT JUMPDEST PUSH1 0x0 MSTORE PUSH1 0x1 PUSH1 0x20 MSTORE PUSH1 0x40 PUSH1 0x0 KECCAK256 PUSH1 0x3C PUSH1 0x0 MSTORE PUSH1 0x20 MSTORE PUSH2 0x1FB PUSH2 0x15AD PUSH1 0x40 PUSH1 0x0 KECCAK256 PUSH1 0x40 MLOAD SWAP3 DUP4 DUP1 SWAP3 PUSH2 0x7C7 JUMP JUMPDEST DUP1 MLOAD DUP1 ISZERO PUSH2 0x1600 JUMPI PUSH1 0x14 GT PUSH2 0x15C3 JUMPI PUSH1 0x14 ADD MLOAD SWAP1 JUMP JUMPDEST PUSH1 0x40 MLOAD PUSH3 0x461BCD PUSH1 0xE5 SHL DUP2 MSTORE PUSH1 0x20 PUSH1 0x4 DUP3 ADD MSTORE PUSH1 0x15 PUSH1 0x24 DUP3 ADD MSTORE PUSH21 0x496E76616C69642061646472657373206279746573 PUSH1 0x58 SHL PUSH1 0x44 DUP3 ADD MSTORE PUSH1 0x64 SWAP1 REVERT JUMPDEST POP POP PUSH1 0x0 SWAP1 JUMP JUMPDEST PUSH1 0x40 MLOAD SWAP1 PUSH1 0x20 DUP3 ADD DUP3 DUP2 LT PUSH1 0x1 PUSH1 0x1 PUSH1 0x40 SHL SUB DUP3 GT OR PUSH2 0x4E1 JUMPI PUSH1 0x40 MSTORE PUSH1 0x0 DUP3 MSTORE JUMP JUMPDEST PUSH1 0x0 JUMPDEST PUSH2 0x100 DUP2 LT PUSH2 0x1646 JUMPI POP POP POP PUSH2 0x1641 PUSH2 0x1607 JUMP JUMPDEST PUSH1 0x0 SWAP2 JUMP JUMPDEST PUSH1 0x1 DUP2 SHL DUP1 DUP5 AND ISZERO ISZERO DUP1 PUSH2 0x168D JUMPI JUMPDEST PUSH2 0x1668 JUMPI POP PUSH2 0x1663 SWAP1 PUSH2 0x1505 JUMP JUMPDEST PUSH2 0x162D JUMP JUMPDEST SWAP4 SWAP3 POP POP PUSH1 0x0 MSTORE PUSH2 0x1B1 PUSH1 0x20 PUSH1 0x5 DUP2 MSTORE PUSH1 0x40 SWAP1 DUP2 PUSH1 0x0 KECCAK256 SWAP1 DUP6 PUSH1 0x0 MSTORE MSTORE PUSH1 0x0 KECCAK256 PUSH2 0xA71 JUMP JUMPDEST POP DUP3 PUSH1 0x0 MSTORE PUSH2 0x16B1 PUSH1 0x20 PUSH1 0x5 DUP2 MSTORE PUSH1 0x40 SWAP1 DUP2 PUSH1 0x0 KECCAK256 SWAP1 DUP5 PUSH1 0x0 MSTORE MSTORE PUSH1 0x0 KECCAK256 SLOAD PUSH2 0x78D JUMP JUMPDEST ISZERO ISZERO PUSH2 0x1655 JUMP INVALID PUSH6 0x412581168E88 LOG1 0xE6 0xC PUSH5 0x59D7F44AE8 GASPRICE 0xD0 DUP4 0x2E PUSH8 0x826C05A4E2476B5 PUSH27 0xF752A2646970667358221220EE2D82D00BD7763F99577467D26D54 SWAP11 GASPRICE 0xDE BALANCE DELEGATECALL 0xC4 0xB5 0xB6 MSTORE8 0xDA 0xF8 JUMPI 0xA5 SWAP7 LOG2 BASEFEE 0xC7 PUSH5 0x736F6C6343 STOP ADDMOD EQ STOP CALLER "},"methodIdentifiers":{"ABI(bytes32,uint256)":"2203ab56","abis(bytes32,uint256)":"6f7662f1","addr(bytes32)":"3b3b57de","addr(bytes32,uint256)":"f1cb7e06","addresses(bytes32,uint256)":"b76b70d5","contenthash(bytes32)":"bc1c58d1","name(address)":"01984892","names(address)":"5cf3d346","registry()":"7b103999","setABI(bytes32,uint256,bytes)":"623195b0","setAddr(bytes32,address)":"d5fa2b00","setAddr(bytes32,uint256,bytes)":"8b95dd71","setContenthash(bytes32,bytes)":"304e6ade","setName(bytes32,string)":"77372213","setRecords(bytes32,uint256,bytes,string[],string[])":"d799b7d6","setText(bytes32,string,string)":"10f13a8c","supportsInterface(bytes4)":"01ffc9a7","text(bytes32,string)":"59d1d43c","texts(bytes32,string)":"ea5822c6"}}}}}