{"contracts/registry/UniversalRegistry.sol":{"UniversalRegistry":{"abi":[{"inputs":[{"internalType":"string","name":"_tld","type":"string"},{"internalType":"bytes32","name":"_tldNode","type":"bytes32"}],"stateMutability":"nonpayable","type":"constructor"},{"anonymous":false,"inputs":[{"indexed":true,"internalType":"address","name":"controller","type":"address"}],"name":"ControllerAdded","type":"event"},{"anonymous":false,"inputs":[{"indexed":true,"internalType":"address","name":"controller","type":"address"}],"name":"ControllerRemoved","type":"event"},{"anonymous":false,"inputs":[{"indexed":true,"internalType":"bytes32","name":"node","type":"bytes32"},{"indexed":false,"internalType":"string","name":"name","type":"string"},{"indexed":true,"internalType":"address","name":"owner","type":"address"},{"indexed":false,"internalType":"uint256","name":"expires","type":"uint256"}],"name":"NameRegistered","type":"event"},{"anonymous":false,"inputs":[{"indexed":true,"internalType":"bytes32","name":"node","type":"bytes32"},{"indexed":false,"internalType":"uint256","name":"expires","type":"uint256"}],"name":"NameRenewed","type":"event"},{"anonymous":false,"inputs":[{"indexed":true,"internalType":"bytes32","name":"node","type":"bytes32"},{"indexed":false,"internalType":"address","name":"resolver","type":"address"}],"name":"NewResolver","type":"event"},{"anonymous":false,"inputs":[{"indexed":true,"internalType":"bytes32","name":"node","type":"bytes32"},{"indexed":true,"internalType":"address","name":"newOwner","type":"address"}],"name":"Transfer","type":"event"},{"inputs":[],"name":"GRACE_PERIOD","outputs":[{"internalType":"uint256","name":"","type":"uint256"}],"stateMutability":"view","type":"function"},{"inputs":[],"name":"MIN_REGISTRATION_DURATION","outputs":[{"internalType":"uint256","name":"","type":"uint256"}],"stateMutability":"view","type":"function"},{"inputs":[{"internalType":"address","name":"controller","type":"address"}],"name":"addController","outputs":[],"stateMutability":"nonpayable","type":"function"},{"inputs":[{"internalType":"bytes32","name":"node","type":"bytes32"}],"name":"available","outputs":[{"internalType":"bool","name":"","type":"bool"}],"stateMutability":"view","type":"function"},{"inputs":[{"internalType":"address","name":"","type":"address"}],"name":"controllers","outputs":[{"internalType":"bool","name":"","type":"bool"}],"stateMutability":"view","type":"function"},{"inputs":[{"internalType":"bytes32","name":"node","type":"bytes32"}],"name":"nameExpires","outputs":[{"internalType":"uint256","name":"","type":"uint256"}],"stateMutability":"view","type":"function"},{"inputs":[{"internalType":"bytes32","name":"node","type":"bytes32"}],"name":"owner","outputs":[{"internalType":"address","name":"","type":"address"}],"stateMutability":"view","type":"function"},{"inputs":[{"internalType":"bytes32","name":"","type":"bytes32"}],"name":"records","outputs":[{"internalType":"address","name":"owner","type":"address"},{"internalType":"address","name":"resolver","type":"address"},{"internalType":"uint64","name":"expiry","type":"uint64"}],"stateMutability":"view","type":"function"},{"inputs":[{"internalType":"bytes32","name":"node","type":"bytes32"},{"internalType":"string","name":"name","type":"string"},{"internalType":"address","name":"owner","type":"address"},{"internalType":"uint256","name":"duration","type":"uint256"}],"name":"register","outputs":[{"internalType":"uint256","name":"","type":"uint256"}],"stateMutability":"nonpayable","type":"function"},{"inputs":[],"name":"registryOwner","outputs":[{"internalType":"address","name":"","type":"address"}],"stateMutability":"view","type":"function"},{"inputs":[{"internalType":"address","name":"controller","type":"address"}],"name":"removeController","outputs":[],"stateMutability":"nonpayable","type":"function"},{"inputs":[{"internalType":"bytes32","name":"node","type":"bytes32"},{"internalType":"uint256","name":"duration","type":"uint256"}],"name":"renew","outputs":[{"internalType":"uint256","name":"","type":"uint256"}],"stateMutability":"nonpayable","type":"function"},{"inputs":[{"internalType":"bytes32","name":"node","type":"bytes32"}],"name":"resolver","outputs":[{"internalType":"address","name":"","type":"address"}],"stateMutability":"view","type":"function"},{"inputs":[{"internalType":"bytes32","name":"node","type":"bytes32"},{"internalType":"address","name":"resolver","type":"address"}],"name":"setResolver","outputs":[],"stateMutability":"nonpayable","type":"function"},{"inputs":[],"name":"tld","outputs":[{"internalType":"string","name":"","type":"string"}],"stateMutability":"view","type":"function"},{"inputs":[],"name":"tldNode","outputs":[{"internalType":"bytes32","name":"","type":"bytes32"}],"stateMutability":"view","type":"function"},{"inputs":[{"internalType":"bytes32","name":"node","type":"bytes32"},{"internalType":"address","name":"newOwner","type":"address"}],"name":"transfer","outputs":[],"stateMutability":"nonpayable","type":"function"},{"inputs":[{"internalType":"address","name":"newOwner","type":"address"}],"name":"transferOwnership","outputs":[],"stateMutability":"nonpayable","type":"function"}],"evm":{"bytecode":{"linkReferences":{},"object":"608060405234620002455762000eea803803806200001d816200024a565b928339810190604081830312620002455780516001600160401b0391908281116200024557810191601f9084828501121562000245578351928184116200021a57602093601f199562000076868887850116016200024a565b9782895286838301011162000245579085929160005b82811062000230575050826000918901015201519185519182116200021a57600054946001958681811c911680156200020f575b86821014620001f957828111620001ae575b50849183116001146200014657508190600495966000926200013a575b5050600019600383901b1c191690851b176000555b6002553360018060a01b0319845416178355336000525260406000209060ff19825416179055604051610c799081620002718239f35b015190503880620000ef565b82169560008052846000209660005b81811062000198575091869791846004989594106200017e575b505050811b0160005562000104565b015160001960f88460031b161c191690553880806200016f565b8383015189559787019792860192860162000155565b60008052856000208380860160051c820192888710620001ef575b0160051c019087905b828110620001e2575050620000d2565b60008155018790620001d2565b92508192620001c9565b634e487b7160e01b600052602260045260246000fd5b90607f1690620000c0565b634e487b7160e01b600052604160045260246000fd5b8181018501518a82018601528794016200008c565b600080fd5b6040519190601f01601f191682016001600160401b038111838210176200021a5760405256fe60406080815260048036101561001457600080fd5b600091823560e01c80630178b8bf146109a157806301e647251461094f57806302571be31461091e578063114902c5146108ff5780631896f70a1461084c5780632d551432146106f15780636932854f146106c8578063727e4ea71461069057806379ce9fac146105de5780638a95b09f146105c05780639ec388df146103c9578063a7fc7a0714610359578063c1a287e21461033b578063da8c229e146102fe578063dc5853c7146102d5578063f2fde38b14610280578063f544d82f146101565763f6a74ed7146100e657600080fd5b34610152576020366003190112610152576100ff6109dc565b6001546001600160a01b0391906101199083163314610c02565b1691828452602052822060ff1981541690557f33d83959be2573f5453b12eb9d43b3499bc57d96bd2f067ba44803c859e811138280a280f35b8280fd5b5082903461027c578060031936011261027c578235602435933384528060205261018560ff84862054166109f2565b6101946224ea00861015610a31565b818452600360205282842080549091906001600160a01b03161561024357506020946101e3600161020e93019167ffffffffffffffff9687845460a01c16905042811160001461023c57610a72565b815467ffffffffffffffff60a01b191695811660a01b67ffffffffffffffff60a01b16959095179055565b7f5a773044a6c2a5ab1c7812c9417486344a3aa701e02afef1026ba9e1bebeed94848351858152a251908152f35b5042610a72565b606490602085519162461bcd60e51b8352820152601360248201527213985b59481b9bdd081c9959da5cdd195c9959606a1b6044820152fd5b5080fd5b83346102d25760203660031901126102d25761029a6109dc565b600154906001600160a01b03906102b43383851614610c02565b16906102c1821515610b11565b6001600160a01b0319161760015580f35b80fd5b83823461027c578160031936011261027c5760015490516001600160a01b039091168152602090f35b5090346101525760203660031901126101525760209260ff918391906001600160a01b0361032a6109dc565b168252855220541690519015158152f35b83823461027c578160031936011261027c57602090516276a7008152f35b5034610152576020366003190112610152576103736109dc565b6001546001600160a01b03919061038d9083163314610c02565b16918284526020528220600160ff198254161790557f0a8bb31534c0ed46f380cb867bd5c803a189ced9a764e30b3a4991a9901d74748280a280f35b50346101525760803660031901126101525767ffffffffffffffff928235602480358681116105bc57366023820112156105bc57808601358781116105b857368382840101116105b8576001600160a01b039660443588811696919087900361027c576064359933835260209a828c5261044860ff8b862054166109f2565b6104576224ea00821015610a31565b881561058657610468899142610a72565b9a88855260038d528a8520938454918216610514575b506001600160a01b0319161782556001909101805467ffffffffffffffff60a01b1916918a1660a01b67ffffffffffffffff60a01b169190911790557f4ca007e15dd1d80b3512005d0b3de91c6d800221327eeb30339cbf2e7cff6286939260609290918189519586948b8652828c8701520185850137828201840152898201899052601f01601f19168101030190a351908152f35b90915082600185015460a01c166276a70081018091116105745742111561053d5790899161047e565b8a5162461bcd60e51b81529081018d9052601281890152714e616d65206e6f7420617661696c61626c6560701b6044820152606490fd5b634e487b7160e01b8652601182528886fd5b895162461bcd60e51b81528084018d9052600d818901526c24b73b30b634b21037bbb732b960991b6044820152606490fd5b8480fd5b8380fd5b83823461027c578160031936011261027c57602090516224ea008152f35b509034610152578160031936011261015257356105f96109c1565b8184526003602052828420546001600160a01b03919061061c9083163314610a95565b828552600360205261064267ffffffffffffffff6001868820015460a01c164210610ad4565b169161064f831515610b11565b8184526003602052832080546001600160a01b031916831790557fd4735d920b0f87494915f556dd9b54c8f309026070caea5c737245152564d2668380a380f35b5090346101525760203660031901126101525760018260209467ffffffffffffffff933581526003865220015460a01c169051908152f35b5082346102d25760203660031901126102d257506106e860209235610bba565b90519015158152f35b5034610152578260031936011261015257805183805460019581871c878316978815610842575b6020938483108a1461082f57848798999a84895291826000146108135750506001146107c0575b5050601f801995869203011683019583871067ffffffffffffffff8811176107ad575085929391838652818452845191828186015281955b8387106107955750508394508582601f949501015201168101030190f35b86810182015189880189015295810195889550610777565b634e487b7160e01b835260419052602482fd5b8480528492507f290decd9548b62a8d60345a988386fc84ba6bc95484008f6362f93160ef3e5635b8284106107fd5750505083018101388061073f565b80548885018601528796509284019281016107e8565b925093505060ff191682860152151560051b840101388061073f565b634e487b7160e01b865260228952602486fd5b90607f1690610718565b50903461015257816003193601126101525760207f335721b01866dc23fbee8b6b2c7b1e14d6f05c28cd35a2c934239f94095602a091359261088c6109c1565b908486526003835260018060a01b036108ab8183892054163314610a95565b858752600384526108d067ffffffffffffffff6001848a20015460a01c164210610ad4565b85875260038452600182882001921691826bffffffffffffffffffffffff60a01b82541617905551908152a280f35b83823461027c578160031936011261027c576020906002549051908152f35b5082346102d25760203660031901126102d2575061093e60209235610b51565b90516001600160a01b039091168152f35b5090346101525760203660031901126101525760609282913581526003602052209067ffffffffffffffff60018060a01b036001818554169401549083519485528116602085015260a01c1690820152f35b5082346102d25760203660031901126102d2575061093e60209235610b89565b602435906001600160a01b03821682036109d757565b600080fd5b600435906001600160a01b03821682036109d757565b156109f957565b60405162461bcd60e51b815260206004820152601060248201526f2737ba10309031b7b73a3937b63632b960811b6044820152606490fd5b15610a3857565b60405162461bcd60e51b8152602060048201526012602482015271111d5c985d1a5bdb881d1bdbc81cda1bdc9d60721b6044820152606490fd5b91908201809211610a7f57565b634e487b7160e01b600052601160045260246000fd5b15610a9c57565b60405162461bcd60e51b815260206004820152601060248201526f2737ba103237b6b0b4b71037bbb732b960811b6044820152606490fd5b15610adb57565b60405162461bcd60e51b815260206004820152600e60248201526d111bdb585a5b88195e1c1a5c995960921b6044820152606490fd5b15610b1857565b60405162461bcd60e51b815260206004820152601160248201527024b73b30b634b2103732bb9037bbb732b960791b6044820152606490fd5b6000526003602052604060002067ffffffffffffffff600182015460a01c164211610b8357546001600160a01b031690565b50600090565b60005260036020526001604060002001544267ffffffffffffffff8260a01c1610610b83576001600160a01b031690565b600090815260036020526040902080546001600160a01b031615610bfc57600167ffffffffffffffff91015460a01c166276a7008101809111610a7f57421190565b50600190565b15610c0957565b60405162461bcd60e51b81526020600482015260126024820152712737ba103932b3b4b9ba393c9037bbb732b960711b6044820152606490fdfea2646970667358221220a7332d0d6f1bab1a10e191c3f4be6bdcf77638a5775731510b3dc0ef7b3fdd7864736f6c63430008140033","opcodes":"PUSH1 0x80 PUSH1 0x40 MSTORE CALLVALUE PUSH3 0x245 JUMPI PUSH3 0xEEA DUP1 CODESIZE SUB DUP1 PUSH3 0x1D DUP2 PUSH3 0x24A JUMP JUMPDEST SWAP3 DUP4 CODECOPY DUP2 ADD SWAP1 PUSH1 0x40 DUP2 DUP4 SUB SLT PUSH3 0x245 JUMPI DUP1 MLOAD PUSH1 0x1 PUSH1 0x1 PUSH1 0x40 SHL SUB SWAP2 SWAP1 DUP3 DUP2 GT PUSH3 0x245 JUMPI DUP2 ADD SWAP2 PUSH1 0x1F SWAP1 DUP5 DUP3 DUP6 ADD SLT ISZERO PUSH3 0x245 JUMPI DUP4 MLOAD SWAP3 DUP2 DUP5 GT PUSH3 0x21A JUMPI PUSH1 0x20 SWAP4 PUSH1 0x1F NOT SWAP6 PUSH3 0x76 DUP7 DUP9 DUP8 DUP6 ADD AND ADD PUSH3 0x24A JUMP JUMPDEST SWAP8 DUP3 DUP10 MSTORE DUP7 DUP4 DUP4 ADD ADD GT PUSH3 0x245 JUMPI SWAP1 DUP6 SWAP3 SWAP2 PUSH1 0x0 JUMPDEST DUP3 DUP2 LT PUSH3 0x230 JUMPI POP POP DUP3 PUSH1 0x0 SWAP2 DUP10 ADD ADD MSTORE ADD MLOAD SWAP2 DUP6 MLOAD SWAP2 DUP3 GT PUSH3 0x21A JUMPI PUSH1 0x0 SLOAD SWAP5 PUSH1 0x1 SWAP6 DUP7 DUP2 DUP2 SHR SWAP2 AND DUP1 ISZERO PUSH3 0x20F JUMPI JUMPDEST DUP7 DUP3 LT EQ PUSH3 0x1F9 JUMPI DUP3 DUP2 GT PUSH3 0x1AE JUMPI JUMPDEST POP DUP5 SWAP2 DUP4 GT PUSH1 0x1 EQ PUSH3 0x146 JUMPI POP DUP2 SWAP1 PUSH1 0x4 SWAP6 SWAP7 PUSH1 0x0 SWAP3 PUSH3 0x13A JUMPI JUMPDEST POP POP PUSH1 0x0 NOT PUSH1 0x3 DUP4 SWAP1 SHL SHR NOT AND SWAP1 DUP6 SHL OR PUSH1 0x0 SSTORE JUMPDEST PUSH1 0x2 SSTORE CALLER PUSH1 0x1 DUP1 PUSH1 0xA0 SHL SUB NOT DUP5 SLOAD AND OR DUP4 SSTORE CALLER PUSH1 0x0 MSTORE MSTORE PUSH1 0x40 PUSH1 0x0 KECCAK256 SWAP1 PUSH1 0xFF NOT DUP3 SLOAD AND OR SWAP1 SSTORE PUSH1 0x40 MLOAD PUSH2 0xC79 SWAP1 DUP2 PUSH3 0x271 DUP3 CODECOPY RETURN JUMPDEST ADD MLOAD SWAP1 POP CODESIZE DUP1 PUSH3 0xEF JUMP JUMPDEST DUP3 AND SWAP6 PUSH1 0x0 DUP1 MSTORE DUP5 PUSH1 0x0 KECCAK256 SWAP7 PUSH1 0x0 JUMPDEST DUP2 DUP2 LT PUSH3 0x198 JUMPI POP SWAP2 DUP7 SWAP8 SWAP2 DUP5 PUSH1 0x4 SWAP9 SWAP6 SWAP5 LT PUSH3 0x17E JUMPI JUMPDEST POP POP POP DUP2 SHL ADD PUSH1 0x0 SSTORE PUSH3 0x104 JUMP JUMPDEST ADD MLOAD PUSH1 0x0 NOT PUSH1 0xF8 DUP5 PUSH1 0x3 SHL AND SHR NOT AND SWAP1 SSTORE CODESIZE DUP1 DUP1 PUSH3 0x16F JUMP JUMPDEST DUP4 DUP4 ADD MLOAD DUP10 SSTORE SWAP8 DUP8 ADD SWAP8 SWAP3 DUP7 ADD SWAP3 DUP7 ADD PUSH3 0x155 JUMP JUMPDEST PUSH1 0x0 DUP1 MSTORE DUP6 PUSH1 0x0 KECCAK256 DUP4 DUP1 DUP7 ADD PUSH1 0x5 SHR DUP3 ADD SWAP3 DUP9 DUP8 LT PUSH3 0x1EF JUMPI JUMPDEST ADD PUSH1 0x5 SHR ADD SWAP1 DUP8 SWAP1 JUMPDEST DUP3 DUP2 LT PUSH3 0x1E2 JUMPI POP POP PUSH3 0xD2 JUMP JUMPDEST PUSH1 0x0 DUP2 SSTORE ADD DUP8 SWAP1 PUSH3 0x1D2 JUMP JUMPDEST SWAP3 POP DUP2 SWAP3 PUSH3 0x1C9 JUMP JUMPDEST PUSH4 0x4E487B71 PUSH1 0xE0 SHL PUSH1 0x0 MSTORE PUSH1 0x22 PUSH1 0x4 MSTORE PUSH1 0x24 PUSH1 0x0 REVERT JUMPDEST SWAP1 PUSH1 0x7F AND SWAP1 PUSH3 0xC0 JUMP JUMPDEST PUSH4 0x4E487B71 PUSH1 0xE0 SHL PUSH1 0x0 MSTORE PUSH1 0x41 PUSH1 0x4 MSTORE PUSH1 0x24 PUSH1 0x0 REVERT JUMPDEST DUP2 DUP2 ADD DUP6 ADD MLOAD DUP11 DUP3 ADD DUP7 ADD MSTORE DUP8 SWAP5 ADD PUSH3 0x8C JUMP JUMPDEST PUSH1 0x0 DUP1 REVERT JUMPDEST PUSH1 0x40 MLOAD SWAP2 SWAP1 PUSH1 0x1F ADD PUSH1 0x1F NOT AND DUP3 ADD PUSH1 0x1 PUSH1 0x1 PUSH1 0x40 SHL SUB DUP2 GT DUP4 DUP3 LT OR PUSH3 0x21A JUMPI PUSH1 0x40 MSTORE JUMP INVALID PUSH1 0x40 PUSH1 0x80 DUP2 MSTORE PUSH1 0x4 DUP1 CALLDATASIZE LT ISZERO PUSH2 0x14 JUMPI PUSH1 0x0 DUP1 REVERT JUMPDEST PUSH1 0x0 SWAP2 DUP3 CALLDATALOAD PUSH1 0xE0 SHR DUP1 PUSH4 0x178B8BF EQ PUSH2 0x9A1 JUMPI DUP1 PUSH4 0x1E64725 EQ PUSH2 0x94F JUMPI DUP1 PUSH4 0x2571BE3 EQ PUSH2 0x91E JUMPI DUP1 PUSH4 0x114902C5 EQ PUSH2 0x8FF JUMPI DUP1 PUSH4 0x1896F70A EQ PUSH2 0x84C JUMPI DUP1 PUSH4 0x2D551432 EQ PUSH2 0x6F1 JUMPI DUP1 PUSH4 0x6932854F EQ PUSH2 0x6C8 JUMPI DUP1 PUSH4 0x727E4EA7 EQ PUSH2 0x690 JUMPI DUP1 PUSH4 0x79CE9FAC EQ PUSH2 0x5DE JUMPI DUP1 PUSH4 0x8A95B09F EQ PUSH2 0x5C0 JUMPI DUP1 PUSH4 0x9EC388DF EQ PUSH2 0x3C9 JUMPI DUP1 PUSH4 0xA7FC7A07 EQ PUSH2 0x359 JUMPI DUP1 PUSH4 0xC1A287E2 EQ PUSH2 0x33B JUMPI DUP1 PUSH4 0xDA8C229E EQ PUSH2 0x2FE JUMPI DUP1 PUSH4 0xDC5853C7 EQ PUSH2 0x2D5 JUMPI DUP1 PUSH4 0xF2FDE38B EQ PUSH2 0x280 JUMPI DUP1 PUSH4 0xF544D82F EQ PUSH2 0x156 JUMPI PUSH4 0xF6A74ED7 EQ PUSH2 0xE6 JUMPI PUSH1 0x0 DUP1 REVERT JUMPDEST CALLVALUE PUSH2 0x152 JUMPI PUSH1 0x20 CALLDATASIZE PUSH1 0x3 NOT ADD SLT PUSH2 0x152 JUMPI PUSH2 0xFF PUSH2 0x9DC JUMP JUMPDEST PUSH1 0x1 SLOAD PUSH1 0x1 PUSH1 0x1 PUSH1 0xA0 SHL SUB SWAP2 SWAP1 PUSH2 0x119 SWAP1 DUP4 AND CALLER EQ PUSH2 0xC02 JUMP JUMPDEST AND SWAP2 DUP3 DUP5 MSTORE PUSH1 0x20 MSTORE DUP3 KECCAK256 PUSH1 0xFF NOT DUP2 SLOAD AND SWAP1 SSTORE PUSH32 0x33D83959BE2573F5453B12EB9D43B3499BC57D96BD2F067BA44803C859E81113 DUP3 DUP1 LOG2 DUP1 RETURN JUMPDEST DUP3 DUP1 REVERT JUMPDEST POP DUP3 SWAP1 CALLVALUE PUSH2 0x27C JUMPI DUP1 PUSH1 0x3 NOT CALLDATASIZE ADD SLT PUSH2 0x27C JUMPI DUP3 CALLDATALOAD PUSH1 0x24 CALLDATALOAD SWAP4 CALLER DUP5 MSTORE DUP1 PUSH1 0x20 MSTORE PUSH2 0x185 PUSH1 0xFF DUP5 DUP7 KECCAK256 SLOAD AND PUSH2 0x9F2 JUMP JUMPDEST PUSH2 0x194 PUSH3 0x24EA00 DUP7 LT ISZERO PUSH2 0xA31 JUMP JUMPDEST DUP2 DUP5 MSTORE PUSH1 0x3 PUSH1 0x20 MSTORE DUP3 DUP5 KECCAK256 DUP1 SLOAD SWAP1 SWAP2 SWAP1 PUSH1 0x1 PUSH1 0x1 PUSH1 0xA0 SHL SUB AND ISZERO PUSH2 0x243 JUMPI POP PUSH1 0x20 SWAP5 PUSH2 0x1E3 PUSH1 0x1 PUSH2 0x20E SWAP4 ADD SWAP2 PUSH8 0xFFFFFFFFFFFFFFFF SWAP7 DUP8 DUP5 SLOAD PUSH1 0xA0 SHR AND SWAP1 POP TIMESTAMP DUP2 GT PUSH1 0x0 EQ PUSH2 0x23C JUMPI PUSH2 0xA72 JUMP JUMPDEST DUP2 SLOAD PUSH8 0xFFFFFFFFFFFFFFFF PUSH1 0xA0 SHL NOT AND SWAP6 DUP2 AND PUSH1 0xA0 SHL PUSH8 0xFFFFFFFFFFFFFFFF PUSH1 0xA0 SHL AND SWAP6 SWAP1 SWAP6 OR SWAP1 SSTORE JUMP JUMPDEST PUSH32 0x5A773044A6C2A5AB1C7812C9417486344A3AA701E02AFEF1026BA9E1BEBEED94 DUP5 DUP4 MLOAD DUP6 DUP2 MSTORE LOG2 MLOAD SWAP1 DUP2 MSTORE RETURN JUMPDEST POP TIMESTAMP PUSH2 0xA72 JUMP JUMPDEST PUSH1 0x64 SWAP1 PUSH1 0x20 DUP6 MLOAD SWAP2 PUSH3 0x461BCD PUSH1 0xE5 SHL DUP4 MSTORE DUP3 ADD MSTORE PUSH1 0x13 PUSH1 0x24 DUP3 ADD MSTORE PUSH19 0x13985B59481B9BDD081C9959DA5CDD195C9959 PUSH1 0x6A SHL PUSH1 0x44 DUP3 ADD MSTORE REVERT JUMPDEST POP DUP1 REVERT JUMPDEST DUP4 CALLVALUE PUSH2 0x2D2 JUMPI PUSH1 0x20 CALLDATASIZE PUSH1 0x3 NOT ADD SLT PUSH2 0x2D2 JUMPI PUSH2 0x29A PUSH2 0x9DC JUMP JUMPDEST PUSH1 0x1 SLOAD SWAP1 PUSH1 0x1 PUSH1 0x1 PUSH1 0xA0 SHL SUB SWAP1 PUSH2 0x2B4 CALLER DUP4 DUP6 AND EQ PUSH2 0xC02 JUMP JUMPDEST AND SWAP1 PUSH2 0x2C1 DUP3 ISZERO ISZERO PUSH2 0xB11 JUMP JUMPDEST PUSH1 0x1 PUSH1 0x1 PUSH1 0xA0 SHL SUB NOT AND OR PUSH1 0x1 SSTORE DUP1 RETURN JUMPDEST DUP1 REVERT JUMPDEST DUP4 DUP3 CALLVALUE PUSH2 0x27C JUMPI DUP2 PUSH1 0x3 NOT CALLDATASIZE ADD SLT PUSH2 0x27C JUMPI PUSH1 0x1 SLOAD SWAP1 MLOAD PUSH1 0x1 PUSH1 0x1 PUSH1 0xA0 SHL SUB SWAP1 SWAP2 AND DUP2 MSTORE PUSH1 0x20 SWAP1 RETURN JUMPDEST POP SWAP1 CALLVALUE PUSH2 0x152 JUMPI PUSH1 0x20 CALLDATASIZE PUSH1 0x3 NOT ADD SLT PUSH2 0x152 JUMPI PUSH1 0x20 SWAP3 PUSH1 0xFF SWAP2 DUP4 SWAP2 SWAP1 PUSH1 0x1 PUSH1 0x1 PUSH1 0xA0 SHL SUB PUSH2 0x32A PUSH2 0x9DC JUMP JUMPDEST AND DUP3 MSTORE DUP6 MSTORE KECCAK256 SLOAD AND SWAP1 MLOAD SWAP1 ISZERO ISZERO DUP2 MSTORE RETURN JUMPDEST DUP4 DUP3 CALLVALUE PUSH2 0x27C JUMPI DUP2 PUSH1 0x3 NOT CALLDATASIZE ADD SLT PUSH2 0x27C JUMPI PUSH1 0x20 SWAP1 MLOAD PUSH3 0x76A700 DUP2 MSTORE RETURN JUMPDEST POP CALLVALUE PUSH2 0x152 JUMPI PUSH1 0x20 CALLDATASIZE PUSH1 0x3 NOT ADD SLT PUSH2 0x152 JUMPI PUSH2 0x373 PUSH2 0x9DC JUMP JUMPDEST PUSH1 0x1 SLOAD PUSH1 0x1 PUSH1 0x1 PUSH1 0xA0 SHL SUB SWAP2 SWAP1 PUSH2 0x38D SWAP1 DUP4 AND CALLER EQ PUSH2 0xC02 JUMP JUMPDEST AND SWAP2 DUP3 DUP5 MSTORE PUSH1 0x20 MSTORE DUP3 KECCAK256 PUSH1 0x1 PUSH1 0xFF NOT DUP3 SLOAD AND OR SWAP1 SSTORE PUSH32 0xA8BB31534C0ED46F380CB867BD5C803A189CED9A764E30B3A4991A9901D7474 DUP3 DUP1 LOG2 DUP1 RETURN JUMPDEST POP CALLVALUE PUSH2 0x152 JUMPI PUSH1 0x80 CALLDATASIZE PUSH1 0x3 NOT ADD SLT PUSH2 0x152 JUMPI PUSH8 0xFFFFFFFFFFFFFFFF SWAP3 DUP3 CALLDATALOAD PUSH1 0x24 DUP1 CALLDATALOAD DUP7 DUP2 GT PUSH2 0x5BC JUMPI CALLDATASIZE PUSH1 0x23 DUP3 ADD SLT ISZERO PUSH2 0x5BC JUMPI DUP1 DUP7 ADD CALLDATALOAD DUP8 DUP2 GT PUSH2 0x5B8 JUMPI CALLDATASIZE DUP4 DUP3 DUP5 ADD ADD GT PUSH2 0x5B8 JUMPI PUSH1 0x1 PUSH1 0x1 PUSH1 0xA0 SHL SUB SWAP7 PUSH1 0x44 CALLDATALOAD DUP9 DUP2 AND SWAP7 SWAP2 SWAP1 DUP8 SWAP1 SUB PUSH2 0x27C JUMPI PUSH1 0x64 CALLDATALOAD SWAP10 CALLER DUP4 MSTORE PUSH1 0x20 SWAP11 DUP3 DUP13 MSTORE PUSH2 0x448 PUSH1 0xFF DUP12 DUP7 KECCAK256 SLOAD AND PUSH2 0x9F2 JUMP JUMPDEST PUSH2 0x457 PUSH3 0x24EA00 DUP3 LT ISZERO PUSH2 0xA31 JUMP JUMPDEST DUP9 ISZERO PUSH2 0x586 JUMPI PUSH2 0x468 DUP10 SWAP2 TIMESTAMP PUSH2 0xA72 JUMP JUMPDEST SWAP11 DUP9 DUP6 MSTORE PUSH1 0x3 DUP14 MSTORE DUP11 DUP6 KECCAK256 SWAP4 DUP5 SLOAD SWAP2 DUP3 AND PUSH2 0x514 JUMPI JUMPDEST POP PUSH1 0x1 PUSH1 0x1 PUSH1 0xA0 SHL SUB NOT AND OR DUP3 SSTORE PUSH1 0x1 SWAP1 SWAP2 ADD DUP1 SLOAD PUSH8 0xFFFFFFFFFFFFFFFF PUSH1 0xA0 SHL NOT AND SWAP2 DUP11 AND PUSH1 0xA0 SHL PUSH8 0xFFFFFFFFFFFFFFFF PUSH1 0xA0 SHL AND SWAP2 SWAP1 SWAP2 OR SWAP1 SSTORE PUSH32 0x4CA007E15DD1D80B3512005D0B3DE91C6D800221327EEB30339CBF2E7CFF6286 SWAP4 SWAP3 PUSH1 0x60 SWAP3 SWAP1 SWAP2 DUP2 DUP10 MLOAD SWAP6 DUP7 SWAP5 DUP12 DUP7 MSTORE DUP3 DUP13 DUP8 ADD MSTORE ADD DUP6 DUP6 ADD CALLDATACOPY DUP3 DUP3 ADD DUP5 ADD MSTORE DUP10 DUP3 ADD DUP10 SWAP1 MSTORE PUSH1 0x1F ADD PUSH1 0x1F NOT AND DUP2 ADD SUB ADD SWAP1 LOG3 MLOAD SWAP1 DUP2 MSTORE RETURN JUMPDEST SWAP1 SWAP2 POP DUP3 PUSH1 0x1 DUP6 ADD SLOAD PUSH1 0xA0 SHR AND PUSH3 0x76A700 DUP2 ADD DUP1 SWAP2 GT PUSH2 0x574 JUMPI TIMESTAMP GT ISZERO PUSH2 0x53D JUMPI SWAP1 DUP10 SWAP2 PUSH2 0x47E JUMP JUMPDEST DUP11 MLOAD PUSH3 0x461BCD PUSH1 0xE5 SHL DUP2 MSTORE SWAP1 DUP2 ADD DUP14 SWAP1 MSTORE PUSH1 0x12 DUP2 DUP10 ADD MSTORE PUSH18 0x4E616D65206E6F7420617661696C61626C65 PUSH1 0x70 SHL PUSH1 0x44 DUP3 ADD MSTORE PUSH1 0x64 SWAP1 REVERT JUMPDEST PUSH4 0x4E487B71 PUSH1 0xE0 SHL DUP7 MSTORE PUSH1 0x11 DUP3 MSTORE DUP9 DUP7 REVERT JUMPDEST DUP10 MLOAD PUSH3 0x461BCD PUSH1 0xE5 SHL DUP2 MSTORE DUP1 DUP5 ADD DUP14 SWAP1 MSTORE PUSH1 0xD DUP2 DUP10 ADD MSTORE PUSH13 0x24B73B30B634B21037BBB732B9 PUSH1 0x99 SHL PUSH1 0x44 DUP3 ADD MSTORE PUSH1 0x64 SWAP1 REVERT JUMPDEST DUP5 DUP1 REVERT JUMPDEST DUP4 DUP1 REVERT JUMPDEST DUP4 DUP3 CALLVALUE PUSH2 0x27C JUMPI DUP2 PUSH1 0x3 NOT CALLDATASIZE ADD SLT PUSH2 0x27C JUMPI PUSH1 0x20 SWAP1 MLOAD PUSH3 0x24EA00 DUP2 MSTORE RETURN JUMPDEST POP SWAP1 CALLVALUE PUSH2 0x152 JUMPI DUP2 PUSH1 0x3 NOT CALLDATASIZE ADD SLT PUSH2 0x152 JUMPI CALLDATALOAD PUSH2 0x5F9 PUSH2 0x9C1 JUMP JUMPDEST DUP2 DUP5 MSTORE PUSH1 0x3 PUSH1 0x20 MSTORE DUP3 DUP5 KECCAK256 SLOAD PUSH1 0x1 PUSH1 0x1 PUSH1 0xA0 SHL SUB SWAP2 SWAP1 PUSH2 0x61C SWAP1 DUP4 AND CALLER EQ PUSH2 0xA95 JUMP JUMPDEST DUP3 DUP6 MSTORE PUSH1 0x3 PUSH1 0x20 MSTORE PUSH2 0x642 PUSH8 0xFFFFFFFFFFFFFFFF PUSH1 0x1 DUP7 DUP9 KECCAK256 ADD SLOAD PUSH1 0xA0 SHR AND TIMESTAMP LT PUSH2 0xAD4 JUMP JUMPDEST AND SWAP2 PUSH2 0x64F DUP4 ISZERO ISZERO PUSH2 0xB11 JUMP JUMPDEST DUP2 DUP5 MSTORE PUSH1 0x3 PUSH1 0x20 MSTORE DUP4 KECCAK256 DUP1 SLOAD PUSH1 0x1 PUSH1 0x1 PUSH1 0xA0 SHL SUB NOT AND DUP4 OR SWAP1 SSTORE PUSH32 0xD4735D920B0F87494915F556DD9B54C8F309026070CAEA5C737245152564D266 DUP4 DUP1 LOG3 DUP1 RETURN JUMPDEST POP SWAP1 CALLVALUE PUSH2 0x152 JUMPI PUSH1 0x20 CALLDATASIZE PUSH1 0x3 NOT ADD SLT PUSH2 0x152 JUMPI PUSH1 0x1 DUP3 PUSH1 0x20 SWAP5 PUSH8 0xFFFFFFFFFFFFFFFF SWAP4 CALLDATALOAD DUP2 MSTORE PUSH1 0x3 DUP7 MSTORE KECCAK256 ADD SLOAD PUSH1 0xA0 SHR AND SWAP1 MLOAD SWAP1 DUP2 MSTORE RETURN JUMPDEST POP DUP3 CALLVALUE PUSH2 0x2D2 JUMPI PUSH1 0x20 CALLDATASIZE PUSH1 0x3 NOT ADD SLT PUSH2 0x2D2 JUMPI POP PUSH2 0x6E8 PUSH1 0x20 SWAP3 CALLDATALOAD PUSH2 0xBBA JUMP JUMPDEST SWAP1 MLOAD SWAP1 ISZERO ISZERO DUP2 MSTORE RETURN JUMPDEST POP CALLVALUE PUSH2 0x152 JUMPI DUP3 PUSH1 0x3 NOT CALLDATASIZE ADD SLT PUSH2 0x152 JUMPI DUP1 MLOAD DUP4 DUP1 SLOAD PUSH1 0x1 SWAP6 DUP2 DUP8 SHR DUP8 DUP4 AND SWAP8 DUP9 ISZERO PUSH2 0x842 JUMPI JUMPDEST PUSH1 0x20 SWAP4 DUP5 DUP4 LT DUP11 EQ PUSH2 0x82F JUMPI DUP5 DUP8 SWAP9 SWAP10 SWAP11 DUP5 DUP10 MSTORE SWAP2 DUP3 PUSH1 0x0 EQ PUSH2 0x813 JUMPI POP POP PUSH1 0x1 EQ PUSH2 0x7C0 JUMPI JUMPDEST POP POP PUSH1 0x1F DUP1 NOT SWAP6 DUP7 SWAP3 SUB ADD AND DUP4 ADD SWAP6 DUP4 DUP8 LT PUSH8 0xFFFFFFFFFFFFFFFF DUP9 GT OR PUSH2 0x7AD JUMPI POP DUP6 SWAP3 SWAP4 SWAP2 DUP4 DUP7 MSTORE DUP2 DUP5 MSTORE DUP5 MLOAD SWAP2 DUP3 DUP2 DUP7 ADD MSTORE DUP2 SWAP6 JUMPDEST DUP4 DUP8 LT PUSH2 0x795 JUMPI POP POP DUP4 SWAP5 POP DUP6 DUP3 PUSH1 0x1F SWAP5 SWAP6 ADD ADD MSTORE ADD AND DUP2 ADD SUB ADD SWAP1 RETURN JUMPDEST DUP7 DUP2 ADD DUP3 ADD MLOAD DUP10 DUP9 ADD DUP10 ADD MSTORE SWAP6 DUP2 ADD SWAP6 DUP9 SWAP6 POP PUSH2 0x777 JUMP JUMPDEST PUSH4 0x4E487B71 PUSH1 0xE0 SHL DUP4 MSTORE PUSH1 0x41 SWAP1 MSTORE PUSH1 0x24 DUP3 REVERT JUMPDEST DUP5 DUP1 MSTORE DUP5 SWAP3 POP PUSH32 0x290DECD9548B62A8D60345A988386FC84BA6BC95484008F6362F93160EF3E563 JUMPDEST DUP3 DUP5 LT PUSH2 0x7FD JUMPI POP POP POP DUP4 ADD DUP2 ADD CODESIZE DUP1 PUSH2 0x73F JUMP JUMPDEST DUP1 SLOAD DUP9 DUP6 ADD DUP7 ADD MSTORE DUP8 SWAP7 POP SWAP3 DUP5 ADD SWAP3 DUP2 ADD PUSH2 0x7E8 JUMP JUMPDEST SWAP3 POP SWAP4 POP POP PUSH1 0xFF NOT AND DUP3 DUP7 ADD MSTORE ISZERO ISZERO PUSH1 0x5 SHL DUP5 ADD ADD CODESIZE DUP1 PUSH2 0x73F JUMP JUMPDEST PUSH4 0x4E487B71 PUSH1 0xE0 SHL DUP7 MSTORE PUSH1 0x22 DUP10 MSTORE PUSH1 0x24 DUP7 REVERT JUMPDEST SWAP1 PUSH1 0x7F AND SWAP1 PUSH2 0x718 JUMP JUMPDEST POP SWAP1 CALLVALUE PUSH2 0x152 JUMPI DUP2 PUSH1 0x3 NOT CALLDATASIZE ADD SLT PUSH2 0x152 JUMPI PUSH1 0x20 PUSH32 0x335721B01866DC23FBEE8B6B2C7B1E14D6F05C28CD35A2C934239F94095602A0 SWAP2 CALLDATALOAD SWAP3 PUSH2 0x88C PUSH2 0x9C1 JUMP JUMPDEST SWAP1 DUP5 DUP7 MSTORE PUSH1 0x3 DUP4 MSTORE PUSH1 0x1 DUP1 PUSH1 0xA0 SHL SUB PUSH2 0x8AB DUP2 DUP4 DUP10 KECCAK256 SLOAD AND CALLER EQ PUSH2 0xA95 JUMP JUMPDEST DUP6 DUP8 MSTORE PUSH1 0x3 DUP5 MSTORE PUSH2 0x8D0 PUSH8 0xFFFFFFFFFFFFFFFF PUSH1 0x1 DUP5 DUP11 KECCAK256 ADD SLOAD PUSH1 0xA0 SHR AND TIMESTAMP LT PUSH2 0xAD4 JUMP JUMPDEST DUP6 DUP8 MSTORE PUSH1 0x3 DUP5 MSTORE PUSH1 0x1 DUP3 DUP9 KECCAK256 ADD SWAP3 AND SWAP2 DUP3 PUSH12 0xFFFFFFFFFFFFFFFFFFFFFFFF PUSH1 0xA0 SHL DUP3 SLOAD AND OR SWAP1 SSTORE MLOAD SWAP1 DUP2 MSTORE LOG2 DUP1 RETURN JUMPDEST DUP4 DUP3 CALLVALUE PUSH2 0x27C JUMPI DUP2 PUSH1 0x3 NOT CALLDATASIZE ADD SLT PUSH2 0x27C JUMPI PUSH1 0x20 SWAP1 PUSH1 0x2 SLOAD SWAP1 MLOAD SWAP1 DUP2 MSTORE RETURN JUMPDEST POP DUP3 CALLVALUE PUSH2 0x2D2 JUMPI PUSH1 0x20 CALLDATASIZE PUSH1 0x3 NOT ADD SLT PUSH2 0x2D2 JUMPI POP PUSH2 0x93E PUSH1 0x20 SWAP3 CALLDATALOAD PUSH2 0xB51 JUMP JUMPDEST SWAP1 MLOAD PUSH1 0x1 PUSH1 0x1 PUSH1 0xA0 SHL SUB SWAP1 SWAP2 AND DUP2 MSTORE RETURN JUMPDEST POP SWAP1 CALLVALUE PUSH2 0x152 JUMPI PUSH1 0x20 CALLDATASIZE PUSH1 0x3 NOT ADD SLT PUSH2 0x152 JUMPI PUSH1 0x60 SWAP3 DUP3 SWAP2 CALLDATALOAD DUP2 MSTORE PUSH1 0x3 PUSH1 0x20 MSTORE KECCAK256 SWAP1 PUSH8 0xFFFFFFFFFFFFFFFF PUSH1 0x1 DUP1 PUSH1 0xA0 SHL SUB PUSH1 0x1 DUP2 DUP6 SLOAD AND SWAP5 ADD SLOAD SWAP1 DUP4 MLOAD SWAP5 DUP6 MSTORE DUP2 AND PUSH1 0x20 DUP6 ADD MSTORE PUSH1 0xA0 SHR AND SWAP1 DUP3 ADD MSTORE RETURN JUMPDEST POP DUP3 CALLVALUE PUSH2 0x2D2 JUMPI PUSH1 0x20 CALLDATASIZE PUSH1 0x3 NOT ADD SLT PUSH2 0x2D2 JUMPI POP PUSH2 0x93E PUSH1 0x20 SWAP3 CALLDATALOAD PUSH2 0xB89 JUMP JUMPDEST PUSH1 0x24 CALLDATALOAD SWAP1 PUSH1 0x1 PUSH1 0x1 PUSH1 0xA0 SHL SUB DUP3 AND DUP3 SUB PUSH2 0x9D7 JUMPI JUMP JUMPDEST PUSH1 0x0 DUP1 REVERT JUMPDEST PUSH1 0x4 CALLDATALOAD SWAP1 PUSH1 0x1 PUSH1 0x1 PUSH1 0xA0 SHL SUB DUP3 AND DUP3 SUB PUSH2 0x9D7 JUMPI JUMP JUMPDEST ISZERO PUSH2 0x9F9 JUMPI JUMP JUMPDEST PUSH1 0x40 MLOAD PUSH3 0x461BCD PUSH1 0xE5 SHL DUP2 MSTORE PUSH1 0x20 PUSH1 0x4 DUP3 ADD MSTORE PUSH1 0x10 PUSH1 0x24 DUP3 ADD MSTORE PUSH16 0x2737BA10309031B7B73A3937B63632B9 PUSH1 0x81 SHL PUSH1 0x44 DUP3 ADD MSTORE PUSH1 0x64 SWAP1 REVERT JUMPDEST ISZERO PUSH2 0xA38 JUMPI JUMP JUMPDEST PUSH1 0x40 MLOAD PUSH3 0x461BCD PUSH1 0xE5 SHL DUP2 MSTORE PUSH1 0x20 PUSH1 0x4 DUP3 ADD MSTORE PUSH1 0x12 PUSH1 0x24 DUP3 ADD MSTORE PUSH18 0x111D5C985D1A5BDB881D1BDBC81CDA1BDC9D PUSH1 0x72 SHL PUSH1 0x44 DUP3 ADD MSTORE PUSH1 0x64 SWAP1 REVERT JUMPDEST SWAP2 SWAP1 DUP3 ADD DUP1 SWAP3 GT PUSH2 0xA7F JUMPI JUMP JUMPDEST PUSH4 0x4E487B71 PUSH1 0xE0 SHL PUSH1 0x0 MSTORE PUSH1 0x11 PUSH1 0x4 MSTORE PUSH1 0x24 PUSH1 0x0 REVERT JUMPDEST ISZERO PUSH2 0xA9C JUMPI JUMP JUMPDEST PUSH1 0x40 MLOAD PUSH3 0x461BCD PUSH1 0xE5 SHL DUP2 MSTORE PUSH1 0x20 PUSH1 0x4 DUP3 ADD MSTORE PUSH1 0x10 PUSH1 0x24 DUP3 ADD MSTORE PUSH16 0x2737BA103237B6B0B4B71037BBB732B9 PUSH1 0x81 SHL PUSH1 0x44 DUP3 ADD MSTORE PUSH1 0x64 SWAP1 REVERT JUMPDEST ISZERO PUSH2 0xADB JUMPI JUMP JUMPDEST PUSH1 0x40 MLOAD PUSH3 0x461BCD PUSH1 0xE5 SHL DUP2 MSTORE PUSH1 0x20 PUSH1 0x4 DUP3 ADD MSTORE PUSH1 0xE PUSH1 0x24 DUP3 ADD MSTORE PUSH14 0x111BDB585A5B88195E1C1A5C9959 PUSH1 0x92 SHL PUSH1 0x44 DUP3 ADD MSTORE PUSH1 0x64 SWAP1 REVERT JUMPDEST ISZERO PUSH2 0xB18 JUMPI JUMP JUMPDEST PUSH1 0x40 MLOAD PUSH3 0x461BCD PUSH1 0xE5 SHL DUP2 MSTORE PUSH1 0x20 PUSH1 0x4 DUP3 ADD MSTORE PUSH1 0x11 PUSH1 0x24 DUP3 ADD MSTORE PUSH17 0x24B73B30B634B2103732BB9037BBB732B9 PUSH1 0x79 SHL PUSH1 0x44 DUP3 ADD MSTORE PUSH1 0x64 SWAP1 REVERT JUMPDEST PUSH1 0x0 MSTORE PUSH1 0x3 PUSH1 0x20 MSTORE PUSH1 0x40 PUSH1 0x0 KECCAK256 PUSH8 0xFFFFFFFFFFFFFFFF PUSH1 0x1 DUP3 ADD SLOAD PUSH1 0xA0 SHR AND TIMESTAMP GT PUSH2 0xB83 JUMPI SLOAD PUSH1 0x1 PUSH1 0x1 PUSH1 0xA0 SHL SUB AND SWAP1 JUMP JUMPDEST POP PUSH1 0x0 SWAP1 JUMP JUMPDEST PUSH1 0x0 MSTORE PUSH1 0x3 PUSH1 0x20 MSTORE PUSH1 0x1 PUSH1 0x40 PUSH1 0x0 KECCAK256 ADD SLOAD TIMESTAMP PUSH8 0xFFFFFFFFFFFFFFFF DUP3 PUSH1 0xA0 SHR AND LT PUSH2 0xB83 JUMPI PUSH1 0x1 PUSH1 0x1 PUSH1 0xA0 SHL SUB AND SWAP1 JUMP JUMPDEST PUSH1 0x0 SWAP1 DUP2 MSTORE PUSH1 0x3 PUSH1 0x20 MSTORE PUSH1 0x40 SWAP1 KECCAK256 DUP1 SLOAD PUSH1 0x1 PUSH1 0x1 PUSH1 0xA0 SHL SUB AND ISZERO PUSH2 0xBFC JUMPI PUSH1 0x1 PUSH8 0xFFFFFFFFFFFFFFFF SWAP2 ADD SLOAD PUSH1 0xA0 SHR AND PUSH3 0x76A700 DUP2 ADD DUP1 SWAP2 GT PUSH2 0xA7F JUMPI TIMESTAMP GT SWAP1 JUMP JUMPDEST POP PUSH1 0x1 SWAP1 JUMP JUMPDEST ISZERO PUSH2 0xC09 JUMPI JUMP JUMPDEST PUSH1 0x40 MLOAD PUSH3 0x461BCD PUSH1 0xE5 SHL DUP2 MSTORE PUSH1 0x20 PUSH1 0x4 DUP3 ADD MSTORE PUSH1 0x12 PUSH1 0x24 DUP3 ADD MSTORE PUSH18 0x2737BA103932B3B4B9BA393C9037BBB732B9 PUSH1 0x71 SHL PUSH1 0x44 DUP3 ADD MSTORE PUSH1 0x64 SWAP1 REVERT INVALID LOG2 PUSH5 0x6970667358 0x22 SLT KECCAK256 0xA7 CALLER 0x2D 0xD PUSH16 0x1BAB1A10E191C3F4BE6BDCF77638A577 JUMPI BALANCE MLOAD SIGNEXTEND RETURNDATASIZE 0xC0 0xEF PUSH28 0x3FDD7864736F6C634300081400330000000000000000000000000000 "},"methodIdentifiers":{"GRACE_PERIOD()":"c1a287e2","MIN_REGISTRATION_DURATION()":"8a95b09f","addController(address)":"a7fc7a07","available(bytes32)":"6932854f","controllers(address)":"da8c229e","nameExpires(bytes32)":"727e4ea7","owner(bytes32)":"02571be3","records(bytes32)":"01e64725","register(bytes32,string,address,uint256)":"9ec388df","registryOwner()":"dc5853c7","removeController(address)":"f6a74ed7","renew(bytes32,uint256)":"f544d82f","resolver(bytes32)":"0178b8bf","setResolver(bytes32,address)":"1896f70a","tld()":"2d551432","tldNode()":"114902c5","transfer(bytes32,address)":"79ce9fac","transferOwnership(address)":"f2fde38b"}}}}}