{"contracts/invoice/InvoiceFactory.sol":{"InvoiceFactory":{"abi":[{"inputs":[{"internalType":"address","name":"_defaultArbiter","type":"address"},{"internalType":"address","name":"_feeCollector","type":"address"}],"stateMutability":"nonpayable","type":"constructor"},{"inputs":[{"internalType":"address","name":"owner","type":"address"}],"name":"OwnableInvalidOwner","type":"error"},{"inputs":[{"internalType":"address","name":"account","type":"address"}],"name":"OwnableUnauthorizedAccount","type":"error"},{"inputs":[],"name":"ReentrancyGuardReentrantCall","type":"error"},{"anonymous":false,"inputs":[{"indexed":false,"internalType":"address","name":"newArbiter","type":"address"}],"name":"DefaultArbiterUpdated","type":"event"},{"anonymous":false,"inputs":[{"indexed":false,"internalType":"address","name":"newCollector","type":"address"}],"name":"FeeCollectorUpdated","type":"event"},{"anonymous":false,"inputs":[{"indexed":true,"internalType":"string","name":"invoiceId","type":"string"},{"indexed":true,"internalType":"address","name":"escrowAddress","type":"address"},{"indexed":true,"internalType":"address","name":"seller","type":"address"},{"indexed":false,"internalType":"address","name":"buyer","type":"address"},{"indexed":false,"internalType":"uint256","name":"amount","type":"uint256"}],"name":"InvoiceEscrowCreated","type":"event"},{"anonymous":false,"inputs":[{"indexed":true,"internalType":"address","name":"previousOwner","type":"address"},{"indexed":true,"internalType":"address","name":"newOwner","type":"address"}],"name":"OwnershipTransferred","type":"event"},{"anonymous":false,"inputs":[{"indexed":false,"internalType":"uint256","name":"newFee","type":"uint256"}],"name":"PlatformFeeUpdated","type":"event"},{"inputs":[{"internalType":"uint256","name":"","type":"uint256"}],"name":"allEscrows","outputs":[{"internalType":"address","name":"","type":"address"}],"stateMutability":"view","type":"function"},{"inputs":[{"internalType":"string[]","name":"invoiceIds","type":"string[]"},{"internalType":"string[]","name":"invoiceNumbers","type":"string[]"},{"internalType":"address[]","name":"sellers","type":"address[]"},{"internalType":"address[]","name":"buyers","type":"address[]"},{"internalType":"uint256[]","name":"amounts","type":"uint256[]"},{"internalType":"uint256[]","name":"dueDates","type":"uint256[]"},{"internalType":"address[]","name":"paymentTokens","type":"address[]"}],"name":"batchCreateInvoices","outputs":[{"internalType":"address[]","name":"escrows","type":"address[]"}],"stateMutability":"nonpayable","type":"function"},{"inputs":[{"internalType":"address","name":"","type":"address"},{"internalType":"uint256","name":"","type":"uint256"}],"name":"buyerInvoices","outputs":[{"internalType":"address","name":"","type":"address"}],"stateMutability":"view","type":"function"},{"inputs":[{"internalType":"string","name":"invoiceId","type":"string"},{"internalType":"string","name":"invoiceNumber","type":"string"},{"internalType":"address","name":"seller","type":"address"},{"internalType":"address","name":"buyer","type":"address"},{"internalType":"uint256","name":"totalAmount","type":"uint256"},{"internalType":"uint256","name":"dueDate","type":"uint256"},{"internalType":"address","name":"paymentToken","type":"address"},{"internalType":"address","name":"customArbiter","type":"address"}],"name":"createInvoiceEscrow","outputs":[{"internalType":"address","name":"","type":"address"}],"stateMutability":"nonpayable","type":"function"},{"inputs":[{"internalType":"string","name":"invoiceId","type":"string"},{"internalType":"string","name":"invoiceNumber","type":"string"},{"internalType":"address","name":"seller","type":"address"},{"internalType":"address","name":"buyer","type":"address"},{"internalType":"uint256","name":"totalAmount","type":"uint256"},{"internalType":"uint256","name":"dueDate","type":"uint256"},{"internalType":"address","name":"paymentToken","type":"address"},{"internalType":"address","name":"customArbiter","type":"address"},{"internalType":"address[]","name":"splitRecipients","type":"address[]"},{"internalType":"uint256[]","name":"splitPercentages","type":"uint256[]"},{"internalType":"uint256[]","name":"splitFixedAmounts","type":"uint256[]"},{"internalType":"bool[]","name":"splitIsPrimary","type":"bool[]"}],"name":"createInvoiceWithSplits","outputs":[{"internalType":"address","name":"","type":"address"}],"stateMutability":"nonpayable","type":"function"},{"inputs":[],"name":"defaultArbiter","outputs":[{"internalType":"address","name":"","type":"address"}],"stateMutability":"view","type":"function"},{"inputs":[{"internalType":"string","name":"invoiceId","type":"string"}],"name":"emergencyPauseEscrow","outputs":[],"stateMutability":"nonpayable","type":"function"},{"inputs":[],"name":"feeCollector","outputs":[{"internalType":"address","name":"","type":"address"}],"stateMutability":"view","type":"function"},{"inputs":[{"internalType":"address","name":"buyer","type":"address"}],"name":"getBuyerInvoiceCount","outputs":[{"internalType":"uint256","name":"","type":"uint256"}],"stateMutability":"view","type":"function"},{"inputs":[{"internalType":"address","name":"buyer","type":"address"}],"name":"getBuyerInvoices","outputs":[{"internalType":"address[]","name":"","type":"address[]"}],"stateMutability":"view","type":"function"},{"inputs":[{"internalType":"uint256","name":"index","type":"uint256"}],"name":"getEscrowAtIndex","outputs":[{"internalType":"address","name":"","type":"address"}],"stateMutability":"view","type":"function"},{"inputs":[{"internalType":"string","name":"invoiceId","type":"string"}],"name":"getEscrowByInvoiceId","outputs":[{"internalType":"address","name":"","type":"address"}],"stateMutability":"view","type":"function"},{"inputs":[{"internalType":"string","name":"invoiceId","type":"string"}],"name":"getInvoiceDetails","outputs":[{"internalType":"address","name":"escrowAddress","type":"address"},{"internalType":"address","name":"seller","type":"address"},{"internalType":"address","name":"buyer","type":"address"},{"internalType":"uint256","name":"totalAmount","type":"uint256"},{"internalType":"uint256","name":"paidAmount","type":"uint256"},{"internalType":"uint256","name":"dueDate","type":"uint256"},{"internalType":"bool","name":"isCompleted","type":"bool"},{"internalType":"bool","name":"isCancelled","type":"bool"},{"internalType":"bool","name":"isDisputed","type":"bool"}],"stateMutability":"view","type":"function"},{"inputs":[],"name":"getPlatformStats","outputs":[{"internalType":"uint256","name":"totalInvoices","type":"uint256"},{"internalType":"uint256","name":"totalVolume","type":"uint256"},{"internalType":"uint256","name":"completedInvoices","type":"uint256"},{"internalType":"uint256","name":"disputedInvoices","type":"uint256"}],"stateMutability":"view","type":"function"},{"inputs":[{"internalType":"address","name":"seller","type":"address"}],"name":"getSellerInvoiceCount","outputs":[{"internalType":"uint256","name":"","type":"uint256"}],"stateMutability":"view","type":"function"},{"inputs":[{"internalType":"address","name":"seller","type":"address"}],"name":"getSellerInvoices","outputs":[{"internalType":"address[]","name":"","type":"address[]"}],"stateMutability":"view","type":"function"},{"inputs":[],"name":"getTotalEscrows","outputs":[{"internalType":"uint256","name":"","type":"uint256"}],"stateMutability":"view","type":"function"},{"inputs":[{"internalType":"string","name":"","type":"string"}],"name":"invoiceEscrows","outputs":[{"internalType":"address","name":"","type":"address"}],"stateMutability":"view","type":"function"},{"inputs":[{"internalType":"string","name":"invoiceId","type":"string"}],"name":"invoiceExists","outputs":[{"internalType":"bool","name":"","type":"bool"}],"stateMutability":"view","type":"function"},{"inputs":[],"name":"owner","outputs":[{"internalType":"address","name":"","type":"address"}],"stateMutability":"view","type":"function"},{"inputs":[],"name":"platformFee","outputs":[{"internalType":"uint256","name":"","type":"uint256"}],"stateMutability":"view","type":"function"},{"inputs":[],"name":"renounceOwnership","outputs":[],"stateMutability":"nonpayable","type":"function"},{"inputs":[{"internalType":"address","name":"","type":"address"},{"internalType":"uint256","name":"","type":"uint256"}],"name":"sellerInvoices","outputs":[{"internalType":"address","name":"","type":"address"}],"stateMutability":"view","type":"function"},{"inputs":[{"internalType":"address","name":"newOwner","type":"address"}],"name":"transferOwnership","outputs":[],"stateMutability":"nonpayable","type":"function"},{"inputs":[{"internalType":"address","name":"newArbiter","type":"address"}],"name":"updateDefaultArbiter","outputs":[],"stateMutability":"nonpayable","type":"function"},{"inputs":[{"internalType":"address","name":"newCollector","type":"address"}],"name":"updateFeeCollector","outputs":[],"stateMutability":"nonpayable","type":"function"},{"inputs":[{"internalType":"uint256","name":"newFee","type":"uint256"}],"name":"updatePlatformFee","outputs":[],"stateMutability":"nonpayable","type":"function"}],"evm":{"bytecode":{"linkReferences":{},"object":"6080346200017f576200486690601f38839003908101601f19168201906001600160401b038211838310176200018457808391604095869485528339810103126200017f576200005d602062000055836200019a565b92016200019a565b3315620001675760008054336001600160a01b03198083168217845586519590946001600160a01b03949093859391908416907f8be0079c531659141344cd1fd0a4f28419497f9722a3daafe3b4186f6b6457e09080a3600180551693841562000133575016918215620000ef5781600654161760065560085416176008556032600755516146b69081620001b08239f35b835162461bcd60e51b815260206004820152601560248201527f496e76616c69642066656520636f6c6c6563746f7200000000000000000000006044820152606490fd5b62461bcd60e51b815260206004820152600f60248201526e24b73b30b634b21030b93134ba32b960891b6044820152606490fd5b8251631e4fbdf760e01b815260006004820152602490fd5b600080fd5b634e487b7160e01b600052604160045260246000fd5b51906001600160a01b03821682036200017f5756fe6101608060405260043610156200001557600080fd5b60003560e01c908163124c175c146200149d57508063136d888314620012db5780631d3afee614620012ad57806326232a2e146200128d5780632829abc21462000fbb57806333912b1c1462000f595780633532d5591462000f1b57806335c3c1e11462000ecb5780633f4dbda21462000eab5780635131ae7b1462000e2757806354657fdc1462000dc7578063715018a61462000d6a5780638371f8c11462000cfc5780638da5cb5b1462000cd15780639a1395681462000c225780639c32aaa814620008bf578063aa0b59881462000826578063b67a263714620007fb578063b825681f1462000559578063b876ea64146200048b578063c415b95c1462000460578063cd7e5ab514620003cb578063d2c35ce8146200031a578063f19550921462000298578063f2fde38b1462000208578063f88d870014620001ca5763fcac12f9146200016557600080fd5b34620001c5576020366003190112620001c5576004356001600160401b038111620001c5576200019c6020913690600401620015e7565b80604051928337600290820190815281900382019020546040516001600160a01b039091168152f35b600080fd5b34620001c5576020366003190112620001c5576001600160a01b03620001ef62001673565b1660005260046020526020604060002054604051908152f35b34620001c5576020366003190112620001c5576200022562001673565b6200022f62001703565b6001600160a01b039081169081156200027f57600054826001600160601b0360a01b821617600055167f8be0079c531659141344cd1fd0a4f28419497f9722a3daafe3b4186f6b6457e0600080a3005b604051631e4fbdf760e01b815260006004820152602490fd5b34620001c5576020366003190112620001c557600435600354811015620002df57620002c660209162001580565b905460405160039290921b1c6001600160a01b03168152f35b60405162461bcd60e51b8152602060048201526013602482015272496e646578206f7574206f6620626f756e647360681b6044820152606490fd5b34620001c5576020366003190112620001c5576200033762001673565b6200034162001703565b6001600160a01b0316801562000392576020817fe5693914d19c789bdee50a362998c0bc8d035a835f9871da5d51152f0582c34f926001600160601b0360a01b6008541617600855604051908152a1005b60405162461bcd60e51b815260206004820152601160248201527024b73b30b634b21031b7b63632b1ba37b960791b6044820152606490fd5b34620001c557602080600319360112620001c5576001600160a01b0380620003f262001673565b1660005260048252604060002091604051809282855492838152019460005282600020926000915b8383106200044657620004428662000435818a03826200155e565b60405191829182620016bd565b0390f35b84548116875295810195600194850194909201916200041a565b34620001c5576000366003190112620001c5576008546040516001600160a01b039091168152602090f35b34620001c557610100366003190112620001c5576001600160401b03600435818111620001c557620004c2903690600401620015e7565b91602435908111620001c557602092620004e56200053f923690600401620015e7565b939091620004f262001617565b91620004fd6200162e565b6200050762001645565b93620005126200165c565b976200051d62001730565b6001600160a01b0398808a16156200054c57965b60a435956084359562001909565b6001805560405191168152f35b5088600654169662000531565b34620001c55760e0366003190112620001c5576001600160401b03600435818111620001c5576200058f9036906004016200168a565b60e0526024918235818111620001c557620005af9036906004016200168a565b61010052608052604435818111620001c557620005d19036906004016200168a565b9061012052606435828111620001c557620005f19036906004016200168a565b939092608435818111620001c5576200060f9036906004016200168a565b60a496919635838111620001c5576200062d9036906004016200168a565b92909360c435908111620001c5576200064b9036906004016200168a565b61014052936200065a62001730565b620006698760e0511462001754565b620006788260e0511462001754565b620006878360e0511462001754565b620006968460e0511462001754565b620006b4620006a760e0516200186e565b6040518060a0526200155e565b60e05160a05152601f19620006cb60e0516200186e565b0136602060a051013760005b60e05180821015620007e557888285878e838f96818f91620006f99262001886565b60c098919852610100518260805191620007139262001886565b969097816101205191620007279262001848565b620007329062001859565b956200073e9262001848565b620007499062001859565b92620007559262001848565b359062000764878c8a62001848565b35928c8861014051620007779262001848565b620007829062001859565b94600160a01b60019003600654169660c0516200079f9962001909565b9060a0518051821015620007d0576020620007ca9360018060a01b0316918360051b01015262001838565b620006d7565b8c634e487b7160e01b60005260326004526000fd5b60018055604051806200044260a05182620016bd565b34620001c5576000366003190112620001c5576006546040516001600160a01b039091168152602090f35b34620001c5576020366003190112620001c5576004356200084662001703565b6103e8811162000881576020817f45610d581145924dd7090a5017e5f2b1d6f42213bb2e95707ff86846bbfcb1ca92600755604051908152a1005b60405162461bcd60e51b815260206004820152601660248201527546656520746f6f206869676820286d6178203130252960501b6044820152606490fd5b34620001c557602080600319360112620001c5576004356001600160401b038111620001c557620008f5903690600401620015e7565b80604051928337600290820190815281900382019020546001600160a01b03908116906200092582151562001baf565b6040516308551a5360e01b8152908382600481865afa91821562000ad95760009262000bfe575b506040516338a86c5760e11b8152908482600481875afa91821562000ad95760009262000bc8575b50604051631a39d8ef60e01b81528581600481885afa90811562000ad95760009162000b95575b506040516312fa769f60e01b81528681600481895afa90811562000ad95760009162000b62575b50604051633c338b7f60e11b81529187836004818a5afa92831562000ad95760009362000b2d575b50604051633e8e471960e21b81529388856004818b5afa94851562000ad95760009562000b09575b506040516395ee122160e01b81529589876004818c5afa96871562000ad95760009762000ae5575b5060405163019ab94f60e11b815299808b6004818d5afa98891562000ad9576101209b60009a62000aa1575b5083906040519b8c5216908a01521660408801526060870152608086015260a0850152151560c0840152151560e08301521515610100820152f35b84919a5062000ac990833d851162000ad1575b62000ac081836200155e565b81019062001bef565b999062000a66565b503d62000ab4565b6040513d6000823e3d90fd5b62000b019197508a3d8c1162000ad15762000ac081836200155e565b958a62000a3a565b62000b25919550893d8b1162000ad15762000ac081836200155e565b938962000a12565b9092508781813d831162000b5a575b62000b4881836200155e565b81010312620001c557519188620009ea565b503d62000b3c565b90508681813d831162000b8d575b62000b7c81836200155e565b81010312620001c5575187620009c2565b503d62000b70565b90508581813d831162000bc0575b62000baf81836200155e565b81010312620001c55751866200099b565b503d62000ba3565b62000bee919250853d871162000bf6575b62000be581836200155e565b81019062001793565b908562000974565b503d62000bd9565b62000c1a919250843d861162000bf65762000be581836200155e565b90846200094c565b34620001c5576020366003190112620001c55762000c3f62001673565b62000c4962001703565b6001600160a01b0316801562000c9a576020817f7f84b6e5b73da2a7c838ba4c4600761aef76b5e4f34da64dfcb400c041261465926001600160601b0360a01b6006541617600655604051908152a1005b60405162461bcd60e51b815260206004820152600f60248201526e24b73b30b634b21030b93134ba32b960891b6044820152606490fd5b34620001c5576000366003190112620001c5576000546040516001600160a01b039091168152602090f35b34620001c5576020366003190112620001c5576004356001600160401b038111620001c55762000d3562000d68913690600401620015e7565b62000d3f62001703565b8060405192833760029082019081528190036020019020546001600160a01b0316151562001baf565b005b34620001c5576000366003190112620001c55762000d8762001703565b600080546001600160a01b0319811682556001600160a01b03167f8be0079c531659141344cd1fd0a4f28419497f9722a3daafe3b4186f6b6457e08280a3005b34620001c5576040366003190112620001c55762000de462001673565b6024359060018060a01b03809116600052600460205260406000208054831015620001c55760209262000e1791620015ce565b9190546040519260031b1c168152f35b34620001c557602080600319360112620001c5576001600160a01b038062000e4e62001673565b1660005260058252604060002091604051809282855492838152019460005282600020926000915b83831062000e9157620004428662000435818a03826200155e565b845481168752958101956001948501949092019162000e76565b34620001c5576000366003190112620001c5576020600354604051908152f35b34620001c5576040366003190112620001c55762000ee862001673565b6024359060018060a01b03809116600052600560205260406000208054831015620001c55760209262000e1791620015ce565b34620001c5576020366003190112620001c5576001600160a01b0362000f4062001673565b1660005260056020526020604060002054604051908152f35b34620001c5576020366003190112620001c5576004356001600160401b038111620001c55762000f906020913690600401620015e7565b80604051928337600290820190815281900382019020546040516001600160a01b0390911615158152f35b34620001c557610180366003190112620001c5576004356001600160401b038111620001c55762000ff1903690600401620015e7565b906024356001600160401b038111620001c55762001014903690600401620015e7565b90916200102062001617565b926200102b6200162e565b946200103662001645565b620010406200165c565b93610104356001600160401b038111620001c557620010649036906004016200168a565b9096610124356001600160401b038111620001c557620010899036906004016200168a565b939097610144356001600160401b038111620001c557620010af9036906004016200168a565b9690986001600160401b036101643511620001c557620010d636600461016435016200168a565b99909e620010e362001730565b620010f0888a1462001754565b620010fd888b1462001754565b6200110a888c1462001754565b604051632e1dba9960e21b81529e8f97620011339760a4359560843595909160048c01620017d5565b03883091815a602094600091f197881562000ad95760009862001268575b5060005b8181106200117557600180556040516001600160a01b038a168152602090f35b808787620011b583898f96808f620011ad828d8f93620011a08f97620011ad98620011a69362001848565b62001859565b9a62001848565b359662001848565b358015158103620001c5576001600160a01b038d163b15620001c557604051633f0f17ed60e01b81526001600160a01b0393841660048201526024810192909252604482019490945292151560648401526000908390608490829084908f165af1801562000ad95762001235575b6200122f915062001838565b62001155565b6001600160401b03821162001252576200122f9160405262001223565b634e487b7160e01b600052604160045260246000fd5b6200128591985060203d811162000bf65762000be581836200155e565b968962001151565b34620001c5576000366003190112620001c5576020600754604051908152f35b34620001c5576020366003190112620001c557600435600354811015620001c557620002c660209162001580565b34620001c5576000366003190112620001c557600380546000916000809160005b84811062001320575050608093604051938452602084015260408301526060820152f35b6200132b8162001580565b9054604051631a39d8ef60e01b815291841b1c6001600160a01b03169660209182816004818c5afa90811562000ad9576000916200146a575b508101809111620014545796604051633e8e471960e21b81528281600481855afa90811562000ad95760009162001432575b5062001419575b816004916040519283809263019ab94f60e11b82525afa91821562000ad957600092620013f7575b5050620013de575b620013d89062001838565b620012fc565b92620013ee620013d89162001838565b939050620013cd565b620014119250803d1062000ad15762000ac081836200155e565b8780620013c5565b93816200142860049262001838565b959150506200139d565b6200144d9150833d851162000ad15762000ac081836200155e565b8962001396565b634e487b7160e01b600052601160045260246000fd5b90508281813d831162001495575b6200148481836200155e565b81010312620001c557518962001364565b503d62001478565b34620001c55760209081600319360112620001c5576001600160401b03600435818111620001c55736602382011215620001c55780600401359182116200125257620014f3601f8301601f19168501846200155e565b8183523660248383010111620001c5578160009260248693018386013783010152604051908051908360005b8381106200154c57505060029183019182525081900382019020546040516001600160a01b039091168152f35b8281018201518582015281016200151f565b90601f801991011681019081106001600160401b038211176200125257604052565b600354811015620015b85760036000527fc2575a0e9e593c00f959f8c92f12db2869c3395a3b0502d05e2516446f71f85b0190600090565b634e487b7160e01b600052603260045260246000fd5b8054821015620015b85760005260206000200190600090565b9181601f84011215620001c5578235916001600160401b038311620001c55760208381860195010111620001c557565b604435906001600160a01b0382168203620001c557565b606435906001600160a01b0382168203620001c557565b60c435906001600160a01b0382168203620001c557565b60e435906001600160a01b0382168203620001c557565b600435906001600160a01b0382168203620001c557565b9181601f84011215620001c5578235916001600160401b038311620001c5576020808501948460051b010111620001c557565b6020908160408183019282815285518094520193019160005b828110620016e5575050505090565b83516001600160a01b031685529381019392810192600101620016d6565b6000546001600160a01b031633036200171857565b60405163118cdaa760e01b8152336004820152602490fd5b60026001541462001742576002600155565b604051633ee5aeb560e01b8152600490fd5b156200175c57565b60405162461bcd60e51b815260206004820152600f60248201526e098cadccee8d040dad2e6dac2e8c6d608b1b6044820152606490fd5b90816020910312620001c557516001600160a01b0381168103620001c55790565b908060209392818452848401376000828201840152601f01601f1916010190565b9893620017fa60e099949262001809949d9c98999d8c6101008091528d0191620017b4565b918a830360208c0152620017b4565b9860018060a01b0380968180961660408b0152166060890152608088015260a08701521660c085015216910152565b6000198114620014545760010190565b9190811015620015b85760051b0190565b356001600160a01b0381168103620001c55790565b6001600160401b038111620012525760051b60200190565b9190811015620015b85760051b81013590601e1981360301821215620001c55701908135916001600160401b038311620001c5576020018236038113620001c5579190565b8054600160401b8110156200125257620018eb91600182018155620015ce565b819291549060031b9160018060a01b03809116831b921b1916179055565b91979697959394909295831562001b755760409687519a8b9986868c37868b016002815260018060a01b039d8e9160209d8e9103019020541662001b38578c89169b8c1562001b03578d8616998a1562001acf57891562001a96578b5196612a7791828901968988106001600160401b03891117620012525789988c8c8f969a6200199b9b8d62001c0a9039620017d5565b0360009182f0801562001a8a57891698865184848237888186810160028152030190208a6001600160601b0360a01b825416179055600354600160401b81101562001a7657918a989795939162001a1c8460017fdf608c80d9ff06f42900f34afa5a743a7894040d1cebee05f04bb64a63c620fc9a98960160035562001580565b819291549060031b918c831b921b19161790558981526004885262001a4489878320620018cb565b8481526005885262001a5989878320620018cb565b82865193849384378201908152039020948351928352820152a490565b634e487b7160e01b83526041600452602483fd5b508551903d90823e3d90fd5b8b5162461bcd60e51b8152600481018e905260126024820152710416d6f756e74206d757374206265203e20360741b6044820152606490fd5b8b5162461bcd60e51b8152600481018e9052600d60248201526c24b73b30b634b210313abcb2b960991b6044820152606490fd5b8a5162461bcd60e51b8152600481018d9052600e60248201526d24b73b30b634b21039b2b63632b960911b6044820152606490fd5b895162461bcd60e51b8152600481018c90526016602482015275496e766f69636520616c72656164792065786973747360501b6044820152606490fd5b60405162461bcd60e51b8152602060048201526012602482015271125b9d985b1a59081a5b9d9bda58d948125160721b6044820152606490fd5b1562001bb757565b60405162461bcd60e51b815260206004820152601060248201526f115cd8dc9bddc81b9bdd08199bdd5b9960821b6044820152606490fd5b90816020910312620001c557518015158103620001c5579056fe608060409080825234620003235762002a77803803809162000022828562000692565b833981019061010081830312620003235780516001600160401b03811162000323578262000052918301620006b6565b602082015190926001600160401b038211620003235762000075918301620006b6565b620000828483016200072d565b62000090606084016200072d565b60808401519160a085015193620000b860e0620000b060c089016200072d565b97016200072d565b9633156200067a5760008054336001600160a01b03198216811783558b519290916001600160a01b0316907f8be0079c531659141344cd1fd0a4f28419497f9722a3daafe3b4186f6b6457e09080a3600180556001600160a01b038416156200064757506001600160a01b0384161562000613578415620005da574286111562000596578051906001600160401b0382116200048a5760025490600182811c921680156200058b575b6020831014620004695781601f8493116200052a575b50602090601f8311600114620004ac57600092620004a0575b50508160011b916000199060031b1c1916176002555b8051906001600160401b0382116200048a5760035490600182811c921680156200047f575b6020831014620004695781601f849311620003f7575b50602090601f831160011462000368576000926200035c575b50508160011b916000199060031b1c1916176003555b600480546001600160a01b03199081166001600160a01b039384161790915560058054821693831693909317909255600692909255600892909255600980546301000000600160b81b03198116601886901b6301000000600160b81b0316908117909255600c80549094169583169590951790925591909116919082156200033c575050602060049183519283809263313ce56760e01b82525afa9081156200033157600091620002e9575b506009805460ff60b81b191660b89290921b60ff60b81b169190911790555b516123149081620007438239f35b90506020813d60201162000328575b81620003076020938362000692565b8101031262000323575160ff81168103620003235738620002bc565b600080fd5b3d9150620002f8565b82513d6000823e3d90fd5b6301000000600160c01b031990911617600960b91b1760095550620002db565b015190503880620001fa565b6003600090815293507fc2575a0e9e593c00f959f8c92f12db2869c3395a3b0502d05e2516446f71f85b91905b601f1984168510620003db576001945083601f19811610620003c1575b505050811b0160035562000210565b015160001960f88460031b161c19169055388080620003b2565b8181015183556020948501946001909301929091019062000395565b60036000529091507fc2575a0e9e593c00f959f8c92f12db2869c3395a3b0502d05e2516446f71f85b601f840160051c81016020851062000461575b90849392915b601f830160051c8201811062000451575050620001e1565b6000815585945060010162000439565b508062000433565b634e487b7160e01b600052602260045260246000fd5b91607f1691620001cb565b634e487b7160e01b600052604160045260246000fd5b01519050388062000190565b60026000908152935060008051602062002a5783398151915291905b601f19841685106200050e576001945083601f19811610620004f4575b505050811b01600255620001a6565b015160001960f88460031b161c19169055388080620004e5565b81810151835560209485019460019093019290910190620004c8565b600260005290915060008051602062002a57833981519152601f840160051c81016020851062000583575b90849392915b601f830160051c820181106200057357505062000177565b600081558594506001016200055b565b508062000555565b91607f169162000161565b885162461bcd60e51b815260206004820152601a60248201527f4475652064617465206d75737420626520696e206675747572650000000000006044820152606490fd5b885162461bcd60e51b81526020600482015260126024820152710416d6f756e74206d757374206265203e20360741b6044820152606490fd5b885162461bcd60e51b815260206004820152600d60248201526c24b73b30b634b210313abcb2b960991b6044820152606490fd5b62461bcd60e51b815260206004820152600e60248201526d24b73b30b634b21039b2b63632b960911b6044820152606490fd5b8851631e4fbdf760e01b815260006004820152602490fd5b601f909101601f19168101906001600160401b038211908210176200048a57604052565b919080601f8401121562000323578251906001600160401b0382116200048a5760405191602091620006f2601f8301601f191684018562000692565b818452828287010111620003235760005b8181106200071957508260009394955001015290565b858101830151848201840152820162000703565b51906001600160a01b0382168203620003235756fe608060409080825260049081361015610056575b50361561001f57600080fd5b6020606492519162461bcd60e51b835282015260126024820152712ab9b2903830bc941490333ab731ba34b7b760711b6044820152fd5b600090813560e01c9081630335729e14611cb75750806308551a5314611c8e57806312fa769f14611c6f5780631a39d8ef14611c505780632466847314611ba65780633013ce2914611b79578063325ac88014611af35780633b95731714611abc5780633b97e85614611a975780633f0f17ed1461181f578063529151ec146118025780635d696d23146117e557806369d895751461153b57806370c8628614611491578063715018a6146114375780637150d8ae1461140e578063725a3b4b146110d9578063786716fe146110ba5780637bf6c10414610fdd57806389e1e82a14610c965780638da5cb5b14610c6e57806395ee122114610c475780639ee7fd4014610b715780639f60be5c14610adb578063a2c7274514610abc578063a36693b114610849578063acaef1f81461082a578063b21862a6146107ba578063b95d8dd41461079b578063c290d691146105fe578063dabaae11146105d3578063dd84b5f614610400578063ea8a1af0146102c7578063f2fde38b1461023b578063fa391c64146102175763fe25e00a03610013578234610213578160031936011261021357600c5490516001600160a01b039091168152602090f35b5080fd5b50823461021357816003193601126102135760209060ff6009541690519015158152f35b509190346102c35760203660031901126102c357610257611db2565b90610260611e1d565b6001600160a01b039182169283156102ad57505082546001600160a01b0319811683178455167f8be0079c531659141344cd1fd0a4f28419497f9722a3daafe3b4186f6b6457e08380a380f35b51631e4fbdf760e01b8152908101849052602490fd5b8280fd5b509190346102c357826003193601126102c3578054336001600160a01b03918216149081156103f3575b50156103c05760075461037e576009549060ff8260081c16610347575061ff00191661010017600955514281527f2e9842040508f80e6420769a8673529eb3af5b952f53af83d9c9d3432da7804690602090a180f35b606490602084519162461bcd60e51b83528201526011602482015270105b1c9958591e4818d85b98d95b1b1959607a1b6044820152fd5b6020606492519162461bcd60e51b8352820152601b60248201527f43616e6e6f742063616e63656c206166746572207061796d656e7400000000006044820152fd5b6020606492519162461bcd60e51b8352820152600e60248201526d139bdd08185d5d1a1bdc9a5e995960921b6044820152fd5b90508354163314386102f1565b5091346102c357826003193601126102c35761041a612008565b60ff9161042a8360095416612038565b600a9283541561059c57600790815492865b86548110156104e85761045761045182611dcd565b5061208b565b8087018051156104ce57515b8681116104c7575b80610481575b505061047c9061207c565b61043c565b60008051602061229f8339815191526020836104b68461047c97969b6104b18260018060a01b0380965116612159565b61202b565b995116928a51908152a29038610471565b508561046b565b506127106104e286546020840151906120cb565b04610463565b509293915093836104fc575b856001805580f35b915491546001600160a01b0392831694865b828110610549575b50505090836020926105388560008051602061229f8339815191529697612159565b519485521692a238808080806104f4565b81600361055583611dcd565b5001541661056b576105669061207c565b61050e565b60008051602061229f83398151915295965084939250602094915061058f90611dcd565b5054169493819293610516565b506020606492519162461bcd60e51b835282015260116024820152704e6f207061796d656e742073706c69747360781b6044820152fd5b5082346102135781600319360112610213576020906105f76006546007549061202b565b9051908152f35b50919060203660031901126102c357803590610618612008565b6009549060ff82166107585761063460ff8360081c1615611e49565b82156107205761064683600754611e89565b600654106106e6575060181c6001600160a01b031681816106ca5761066d91503414611f02565b7f5677b5d4cf976ac32defbd95a6a5aaf0d1fee450a11fc26f3c11aae6e6c33d0661069a82600754611e89565b928360075580519283524260208401523392a2600654146106bd575b6001805580f35b6106c5612120565b6106b6565b6106e1916106d83415611eac565b30903390611f45565b61066d565b606490602085519162461bcd60e51b83528201526014602482015273115e18d959591cc81d1bdd185b08185b5bdd5b9d60621b6044820152fd5b606490602085519162461bcd60e51b835282015260126024820152710416d6f756e74206d757374206265203e20360741b6044820152fd5b606490602085519162461bcd60e51b8352820152601960248201527f496e766f69636520616c726561647920636f6d706c65746564000000000000006044820152fd5b508234610213578160031936011261021357602090600d549051908152f35b509034610213576020366003190112610213573590600a5482101561082757506107e390611dcd565b5080546001820154600283015460039093015493516001600160a01b0390921682526020820152604081019190915260ff90911615156060820152608090f35b0390f35b80fd5b508234610213578160031936011261021357602090600b549051908152f35b5091346102c357826003193601126102c357610863612008565b6009549161088360ff8461087982809716612038565b60101c16156120de565b60085462278d008101809111610aa957421115610a6757600a805490939015610a24576108ae612008565b6108bb8160095416612038565b83541561059c57600790815492865b865481101561096b576108df61045182611dcd565b80870180511561095157515b86811161094a575b80610909575b50506109049061207c565b6108ca565b60008051602061229f8339815191526020836109398461090497969b6104b18260018060a01b0380965116612159565b995116928a51908152a290386108f9565b50856108f3565b5061271061096586546020840151906120cb565b046108eb565b50929391509383610984575b5050600180555082915050f35b915491546001600160a01b0392831694865b8281106109d1575b50505090836020926109c08560008051602061229f8339815191529697612159565b519485521692a23880808080610977565b8160036109dd83611dcd565b500154166109f3576109ee9061207c565b610996565b60008051602061229f833981519152959650849392506020949150610a1790611dcd565b505416949381929361099e565b50805460075492935060008051602061229f833981519152926020926001600160a01b03929091610a56918416612159565b5416926007549051908152a26106b6565b6020606492519162461bcd60e51b8352820152601860248201527f477261636520706572696f64206e6f7420656c617073656400000000000000006044820152fd5b634e487b7160e01b855260118252602485fd5b508234610213578160031936011261021357602090600a549051908152f35b50346108275760203660031901126108275750803590600a54821015610b3e5750610451610b0891611dcd565b80516020808301518484015160609485015195516001600160a01b03909416845291830152604082015291151590820152608090f35b606490602084519162461bcd60e51b8352820152600d60248201526c092dcecc2d8d2c840d2dcc8caf609b1b6044820152fd5b5091826003193601126102c357610b86612008565b610b956006546007549061202b565b918215610c1057506009547f5677b5d4cf976ac32defbd95a6a5aaf0d1fee450a11fc26f3c11aae6e6c33d06919060181c6001600160a01b03168381610bfd57610be191503414611f02565b60065460075580519283524260208401523392a26106b6612120565b610c0b916106d83415611eac565b610be1565b6020606492519162461bcd60e51b83528201526012602482015271105b1c9958591e48199d5b1b1e481c185a5960721b6044820152fd5b50823461021357816003193601126102135760209060ff60095460081c1690519015158152f35b508234610213578160031936011261021357905490516001600160a01b039091168152602090f35b5091346102c357602080600319360112610fd9578235908115159485830361082757600c546001600160a01b0390811633148015610fcd575b15610f9b576009549360ff94858160101c1615610f645762ff0000191660095515610f1c57600a805490949015610ed757610d08612008565b610d158160095416612038565b845415610ea057600797885495845b8154811015610dbc57610d3961045182611dcd565b808a01805115610da357515b898111610d9c575b80610d63575b5050610d5e9061207c565b610d24565b60008051602061229f8339815191528988610d8b84869e6104b18285610d5e9b9a5116612159565b9c5116928d51908152a29038610d53565b5088610d4d565b50612710610db68d548a840151906120cb565b04610d45565b509197909593985083610df2575b505050506000805160206122bf8339815191529350600180555b82519182524290820152a180f35b54905490821696885b828110610e42575b5050508260008051602061229f8339815191529187610e31856000805160206122bf8339815191529a612159565b87519485521692a238808080610dca565b816003610e4e83611dcd565b50015416610e6457610e5f9061207c565b610dfb565b6000805160206122bf833981519152985085925083915092610e9460008051602061229f83398151915294611dcd565b50541697819350610e03565b855162461bcd60e51b815280880185905260116024820152704e6f207061796d656e742073706c69747360781b6044820152606490fd5b509095925084610efc826000805160206122bf83398151915297541660075490612159565b541660008051602061229f833981519152826007548651908152a2610de4565b909592506000805160206122bf8339815191529450610f42816005541660075490612159565b6005541660008051602061229f833981519152826007548651908152a2610de4565b865162461bcd60e51b815280890186905260116024820152704e6f20616374697665206469737075746560781b6044820152606490fd5b845162461bcd60e51b8152808701849052600c60248201526b27b7363c9030b93134ba32b960a11b6044820152606490fd5b50808254163314610ccf565b8380fd5b50823461021357816003193601126102135780519082600e54610fff81611cdb565b808552916001918083169081156110925750600114611035575b50505061102b82610823940383611d47565b5191829182611d69565b9450600e85527fbb7b4a454dc3493923482f07822329ed19e8244eff582cc204f8554c3620c3fd5b82861061107a5750505061102b8260206108239582010194611019565b8054602087870181019190915290950194810161105d565b61082397508693506020925061102b94915060ff191682840152151560051b82010194611019565b5082346102135781600319360112610213576020906008549051908152f35b5091346102c35760209081600319360112610fd95782359167ffffffffffffffff9384841161140a573660238501121561140a578381013594851161140a5760249036828787010111611406576009549060ff82161580156113fb575b156113c45761114b60ff8360081c1615611e49565b60ff8260101c1661138f578054336001600160a01b0391821614908115611381575b501561133f57509062010000869262ff000019161760095542600d55611194600e54611cdb565b601f81116112d2575b508694601f831160011461122b5782827fd4882c6b71dfbb8df0a01fa4cd97676f243a56dd525df6b891b2e1700e514e89978a9261121e575b50508360011b906000198560031b1c191617600e555b82855195808752860152016060840137846060858401015242908201526060813394601f80199101168101030190a280f35b83010135905082386111d6565b600e8852601f198316957fbb7b4a454dc3493923482f07822329ed19e8244eff582cc204f8554c3620c3fd90895b8881106112b65750847fd4882c6b71dfbb8df0a01fa4cd97676f243a56dd525df6b891b2e1700e514e89981061129a575b5050600183811b01600e556111ec565b8201830135600019600386901b60f8161c19169055388061128a565b8382018501358355899550600190920191908601908601611259565b909150600e87527fbb7b4a454dc3493923482f07822329ed19e8244eff582cc204f8554c3620c3fd601f870160051c810191848810611335575b90601f889493920160051c01905b818110611327575061119d565b88815587935060010161131a565b909150819061130c565b845162461bcd60e51b81529081018490526018818401527f4f6e6c7920706172746965732063616e206469737075746500000000000000006044820152606490fd5b90506005541633143861116d565b845162461bcd60e51b81529081018490526010818401526f105b1c9958591e48191a5cdc1d5d195960821b6044820152606490fd5b845162461bcd60e51b8152908101849052601281840152714e6f7468696e6720746f206469737075746560701b6044820152606490fd5b506007541515611136565b8680fd5b8580fd5b50823461021357816003193601126102135760055490516001600160a01b039091168152602090f35b5034610827578060031936011261082757611450611e1d565b80546001600160a01b03198116825581906001600160a01b03167f8be0079c531659141344cd1fd0a4f28419497f9722a3daafe3b4186f6b6457e08280a380f35b508234610213578160031936011261021357805190826002546114b381611cdb565b8085529160019180831690811561109257506001146114de5750505061102b82610823940383611d47565b9450600285527f405787fa12a823e0f2b7631cc41b3ba8828b3321ca811111fa75cd3aa3bb5ace5b8286106115235750505061102b8260206108239582010194611019565b80546020878701810191909152909501948101611506565b5091346102c357826003193601126102c357611555612008565b6009549261156b60ff8561087982809816612038565b80546001600160a01b03908116331480156117d9575b80156117ae575b1561176b57600a805490919015611743576115a1612008565b6115ae8660095416612038565b81541561170c57600795865492845b8154811015611657576115d261045182611dcd565b80880180511561163d57515b868111611636575b806115fc575b50506115f79061207c565b6115bd565b60008051602061229f83398151915260208761162584869b6104b182856115f79b9a5116612159565b995116928b51908152a290386115ec565b50856115e6565b506127106116518b546020840151906120cb565b046115de565b50919396509493919384611674575b505060018055508392505050f35b54905490831694865b8281106116b9575b50505090836020926116a78560008051602061229f8339815191529697612159565b519485521692a2388080808080611666565b8160036116c583611dcd565b500154166116db576116d69061207c565b61167d565b60008051602061229f8339815191529596508493925060209491506116ff90611dcd565b5054169493819293611685565b835162461bcd60e51b815260208187015260116024820152704e6f207061796d656e742073706c69747360781b6044820152606490fd5b9050602091945083610a568260008051602061229f8339815191529596541660075490612159565b825162461bcd60e51b8152602081860152601b60248201527f4e6f7420617574686f72697a6564206f7220746f6f206561726c7900000000006044820152606490fd5b5060085462278d0081018091116117c6574211611588565b634e487b7160e01b835260118552602483fd5b50808454163314611581565b5082346102135781600319360112610213576020906105f761226e565b5082346102135781600319360112610213576020906105f7612244565b5082346102135760803660031901126102135761183a611db2565b9060249182359060443590606435908115158092036114065761185b611e1d565b6001600160a01b03908116958615611a6157600a549182158015611a54575b15611a12578415611963575b865161189181611d15565b8881526020810192878452888201948786526060830196875268010000000000000000811015611951578060016118cb9201600a55611dcd565b9c909c61194157505091600393917f14678e4e3111fe0246d0ab7482532a1deae4d3d2f306a302349e69b51c55f3a2999a9b9351166bffffffffffffffffffffffff60a01b845416178355516001830155516002820155019051151560ff8019835416911617905582519182526020820152a280f35b634e487b7160e01b8c528b90528afd5b50634e487b7160e01b8b5260418c528afd5b85151580611a06575b156119cf57600b546127106119818883611e89565b11611998578661199091611e89565b600b55611886565b875162461bcd60e51b81526020818d015260128185015271546f74616c2065786365656473203130302560701b6044820152606490fd5b865162461bcd60e51b81526020818c015260128184015271496e76616c69642070657263656e7461676560701b6044820152606490fd5b5061271086111561196c565b865162461bcd60e51b81526020818c0152601e818401527f43616e6e6f74206d6f6469667920616674657220636f6d706c6574696f6e00006044820152606490fd5b5060ff600954161561187a565b886011606492602089519362461bcd60e51b855284015282015270125b9d985b1a59081c9958da5c1a595b9d607a1b6044820152fd5b50823461021357816003193601126102135760209060ff60095460b81c169051908152f35b50823461021357816003193601126102135760209060085442119081611ae5575b519015158152f35b60095460ff16159150611add565b509190346102c35760203660031901126102c357611b0f611db2565b611b17611e1d565b6001600160a01b0316918215611b445750506bffffffffffffffffffffffff60a01b600c541617600c5580f35b906020606492519162461bcd60e51b8352820152600f60248201526e24b73b30b634b21030b93134ba32b960891b6044820152fd5b508234610213578160031936011261021357600954905160189190911c6001600160a01b03168152602090f35b50823461021357816003193601126102135780519082600354611bc881611cdb565b808552916001918083169081156110925750600114611bf35750505061102b82610823940383611d47565b9450600385527fc2575a0e9e593c00f959f8c92f12db2869c3395a3b0502d05e2516446f71f85b5b828610611c385750505061102b8260206108239582010194611019565b80546020878701810191909152909501948101611c1b565b5082346102135781600319360112610213576020906006549051908152f35b5082346102135781600319360112610213576020906007549051908152f35b509190346102c357826003193601126102c3575490516001600160a01b03909116815260209150f35b90503461021357816003193601126102135760209060ff60095460101c1615158152f35b90600182811c92168015611d0b575b6020831014611cf557565b634e487b7160e01b600052602260045260246000fd5b91607f1691611cea565b6080810190811067ffffffffffffffff821117611d3157604052565b634e487b7160e01b600052604160045260246000fd5b90601f8019910116810190811067ffffffffffffffff821117611d3157604052565b6020808252825181830181905290939260005b828110611d9e57505060409293506000838284010152601f8019910116010190565b818101860151848201604001528501611d7c565b600435906001600160a01b0382168203611dc857565b600080fd5b600a54811015611e0757600a60005260021b7fc65a7bb8d6351c1cf70c95a316cc6a92839c986682d98bc35f958f4883f9d2a80190600090565b634e487b7160e01b600052603260045260246000fd5b6000546001600160a01b03163303611e3157565b60405163118cdaa760e01b8152336004820152602490fd5b15611e5057565b60405162461bcd60e51b8152602060048201526011602482015270125b9d9bda58d94818d85b98d95b1b1959607a1b6044820152606490fd5b91908201809211611e9657565b634e487b7160e01b600052601160045260246000fd5b15611eb357565b60405162461bcd60e51b815260206004820152602160248201527f446f206e6f742073656e642045544820666f7220746f6b656e207061796d656e6044820152601d60fa1b6064820152608490fd5b15611f0957565b60405162461bcd60e51b8152602060048201526014602482015273125b98dbdc9c9958dd0811551208185b5bdd5b9d60621b6044820152606490fd5b6040516323b872dd60e01b60208201526001600160a01b03928316602482015292909116604483015260648083019390935291815260a081019181831067ffffffffffffffff841117611d3157611f9e92604052611fa0565b565b906000602091828151910182855af115611ffc576000513d611ff357506001600160a01b0381163b155b611fd15750565b604051635274afe760e01b81526001600160a01b039091166004820152602490fd5b60011415611fca565b6040513d6000823e3d90fd5b600260015414612019576002600155565b604051633ee5aeb560e01b8152600490fd5b91908203918211611e9657565b1561203f57565b60405162461bcd60e51b8152602060048201526015602482015274125b9d9bda58d9481b9bdd0818dbdb5c1b195d1959605a1b6044820152606490fd5b6000198114611e965760010190565b9060405161209881611d15565b82546001600160a01b03168152600183015460208201526002830154604082015260039092015460ff1615156060830152565b81810292918115918404141715611e9657565b156120e557565b60405162461bcd60e51b8152602060048201526013602482015272125b9d9bda58d9481a5cc8191a5cdc1d5d1959606a1b6044820152606490fd5b600160ff1960095416176009557fe1342ae9bc80b9de7d3947f49a847fdc5b0889dd4a2cd4bd8e9cb58185e009ab6020604051428152a1565b60095460181c6001600160a01b03908116908161221157505060008080809481945af1903d1561220b573d9067ffffffffffffffff82116121f757604051916121ac601f8201601f191660200184611d47565b825260203d92013e5b156121bc57565b60405162461bcd60e51b8152602060048201526013602482015272115512081d1c985b9cd9995c8819985a5b1959606a1b6044820152606490fd5b634e487b7160e01b81526041600452602490fd5b506121b5565b92611f9e936040519363a9059cbb60e01b602086015216602484015260448301526044825261223f82611d15565b611fa0565b60065480156122685760075461271090818102918183041490151715611e96570490565b50600090565b600854804211801590612292575b6122685761228e62015180914261202b565b0490565b5060ff6009541661227c56fe59d9f8b94d1de65b8eeb1b14e24d5d70c2782e96b3abef17ba687f3ee33a754ad05d50c3680c1479ecff533a37ffd7c097dafe4668878f01c70e173c795d4ff9a26469706673582212204c58f897e47482d8c7a695e787c19f9b08a22d47fd3c4463fceecc448c04c4ef64736f6c63430008140033405787fa12a823e0f2b7631cc41b3ba8828b3321ca811111fa75cd3aa3bb5acea26469706673582212204e9db4a161ae0d6fb610e8866d08154b3fca3fa2865f62cc96a765df418bce1264736f6c63430008140033","opcodes":"PUSH1 0x80 CALLVALUE PUSH3 0x17F JUMPI PUSH3 0x4866 SWAP1 PUSH1 0x1F CODESIZE DUP4 SWAP1 SUB SWAP1 DUP2 ADD PUSH1 0x1F NOT AND DUP3 ADD SWAP1 PUSH1 0x1 PUSH1 0x1 PUSH1 0x40 SHL SUB DUP3 GT DUP4 DUP4 LT OR PUSH3 0x184 JUMPI DUP1 DUP4 SWAP2 PUSH1 0x40 SWAP6 DUP7 SWAP5 DUP6 MSTORE DUP4 CODECOPY DUP2 ADD SUB SLT PUSH3 0x17F JUMPI PUSH3 0x5D PUSH1 0x20 PUSH3 0x55 DUP4 PUSH3 0x19A JUMP JUMPDEST SWAP3 ADD PUSH3 0x19A JUMP JUMPDEST CALLER ISZERO PUSH3 0x167 JUMPI PUSH1 0x0 DUP1 SLOAD CALLER PUSH1 0x1 PUSH1 0x1 PUSH1 0xA0 SHL SUB NOT DUP1 DUP4 AND DUP3 OR DUP5 SSTORE DUP7 MLOAD SWAP6 SWAP1 SWAP5 PUSH1 0x1 PUSH1 0x1 PUSH1 0xA0 SHL SUB SWAP5 SWAP1 SWAP4 DUP6 SWAP4 SWAP2 SWAP1 DUP5 AND SWAP1 PUSH32 0x8BE0079C531659141344CD1FD0A4F28419497F9722A3DAAFE3B4186F6B6457E0 SWAP1 DUP1 LOG3 PUSH1 0x1 DUP1 SSTORE AND SWAP4 DUP5 ISZERO PUSH3 0x133 JUMPI POP AND SWAP2 DUP3 ISZERO PUSH3 0xEF JUMPI DUP2 PUSH1 0x6 SLOAD AND OR PUSH1 0x6 SSTORE PUSH1 0x8 SLOAD AND OR PUSH1 0x8 SSTORE PUSH1 0x32 PUSH1 0x7 SSTORE MLOAD PUSH2 0x46B6 SWAP1 DUP2 PUSH3 0x1B0 DUP3 CODECOPY RETURN JUMPDEST DUP4 MLOAD PUSH3 0x461BCD PUSH1 0xE5 SHL DUP2 MSTORE PUSH1 0x20 PUSH1 0x4 DUP3 ADD MSTORE PUSH1 0x15 PUSH1 0x24 DUP3 ADD MSTORE PUSH32 0x496E76616C69642066656520636F6C6C6563746F720000000000000000000000 PUSH1 0x44 DUP3 ADD MSTORE PUSH1 0x64 SWAP1 REVERT JUMPDEST PUSH3 0x461BCD PUSH1 0xE5 SHL DUP2 MSTORE PUSH1 0x20 PUSH1 0x4 DUP3 ADD MSTORE PUSH1 0xF PUSH1 0x24 DUP3 ADD MSTORE PUSH15 0x24B73B30B634B21030B93134BA32B9 PUSH1 0x89 SHL PUSH1 0x44 DUP3 ADD MSTORE PUSH1 0x64 SWAP1 REVERT JUMPDEST DUP3 MLOAD PUSH4 0x1E4FBDF7 PUSH1 0xE0 SHL DUP2 MSTORE PUSH1 0x0 PUSH1 0x4 DUP3 ADD MSTORE PUSH1 0x24 SWAP1 REVERT JUMPDEST PUSH1 0x0 DUP1 REVERT JUMPDEST PUSH4 0x4E487B71 PUSH1 0xE0 SHL PUSH1 0x0 MSTORE PUSH1 0x41 PUSH1 0x4 MSTORE PUSH1 0x24 PUSH1 0x0 REVERT JUMPDEST MLOAD SWAP1 PUSH1 0x1 PUSH1 0x1 PUSH1 0xA0 SHL SUB DUP3 AND DUP3 SUB PUSH3 0x17F JUMPI JUMP INVALID PUSH2 0x160 DUP1 PUSH1 0x40 MSTORE PUSH1 0x4 CALLDATASIZE LT ISZERO PUSH3 0x15 JUMPI PUSH1 0x0 DUP1 REVERT JUMPDEST PUSH1 0x0 CALLDATALOAD PUSH1 0xE0 SHR SWAP1 DUP2 PUSH4 0x124C175C EQ PUSH3 0x149D JUMPI POP DUP1 PUSH4 0x136D8883 EQ PUSH3 0x12DB JUMPI DUP1 PUSH4 0x1D3AFEE6 EQ PUSH3 0x12AD JUMPI DUP1 PUSH4 0x26232A2E EQ PUSH3 0x128D JUMPI DUP1 PUSH4 0x2829ABC2 EQ PUSH3 0xFBB JUMPI DUP1 PUSH4 0x33912B1C EQ PUSH3 0xF59 JUMPI DUP1 PUSH4 0x3532D559 EQ PUSH3 0xF1B JUMPI DUP1 PUSH4 0x35C3C1E1 EQ PUSH3 0xECB JUMPI DUP1 PUSH4 0x3F4DBDA2 EQ PUSH3 0xEAB JUMPI DUP1 PUSH4 0x5131AE7B EQ PUSH3 0xE27 JUMPI DUP1 PUSH4 0x54657FDC EQ PUSH3 0xDC7 JUMPI DUP1 PUSH4 0x715018A6 EQ PUSH3 0xD6A JUMPI DUP1 PUSH4 0x8371F8C1 EQ PUSH3 0xCFC JUMPI DUP1 PUSH4 0x8DA5CB5B EQ PUSH3 0xCD1 JUMPI DUP1 PUSH4 0x9A139568 EQ PUSH3 0xC22 JUMPI DUP1 PUSH4 0x9C32AAA8 EQ PUSH3 0x8BF JUMPI DUP1 PUSH4 0xAA0B5988 EQ PUSH3 0x826 JUMPI DUP1 PUSH4 0xB67A2637 EQ PUSH3 0x7FB JUMPI DUP1 PUSH4 0xB825681F EQ PUSH3 0x559 JUMPI DUP1 PUSH4 0xB876EA64 EQ PUSH3 0x48B JUMPI DUP1 PUSH4 0xC415B95C EQ PUSH3 0x460 JUMPI DUP1 PUSH4 0xCD7E5AB5 EQ PUSH3 0x3CB JUMPI DUP1 PUSH4 0xD2C35CE8 EQ PUSH3 0x31A JUMPI DUP1 PUSH4 0xF1955092 EQ PUSH3 0x298 JUMPI DUP1 PUSH4 0xF2FDE38B EQ PUSH3 0x208 JUMPI DUP1 PUSH4 0xF88D8700 EQ PUSH3 0x1CA JUMPI PUSH4 0xFCAC12F9 EQ PUSH3 0x165 JUMPI PUSH1 0x0 DUP1 REVERT JUMPDEST CALLVALUE PUSH3 0x1C5 JUMPI PUSH1 0x20 CALLDATASIZE PUSH1 0x3 NOT ADD SLT PUSH3 0x1C5 JUMPI PUSH1 0x4 CALLDATALOAD PUSH1 0x1 PUSH1 0x1 PUSH1 0x40 SHL SUB DUP2 GT PUSH3 0x1C5 JUMPI PUSH3 0x19C PUSH1 0x20 SWAP2 CALLDATASIZE SWAP1 PUSH1 0x4 ADD PUSH3 0x15E7 JUMP JUMPDEST DUP1 PUSH1 0x40 MLOAD SWAP3 DUP4 CALLDATACOPY PUSH1 0x2 SWAP1 DUP3 ADD SWAP1 DUP2 MSTORE DUP2 SWAP1 SUB DUP3 ADD SWAP1 KECCAK256 SLOAD PUSH1 0x40 MLOAD PUSH1 0x1 PUSH1 0x1 PUSH1 0xA0 SHL SUB SWAP1 SWAP2 AND DUP2 MSTORE RETURN JUMPDEST PUSH1 0x0 DUP1 REVERT JUMPDEST CALLVALUE PUSH3 0x1C5 JUMPI PUSH1 0x20 CALLDATASIZE PUSH1 0x3 NOT ADD SLT PUSH3 0x1C5 JUMPI PUSH1 0x1 PUSH1 0x1 PUSH1 0xA0 SHL SUB PUSH3 0x1EF PUSH3 0x1673 JUMP JUMPDEST AND PUSH1 0x0 MSTORE PUSH1 0x4 PUSH1 0x20 MSTORE PUSH1 0x20 PUSH1 0x40 PUSH1 0x0 KECCAK256 SLOAD PUSH1 0x40 MLOAD SWAP1 DUP2 MSTORE RETURN JUMPDEST CALLVALUE PUSH3 0x1C5 JUMPI PUSH1 0x20 CALLDATASIZE PUSH1 0x3 NOT ADD SLT PUSH3 0x1C5 JUMPI PUSH3 0x225 PUSH3 0x1673 JUMP JUMPDEST PUSH3 0x22F PUSH3 0x1703 JUMP JUMPDEST PUSH1 0x1 PUSH1 0x1 PUSH1 0xA0 SHL SUB SWAP1 DUP2 AND SWAP1 DUP2 ISZERO PUSH3 0x27F JUMPI PUSH1 0x0 SLOAD DUP3 PUSH1 0x1 PUSH1 0x1 PUSH1 0x60 SHL SUB PUSH1 0xA0 SHL DUP3 AND OR PUSH1 0x0 SSTORE AND PUSH32 0x8BE0079C531659141344CD1FD0A4F28419497F9722A3DAAFE3B4186F6B6457E0 PUSH1 0x0 DUP1 LOG3 STOP JUMPDEST PUSH1 0x40 MLOAD PUSH4 0x1E4FBDF7 PUSH1 0xE0 SHL DUP2 MSTORE PUSH1 0x0 PUSH1 0x4 DUP3 ADD MSTORE PUSH1 0x24 SWAP1 REVERT JUMPDEST CALLVALUE PUSH3 0x1C5 JUMPI PUSH1 0x20 CALLDATASIZE PUSH1 0x3 NOT ADD SLT PUSH3 0x1C5 JUMPI PUSH1 0x4 CALLDATALOAD PUSH1 0x3 SLOAD DUP2 LT ISZERO PUSH3 0x2DF JUMPI PUSH3 0x2C6 PUSH1 0x20 SWAP2 PUSH3 0x1580 JUMP JUMPDEST SWAP1 SLOAD PUSH1 0x40 MLOAD PUSH1 0x3 SWAP3 SWAP1 SWAP3 SHL SHR PUSH1 0x1 PUSH1 0x1 PUSH1 0xA0 SHL SUB AND DUP2 MSTORE RETURN JUMPDEST PUSH1 0x40 MLOAD PUSH3 0x461BCD PUSH1 0xE5 SHL DUP2 MSTORE PUSH1 0x20 PUSH1 0x4 DUP3 ADD MSTORE PUSH1 0x13 PUSH1 0x24 DUP3 ADD MSTORE PUSH19 0x496E646578206F7574206F6620626F756E6473 PUSH1 0x68 SHL PUSH1 0x44 DUP3 ADD MSTORE PUSH1 0x64 SWAP1 REVERT JUMPDEST CALLVALUE PUSH3 0x1C5 JUMPI PUSH1 0x20 CALLDATASIZE PUSH1 0x3 NOT ADD SLT PUSH3 0x1C5 JUMPI PUSH3 0x337 PUSH3 0x1673 JUMP JUMPDEST PUSH3 0x341 PUSH3 0x1703 JUMP JUMPDEST PUSH1 0x1 PUSH1 0x1 PUSH1 0xA0 SHL SUB AND DUP1 ISZERO PUSH3 0x392 JUMPI PUSH1 0x20 DUP2 PUSH32 0xE5693914D19C789BDEE50A362998C0BC8D035A835F9871DA5D51152F0582C34F SWAP3 PUSH1 0x1 PUSH1 0x1 PUSH1 0x60 SHL SUB PUSH1 0xA0 SHL PUSH1 0x8 SLOAD AND OR PUSH1 0x8 SSTORE PUSH1 0x40 MLOAD SWAP1 DUP2 MSTORE LOG1 STOP JUMPDEST PUSH1 0x40 MLOAD PUSH3 0x461BCD PUSH1 0xE5 SHL DUP2 MSTORE PUSH1 0x20 PUSH1 0x4 DUP3 ADD MSTORE PUSH1 0x11 PUSH1 0x24 DUP3 ADD MSTORE PUSH17 0x24B73B30B634B21031B7B63632B1BA37B9 PUSH1 0x79 SHL PUSH1 0x44 DUP3 ADD MSTORE PUSH1 0x64 SWAP1 REVERT JUMPDEST CALLVALUE PUSH3 0x1C5 JUMPI PUSH1 0x20 DUP1 PUSH1 0x3 NOT CALLDATASIZE ADD SLT PUSH3 0x1C5 JUMPI PUSH1 0x1 PUSH1 0x1 PUSH1 0xA0 SHL SUB DUP1 PUSH3 0x3F2 PUSH3 0x1673 JUMP JUMPDEST AND PUSH1 0x0 MSTORE PUSH1 0x4 DUP3 MSTORE PUSH1 0x40 PUSH1 0x0 KECCAK256 SWAP2 PUSH1 0x40 MLOAD DUP1 SWAP3 DUP3 DUP6 SLOAD SWAP3 DUP4 DUP2 MSTORE ADD SWAP5 PUSH1 0x0 MSTORE DUP3 PUSH1 0x0 KECCAK256 SWAP3 PUSH1 0x0 SWAP2 JUMPDEST DUP4 DUP4 LT PUSH3 0x446 JUMPI PUSH3 0x442 DUP7 PUSH3 0x435 DUP2 DUP11 SUB DUP3 PUSH3 0x155E JUMP JUMPDEST PUSH1 0x40 MLOAD SWAP2 DUP3 SWAP2 DUP3 PUSH3 0x16BD JUMP JUMPDEST SUB SWAP1 RETURN JUMPDEST DUP5 SLOAD DUP2 AND DUP8 MSTORE SWAP6 DUP2 ADD SWAP6 PUSH1 0x1 SWAP5 DUP6 ADD SWAP5 SWAP1 SWAP3 ADD SWAP2 PUSH3 0x41A JUMP JUMPDEST CALLVALUE PUSH3 0x1C5 JUMPI PUSH1 0x0 CALLDATASIZE PUSH1 0x3 NOT ADD SLT PUSH3 0x1C5 JUMPI PUSH1 0x8 SLOAD PUSH1 0x40 MLOAD PUSH1 0x1 PUSH1 0x1 PUSH1 0xA0 SHL SUB SWAP1 SWAP2 AND DUP2 MSTORE PUSH1 0x20 SWAP1 RETURN JUMPDEST CALLVALUE PUSH3 0x1C5 JUMPI PUSH2 0x100 CALLDATASIZE PUSH1 0x3 NOT ADD SLT PUSH3 0x1C5 JUMPI PUSH1 0x1 PUSH1 0x1 PUSH1 0x40 SHL SUB PUSH1 0x4 CALLDATALOAD DUP2 DUP2 GT PUSH3 0x1C5 JUMPI PUSH3 0x4C2 SWAP1 CALLDATASIZE SWAP1 PUSH1 0x4 ADD PUSH3 0x15E7 JUMP JUMPDEST SWAP2 PUSH1 0x24 CALLDATALOAD SWAP1 DUP2 GT PUSH3 0x1C5 JUMPI PUSH1 0x20 SWAP3 PUSH3 0x4E5 PUSH3 0x53F SWAP3 CALLDATASIZE SWAP1 PUSH1 0x4 ADD PUSH3 0x15E7 JUMP JUMPDEST SWAP4 SWAP1 SWAP2 PUSH3 0x4F2 PUSH3 0x1617 JUMP JUMPDEST SWAP2 PUSH3 0x4FD PUSH3 0x162E JUMP JUMPDEST PUSH3 0x507 PUSH3 0x1645 JUMP JUMPDEST SWAP4 PUSH3 0x512 PUSH3 0x165C JUMP JUMPDEST SWAP8 PUSH3 0x51D PUSH3 0x1730 JUMP JUMPDEST PUSH1 0x1 PUSH1 0x1 PUSH1 0xA0 SHL SUB SWAP9 DUP1 DUP11 AND ISZERO PUSH3 0x54C JUMPI SWAP7 JUMPDEST PUSH1 0xA4 CALLDATALOAD SWAP6 PUSH1 0x84 CALLDATALOAD SWAP6 PUSH3 0x1909 JUMP JUMPDEST PUSH1 0x1 DUP1 SSTORE PUSH1 0x40 MLOAD SWAP2 AND DUP2 MSTORE RETURN JUMPDEST POP DUP9 PUSH1 0x6 SLOAD AND SWAP7 PUSH3 0x531 JUMP JUMPDEST CALLVALUE PUSH3 0x1C5 JUMPI PUSH1 0xE0 CALLDATASIZE PUSH1 0x3 NOT ADD SLT PUSH3 0x1C5 JUMPI PUSH1 0x1 PUSH1 0x1 PUSH1 0x40 SHL SUB PUSH1 0x4 CALLDATALOAD DUP2 DUP2 GT PUSH3 0x1C5 JUMPI PUSH3 0x58F SWAP1 CALLDATASIZE SWAP1 PUSH1 0x4 ADD PUSH3 0x168A JUMP JUMPDEST PUSH1 0xE0 MSTORE PUSH1 0x24 SWAP2 DUP3 CALLDATALOAD DUP2 DUP2 GT PUSH3 0x1C5 JUMPI PUSH3 0x5AF SWAP1 CALLDATASIZE SWAP1 PUSH1 0x4 ADD PUSH3 0x168A JUMP JUMPDEST PUSH2 0x100 MSTORE PUSH1 0x80 MSTORE PUSH1 0x44 CALLDATALOAD DUP2 DUP2 GT PUSH3 0x1C5 JUMPI PUSH3 0x5D1 SWAP1 CALLDATASIZE SWAP1 PUSH1 0x4 ADD PUSH3 0x168A JUMP JUMPDEST SWAP1 PUSH2 0x120 MSTORE PUSH1 0x64 CALLDATALOAD DUP3 DUP2 GT PUSH3 0x1C5 JUMPI PUSH3 0x5F1 SWAP1 CALLDATASIZE SWAP1 PUSH1 0x4 ADD PUSH3 0x168A JUMP JUMPDEST SWAP4 SWAP1 SWAP3 PUSH1 0x84 CALLDATALOAD DUP2 DUP2 GT PUSH3 0x1C5 JUMPI PUSH3 0x60F SWAP1 CALLDATASIZE SWAP1 PUSH1 0x4 ADD PUSH3 0x168A JUMP JUMPDEST PUSH1 0xA4 SWAP7 SWAP2 SWAP7 CALLDATALOAD DUP4 DUP2 GT PUSH3 0x1C5 JUMPI PUSH3 0x62D SWAP1 CALLDATASIZE SWAP1 PUSH1 0x4 ADD PUSH3 0x168A JUMP JUMPDEST SWAP3 SWAP1 SWAP4 PUSH1 0xC4 CALLDATALOAD SWAP1 DUP2 GT PUSH3 0x1C5 JUMPI PUSH3 0x64B SWAP1 CALLDATASIZE SWAP1 PUSH1 0x4 ADD PUSH3 0x168A JUMP JUMPDEST PUSH2 0x140 MSTORE SWAP4 PUSH3 0x65A PUSH3 0x1730 JUMP JUMPDEST PUSH3 0x669 DUP8 PUSH1 0xE0 MLOAD EQ PUSH3 0x1754 JUMP JUMPDEST PUSH3 0x678 DUP3 PUSH1 0xE0 MLOAD EQ PUSH3 0x1754 JUMP JUMPDEST PUSH3 0x687 DUP4 PUSH1 0xE0 MLOAD EQ PUSH3 0x1754 JUMP JUMPDEST PUSH3 0x696 DUP5 PUSH1 0xE0 MLOAD EQ PUSH3 0x1754 JUMP JUMPDEST PUSH3 0x6B4 PUSH3 0x6A7 PUSH1 0xE0 MLOAD PUSH3 0x186E JUMP JUMPDEST PUSH1 0x40 MLOAD DUP1 PUSH1 0xA0 MSTORE PUSH3 0x155E JUMP JUMPDEST PUSH1 0xE0 MLOAD PUSH1 0xA0 MLOAD MSTORE PUSH1 0x1F NOT PUSH3 0x6CB PUSH1 0xE0 MLOAD PUSH3 0x186E JUMP JUMPDEST ADD CALLDATASIZE PUSH1 0x20 PUSH1 0xA0 MLOAD ADD CALLDATACOPY PUSH1 0x0 JUMPDEST PUSH1 0xE0 MLOAD DUP1 DUP3 LT ISZERO PUSH3 0x7E5 JUMPI DUP9 DUP3 DUP6 DUP8 DUP15 DUP4 DUP16 SWAP7 DUP2 DUP16 SWAP2 PUSH3 0x6F9 SWAP3 PUSH3 0x1886 JUMP JUMPDEST PUSH1 0xC0 SWAP9 SWAP2 SWAP9 MSTORE PUSH2 0x100 MLOAD DUP3 PUSH1 0x80 MLOAD SWAP2 PUSH3 0x713 SWAP3 PUSH3 0x1886 JUMP JUMPDEST SWAP7 SWAP1 SWAP8 DUP2 PUSH2 0x120 MLOAD SWAP2 PUSH3 0x727 SWAP3 PUSH3 0x1848 JUMP JUMPDEST PUSH3 0x732 SWAP1 PUSH3 0x1859 JUMP JUMPDEST SWAP6 PUSH3 0x73E SWAP3 PUSH3 0x1848 JUMP JUMPDEST PUSH3 0x749 SWAP1 PUSH3 0x1859 JUMP JUMPDEST SWAP3 PUSH3 0x755 SWAP3 PUSH3 0x1848 JUMP JUMPDEST CALLDATALOAD SWAP1 PUSH3 0x764 DUP8 DUP13 DUP11 PUSH3 0x1848 JUMP JUMPDEST CALLDATALOAD SWAP3 DUP13 DUP9 PUSH2 0x140 MLOAD PUSH3 0x777 SWAP3 PUSH3 0x1848 JUMP JUMPDEST PUSH3 0x782 SWAP1 PUSH3 0x1859 JUMP JUMPDEST SWAP5 PUSH1 0x1 PUSH1 0xA0 SHL PUSH1 0x1 SWAP1 SUB PUSH1 0x6 SLOAD AND SWAP7 PUSH1 0xC0 MLOAD PUSH3 0x79F SWAP10 PUSH3 0x1909 JUMP JUMPDEST SWAP1 PUSH1 0xA0 MLOAD DUP1 MLOAD DUP3 LT ISZERO PUSH3 0x7D0 JUMPI PUSH1 0x20 PUSH3 0x7CA SWAP4 PUSH1 0x1 DUP1 PUSH1 0xA0 SHL SUB AND SWAP2 DUP4 PUSH1 0x5 SHL ADD ADD MSTORE PUSH3 0x1838 JUMP JUMPDEST PUSH3 0x6D7 JUMP JUMPDEST DUP13 PUSH4 0x4E487B71 PUSH1 0xE0 SHL PUSH1 0x0 MSTORE PUSH1 0x32 PUSH1 0x4 MSTORE PUSH1 0x0 REVERT JUMPDEST PUSH1 0x1 DUP1 SSTORE PUSH1 0x40 MLOAD DUP1 PUSH3 0x442 PUSH1 0xA0 MLOAD DUP3 PUSH3 0x16BD JUMP JUMPDEST CALLVALUE PUSH3 0x1C5 JUMPI PUSH1 0x0 CALLDATASIZE PUSH1 0x3 NOT ADD SLT PUSH3 0x1C5 JUMPI PUSH1 0x6 SLOAD PUSH1 0x40 MLOAD PUSH1 0x1 PUSH1 0x1 PUSH1 0xA0 SHL SUB SWAP1 SWAP2 AND DUP2 MSTORE PUSH1 0x20 SWAP1 RETURN JUMPDEST CALLVALUE PUSH3 0x1C5 JUMPI PUSH1 0x20 CALLDATASIZE PUSH1 0x3 NOT ADD SLT PUSH3 0x1C5 JUMPI PUSH1 0x4 CALLDATALOAD PUSH3 0x846 PUSH3 0x1703 JUMP JUMPDEST PUSH2 0x3E8 DUP2 GT PUSH3 0x881 JUMPI PUSH1 0x20 DUP2 PUSH32 0x45610D581145924DD7090A5017E5F2B1D6F42213BB2E95707FF86846BBFCB1CA SWAP3 PUSH1 0x7 SSTORE PUSH1 0x40 MLOAD SWAP1 DUP2 MSTORE LOG1 STOP JUMPDEST PUSH1 0x40 MLOAD PUSH3 0x461BCD PUSH1 0xE5 SHL DUP2 MSTORE PUSH1 0x20 PUSH1 0x4 DUP3 ADD MSTORE PUSH1 0x16 PUSH1 0x24 DUP3 ADD MSTORE PUSH22 0x46656520746F6F206869676820286D61782031302529 PUSH1 0x50 SHL PUSH1 0x44 DUP3 ADD MSTORE PUSH1 0x64 SWAP1 REVERT JUMPDEST CALLVALUE PUSH3 0x1C5 JUMPI PUSH1 0x20 DUP1 PUSH1 0x3 NOT CALLDATASIZE ADD SLT PUSH3 0x1C5 JUMPI PUSH1 0x4 CALLDATALOAD PUSH1 0x1 PUSH1 0x1 PUSH1 0x40 SHL SUB DUP2 GT PUSH3 0x1C5 JUMPI PUSH3 0x8F5 SWAP1 CALLDATASIZE SWAP1 PUSH1 0x4 ADD PUSH3 0x15E7 JUMP JUMPDEST DUP1 PUSH1 0x40 MLOAD SWAP3 DUP4 CALLDATACOPY PUSH1 0x2 SWAP1 DUP3 ADD SWAP1 DUP2 MSTORE DUP2 SWAP1 SUB DUP3 ADD SWAP1 KECCAK256 SLOAD PUSH1 0x1 PUSH1 0x1 PUSH1 0xA0 SHL SUB SWAP1 DUP2 AND SWAP1 PUSH3 0x925 DUP3 ISZERO ISZERO PUSH3 0x1BAF JUMP JUMPDEST PUSH1 0x40 MLOAD PUSH4 0x8551A53 PUSH1 0xE0 SHL DUP2 MSTORE SWAP1 DUP4 DUP3 PUSH1 0x4 DUP2 DUP7 GAS STATICCALL SWAP2 DUP3 ISZERO PUSH3 0xAD9 JUMPI PUSH1 0x0 SWAP3 PUSH3 0xBFE JUMPI JUMPDEST POP PUSH1 0x40 MLOAD PUSH4 0x38A86C57 PUSH1 0xE1 SHL DUP2 MSTORE SWAP1 DUP5 DUP3 PUSH1 0x4 DUP2 DUP8 GAS STATICCALL SWAP2 DUP3 ISZERO PUSH3 0xAD9 JUMPI PUSH1 0x0 SWAP3 PUSH3 0xBC8 JUMPI JUMPDEST POP PUSH1 0x40 MLOAD PUSH4 0x1A39D8EF PUSH1 0xE0 SHL DUP2 MSTORE DUP6 DUP2 PUSH1 0x4 DUP2 DUP9 GAS STATICCALL SWAP1 DUP2 ISZERO PUSH3 0xAD9 JUMPI PUSH1 0x0 SWAP2 PUSH3 0xB95 JUMPI JUMPDEST POP PUSH1 0x40 MLOAD PUSH4 0x12FA769F PUSH1 0xE0 SHL DUP2 MSTORE DUP7 DUP2 PUSH1 0x4 DUP2 DUP10 GAS STATICCALL SWAP1 DUP2 ISZERO PUSH3 0xAD9 JUMPI PUSH1 0x0 SWAP2 PUSH3 0xB62 JUMPI JUMPDEST POP PUSH1 0x40 MLOAD PUSH4 0x3C338B7F PUSH1 0xE1 SHL DUP2 MSTORE SWAP2 DUP8 DUP4 PUSH1 0x4 DUP2 DUP11 GAS STATICCALL SWAP3 DUP4 ISZERO PUSH3 0xAD9 JUMPI PUSH1 0x0 SWAP4 PUSH3 0xB2D JUMPI JUMPDEST POP PUSH1 0x40 MLOAD PUSH4 0x3E8E4719 PUSH1 0xE2 SHL DUP2 MSTORE SWAP4 DUP9 DUP6 PUSH1 0x4 DUP2 DUP12 GAS STATICCALL SWAP5 DUP6 ISZERO PUSH3 0xAD9 JUMPI PUSH1 0x0 SWAP6 PUSH3 0xB09 JUMPI JUMPDEST POP PUSH1 0x40 MLOAD PUSH4 0x95EE1221 PUSH1 0xE0 SHL DUP2 MSTORE SWAP6 DUP10 DUP8 PUSH1 0x4 DUP2 DUP13 GAS STATICCALL SWAP7 DUP8 ISZERO PUSH3 0xAD9 JUMPI PUSH1 0x0 SWAP8 PUSH3 0xAE5 JUMPI JUMPDEST POP PUSH1 0x40 MLOAD PUSH4 0x19AB94F PUSH1 0xE1 SHL DUP2 MSTORE SWAP10 DUP1 DUP12 PUSH1 0x4 DUP2 DUP14 GAS STATICCALL SWAP9 DUP10 ISZERO PUSH3 0xAD9 JUMPI PUSH2 0x120 SWAP12 PUSH1 0x0 SWAP11 PUSH3 0xAA1 JUMPI JUMPDEST POP DUP4 SWAP1 PUSH1 0x40 MLOAD SWAP12 DUP13 MSTORE AND SWAP1 DUP11 ADD MSTORE AND PUSH1 0x40 DUP9 ADD MSTORE PUSH1 0x60 DUP8 ADD MSTORE PUSH1 0x80 DUP7 ADD MSTORE PUSH1 0xA0 DUP6 ADD MSTORE ISZERO ISZERO PUSH1 0xC0 DUP5 ADD MSTORE ISZERO ISZERO PUSH1 0xE0 DUP4 ADD MSTORE ISZERO ISZERO PUSH2 0x100 DUP3 ADD MSTORE RETURN JUMPDEST DUP5 SWAP2 SWAP11 POP PUSH3 0xAC9 SWAP1 DUP4 RETURNDATASIZE DUP6 GT PUSH3 0xAD1 JUMPI JUMPDEST PUSH3 0xAC0 DUP2 DUP4 PUSH3 0x155E JUMP JUMPDEST DUP2 ADD SWAP1 PUSH3 0x1BEF JUMP JUMPDEST SWAP10 SWAP1 PUSH3 0xA66 JUMP JUMPDEST POP RETURNDATASIZE PUSH3 0xAB4 JUMP JUMPDEST PUSH1 0x40 MLOAD RETURNDATASIZE PUSH1 0x0 DUP3 RETURNDATACOPY RETURNDATASIZE SWAP1 REVERT JUMPDEST PUSH3 0xB01 SWAP2 SWAP8 POP DUP11 RETURNDATASIZE DUP13 GT PUSH3 0xAD1 JUMPI PUSH3 0xAC0 DUP2 DUP4 PUSH3 0x155E JUMP JUMPDEST SWAP6 DUP11 PUSH3 0xA3A JUMP JUMPDEST PUSH3 0xB25 SWAP2 SWAP6 POP DUP10 RETURNDATASIZE DUP12 GT PUSH3 0xAD1 JUMPI PUSH3 0xAC0 DUP2 DUP4 PUSH3 0x155E JUMP JUMPDEST SWAP4 DUP10 PUSH3 0xA12 JUMP JUMPDEST SWAP1 SWAP3 POP DUP8 DUP2 DUP2 RETURNDATASIZE DUP4 GT PUSH3 0xB5A JUMPI JUMPDEST PUSH3 0xB48 DUP2 DUP4 PUSH3 0x155E JUMP JUMPDEST DUP2 ADD SUB SLT PUSH3 0x1C5 JUMPI MLOAD SWAP2 DUP9 PUSH3 0x9EA JUMP JUMPDEST POP RETURNDATASIZE PUSH3 0xB3C JUMP JUMPDEST SWAP1 POP DUP7 DUP2 DUP2 RETURNDATASIZE DUP4 GT PUSH3 0xB8D JUMPI JUMPDEST PUSH3 0xB7C DUP2 DUP4 PUSH3 0x155E JUMP JUMPDEST DUP2 ADD SUB SLT PUSH3 0x1C5 JUMPI MLOAD DUP8 PUSH3 0x9C2 JUMP JUMPDEST POP RETURNDATASIZE PUSH3 0xB70 JUMP JUMPDEST SWAP1 POP DUP6 DUP2 DUP2 RETURNDATASIZE DUP4 GT PUSH3 0xBC0 JUMPI JUMPDEST PUSH3 0xBAF DUP2 DUP4 PUSH3 0x155E JUMP JUMPDEST DUP2 ADD SUB SLT PUSH3 0x1C5 JUMPI MLOAD DUP7 PUSH3 0x99B JUMP JUMPDEST POP RETURNDATASIZE PUSH3 0xBA3 JUMP JUMPDEST PUSH3 0xBEE SWAP2 SWAP3 POP DUP6 RETURNDATASIZE DUP8 GT PUSH3 0xBF6 JUMPI JUMPDEST PUSH3 0xBE5 DUP2 DUP4 PUSH3 0x155E JUMP JUMPDEST DUP2 ADD SWAP1 PUSH3 0x1793 JUMP JUMPDEST SWAP1 DUP6 PUSH3 0x974 JUMP JUMPDEST POP RETURNDATASIZE PUSH3 0xBD9 JUMP JUMPDEST PUSH3 0xC1A SWAP2 SWAP3 POP DUP5 RETURNDATASIZE DUP7 GT PUSH3 0xBF6 JUMPI PUSH3 0xBE5 DUP2 DUP4 PUSH3 0x155E JUMP JUMPDEST SWAP1 DUP5 PUSH3 0x94C JUMP JUMPDEST CALLVALUE PUSH3 0x1C5 JUMPI PUSH1 0x20 CALLDATASIZE PUSH1 0x3 NOT ADD SLT PUSH3 0x1C5 JUMPI PUSH3 0xC3F PUSH3 0x1673 JUMP JUMPDEST PUSH3 0xC49 PUSH3 0x1703 JUMP JUMPDEST PUSH1 0x1 PUSH1 0x1 PUSH1 0xA0 SHL SUB AND DUP1 ISZERO PUSH3 0xC9A JUMPI PUSH1 0x20 DUP2 PUSH32 0x7F84B6E5B73DA2A7C838BA4C4600761AEF76B5E4F34DA64DFCB400C041261465 SWAP3 PUSH1 0x1 PUSH1 0x1 PUSH1 0x60 SHL SUB PUSH1 0xA0 SHL PUSH1 0x6 SLOAD AND OR PUSH1 0x6 SSTORE PUSH1 0x40 MLOAD SWAP1 DUP2 MSTORE LOG1 STOP JUMPDEST PUSH1 0x40 MLOAD PUSH3 0x461BCD PUSH1 0xE5 SHL DUP2 MSTORE PUSH1 0x20 PUSH1 0x4 DUP3 ADD MSTORE PUSH1 0xF PUSH1 0x24 DUP3 ADD MSTORE PUSH15 0x24B73B30B634B21030B93134BA32B9 PUSH1 0x89 SHL PUSH1 0x44 DUP3 ADD MSTORE PUSH1 0x64 SWAP1 REVERT JUMPDEST CALLVALUE PUSH3 0x1C5 JUMPI PUSH1 0x0 CALLDATASIZE PUSH1 0x3 NOT ADD SLT PUSH3 0x1C5 JUMPI PUSH1 0x0 SLOAD PUSH1 0x40 MLOAD PUSH1 0x1 PUSH1 0x1 PUSH1 0xA0 SHL SUB SWAP1 SWAP2 AND DUP2 MSTORE PUSH1 0x20 SWAP1 RETURN JUMPDEST CALLVALUE PUSH3 0x1C5 JUMPI PUSH1 0x20 CALLDATASIZE PUSH1 0x3 NOT ADD SLT PUSH3 0x1C5 JUMPI PUSH1 0x4 CALLDATALOAD PUSH1 0x1 PUSH1 0x1 PUSH1 0x40 SHL SUB DUP2 GT PUSH3 0x1C5 JUMPI PUSH3 0xD35 PUSH3 0xD68 SWAP2 CALLDATASIZE SWAP1 PUSH1 0x4 ADD PUSH3 0x15E7 JUMP JUMPDEST PUSH3 0xD3F PUSH3 0x1703 JUMP JUMPDEST DUP1 PUSH1 0x40 MLOAD SWAP3 DUP4 CALLDATACOPY PUSH1 0x2 SWAP1 DUP3 ADD SWAP1 DUP2 MSTORE DUP2 SWAP1 SUB PUSH1 0x20 ADD SWAP1 KECCAK256 SLOAD PUSH1 0x1 PUSH1 0x1 PUSH1 0xA0 SHL SUB AND ISZERO ISZERO PUSH3 0x1BAF JUMP JUMPDEST STOP JUMPDEST CALLVALUE PUSH3 0x1C5 JUMPI PUSH1 0x0 CALLDATASIZE PUSH1 0x3 NOT ADD SLT PUSH3 0x1C5 JUMPI PUSH3 0xD87 PUSH3 0x1703 JUMP JUMPDEST PUSH1 0x0 DUP1 SLOAD PUSH1 0x1 PUSH1 0x1 PUSH1 0xA0 SHL SUB NOT DUP2 AND DUP3 SSTORE PUSH1 0x1 PUSH1 0x1 PUSH1 0xA0 SHL SUB AND PUSH32 0x8BE0079C531659141344CD1FD0A4F28419497F9722A3DAAFE3B4186F6B6457E0 DUP3 DUP1 LOG3 STOP JUMPDEST CALLVALUE PUSH3 0x1C5 JUMPI PUSH1 0x40 CALLDATASIZE PUSH1 0x3 NOT ADD SLT PUSH3 0x1C5 JUMPI PUSH3 0xDE4 PUSH3 0x1673 JUMP JUMPDEST PUSH1 0x24 CALLDATALOAD SWAP1 PUSH1 0x1 DUP1 PUSH1 0xA0 SHL SUB DUP1 SWAP2 AND PUSH1 0x0 MSTORE PUSH1 0x4 PUSH1 0x20 MSTORE PUSH1 0x40 PUSH1 0x0 KECCAK256 DUP1 SLOAD DUP4 LT ISZERO PUSH3 0x1C5 JUMPI PUSH1 0x20 SWAP3 PUSH3 0xE17 SWAP2 PUSH3 0x15CE JUMP JUMPDEST SWAP2 SWAP1 SLOAD PUSH1 0x40 MLOAD SWAP3 PUSH1 0x3 SHL SHR AND DUP2 MSTORE RETURN JUMPDEST CALLVALUE PUSH3 0x1C5 JUMPI PUSH1 0x20 DUP1 PUSH1 0x3 NOT CALLDATASIZE ADD SLT PUSH3 0x1C5 JUMPI PUSH1 0x1 PUSH1 0x1 PUSH1 0xA0 SHL SUB DUP1 PUSH3 0xE4E PUSH3 0x1673 JUMP JUMPDEST AND PUSH1 0x0 MSTORE PUSH1 0x5 DUP3 MSTORE PUSH1 0x40 PUSH1 0x0 KECCAK256 SWAP2 PUSH1 0x40 MLOAD DUP1 SWAP3 DUP3 DUP6 SLOAD SWAP3 DUP4 DUP2 MSTORE ADD SWAP5 PUSH1 0x0 MSTORE DUP3 PUSH1 0x0 KECCAK256 SWAP3 PUSH1 0x0 SWAP2 JUMPDEST DUP4 DUP4 LT PUSH3 0xE91 JUMPI PUSH3 0x442 DUP7 PUSH3 0x435 DUP2 DUP11 SUB DUP3 PUSH3 0x155E JUMP JUMPDEST DUP5 SLOAD DUP2 AND DUP8 MSTORE SWAP6 DUP2 ADD SWAP6 PUSH1 0x1 SWAP5 DUP6 ADD SWAP5 SWAP1 SWAP3 ADD SWAP2 PUSH3 0xE76 JUMP JUMPDEST CALLVALUE PUSH3 0x1C5 JUMPI PUSH1 0x0 CALLDATASIZE PUSH1 0x3 NOT ADD SLT PUSH3 0x1C5 JUMPI PUSH1 0x20 PUSH1 0x3 SLOAD PUSH1 0x40 MLOAD SWAP1 DUP2 MSTORE RETURN JUMPDEST CALLVALUE PUSH3 0x1C5 JUMPI PUSH1 0x40 CALLDATASIZE PUSH1 0x3 NOT ADD SLT PUSH3 0x1C5 JUMPI PUSH3 0xEE8 PUSH3 0x1673 JUMP JUMPDEST PUSH1 0x24 CALLDATALOAD SWAP1 PUSH1 0x1 DUP1 PUSH1 0xA0 SHL SUB DUP1 SWAP2 AND PUSH1 0x0 MSTORE PUSH1 0x5 PUSH1 0x20 MSTORE PUSH1 0x40 PUSH1 0x0 KECCAK256 DUP1 SLOAD DUP4 LT ISZERO PUSH3 0x1C5 JUMPI PUSH1 0x20 SWAP3 PUSH3 0xE17 SWAP2 PUSH3 0x15CE JUMP JUMPDEST CALLVALUE PUSH3 0x1C5 JUMPI PUSH1 0x20 CALLDATASIZE PUSH1 0x3 NOT ADD SLT PUSH3 0x1C5 JUMPI PUSH1 0x1 PUSH1 0x1 PUSH1 0xA0 SHL SUB PUSH3 0xF40 PUSH3 0x1673 JUMP JUMPDEST AND PUSH1 0x0 MSTORE PUSH1 0x5 PUSH1 0x20 MSTORE PUSH1 0x20 PUSH1 0x40 PUSH1 0x0 KECCAK256 SLOAD PUSH1 0x40 MLOAD SWAP1 DUP2 MSTORE RETURN JUMPDEST CALLVALUE PUSH3 0x1C5 JUMPI PUSH1 0x20 CALLDATASIZE PUSH1 0x3 NOT ADD SLT PUSH3 0x1C5 JUMPI PUSH1 0x4 CALLDATALOAD PUSH1 0x1 PUSH1 0x1 PUSH1 0x40 SHL SUB DUP2 GT PUSH3 0x1C5 JUMPI PUSH3 0xF90 PUSH1 0x20 SWAP2 CALLDATASIZE SWAP1 PUSH1 0x4 ADD PUSH3 0x15E7 JUMP JUMPDEST DUP1 PUSH1 0x40 MLOAD SWAP3 DUP4 CALLDATACOPY PUSH1 0x2 SWAP1 DUP3 ADD SWAP1 DUP2 MSTORE DUP2 SWAP1 SUB DUP3 ADD SWAP1 KECCAK256 SLOAD PUSH1 0x40 MLOAD PUSH1 0x1 PUSH1 0x1 PUSH1 0xA0 SHL SUB SWAP1 SWAP2 AND ISZERO ISZERO DUP2 MSTORE RETURN JUMPDEST CALLVALUE PUSH3 0x1C5 JUMPI PUSH2 0x180 CALLDATASIZE PUSH1 0x3 NOT ADD SLT PUSH3 0x1C5 JUMPI PUSH1 0x4 CALLDATALOAD PUSH1 0x1 PUSH1 0x1 PUSH1 0x40 SHL SUB DUP2 GT PUSH3 0x1C5 JUMPI PUSH3 0xFF1 SWAP1 CALLDATASIZE SWAP1 PUSH1 0x4 ADD PUSH3 0x15E7 JUMP JUMPDEST SWAP1 PUSH1 0x24 CALLDATALOAD PUSH1 0x1 PUSH1 0x1 PUSH1 0x40 SHL SUB DUP2 GT PUSH3 0x1C5 JUMPI PUSH3 0x1014 SWAP1 CALLDATASIZE SWAP1 PUSH1 0x4 ADD PUSH3 0x15E7 JUMP JUMPDEST SWAP1 SWAP2 PUSH3 0x1020 PUSH3 0x1617 JUMP JUMPDEST SWAP3 PUSH3 0x102B PUSH3 0x162E JUMP JUMPDEST SWAP5 PUSH3 0x1036 PUSH3 0x1645 JUMP JUMPDEST PUSH3 0x1040 PUSH3 0x165C JUMP JUMPDEST SWAP4 PUSH2 0x104 CALLDATALOAD PUSH1 0x1 PUSH1 0x1 PUSH1 0x40 SHL SUB DUP2 GT PUSH3 0x1C5 JUMPI PUSH3 0x1064 SWAP1 CALLDATASIZE SWAP1 PUSH1 0x4 ADD PUSH3 0x168A JUMP JUMPDEST SWAP1 SWAP7 PUSH2 0x124 CALLDATALOAD PUSH1 0x1 PUSH1 0x1 PUSH1 0x40 SHL SUB DUP2 GT PUSH3 0x1C5 JUMPI PUSH3 0x1089 SWAP1 CALLDATASIZE SWAP1 PUSH1 0x4 ADD PUSH3 0x168A JUMP JUMPDEST SWAP4 SWAP1 SWAP8 PUSH2 0x144 CALLDATALOAD PUSH1 0x1 PUSH1 0x1 PUSH1 0x40 SHL SUB DUP2 GT PUSH3 0x1C5 JUMPI PUSH3 0x10AF SWAP1 CALLDATASIZE SWAP1 PUSH1 0x4 ADD PUSH3 0x168A JUMP JUMPDEST SWAP7 SWAP1 SWAP9 PUSH1 0x1 PUSH1 0x1 PUSH1 0x40 SHL SUB PUSH2 0x164 CALLDATALOAD GT PUSH3 0x1C5 JUMPI PUSH3 0x10D6 CALLDATASIZE PUSH1 0x4 PUSH2 0x164 CALLDATALOAD ADD PUSH3 0x168A JUMP JUMPDEST SWAP10 SWAP1 SWAP15 PUSH3 0x10E3 PUSH3 0x1730 JUMP JUMPDEST PUSH3 0x10F0 DUP9 DUP11 EQ PUSH3 0x1754 JUMP JUMPDEST PUSH3 0x10FD DUP9 DUP12 EQ PUSH3 0x1754 JUMP JUMPDEST PUSH3 0x110A DUP9 DUP13 EQ PUSH3 0x1754 JUMP JUMPDEST PUSH1 0x40 MLOAD PUSH4 0x2E1DBA99 PUSH1 0xE2 SHL DUP2 MSTORE SWAP15 DUP16 SWAP8 PUSH3 0x1133 SWAP8 PUSH1 0xA4 CALLDATALOAD SWAP6 PUSH1 0x84 CALLDATALOAD SWAP6 SWAP1 SWAP2 PUSH1 0x4 DUP13 ADD PUSH3 0x17D5 JUMP JUMPDEST SUB DUP9 ADDRESS SWAP2 DUP2 GAS PUSH1 0x20 SWAP5 PUSH1 0x0 SWAP2 CALL SWAP8 DUP9 ISZERO PUSH3 0xAD9 JUMPI PUSH1 0x0 SWAP9 PUSH3 0x1268 JUMPI JUMPDEST POP PUSH1 0x0 JUMPDEST DUP2 DUP2 LT PUSH3 0x1175 JUMPI PUSH1 0x1 DUP1 SSTORE PUSH1 0x40 MLOAD PUSH1 0x1 PUSH1 0x1 PUSH1 0xA0 SHL SUB DUP11 AND DUP2 MSTORE PUSH1 0x20 SWAP1 RETURN JUMPDEST DUP1 DUP8 DUP8 PUSH3 0x11B5 DUP4 DUP10 DUP16 SWAP7 DUP1 DUP16 PUSH3 0x11AD DUP3 DUP14 DUP16 SWAP4 PUSH3 0x11A0 DUP16 SWAP8 PUSH3 0x11AD SWAP9 PUSH3 0x11A6 SWAP4 PUSH3 0x1848 JUMP JUMPDEST PUSH3 0x1859 JUMP JUMPDEST SWAP11 PUSH3 0x1848 JUMP JUMPDEST CALLDATALOAD SWAP7 PUSH3 0x1848 JUMP JUMPDEST CALLDATALOAD DUP1 ISZERO ISZERO DUP2 SUB PUSH3 0x1C5 JUMPI PUSH1 0x1 PUSH1 0x1 PUSH1 0xA0 SHL SUB DUP14 AND EXTCODESIZE ISZERO PUSH3 0x1C5 JUMPI PUSH1 0x40 MLOAD PUSH4 0x3F0F17ED PUSH1 0xE0 SHL DUP2 MSTORE PUSH1 0x1 PUSH1 0x1 PUSH1 0xA0 SHL SUB SWAP4 DUP5 AND PUSH1 0x4 DUP3 ADD MSTORE PUSH1 0x24 DUP2 ADD SWAP3 SWAP1 SWAP3 MSTORE PUSH1 0x44 DUP3 ADD SWAP5 SWAP1 SWAP5 MSTORE SWAP3 ISZERO ISZERO PUSH1 0x64 DUP5 ADD MSTORE PUSH1 0x0 SWAP1 DUP4 SWAP1 PUSH1 0x84 SWAP1 DUP3 SWAP1 DUP5 SWAP1 DUP16 AND GAS CALL DUP1 ISZERO PUSH3 0xAD9 JUMPI PUSH3 0x1235 JUMPI JUMPDEST PUSH3 0x122F SWAP2 POP PUSH3 0x1838 JUMP JUMPDEST PUSH3 0x1155 JUMP JUMPDEST PUSH1 0x1 PUSH1 0x1 PUSH1 0x40 SHL SUB DUP3 GT PUSH3 0x1252 JUMPI PUSH3 0x122F SWAP2 PUSH1 0x40 MSTORE PUSH3 0x1223 JUMP JUMPDEST PUSH4 0x4E487B71 PUSH1 0xE0 SHL PUSH1 0x0 MSTORE PUSH1 0x41 PUSH1 0x4 MSTORE PUSH1 0x24 PUSH1 0x0 REVERT JUMPDEST PUSH3 0x1285 SWAP2 SWAP9 POP PUSH1 0x20 RETURNDATASIZE DUP2 GT PUSH3 0xBF6 JUMPI PUSH3 0xBE5 DUP2 DUP4 PUSH3 0x155E JUMP JUMPDEST SWAP7 DUP10 PUSH3 0x1151 JUMP JUMPDEST CALLVALUE PUSH3 0x1C5 JUMPI PUSH1 0x0 CALLDATASIZE PUSH1 0x3 NOT ADD SLT PUSH3 0x1C5 JUMPI PUSH1 0x20 PUSH1 0x7 SLOAD PUSH1 0x40 MLOAD SWAP1 DUP2 MSTORE RETURN JUMPDEST CALLVALUE PUSH3 0x1C5 JUMPI PUSH1 0x20 CALLDATASIZE PUSH1 0x3 NOT ADD SLT PUSH3 0x1C5 JUMPI PUSH1 0x4 CALLDATALOAD PUSH1 0x3 SLOAD DUP2 LT ISZERO PUSH3 0x1C5 JUMPI PUSH3 0x2C6 PUSH1 0x20 SWAP2 PUSH3 0x1580 JUMP JUMPDEST CALLVALUE PUSH3 0x1C5 JUMPI PUSH1 0x0 CALLDATASIZE PUSH1 0x3 NOT ADD SLT PUSH3 0x1C5 JUMPI PUSH1 0x3 DUP1 SLOAD PUSH1 0x0 SWAP2 PUSH1 0x0 DUP1 SWAP2 PUSH1 0x0 JUMPDEST DUP5 DUP2 LT PUSH3 0x1320 JUMPI POP POP PUSH1 0x80 SWAP4 PUSH1 0x40 MLOAD SWAP4 DUP5 MSTORE PUSH1 0x20 DUP5 ADD MSTORE PUSH1 0x40 DUP4 ADD MSTORE PUSH1 0x60 DUP3 ADD MSTORE RETURN JUMPDEST PUSH3 0x132B DUP2 PUSH3 0x1580 JUMP JUMPDEST SWAP1 SLOAD PUSH1 0x40 MLOAD PUSH4 0x1A39D8EF PUSH1 0xE0 SHL DUP2 MSTORE SWAP2 DUP5 SHL SHR PUSH1 0x1 PUSH1 0x1 PUSH1 0xA0 SHL SUB AND SWAP7 PUSH1 0x20 SWAP2 DUP3 DUP2 PUSH1 0x4 DUP2 DUP13 GAS STATICCALL SWAP1 DUP2 ISZERO PUSH3 0xAD9 JUMPI PUSH1 0x0 SWAP2 PUSH3 0x146A JUMPI JUMPDEST POP DUP2 ADD DUP1 SWAP2 GT PUSH3 0x1454 JUMPI SWAP7 PUSH1 0x40 MLOAD PUSH4 0x3E8E4719 PUSH1 0xE2 SHL DUP2 MSTORE DUP3 DUP2 PUSH1 0x4 DUP2 DUP6 GAS STATICCALL SWAP1 DUP2 ISZERO PUSH3 0xAD9 JUMPI PUSH1 0x0 SWAP2 PUSH3 0x1432 JUMPI JUMPDEST POP PUSH3 0x1419 JUMPI JUMPDEST DUP2 PUSH1 0x4 SWAP2 PUSH1 0x40 MLOAD SWAP3 DUP4 DUP1 SWAP3 PUSH4 0x19AB94F PUSH1 0xE1 SHL DUP3 MSTORE GAS STATICCALL SWAP2 DUP3 ISZERO PUSH3 0xAD9 JUMPI PUSH1 0x0 SWAP3 PUSH3 0x13F7 JUMPI JUMPDEST POP POP PUSH3 0x13DE JUMPI JUMPDEST PUSH3 0x13D8 SWAP1 PUSH3 0x1838 JUMP JUMPDEST PUSH3 0x12FC JUMP JUMPDEST SWAP3 PUSH3 0x13EE PUSH3 0x13D8 SWAP2 PUSH3 0x1838 JUMP JUMPDEST SWAP4 SWAP1 POP PUSH3 0x13CD JUMP JUMPDEST PUSH3 0x1411 SWAP3 POP DUP1 RETURNDATASIZE LT PUSH3 0xAD1 JUMPI PUSH3 0xAC0 DUP2 DUP4 PUSH3 0x155E JUMP JUMPDEST DUP8 DUP1 PUSH3 0x13C5 JUMP JUMPDEST SWAP4 DUP2 PUSH3 0x1428 PUSH1 0x4 SWAP3 PUSH3 0x1838 JUMP JUMPDEST SWAP6 SWAP2 POP POP PUSH3 0x139D JUMP JUMPDEST PUSH3 0x144D SWAP2 POP DUP4 RETURNDATASIZE DUP6 GT PUSH3 0xAD1 JUMPI PUSH3 0xAC0 DUP2 DUP4 PUSH3 0x155E JUMP JUMPDEST DUP10 PUSH3 0x1396 JUMP JUMPDEST PUSH4 0x4E487B71 PUSH1 0xE0 SHL PUSH1 0x0 MSTORE PUSH1 0x11 PUSH1 0x4 MSTORE PUSH1 0x24 PUSH1 0x0 REVERT JUMPDEST SWAP1 POP DUP3 DUP2 DUP2 RETURNDATASIZE DUP4 GT PUSH3 0x1495 JUMPI JUMPDEST PUSH3 0x1484 DUP2 DUP4 PUSH3 0x155E JUMP JUMPDEST DUP2 ADD SUB SLT PUSH3 0x1C5 JUMPI MLOAD DUP10 PUSH3 0x1364 JUMP JUMPDEST POP RETURNDATASIZE PUSH3 0x1478 JUMP JUMPDEST CALLVALUE PUSH3 0x1C5 JUMPI PUSH1 0x20 SWAP1 DUP2 PUSH1 0x3 NOT CALLDATASIZE ADD SLT PUSH3 0x1C5 JUMPI PUSH1 0x1 PUSH1 0x1 PUSH1 0x40 SHL SUB PUSH1 0x4 CALLDATALOAD DUP2 DUP2 GT PUSH3 0x1C5 JUMPI CALLDATASIZE PUSH1 0x23 DUP3 ADD SLT ISZERO PUSH3 0x1C5 JUMPI DUP1 PUSH1 0x4 ADD CALLDATALOAD SWAP2 DUP3 GT PUSH3 0x1252 JUMPI PUSH3 0x14F3 PUSH1 0x1F DUP4 ADD PUSH1 0x1F NOT AND DUP6 ADD DUP5 PUSH3 0x155E JUMP JUMPDEST DUP2 DUP4 MSTORE CALLDATASIZE PUSH1 0x24 DUP4 DUP4 ADD ADD GT PUSH3 0x1C5 JUMPI DUP2 PUSH1 0x0 SWAP3 PUSH1 0x24 DUP7 SWAP4 ADD DUP4 DUP7 ADD CALLDATACOPY DUP4 ADD ADD MSTORE PUSH1 0x40 MLOAD SWAP1 DUP1 MLOAD SWAP1 DUP4 PUSH1 0x0 JUMPDEST DUP4 DUP2 LT PUSH3 0x154C JUMPI POP POP PUSH1 0x2 SWAP2 DUP4 ADD SWAP2 DUP3 MSTORE POP DUP2 SWAP1 SUB DUP3 ADD SWAP1 KECCAK256 SLOAD PUSH1 0x40 MLOAD PUSH1 0x1 PUSH1 0x1 PUSH1 0xA0 SHL SUB SWAP1 SWAP2 AND DUP2 MSTORE RETURN JUMPDEST DUP3 DUP2 ADD DUP3 ADD MLOAD DUP6 DUP3 ADD MSTORE DUP2 ADD PUSH3 0x151F JUMP JUMPDEST SWAP1 PUSH1 0x1F DUP1 NOT SWAP2 ADD AND DUP2 ADD SWAP1 DUP2 LT PUSH1 0x1 PUSH1 0x1 PUSH1 0x40 SHL SUB DUP3 GT OR PUSH3 0x1252 JUMPI PUSH1 0x40 MSTORE JUMP JUMPDEST PUSH1 0x3 SLOAD DUP2 LT ISZERO PUSH3 0x15B8 JUMPI PUSH1 0x3 PUSH1 0x0 MSTORE PUSH32 0xC2575A0E9E593C00F959F8C92F12DB2869C3395A3B0502D05E2516446F71F85B ADD SWAP1 PUSH1 0x0 SWAP1 JUMP JUMPDEST PUSH4 0x4E487B71 PUSH1 0xE0 SHL PUSH1 0x0 MSTORE PUSH1 0x32 PUSH1 0x4 MSTORE PUSH1 0x24 PUSH1 0x0 REVERT JUMPDEST DUP1 SLOAD DUP3 LT ISZERO PUSH3 0x15B8 JUMPI PUSH1 0x0 MSTORE PUSH1 0x20 PUSH1 0x0 KECCAK256 ADD SWAP1 PUSH1 0x0 SWAP1 JUMP JUMPDEST SWAP2 DUP2 PUSH1 0x1F DUP5 ADD SLT ISZERO PUSH3 0x1C5 JUMPI DUP3 CALLDATALOAD SWAP2 PUSH1 0x1 PUSH1 0x1 PUSH1 0x40 SHL SUB DUP4 GT PUSH3 0x1C5 JUMPI PUSH1 0x20 DUP4 DUP2 DUP7 ADD SWAP6 ADD ADD GT PUSH3 0x1C5 JUMPI JUMP JUMPDEST PUSH1 0x44 CALLDATALOAD SWAP1 PUSH1 0x1 PUSH1 0x1 PUSH1 0xA0 SHL SUB DUP3 AND DUP3 SUB PUSH3 0x1C5 JUMPI JUMP JUMPDEST PUSH1 0x64 CALLDATALOAD SWAP1 PUSH1 0x1 PUSH1 0x1 PUSH1 0xA0 SHL SUB DUP3 AND DUP3 SUB PUSH3 0x1C5 JUMPI JUMP JUMPDEST PUSH1 0xC4 CALLDATALOAD SWAP1 PUSH1 0x1 PUSH1 0x1 PUSH1 0xA0 SHL SUB DUP3 AND DUP3 SUB PUSH3 0x1C5 JUMPI JUMP JUMPDEST PUSH1 0xE4 CALLDATALOAD SWAP1 PUSH1 0x1 PUSH1 0x1 PUSH1 0xA0 SHL SUB DUP3 AND DUP3 SUB PUSH3 0x1C5 JUMPI JUMP JUMPDEST PUSH1 0x4 CALLDATALOAD SWAP1 PUSH1 0x1 PUSH1 0x1 PUSH1 0xA0 SHL SUB DUP3 AND DUP3 SUB PUSH3 0x1C5 JUMPI JUMP JUMPDEST SWAP2 DUP2 PUSH1 0x1F DUP5 ADD SLT ISZERO PUSH3 0x1C5 JUMPI DUP3 CALLDATALOAD SWAP2 PUSH1 0x1 PUSH1 0x1 PUSH1 0x40 SHL SUB DUP4 GT PUSH3 0x1C5 JUMPI PUSH1 0x20 DUP1 DUP6 ADD SWAP5 DUP5 PUSH1 0x5 SHL ADD ADD GT PUSH3 0x1C5 JUMPI JUMP JUMPDEST PUSH1 0x20 SWAP1 DUP2 PUSH1 0x40 DUP2 DUP4 ADD SWAP3 DUP3 DUP2 MSTORE DUP6 MLOAD DUP1 SWAP5 MSTORE ADD SWAP4 ADD SWAP2 PUSH1 0x0 JUMPDEST DUP3 DUP2 LT PUSH3 0x16E5 JUMPI POP POP POP POP SWAP1 JUMP JUMPDEST DUP4 MLOAD PUSH1 0x1 PUSH1 0x1 PUSH1 0xA0 SHL SUB AND DUP6 MSTORE SWAP4 DUP2 ADD SWAP4 SWAP3 DUP2 ADD SWAP3 PUSH1 0x1 ADD PUSH3 0x16D6 JUMP JUMPDEST PUSH1 0x0 SLOAD PUSH1 0x1 PUSH1 0x1 PUSH1 0xA0 SHL SUB AND CALLER SUB PUSH3 0x1718 JUMPI JUMP JUMPDEST PUSH1 0x40 MLOAD PUSH4 0x118CDAA7 PUSH1 0xE0 SHL DUP2 MSTORE CALLER PUSH1 0x4 DUP3 ADD MSTORE PUSH1 0x24 SWAP1 REVERT JUMPDEST PUSH1 0x2 PUSH1 0x1 SLOAD EQ PUSH3 0x1742 JUMPI PUSH1 0x2 PUSH1 0x1 SSTORE JUMP JUMPDEST PUSH1 0x40 MLOAD PUSH4 0x3EE5AEB5 PUSH1 0xE0 SHL DUP2 MSTORE PUSH1 0x4 SWAP1 REVERT JUMPDEST ISZERO PUSH3 0x175C JUMPI JUMP JUMPDEST PUSH1 0x40 MLOAD PUSH3 0x461BCD PUSH1 0xE5 SHL DUP2 MSTORE PUSH1 0x20 PUSH1 0x4 DUP3 ADD MSTORE PUSH1 0xF PUSH1 0x24 DUP3 ADD MSTORE PUSH15 0x98CADCCEE8D040DAD2E6DAC2E8C6D PUSH1 0x8B SHL PUSH1 0x44 DUP3 ADD MSTORE PUSH1 0x64 SWAP1 REVERT JUMPDEST SWAP1 DUP2 PUSH1 0x20 SWAP2 SUB SLT PUSH3 0x1C5 JUMPI MLOAD PUSH1 0x1 PUSH1 0x1 PUSH1 0xA0 SHL SUB DUP2 AND DUP2 SUB PUSH3 0x1C5 JUMPI SWAP1 JUMP JUMPDEST SWAP1 DUP1 PUSH1 0x20 SWAP4 SWAP3 DUP2 DUP5 MSTORE DUP5 DUP5 ADD CALLDATACOPY PUSH1 0x0 DUP3 DUP3 ADD DUP5 ADD MSTORE PUSH1 0x1F ADD PUSH1 0x1F NOT AND ADD ADD SWAP1 JUMP JUMPDEST SWAP9 SWAP4 PUSH3 0x17FA PUSH1 0xE0 SWAP10 SWAP5 SWAP3 PUSH3 0x1809 SWAP5 SWAP14 SWAP13 SWAP9 SWAP10 SWAP14 DUP13 PUSH2 0x100 DUP1 SWAP2 MSTORE DUP14 ADD SWAP2 PUSH3 0x17B4 JUMP JUMPDEST SWAP2 DUP11 DUP4 SUB PUSH1 0x20 DUP13 ADD MSTORE PUSH3 0x17B4 JUMP JUMPDEST SWAP9 PUSH1 0x1 DUP1 PUSH1 0xA0 SHL SUB DUP1 SWAP7 DUP2 DUP1 SWAP7 AND PUSH1 0x40 DUP12 ADD MSTORE AND PUSH1 0x60 DUP10 ADD MSTORE PUSH1 0x80 DUP9 ADD MSTORE PUSH1 0xA0 DUP8 ADD MSTORE AND PUSH1 0xC0 DUP6 ADD MSTORE AND SWAP2 ADD MSTORE JUMP JUMPDEST PUSH1 0x0 NOT DUP2 EQ PUSH3 0x1454 JUMPI PUSH1 0x1 ADD SWAP1 JUMP JUMPDEST SWAP2 SWAP1 DUP2 LT ISZERO PUSH3 0x15B8 JUMPI PUSH1 0x5 SHL ADD SWAP1 JUMP JUMPDEST CALLDATALOAD PUSH1 0x1 PUSH1 0x1 PUSH1 0xA0 SHL SUB DUP2 AND DUP2 SUB PUSH3 0x1C5 JUMPI SWAP1 JUMP JUMPDEST PUSH1 0x1 PUSH1 0x1 PUSH1 0x40 SHL SUB DUP2 GT PUSH3 0x1252 JUMPI PUSH1 0x5 SHL PUSH1 0x20 ADD SWAP1 JUMP JUMPDEST SWAP2 SWAP1 DUP2 LT ISZERO PUSH3 0x15B8 JUMPI PUSH1 0x5 SHL DUP2 ADD CALLDATALOAD SWAP1 PUSH1 0x1E NOT DUP2 CALLDATASIZE SUB ADD DUP3 SLT ISZERO PUSH3 0x1C5 JUMPI ADD SWAP1 DUP2 CALLDATALOAD SWAP2 PUSH1 0x1 PUSH1 0x1 PUSH1 0x40 SHL SUB DUP4 GT PUSH3 0x1C5 JUMPI PUSH1 0x20 ADD DUP3 CALLDATASIZE SUB DUP2 SGT PUSH3 0x1C5 JUMPI SWAP2 SWAP1 JUMP JUMPDEST DUP1 SLOAD PUSH1 0x1 PUSH1 0x40 SHL DUP2 LT ISZERO PUSH3 0x1252 JUMPI PUSH3 0x18EB SWAP2 PUSH1 0x1 DUP3 ADD DUP2 SSTORE PUSH3 0x15CE JUMP JUMPDEST DUP2 SWAP3 SWAP2 SLOAD SWAP1 PUSH1 0x3 SHL SWAP2 PUSH1 0x1 DUP1 PUSH1 0xA0 SHL SUB DUP1 SWAP2 AND DUP4 SHL SWAP3 SHL NOT AND OR SWAP1 SSTORE JUMP JUMPDEST SWAP2 SWAP8 SWAP7 SWAP8 SWAP6 SWAP4 SWAP5 SWAP1 SWAP3 SWAP6 DUP4 ISZERO PUSH3 0x1B75 JUMPI PUSH1 0x40 SWAP7 DUP8 MLOAD SWAP11 DUP12 SWAP10 DUP7 DUP7 DUP13 CALLDATACOPY DUP7 DUP12 ADD PUSH1 0x2 DUP2 MSTORE PUSH1 0x1 DUP1 PUSH1 0xA0 SHL SUB SWAP14 DUP15 SWAP2 PUSH1 0x20 SWAP14 DUP15 SWAP2 SUB ADD SWAP1 KECCAK256 SLOAD AND PUSH3 0x1B38 JUMPI DUP13 DUP10 AND SWAP12 DUP13 ISZERO PUSH3 0x1B03 JUMPI DUP14 DUP7 AND SWAP10 DUP11 ISZERO PUSH3 0x1ACF JUMPI DUP10 ISZERO PUSH3 0x1A96 JUMPI DUP12 MLOAD SWAP7 PUSH2 0x2A77 SWAP2 DUP3 DUP10 ADD SWAP7 DUP10 DUP9 LT PUSH1 0x1 PUSH1 0x1 PUSH1 0x40 SHL SUB DUP10 GT OR PUSH3 0x1252 JUMPI DUP10 SWAP9 DUP13 DUP13 DUP16 SWAP7 SWAP11 PUSH3 0x199B SWAP12 DUP14 PUSH3 0x1C0A SWAP1 CODECOPY PUSH3 0x17D5 JUMP JUMPDEST SUB PUSH1 0x0 SWAP2 DUP3 CREATE DUP1 ISZERO PUSH3 0x1A8A JUMPI DUP10 AND SWAP9 DUP7 MLOAD DUP5 DUP5 DUP3 CALLDATACOPY DUP9 DUP2 DUP7 DUP2 ADD PUSH1 0x2 DUP2 MSTORE SUB ADD SWAP1 KECCAK256 DUP11 PUSH1 0x1 PUSH1 0x1 PUSH1 0x60 SHL SUB PUSH1 0xA0 SHL DUP3 SLOAD AND OR SWAP1 SSTORE PUSH1 0x3 SLOAD PUSH1 0x1 PUSH1 0x40 SHL DUP2 LT ISZERO PUSH3 0x1A76 JUMPI SWAP2 DUP11 SWAP9 SWAP8 SWAP6 SWAP4 SWAP2 PUSH3 0x1A1C DUP5 PUSH1 0x1 PUSH32 0xDF608C80D9FF06F42900F34AFA5A743A7894040D1CEBEE05F04BB64A63C620FC SWAP11 SWAP9 SWAP7 ADD PUSH1 0x3 SSTORE PUSH3 0x1580 JUMP JUMPDEST DUP2 SWAP3 SWAP2 SLOAD SWAP1 PUSH1 0x3 SHL SWAP2 DUP13 DUP4 SHL SWAP3 SHL NOT AND OR SWAP1 SSTORE DUP10 DUP2 MSTORE PUSH1 0x4 DUP9 MSTORE PUSH3 0x1A44 DUP10 DUP8 DUP4 KECCAK256 PUSH3 0x18CB JUMP JUMPDEST DUP5 DUP2 MSTORE PUSH1 0x5 DUP9 MSTORE PUSH3 0x1A59 DUP10 DUP8 DUP4 KECCAK256 PUSH3 0x18CB JUMP JUMPDEST DUP3 DUP7 MLOAD SWAP4 DUP5 SWAP4 DUP5 CALLDATACOPY DUP3 ADD SWAP1 DUP2 MSTORE SUB SWAP1 KECCAK256 SWAP5 DUP4 MLOAD SWAP3 DUP4 MSTORE DUP3 ADD MSTORE LOG4 SWAP1 JUMP JUMPDEST PUSH4 0x4E487B71 PUSH1 0xE0 SHL DUP4 MSTORE PUSH1 0x41 PUSH1 0x4 MSTORE PUSH1 0x24 DUP4 REVERT JUMPDEST POP DUP6 MLOAD SWAP1 RETURNDATASIZE SWAP1 DUP3 RETURNDATACOPY RETURNDATASIZE SWAP1 REVERT JUMPDEST DUP12 MLOAD PUSH3 0x461BCD PUSH1 0xE5 SHL DUP2 MSTORE PUSH1 0x4 DUP2 ADD DUP15 SWAP1 MSTORE PUSH1 0x12 PUSH1 0x24 DUP3 ADD MSTORE PUSH18 0x416D6F756E74206D757374206265203E203 PUSH1 0x74 SHL PUSH1 0x44 DUP3 ADD MSTORE PUSH1 0x64 SWAP1 REVERT JUMPDEST DUP12 MLOAD PUSH3 0x461BCD PUSH1 0xE5 SHL DUP2 MSTORE PUSH1 0x4 DUP2 ADD DUP15 SWAP1 MSTORE PUSH1 0xD PUSH1 0x24 DUP3 ADD MSTORE PUSH13 0x24B73B30B634B210313ABCB2B9 PUSH1 0x99 SHL PUSH1 0x44 DUP3 ADD MSTORE PUSH1 0x64 SWAP1 REVERT JUMPDEST DUP11 MLOAD PUSH3 0x461BCD PUSH1 0xE5 SHL DUP2 MSTORE PUSH1 0x4 DUP2 ADD DUP14 SWAP1 MSTORE PUSH1 0xE PUSH1 0x24 DUP3 ADD MSTORE PUSH14 0x24B73B30B634B21039B2B63632B9 PUSH1 0x91 SHL PUSH1 0x44 DUP3 ADD MSTORE PUSH1 0x64 SWAP1 REVERT JUMPDEST DUP10 MLOAD PUSH3 0x461BCD PUSH1 0xE5 SHL DUP2 MSTORE PUSH1 0x4 DUP2 ADD DUP13 SWAP1 MSTORE PUSH1 0x16 PUSH1 0x24 DUP3 ADD MSTORE PUSH22 0x496E766F69636520616C726561647920657869737473 PUSH1 0x50 SHL PUSH1 0x44 DUP3 ADD MSTORE PUSH1 0x64 SWAP1 REVERT JUMPDEST PUSH1 0x40 MLOAD PUSH3 0x461BCD PUSH1 0xE5 SHL DUP2 MSTORE PUSH1 0x20 PUSH1 0x4 DUP3 ADD MSTORE PUSH1 0x12 PUSH1 0x24 DUP3 ADD MSTORE PUSH18 0x125B9D985B1A59081A5B9D9BDA58D9481251 PUSH1 0x72 SHL PUSH1 0x44 DUP3 ADD MSTORE PUSH1 0x64 SWAP1 REVERT JUMPDEST ISZERO PUSH3 0x1BB7 JUMPI JUMP JUMPDEST PUSH1 0x40 MLOAD PUSH3 0x461BCD PUSH1 0xE5 SHL DUP2 MSTORE PUSH1 0x20 PUSH1 0x4 DUP3 ADD MSTORE PUSH1 0x10 PUSH1 0x24 DUP3 ADD MSTORE PUSH16 0x115CD8DC9BDDC81B9BDD08199BDD5B99 PUSH1 0x82 SHL PUSH1 0x44 DUP3 ADD MSTORE PUSH1 0x64 SWAP1 REVERT JUMPDEST SWAP1 DUP2 PUSH1 0x20 SWAP2 SUB SLT PUSH3 0x1C5 JUMPI MLOAD DUP1 ISZERO ISZERO DUP2 SUB PUSH3 0x1C5 JUMPI SWAP1 JUMP INVALID PUSH1 0x80 PUSH1 0x40 SWAP1 DUP1 DUP3 MSTORE CALLVALUE PUSH3 0x323 JUMPI PUSH3 0x2A77 DUP1 CODESIZE SUB DUP1 SWAP2 PUSH3 0x22 DUP3 DUP6 PUSH3 0x692 JUMP JUMPDEST DUP4 CODECOPY DUP2 ADD SWAP1 PUSH2 0x100 DUP2 DUP4 SUB SLT PUSH3 0x323 JUMPI DUP1 MLOAD PUSH1 0x1 PUSH1 0x1 PUSH1 0x40 SHL SUB DUP2 GT PUSH3 0x323 JUMPI DUP3 PUSH3 0x52 SWAP2 DUP4 ADD PUSH3 0x6B6 JUMP JUMPDEST PUSH1 0x20 DUP3 ADD MLOAD SWAP1 SWAP3 PUSH1 0x1 PUSH1 0x1 PUSH1 0x40 SHL SUB DUP3 GT PUSH3 0x323 JUMPI PUSH3 0x75 SWAP2 DUP4 ADD PUSH3 0x6B6 JUMP JUMPDEST PUSH3 0x82 DUP5 DUP4 ADD PUSH3 0x72D JUMP JUMPDEST PUSH3 0x90 PUSH1 0x60 DUP5 ADD PUSH3 0x72D JUMP JUMPDEST PUSH1 0x80 DUP5 ADD MLOAD SWAP2 PUSH1 0xA0 DUP6 ADD MLOAD SWAP4 PUSH3 0xB8 PUSH1 0xE0 PUSH3 0xB0 PUSH1 0xC0 DUP10 ADD PUSH3 0x72D JUMP JUMPDEST SWAP8 ADD PUSH3 0x72D JUMP JUMPDEST SWAP7 CALLER ISZERO PUSH3 0x67A JUMPI PUSH1 0x0 DUP1 SLOAD CALLER PUSH1 0x1 PUSH1 0x1 PUSH1 0xA0 SHL SUB NOT DUP3 AND DUP2 OR DUP4 SSTORE DUP12 MLOAD SWAP3 SWAP1 SWAP2 PUSH1 0x1 PUSH1 0x1 PUSH1 0xA0 SHL SUB AND SWAP1 PUSH32 0x8BE0079C531659141344CD1FD0A4F28419497F9722A3DAAFE3B4186F6B6457E0 SWAP1 DUP1 LOG3 PUSH1 0x1 DUP1 SSTORE PUSH1 0x1 PUSH1 0x1 PUSH1 0xA0 SHL SUB DUP5 AND ISZERO PUSH3 0x647 JUMPI POP PUSH1 0x1 PUSH1 0x1 PUSH1 0xA0 SHL SUB DUP5 AND ISZERO PUSH3 0x613 JUMPI DUP5 ISZERO PUSH3 0x5DA JUMPI TIMESTAMP DUP7 GT ISZERO PUSH3 0x596 JUMPI DUP1 MLOAD SWAP1 PUSH1 0x1 PUSH1 0x1 PUSH1 0x40 SHL SUB DUP3 GT PUSH3 0x48A JUMPI PUSH1 0x2 SLOAD SWAP1 PUSH1 0x1 DUP3 DUP2 SHR SWAP3 AND DUP1 ISZERO PUSH3 0x58B JUMPI JUMPDEST PUSH1 0x20 DUP4 LT EQ PUSH3 0x469 JUMPI DUP2 PUSH1 0x1F DUP5 SWAP4 GT PUSH3 0x52A JUMPI JUMPDEST POP PUSH1 0x20 SWAP1 PUSH1 0x1F DUP4 GT PUSH1 0x1 EQ PUSH3 0x4AC JUMPI PUSH1 0x0 SWAP3 PUSH3 0x4A0 JUMPI JUMPDEST POP POP DUP2 PUSH1 0x1 SHL SWAP2 PUSH1 0x0 NOT SWAP1 PUSH1 0x3 SHL SHR NOT AND OR PUSH1 0x2 SSTORE JUMPDEST DUP1 MLOAD SWAP1 PUSH1 0x1 PUSH1 0x1 PUSH1 0x40 SHL SUB DUP3 GT PUSH3 0x48A JUMPI PUSH1 0x3 SLOAD SWAP1 PUSH1 0x1 DUP3 DUP2 SHR SWAP3 AND DUP1 ISZERO PUSH3 0x47F JUMPI JUMPDEST PUSH1 0x20 DUP4 LT EQ PUSH3 0x469 JUMPI DUP2 PUSH1 0x1F DUP5 SWAP4 GT PUSH3 0x3F7 JUMPI JUMPDEST POP PUSH1 0x20 SWAP1 PUSH1 0x1F DUP4 GT PUSH1 0x1 EQ PUSH3 0x368 JUMPI PUSH1 0x0 SWAP3 PUSH3 0x35C JUMPI JUMPDEST POP POP DUP2 PUSH1 0x1 SHL SWAP2 PUSH1 0x0 NOT SWAP1 PUSH1 0x3 SHL SHR NOT AND OR PUSH1 0x3 SSTORE JUMPDEST PUSH1 0x4 DUP1 SLOAD PUSH1 0x1 PUSH1 0x1 PUSH1 0xA0 SHL SUB NOT SWAP1 DUP2 AND PUSH1 0x1 PUSH1 0x1 PUSH1 0xA0 SHL SUB SWAP4 DUP5 AND OR SWAP1 SWAP2 SSTORE PUSH1 0x5 DUP1 SLOAD DUP3 AND SWAP4 DUP4 AND SWAP4 SWAP1 SWAP4 OR SWAP1 SWAP3 SSTORE PUSH1 0x6 SWAP3 SWAP1 SWAP3 SSTORE PUSH1 0x8 SWAP3 SWAP1 SWAP3 SSTORE PUSH1 0x9 DUP1 SLOAD PUSH4 0x1000000 PUSH1 0x1 PUSH1 0xB8 SHL SUB NOT DUP2 AND PUSH1 0x18 DUP7 SWAP1 SHL PUSH4 0x1000000 PUSH1 0x1 PUSH1 0xB8 SHL SUB AND SWAP1 DUP2 OR SWAP1 SWAP3 SSTORE PUSH1 0xC DUP1 SLOAD SWAP1 SWAP5 AND SWAP6 DUP4 AND SWAP6 SWAP1 SWAP6 OR SWAP1 SWAP3 SSTORE SWAP2 SWAP1 SWAP2 AND SWAP2 SWAP1 DUP3 ISZERO PUSH3 0x33C JUMPI POP POP PUSH1 0x20 PUSH1 0x4 SWAP2 DUP4 MLOAD SWAP3 DUP4 DUP1 SWAP3 PUSH4 0x313CE567 PUSH1 0xE0 SHL DUP3 MSTORE GAS STATICCALL SWAP1 DUP2 ISZERO PUSH3 0x331 JUMPI PUSH1 0x0 SWAP2 PUSH3 0x2E9 JUMPI JUMPDEST POP PUSH1 0x9 DUP1 SLOAD PUSH1 0xFF PUSH1 0xB8 SHL NOT AND PUSH1 0xB8 SWAP3 SWAP1 SWAP3 SHL PUSH1 0xFF PUSH1 0xB8 SHL AND SWAP2 SWAP1 SWAP2 OR SWAP1 SSTORE JUMPDEST MLOAD PUSH2 0x2314 SWAP1 DUP2 PUSH3 0x743 DUP3 CODECOPY RETURN JUMPDEST SWAP1 POP PUSH1 0x20 DUP2 RETURNDATASIZE PUSH1 0x20 GT PUSH3 0x328 JUMPI JUMPDEST DUP2 PUSH3 0x307 PUSH1 0x20 SWAP4 DUP4 PUSH3 0x692 JUMP JUMPDEST DUP2 ADD SUB SLT PUSH3 0x323 JUMPI MLOAD PUSH1 0xFF DUP2 AND DUP2 SUB PUSH3 0x323 JUMPI CODESIZE PUSH3 0x2BC JUMP JUMPDEST PUSH1 0x0 DUP1 REVERT JUMPDEST RETURNDATASIZE SWAP2 POP PUSH3 0x2F8 JUMP JUMPDEST DUP3 MLOAD RETURNDATASIZE PUSH1 0x0 DUP3 RETURNDATACOPY RETURNDATASIZE SWAP1 REVERT JUMPDEST PUSH4 0x1000000 PUSH1 0x1 PUSH1 0xC0 SHL SUB NOT SWAP1 SWAP2 AND OR PUSH1 0x9 PUSH1 0xB9 SHL OR PUSH1 0x9 SSTORE POP PUSH3 0x2DB JUMP JUMPDEST ADD MLOAD SWAP1 POP CODESIZE DUP1 PUSH3 0x1FA JUMP JUMPDEST PUSH1 0x3 PUSH1 0x0 SWAP1 DUP2 MSTORE SWAP4 POP PUSH32 0xC2575A0E9E593C00F959F8C92F12DB2869C3395A3B0502D05E2516446F71F85B SWAP2 SWAP1 JUMPDEST PUSH1 0x1F NOT DUP5 AND DUP6 LT PUSH3 0x3DB JUMPI PUSH1 0x1 SWAP5 POP DUP4 PUSH1 0x1F NOT DUP2 AND LT PUSH3 0x3C1 JUMPI JUMPDEST POP POP POP DUP2 SHL ADD PUSH1 0x3 SSTORE PUSH3 0x210 JUMP JUMPDEST ADD MLOAD PUSH1 0x0 NOT PUSH1 0xF8 DUP5 PUSH1 0x3 SHL AND SHR NOT AND SWAP1 SSTORE CODESIZE DUP1 DUP1 PUSH3 0x3B2 JUMP JUMPDEST DUP2 DUP2 ADD MLOAD DUP4 SSTORE PUSH1 0x20 SWAP5 DUP6 ADD SWAP5 PUSH1 0x1 SWAP1 SWAP4 ADD SWAP3 SWAP1 SWAP2 ADD SWAP1 PUSH3 0x395 JUMP JUMPDEST PUSH1 0x3 PUSH1 0x0 MSTORE SWAP1 SWAP2 POP PUSH32 0xC2575A0E9E593C00F959F8C92F12DB2869C3395A3B0502D05E2516446F71F85B PUSH1 0x1F DUP5 ADD PUSH1 0x5 SHR DUP2 ADD PUSH1 0x20 DUP6 LT PUSH3 0x461 JUMPI JUMPDEST SWAP1 DUP5 SWAP4 SWAP3 SWAP2 JUMPDEST PUSH1 0x1F DUP4 ADD PUSH1 0x5 SHR DUP3 ADD DUP2 LT PUSH3 0x451 JUMPI POP POP PUSH3 0x1E1 JUMP JUMPDEST PUSH1 0x0 DUP2 SSTORE DUP6 SWAP5 POP PUSH1 0x1 ADD PUSH3 0x439 JUMP JUMPDEST POP DUP1 PUSH3 0x433 JUMP JUMPDEST PUSH4 0x4E487B71 PUSH1 0xE0 SHL PUSH1 0x0 MSTORE PUSH1 0x22 PUSH1 0x4 MSTORE PUSH1 0x24 PUSH1 0x0 REVERT JUMPDEST SWAP2 PUSH1 0x7F AND SWAP2 PUSH3 0x1CB JUMP JUMPDEST PUSH4 0x4E487B71 PUSH1 0xE0 SHL PUSH1 0x0 MSTORE PUSH1 0x41 PUSH1 0x4 MSTORE PUSH1 0x24 PUSH1 0x0 REVERT JUMPDEST ADD MLOAD SWAP1 POP CODESIZE DUP1 PUSH3 0x190 JUMP JUMPDEST PUSH1 0x2 PUSH1 0x0 SWAP1 DUP2 MSTORE SWAP4 POP PUSH1 0x0 DUP1 MLOAD PUSH1 0x20 PUSH3 0x2A57 DUP4 CODECOPY DUP2 MLOAD SWAP2 MSTORE SWAP2 SWAP1 JUMPDEST PUSH1 0x1F NOT DUP5 AND DUP6 LT PUSH3 0x50E JUMPI PUSH1 0x1 SWAP5 POP DUP4 PUSH1 0x1F NOT DUP2 AND LT PUSH3 0x4F4 JUMPI JUMPDEST POP POP POP DUP2 SHL ADD PUSH1 0x2 SSTORE PUSH3 0x1A6 JUMP JUMPDEST ADD MLOAD PUSH1 0x0 NOT PUSH1 0xF8 DUP5 PUSH1 0x3 SHL AND SHR NOT AND SWAP1 SSTORE CODESIZE DUP1 DUP1 PUSH3 0x4E5 JUMP JUMPDEST DUP2 DUP2 ADD MLOAD DUP4 SSTORE PUSH1 0x20 SWAP5 DUP6 ADD SWAP5 PUSH1 0x1 SWAP1 SWAP4 ADD SWAP3 SWAP1 SWAP2 ADD SWAP1 PUSH3 0x4C8 JUMP JUMPDEST PUSH1 0x2 PUSH1 0x0 MSTORE SWAP1 SWAP2 POP PUSH1 0x0 DUP1 MLOAD PUSH1 0x20 PUSH3 0x2A57 DUP4 CODECOPY DUP2 MLOAD SWAP2 MSTORE PUSH1 0x1F DUP5 ADD PUSH1 0x5 SHR DUP2 ADD PUSH1 0x20 DUP6 LT PUSH3 0x583 JUMPI JUMPDEST SWAP1 DUP5 SWAP4 SWAP3 SWAP2 JUMPDEST PUSH1 0x1F DUP4 ADD PUSH1 0x5 SHR DUP3 ADD DUP2 LT PUSH3 0x573 JUMPI POP POP PUSH3 0x177 JUMP JUMPDEST PUSH1 0x0 DUP2 SSTORE DUP6 SWAP5 POP PUSH1 0x1 ADD PUSH3 0x55B JUMP JUMPDEST POP DUP1 PUSH3 0x555 JUMP JUMPDEST SWAP2 PUSH1 0x7F AND SWAP2 PUSH3 0x161 JUMP JUMPDEST DUP9 MLOAD PUSH3 0x461BCD PUSH1 0xE5 SHL DUP2 MSTORE PUSH1 0x20 PUSH1 0x4 DUP3 ADD MSTORE PUSH1 0x1A PUSH1 0x24 DUP3 ADD MSTORE PUSH32 0x4475652064617465206D75737420626520696E20667574757265000000000000 PUSH1 0x44 DUP3 ADD MSTORE PUSH1 0x64 SWAP1 REVERT JUMPDEST DUP9 MLOAD PUSH3 0x461BCD PUSH1 0xE5 SHL DUP2 MSTORE PUSH1 0x20 PUSH1 0x4 DUP3 ADD MSTORE PUSH1 0x12 PUSH1 0x24 DUP3 ADD MSTORE PUSH18 0x416D6F756E74206D757374206265203E203 PUSH1 0x74 SHL PUSH1 0x44 DUP3 ADD MSTORE PUSH1 0x64 SWAP1 REVERT JUMPDEST DUP9 MLOAD PUSH3 0x461BCD PUSH1 0xE5 SHL DUP2 MSTORE PUSH1 0x20 PUSH1 0x4 DUP3 ADD MSTORE PUSH1 0xD PUSH1 0x24 DUP3 ADD MSTORE PUSH13 0x24B73B30B634B210313ABCB2B9 PUSH1 0x99 SHL PUSH1 0x44 DUP3 ADD MSTORE PUSH1 0x64 SWAP1 REVERT JUMPDEST PUSH3 0x461BCD PUSH1 0xE5 SHL DUP2 MSTORE PUSH1 0x20 PUSH1 0x4 DUP3 ADD MSTORE PUSH1 0xE PUSH1 0x24 DUP3 ADD MSTORE PUSH14 0x24B73B30B634B21039B2B63632B9 PUSH1 0x91 SHL PUSH1 0x44 DUP3 ADD MSTORE PUSH1 0x64 SWAP1 REVERT JUMPDEST DUP9 MLOAD PUSH4 0x1E4FBDF7 PUSH1 0xE0 SHL DUP2 MSTORE PUSH1 0x0 PUSH1 0x4 DUP3 ADD MSTORE PUSH1 0x24 SWAP1 REVERT JUMPDEST PUSH1 0x1F SWAP1 SWAP2 ADD PUSH1 0x1F NOT AND DUP2 ADD SWAP1 PUSH1 0x1 PUSH1 0x1 PUSH1 0x40 SHL SUB DUP3 GT SWAP1 DUP3 LT OR PUSH3 0x48A JUMPI PUSH1 0x40 MSTORE JUMP JUMPDEST SWAP2 SWAP1 DUP1 PUSH1 0x1F DUP5 ADD SLT ISZERO PUSH3 0x323 JUMPI DUP3 MLOAD SWAP1 PUSH1 0x1 PUSH1 0x1 PUSH1 0x40 SHL SUB DUP3 GT PUSH3 0x48A JUMPI PUSH1 0x40 MLOAD SWAP2 PUSH1 0x20 SWAP2 PUSH3 0x6F2 PUSH1 0x1F DUP4 ADD PUSH1 0x1F NOT AND DUP5 ADD DUP6 PUSH3 0x692 JUMP JUMPDEST DUP2 DUP5 MSTORE DUP3 DUP3 DUP8 ADD ADD GT PUSH3 0x323 JUMPI PUSH1 0x0 JUMPDEST DUP2 DUP2 LT PUSH3 0x719 JUMPI POP DUP3 PUSH1 0x0 SWAP4 SWAP5 SWAP6 POP ADD ADD MSTORE SWAP1 JUMP JUMPDEST DUP6 DUP2 ADD DUP4 ADD MLOAD DUP5 DUP3 ADD DUP5 ADD MSTORE DUP3 ADD PUSH3 0x703 JUMP JUMPDEST MLOAD SWAP1 PUSH1 0x1 PUSH1 0x1 PUSH1 0xA0 SHL SUB DUP3 AND DUP3 SUB PUSH3 0x323 JUMPI JUMP INVALID PUSH1 0x80 PUSH1 0x40 SWAP1 DUP1 DUP3 MSTORE PUSH1 0x4 SWAP1 DUP2 CALLDATASIZE LT ISZERO PUSH2 0x56 JUMPI JUMPDEST POP CALLDATASIZE ISZERO PUSH2 0x1F JUMPI PUSH1 0x0 DUP1 REVERT JUMPDEST PUSH1 0x20 PUSH1 0x64 SWAP3 MLOAD SWAP2 PUSH3 0x461BCD PUSH1 0xE5 SHL DUP4 MSTORE DUP3 ADD MSTORE PUSH1 0x12 PUSH1 0x24 DUP3 ADD MSTORE PUSH18 0x2AB9B2903830BC941490333AB731BA34B7B7 PUSH1 0x71 SHL PUSH1 0x44 DUP3 ADD MSTORE REVERT JUMPDEST PUSH1 0x0 SWAP1 DUP2 CALLDATALOAD PUSH1 0xE0 SHR SWAP1 DUP2 PUSH4 0x335729E EQ PUSH2 0x1CB7 JUMPI POP DUP1 PUSH4 0x8551A53 EQ PUSH2 0x1C8E JUMPI DUP1 PUSH4 0x12FA769F EQ PUSH2 0x1C6F JUMPI DUP1 PUSH4 0x1A39D8EF EQ PUSH2 0x1C50 JUMPI DUP1 PUSH4 0x24668473 EQ PUSH2 0x1BA6 JUMPI DUP1 PUSH4 0x3013CE29 EQ PUSH2 0x1B79 JUMPI DUP1 PUSH4 0x325AC880 EQ PUSH2 0x1AF3 JUMPI DUP1 PUSH4 0x3B957317 EQ PUSH2 0x1ABC JUMPI DUP1 PUSH4 0x3B97E856 EQ PUSH2 0x1A97 JUMPI DUP1 PUSH4 0x3F0F17ED EQ PUSH2 0x181F JUMPI DUP1 PUSH4 0x529151EC EQ PUSH2 0x1802 JUMPI DUP1 PUSH4 0x5D696D23 EQ PUSH2 0x17E5 JUMPI DUP1 PUSH4 0x69D89575 EQ PUSH2 0x153B JUMPI DUP1 PUSH4 0x70C86286 EQ PUSH2 0x1491 JUMPI DUP1 PUSH4 0x715018A6 EQ PUSH2 0x1437 JUMPI DUP1 PUSH4 0x7150D8AE EQ PUSH2 0x140E JUMPI DUP1 PUSH4 0x725A3B4B EQ PUSH2 0x10D9 JUMPI DUP1 PUSH4 0x786716FE EQ PUSH2 0x10BA JUMPI DUP1 PUSH4 0x7BF6C104 EQ PUSH2 0xFDD JUMPI DUP1 PUSH4 0x89E1E82A EQ PUSH2 0xC96 JUMPI DUP1 PUSH4 0x8DA5CB5B EQ PUSH2 0xC6E JUMPI DUP1 PUSH4 0x95EE1221 EQ PUSH2 0xC47 JUMPI DUP1 PUSH4 0x9EE7FD40 EQ PUSH2 0xB71 JUMPI DUP1 PUSH4 0x9F60BE5C EQ PUSH2 0xADB JUMPI DUP1 PUSH4 0xA2C72745 EQ PUSH2 0xABC JUMPI DUP1 PUSH4 0xA36693B1 EQ PUSH2 0x849 JUMPI DUP1 PUSH4 0xACAEF1F8 EQ PUSH2 0x82A JUMPI DUP1 PUSH4 0xB21862A6 EQ PUSH2 0x7BA JUMPI DUP1 PUSH4 0xB95D8DD4 EQ PUSH2 0x79B JUMPI DUP1 PUSH4 0xC290D691 EQ PUSH2 0x5FE JUMPI DUP1 PUSH4 0xDABAAE11 EQ PUSH2 0x5D3 JUMPI DUP1 PUSH4 0xDD84B5F6 EQ PUSH2 0x400 JUMPI DUP1 PUSH4 0xEA8A1AF0 EQ PUSH2 0x2C7 JUMPI DUP1 PUSH4 0xF2FDE38B EQ PUSH2 0x23B JUMPI DUP1 PUSH4 0xFA391C64 EQ PUSH2 0x217 JUMPI PUSH4 0xFE25E00A SUB PUSH2 0x13 JUMPI DUP3 CALLVALUE PUSH2 0x213 JUMPI DUP2 PUSH1 0x3 NOT CALLDATASIZE ADD SLT PUSH2 0x213 JUMPI PUSH1 0xC SLOAD SWAP1 MLOAD PUSH1 0x1 PUSH1 0x1 PUSH1 0xA0 SHL SUB SWAP1 SWAP2 AND DUP2 MSTORE PUSH1 0x20 SWAP1 RETURN JUMPDEST POP DUP1 REVERT JUMPDEST POP DUP3 CALLVALUE PUSH2 0x213 JUMPI DUP2 PUSH1 0x3 NOT CALLDATASIZE ADD SLT PUSH2 0x213 JUMPI PUSH1 0x20 SWAP1 PUSH1 0xFF PUSH1 0x9 SLOAD AND SWAP1 MLOAD SWAP1 ISZERO ISZERO DUP2 MSTORE RETURN JUMPDEST POP SWAP2 SWAP1 CALLVALUE PUSH2 0x2C3 JUMPI PUSH1 0x20 CALLDATASIZE PUSH1 0x3 NOT ADD SLT PUSH2 0x2C3 JUMPI PUSH2 0x257 PUSH2 0x1DB2 JUMP JUMPDEST SWAP1 PUSH2 0x260 PUSH2 0x1E1D JUMP JUMPDEST PUSH1 0x1 PUSH1 0x1 PUSH1 0xA0 SHL SUB SWAP2 DUP3 AND SWAP3 DUP4 ISZERO PUSH2 0x2AD JUMPI POP POP DUP3 SLOAD PUSH1 0x1 PUSH1 0x1 PUSH1 0xA0 SHL SUB NOT DUP2 AND DUP4 OR DUP5 SSTORE AND PUSH32 0x8BE0079C531659141344CD1FD0A4F28419497F9722A3DAAFE3B4186F6B6457E0 DUP4 DUP1 LOG3 DUP1 RETURN JUMPDEST MLOAD PUSH4 0x1E4FBDF7 PUSH1 0xE0 SHL DUP2 MSTORE SWAP1 DUP2 ADD DUP5 SWAP1 MSTORE PUSH1 0x24 SWAP1 REVERT JUMPDEST DUP3 DUP1 REVERT JUMPDEST POP SWAP2 SWAP1 CALLVALUE PUSH2 0x2C3 JUMPI DUP3 PUSH1 0x3 NOT CALLDATASIZE ADD SLT PUSH2 0x2C3 JUMPI DUP1 SLOAD CALLER PUSH1 0x1 PUSH1 0x1 PUSH1 0xA0 SHL SUB SWAP2 DUP3 AND EQ SWAP1 DUP2 ISZERO PUSH2 0x3F3 JUMPI JUMPDEST POP ISZERO PUSH2 0x3C0 JUMPI PUSH1 0x7 SLOAD PUSH2 0x37E JUMPI PUSH1 0x9 SLOAD SWAP1 PUSH1 0xFF DUP3 PUSH1 0x8 SHR AND PUSH2 0x347 JUMPI POP PUSH2 0xFF00 NOT AND PUSH2 0x100 OR PUSH1 0x9 SSTORE MLOAD TIMESTAMP DUP2 MSTORE PUSH32 0x2E9842040508F80E6420769A8673529EB3AF5B952F53AF83D9C9D3432DA78046 SWAP1 PUSH1 0x20 SWAP1 LOG1 DUP1 RETURN JUMPDEST PUSH1 0x64 SWAP1 PUSH1 0x20 DUP5 MLOAD SWAP2 PUSH3 0x461BCD PUSH1 0xE5 SHL DUP4 MSTORE DUP3 ADD MSTORE PUSH1 0x11 PUSH1 0x24 DUP3 ADD MSTORE PUSH17 0x105B1C9958591E4818D85B98D95B1B1959 PUSH1 0x7A SHL PUSH1 0x44 DUP3 ADD MSTORE REVERT JUMPDEST PUSH1 0x20 PUSH1 0x64 SWAP3 MLOAD SWAP2 PUSH3 0x461BCD PUSH1 0xE5 SHL DUP4 MSTORE DUP3 ADD MSTORE PUSH1 0x1B PUSH1 0x24 DUP3 ADD MSTORE PUSH32 0x43616E6E6F742063616E63656C206166746572207061796D656E740000000000 PUSH1 0x44 DUP3 ADD MSTORE REVERT JUMPDEST PUSH1 0x20 PUSH1 0x64 SWAP3 MLOAD SWAP2 PUSH3 0x461BCD PUSH1 0xE5 SHL DUP4 MSTORE DUP3 ADD MSTORE PUSH1 0xE PUSH1 0x24 DUP3 ADD MSTORE PUSH14 0x139BDD08185D5D1A1BDC9A5E9959 PUSH1 0x92 SHL PUSH1 0x44 DUP3 ADD MSTORE REVERT JUMPDEST SWAP1 POP DUP4 SLOAD AND CALLER EQ CODESIZE PUSH2 0x2F1 JUMP JUMPDEST POP SWAP2 CALLVALUE PUSH2 0x2C3 JUMPI DUP3 PUSH1 0x3 NOT CALLDATASIZE ADD SLT PUSH2 0x2C3 JUMPI PUSH2 0x41A PUSH2 0x2008 JUMP JUMPDEST PUSH1 0xFF SWAP2 PUSH2 0x42A DUP4 PUSH1 0x9 SLOAD AND PUSH2 0x2038 JUMP JUMPDEST PUSH1 0xA SWAP3 DUP4 SLOAD ISZERO PUSH2 0x59C JUMPI PUSH1 0x7 SWAP1 DUP2 SLOAD SWAP3 DUP7 JUMPDEST DUP7 SLOAD DUP2 LT ISZERO PUSH2 0x4E8 JUMPI PUSH2 0x457 PUSH2 0x451 DUP3 PUSH2 0x1DCD JUMP JUMPDEST POP PUSH2 0x208B JUMP JUMPDEST DUP1 DUP8 ADD DUP1 MLOAD ISZERO PUSH2 0x4CE JUMPI MLOAD JUMPDEST DUP7 DUP2 GT PUSH2 0x4C7 JUMPI JUMPDEST DUP1 PUSH2 0x481 JUMPI JUMPDEST POP POP PUSH2 0x47C SWAP1 PUSH2 0x207C JUMP JUMPDEST PUSH2 0x43C JUMP JUMPDEST PUSH1 0x0 DUP1 MLOAD PUSH1 0x20 PUSH2 0x229F DUP4 CODECOPY DUP2 MLOAD SWAP2 MSTORE PUSH1 0x20 DUP4 PUSH2 0x4B6 DUP5 PUSH2 0x47C SWAP8 SWAP7 SWAP12 PUSH2 0x4B1 DUP3 PUSH1 0x1 DUP1 PUSH1 0xA0 SHL SUB DUP1 SWAP7 MLOAD AND PUSH2 0x2159 JUMP JUMPDEST PUSH2 0x202B JUMP JUMPDEST SWAP10 MLOAD AND SWAP3 DUP11 MLOAD SWAP1 DUP2 MSTORE LOG2 SWAP1 CODESIZE PUSH2 0x471 JUMP JUMPDEST POP DUP6 PUSH2 0x46B JUMP JUMPDEST POP PUSH2 0x2710 PUSH2 0x4E2 DUP7 SLOAD PUSH1 0x20 DUP5 ADD MLOAD SWAP1 PUSH2 0x20CB JUMP JUMPDEST DIV PUSH2 0x463 JUMP JUMPDEST POP SWAP3 SWAP4 SWAP2 POP SWAP4 DUP4 PUSH2 0x4FC JUMPI JUMPDEST DUP6 PUSH1 0x1 DUP1 SSTORE DUP1 RETURN JUMPDEST SWAP2 SLOAD SWAP2 SLOAD PUSH1 0x1 PUSH1 0x1 PUSH1 0xA0 SHL SUB SWAP3 DUP4 AND SWAP5 DUP7 JUMPDEST DUP3 DUP2 LT PUSH2 0x549 JUMPI JUMPDEST POP POP POP SWAP1 DUP4 PUSH1 0x20 SWAP3 PUSH2 0x538 DUP6 PUSH1 0x0 DUP1 MLOAD PUSH1 0x20 PUSH2 0x229F DUP4 CODECOPY DUP2 MLOAD SWAP2 MSTORE SWAP7 SWAP8 PUSH2 0x2159 JUMP JUMPDEST MLOAD SWAP5 DUP6 MSTORE AND SWAP3 LOG2 CODESIZE DUP1 DUP1 DUP1 DUP1 PUSH2 0x4F4 JUMP JUMPDEST DUP2 PUSH1 0x3 PUSH2 0x555 DUP4 PUSH2 0x1DCD JUMP JUMPDEST POP ADD SLOAD AND PUSH2 0x56B JUMPI PUSH2 0x566 SWAP1 PUSH2 0x207C JUMP JUMPDEST PUSH2 0x50E JUMP JUMPDEST PUSH1 0x0 DUP1 MLOAD PUSH1 0x20 PUSH2 0x229F DUP4 CODECOPY DUP2 MLOAD SWAP2 MSTORE SWAP6 SWAP7 POP DUP5 SWAP4 SWAP3 POP PUSH1 0x20 SWAP5 SWAP2 POP PUSH2 0x58F SWAP1 PUSH2 0x1DCD JUMP JUMPDEST POP SLOAD AND SWAP5 SWAP4 DUP2 SWAP3 SWAP4 PUSH2 0x516 JUMP JUMPDEST POP PUSH1 0x20 PUSH1 0x64 SWAP3 MLOAD SWAP2 PUSH3 0x461BCD PUSH1 0xE5 SHL DUP4 MSTORE DUP3 ADD MSTORE PUSH1 0x11 PUSH1 0x24 DUP3 ADD MSTORE PUSH17 0x4E6F207061796D656E742073706C697473 PUSH1 0x78 SHL PUSH1 0x44 DUP3 ADD MSTORE REVERT JUMPDEST POP DUP3 CALLVALUE PUSH2 0x213 JUMPI DUP2 PUSH1 0x3 NOT CALLDATASIZE ADD SLT PUSH2 0x213 JUMPI PUSH1 0x20 SWAP1 PUSH2 0x5F7 PUSH1 0x6 SLOAD PUSH1 0x7 SLOAD SWAP1 PUSH2 0x202B JUMP JUMPDEST SWAP1 MLOAD SWAP1 DUP2 MSTORE RETURN JUMPDEST POP SWAP2 SWAP1 PUSH1 0x20 CALLDATASIZE PUSH1 0x3 NOT ADD SLT PUSH2 0x2C3 JUMPI DUP1 CALLDATALOAD SWAP1 PUSH2 0x618 PUSH2 0x2008 JUMP JUMPDEST PUSH1 0x9 SLOAD SWAP1 PUSH1 0xFF DUP3 AND PUSH2 0x758 JUMPI PUSH2 0x634 PUSH1 0xFF DUP4 PUSH1 0x8 SHR AND ISZERO PUSH2 0x1E49 JUMP JUMPDEST DUP3 ISZERO PUSH2 0x720 JUMPI PUSH2 0x646 DUP4 PUSH1 0x7 SLOAD PUSH2 0x1E89 JUMP JUMPDEST PUSH1 0x6 SLOAD LT PUSH2 0x6E6 JUMPI POP PUSH1 0x18 SHR PUSH1 0x1 PUSH1 0x1 PUSH1 0xA0 SHL SUB AND DUP2 DUP2 PUSH2 0x6CA JUMPI PUSH2 0x66D SWAP2 POP CALLVALUE EQ PUSH2 0x1F02 JUMP JUMPDEST PUSH32 0x5677B5D4CF976AC32DEFBD95A6A5AAF0D1FEE450A11FC26F3C11AAE6E6C33D06 PUSH2 0x69A DUP3 PUSH1 0x7 SLOAD PUSH2 0x1E89 JUMP JUMPDEST SWAP3 DUP4 PUSH1 0x7 SSTORE DUP1 MLOAD SWAP3 DUP4 MSTORE TIMESTAMP PUSH1 0x20 DUP5 ADD MSTORE CALLER SWAP3 LOG2 PUSH1 0x6 SLOAD EQ PUSH2 0x6BD JUMPI JUMPDEST PUSH1 0x1 DUP1 SSTORE DUP1 RETURN JUMPDEST PUSH2 0x6C5 PUSH2 0x2120 JUMP JUMPDEST PUSH2 0x6B6 JUMP JUMPDEST PUSH2 0x6E1 SWAP2 PUSH2 0x6D8 CALLVALUE ISZERO PUSH2 0x1EAC JUMP JUMPDEST ADDRESS SWAP1 CALLER SWAP1 PUSH2 0x1F45 JUMP JUMPDEST PUSH2 0x66D JUMP JUMPDEST PUSH1 0x64 SWAP1 PUSH1 0x20 DUP6 MLOAD SWAP2 PUSH3 0x461BCD PUSH1 0xE5 SHL DUP4 MSTORE DUP3 ADD MSTORE PUSH1 0x14 PUSH1 0x24 DUP3 ADD MSTORE PUSH20 0x115E18D959591CC81D1BDD185B08185B5BDD5B9D PUSH1 0x62 SHL PUSH1 0x44 DUP3 ADD MSTORE REVERT JUMPDEST PUSH1 0x64 SWAP1 PUSH1 0x20 DUP6 MLOAD SWAP2 PUSH3 0x461BCD PUSH1 0xE5 SHL DUP4 MSTORE DUP3 ADD MSTORE PUSH1 0x12 PUSH1 0x24 DUP3 ADD MSTORE PUSH18 0x416D6F756E74206D757374206265203E203 PUSH1 0x74 SHL PUSH1 0x44 DUP3 ADD MSTORE REVERT JUMPDEST PUSH1 0x64 SWAP1 PUSH1 0x20 DUP6 MLOAD SWAP2 PUSH3 0x461BCD PUSH1 0xE5 SHL DUP4 MSTORE DUP3 ADD MSTORE PUSH1 0x19 PUSH1 0x24 DUP3 ADD MSTORE PUSH32 0x496E766F69636520616C726561647920636F6D706C6574656400000000000000 PUSH1 0x44 DUP3 ADD MSTORE REVERT JUMPDEST POP DUP3 CALLVALUE PUSH2 0x213 JUMPI DUP2 PUSH1 0x3 NOT CALLDATASIZE ADD SLT PUSH2 0x213 JUMPI PUSH1 0x20 SWAP1 PUSH1 0xD SLOAD SWAP1 MLOAD SWAP1 DUP2 MSTORE RETURN JUMPDEST POP SWAP1 CALLVALUE PUSH2 0x213 JUMPI PUSH1 0x20 CALLDATASIZE PUSH1 0x3 NOT ADD SLT PUSH2 0x213 JUMPI CALLDATALOAD SWAP1 PUSH1 0xA SLOAD DUP3 LT ISZERO PUSH2 0x827 JUMPI POP PUSH2 0x7E3 SWAP1 PUSH2 0x1DCD JUMP JUMPDEST POP DUP1 SLOAD PUSH1 0x1 DUP3 ADD SLOAD PUSH1 0x2 DUP4 ADD SLOAD PUSH1 0x3 SWAP1 SWAP4 ADD SLOAD SWAP4 MLOAD PUSH1 0x1 PUSH1 0x1 PUSH1 0xA0 SHL SUB SWAP1 SWAP3 AND DUP3 MSTORE PUSH1 0x20 DUP3 ADD MSTORE PUSH1 0x40 DUP2 ADD SWAP2 SWAP1 SWAP2 MSTORE PUSH1 0xFF SWAP1 SWAP2 AND ISZERO ISZERO PUSH1 0x60 DUP3 ADD MSTORE PUSH1 0x80 SWAP1 RETURN JUMPDEST SUB SWAP1 RETURN JUMPDEST DUP1 REVERT JUMPDEST POP DUP3 CALLVALUE PUSH2 0x213 JUMPI DUP2 PUSH1 0x3 NOT CALLDATASIZE ADD SLT PUSH2 0x213 JUMPI PUSH1 0x20 SWAP1 PUSH1 0xB SLOAD SWAP1 MLOAD SWAP1 DUP2 MSTORE RETURN JUMPDEST POP SWAP2 CALLVALUE PUSH2 0x2C3 JUMPI DUP3 PUSH1 0x3 NOT CALLDATASIZE ADD SLT PUSH2 0x2C3 JUMPI PUSH2 0x863 PUSH2 0x2008 JUMP JUMPDEST PUSH1 0x9 SLOAD SWAP2 PUSH2 0x883 PUSH1 0xFF DUP5 PUSH2 0x879 DUP3 DUP1 SWAP8 AND PUSH2 0x2038 JUMP JUMPDEST PUSH1 0x10 SHR AND ISZERO PUSH2 0x20DE JUMP JUMPDEST PUSH1 0x8 SLOAD PUSH3 0x278D00 DUP2 ADD DUP1 SWAP2 GT PUSH2 0xAA9 JUMPI TIMESTAMP GT ISZERO PUSH2 0xA67 JUMPI PUSH1 0xA DUP1 SLOAD SWAP1 SWAP4 SWAP1 ISZERO PUSH2 0xA24 JUMPI PUSH2 0x8AE PUSH2 0x2008 JUMP JUMPDEST PUSH2 0x8BB DUP2 PUSH1 0x9 SLOAD AND PUSH2 0x2038 JUMP JUMPDEST DUP4 SLOAD ISZERO PUSH2 0x59C JUMPI PUSH1 0x7 SWAP1 DUP2 SLOAD SWAP3 DUP7 JUMPDEST DUP7 SLOAD DUP2 LT ISZERO PUSH2 0x96B JUMPI PUSH2 0x8DF PUSH2 0x451 DUP3 PUSH2 0x1DCD JUMP JUMPDEST DUP1 DUP8 ADD DUP1 MLOAD ISZERO PUSH2 0x951 JUMPI MLOAD JUMPDEST DUP7 DUP2 GT PUSH2 0x94A JUMPI JUMPDEST DUP1 PUSH2 0x909 JUMPI JUMPDEST POP POP PUSH2 0x904 SWAP1 PUSH2 0x207C JUMP JUMPDEST PUSH2 0x8CA JUMP JUMPDEST PUSH1 0x0 DUP1 MLOAD PUSH1 0x20 PUSH2 0x229F DUP4 CODECOPY DUP2 MLOAD SWAP2 MSTORE PUSH1 0x20 DUP4 PUSH2 0x939 DUP5 PUSH2 0x904 SWAP8 SWAP7 SWAP12 PUSH2 0x4B1 DUP3 PUSH1 0x1 DUP1 PUSH1 0xA0 SHL SUB DUP1 SWAP7 MLOAD AND PUSH2 0x2159 JUMP JUMPDEST SWAP10 MLOAD AND SWAP3 DUP11 MLOAD SWAP1 DUP2 MSTORE LOG2 SWAP1 CODESIZE PUSH2 0x8F9 JUMP JUMPDEST POP DUP6 PUSH2 0x8F3 JUMP JUMPDEST POP PUSH2 0x2710 PUSH2 0x965 DUP7 SLOAD PUSH1 0x20 DUP5 ADD MLOAD SWAP1 PUSH2 0x20CB JUMP JUMPDEST DIV PUSH2 0x8EB JUMP JUMPDEST POP SWAP3 SWAP4 SWAP2 POP SWAP4 DUP4 PUSH2 0x984 JUMPI JUMPDEST POP POP PUSH1 0x1 DUP1 SSTORE POP DUP3 SWAP2 POP POP RETURN JUMPDEST SWAP2 SLOAD SWAP2 SLOAD PUSH1 0x1 PUSH1 0x1 PUSH1 0xA0 SHL SUB SWAP3 DUP4 AND SWAP5 DUP7 JUMPDEST DUP3 DUP2 LT PUSH2 0x9D1 JUMPI JUMPDEST POP POP POP SWAP1 DUP4 PUSH1 0x20 SWAP3 PUSH2 0x9C0 DUP6 PUSH1 0x0 DUP1 MLOAD PUSH1 0x20 PUSH2 0x229F DUP4 CODECOPY DUP2 MLOAD SWAP2 MSTORE SWAP7 SWAP8 PUSH2 0x2159 JUMP JUMPDEST MLOAD SWAP5 DUP6 MSTORE AND SWAP3 LOG2 CODESIZE DUP1 DUP1 DUP1 DUP1 PUSH2 0x977 JUMP JUMPDEST DUP2 PUSH1 0x3 PUSH2 0x9DD DUP4 PUSH2 0x1DCD JUMP JUMPDEST POP ADD SLOAD AND PUSH2 0x9F3 JUMPI PUSH2 0x9EE SWAP1 PUSH2 0x207C JUMP JUMPDEST PUSH2 0x996 JUMP JUMPDEST PUSH1 0x0 DUP1 MLOAD PUSH1 0x20 PUSH2 0x229F DUP4 CODECOPY DUP2 MLOAD SWAP2 MSTORE SWAP6 SWAP7 POP DUP5 SWAP4 SWAP3 POP PUSH1 0x20 SWAP5 SWAP2 POP PUSH2 0xA17 SWAP1 PUSH2 0x1DCD JUMP JUMPDEST POP SLOAD AND SWAP5 SWAP4 DUP2 SWAP3 SWAP4 PUSH2 0x99E JUMP JUMPDEST POP DUP1 SLOAD PUSH1 0x7 SLOAD SWAP3 SWAP4 POP PUSH1 0x0 DUP1 MLOAD PUSH1 0x20 PUSH2 0x229F DUP4 CODECOPY DUP2 MLOAD SWAP2 MSTORE SWAP3 PUSH1 0x20 SWAP3 PUSH1 0x1 PUSH1 0x1 PUSH1 0xA0 SHL SUB SWAP3 SWAP1 SWAP2 PUSH2 0xA56 SWAP2 DUP5 AND PUSH2 0x2159 JUMP JUMPDEST SLOAD AND SWAP3 PUSH1 0x7 SLOAD SWAP1 MLOAD SWAP1 DUP2 MSTORE LOG2 PUSH2 0x6B6 JUMP JUMPDEST PUSH1 0x20 PUSH1 0x64 SWAP3 MLOAD SWAP2 PUSH3 0x461BCD PUSH1 0xE5 SHL DUP4 MSTORE DUP3 ADD MSTORE PUSH1 0x18 PUSH1 0x24 DUP3 ADD MSTORE PUSH32 0x477261636520706572696F64206E6F7420656C61707365640000000000000000 PUSH1 0x44 DUP3 ADD MSTORE REVERT JUMPDEST PUSH4 0x4E487B71 PUSH1 0xE0 SHL DUP6 MSTORE PUSH1 0x11 DUP3 MSTORE PUSH1 0x24 DUP6 REVERT JUMPDEST POP DUP3 CALLVALUE PUSH2 0x213 JUMPI DUP2 PUSH1 0x3 NOT CALLDATASIZE ADD SLT PUSH2 0x213 JUMPI PUSH1 0x20 SWAP1 PUSH1 0xA SLOAD SWAP1 MLOAD SWAP1 DUP2 MSTORE RETURN JUMPDEST POP CALLVALUE PUSH2 0x827 JUMPI PUSH1 0x20 CALLDATASIZE PUSH1 0x3 NOT ADD SLT PUSH2 0x827 JUMPI POP DUP1 CALLDATALOAD SWAP1 PUSH1 0xA SLOAD DUP3 LT ISZERO PUSH2 0xB3E JUMPI POP PUSH2 0x451 PUSH2 0xB08 SWAP2 PUSH2 0x1DCD JUMP JUMPDEST DUP1 MLOAD PUSH1 0x20 DUP1 DUP4 ADD MLOAD DUP5 DUP5 ADD MLOAD PUSH1 0x60 SWAP5 DUP6 ADD MLOAD SWAP6 MLOAD PUSH1 0x1 PUSH1 0x1 PUSH1 0xA0 SHL SUB SWAP1 SWAP5 AND DUP5 MSTORE SWAP2 DUP4 ADD MSTORE PUSH1 0x40 DUP3 ADD MSTORE SWAP2 ISZERO ISZERO SWAP1 DUP3 ADD MSTORE PUSH1 0x80 SWAP1 RETURN JUMPDEST PUSH1 0x64 SWAP1 PUSH1 0x20 DUP5 MLOAD SWAP2 PUSH3 0x461BCD PUSH1 0xE5 SHL DUP4 MSTORE DUP3 ADD MSTORE PUSH1 0xD PUSH1 0x24 DUP3 ADD MSTORE PUSH13 0x92DCECC2D8D2C840D2DCC8CAF PUSH1 0x9B SHL PUSH1 0x44 DUP3 ADD MSTORE REVERT JUMPDEST POP SWAP2 DUP3 PUSH1 0x3 NOT CALLDATASIZE ADD SLT PUSH2 0x2C3 JUMPI PUSH2 0xB86 PUSH2 0x2008 JUMP JUMPDEST PUSH2 0xB95 PUSH1 0x6 SLOAD PUSH1 0x7 SLOAD SWAP1 PUSH2 0x202B JUMP JUMPDEST SWAP2 DUP3 ISZERO PUSH2 0xC10 JUMPI POP PUSH1 0x9 SLOAD PUSH32 0x5677B5D4CF976AC32DEFBD95A6A5AAF0D1FEE450A11FC26F3C11AAE6E6C33D06 SWAP2 SWAP1 PUSH1 0x18 SHR PUSH1 0x1 PUSH1 0x1 PUSH1 0xA0 SHL SUB AND DUP4 DUP2 PUSH2 0xBFD JUMPI PUSH2 0xBE1 SWAP2 POP CALLVALUE EQ PUSH2 0x1F02 JUMP JUMPDEST PUSH1 0x6 SLOAD PUSH1 0x7 SSTORE DUP1 MLOAD SWAP3 DUP4 MSTORE TIMESTAMP PUSH1 0x20 DUP5 ADD MSTORE CALLER SWAP3 LOG2 PUSH2 0x6B6 PUSH2 0x2120 JUMP JUMPDEST PUSH2 0xC0B SWAP2 PUSH2 0x6D8 CALLVALUE ISZERO PUSH2 0x1EAC JUMP JUMPDEST PUSH2 0xBE1 JUMP JUMPDEST PUSH1 0x20 PUSH1 0x64 SWAP3 MLOAD SWAP2 PUSH3 0x461BCD PUSH1 0xE5 SHL DUP4 MSTORE DUP3 ADD MSTORE PUSH1 0x12 PUSH1 0x24 DUP3 ADD MSTORE PUSH18 0x105B1C9958591E48199D5B1B1E481C185A59 PUSH1 0x72 SHL PUSH1 0x44 DUP3 ADD MSTORE REVERT JUMPDEST POP DUP3 CALLVALUE PUSH2 0x213 JUMPI DUP2 PUSH1 0x3 NOT CALLDATASIZE ADD SLT PUSH2 0x213 JUMPI PUSH1 0x20 SWAP1 PUSH1 0xFF PUSH1 0x9 SLOAD PUSH1 0x8 SHR AND SWAP1 MLOAD SWAP1 ISZERO ISZERO DUP2 MSTORE RETURN JUMPDEST POP DUP3 CALLVALUE PUSH2 0x213 JUMPI DUP2 PUSH1 0x3 NOT CALLDATASIZE ADD SLT PUSH2 0x213 JUMPI SWAP1 SLOAD SWAP1 MLOAD PUSH1 0x1 PUSH1 0x1 PUSH1 0xA0 SHL SUB SWAP1 SWAP2 AND DUP2 MSTORE PUSH1 0x20 SWAP1 RETURN JUMPDEST POP SWAP2 CALLVALUE PUSH2 0x2C3 JUMPI PUSH1 0x20 DUP1 PUSH1 0x3 NOT CALLDATASIZE ADD SLT PUSH2 0xFD9 JUMPI DUP3 CALLDATALOAD SWAP1 DUP2 ISZERO ISZERO SWAP5 DUP6 DUP4 SUB PUSH2 0x827 JUMPI PUSH1 0xC SLOAD PUSH1 0x1 PUSH1 0x1 PUSH1 0xA0 SHL SUB SWAP1 DUP2 AND CALLER EQ DUP1 ISZERO PUSH2 0xFCD JUMPI JUMPDEST ISZERO PUSH2 0xF9B JUMPI PUSH1 0x9 SLOAD SWAP4 PUSH1 0xFF SWAP5 DUP6 DUP2 PUSH1 0x10 SHR AND ISZERO PUSH2 0xF64 JUMPI PUSH3 0xFF0000 NOT AND PUSH1 0x9 SSTORE ISZERO PUSH2 0xF1C JUMPI PUSH1 0xA DUP1 SLOAD SWAP1 SWAP5 SWAP1 ISZERO PUSH2 0xED7 JUMPI PUSH2 0xD08 PUSH2 0x2008 JUMP JUMPDEST PUSH2 0xD15 DUP2 PUSH1 0x9 SLOAD AND PUSH2 0x2038 JUMP JUMPDEST DUP5 SLOAD ISZERO PUSH2 0xEA0 JUMPI PUSH1 0x7 SWAP8 DUP9 SLOAD SWAP6 DUP5 JUMPDEST DUP2 SLOAD DUP2 LT ISZERO PUSH2 0xDBC JUMPI PUSH2 0xD39 PUSH2 0x451 DUP3 PUSH2 0x1DCD JUMP JUMPDEST DUP1 DUP11 ADD DUP1 MLOAD ISZERO PUSH2 0xDA3 JUMPI MLOAD JUMPDEST DUP10 DUP2 GT PUSH2 0xD9C JUMPI JUMPDEST DUP1 PUSH2 0xD63 JUMPI JUMPDEST POP POP PUSH2 0xD5E SWAP1 PUSH2 0x207C JUMP JUMPDEST PUSH2 0xD24 JUMP JUMPDEST PUSH1 0x0 DUP1 MLOAD PUSH1 0x20 PUSH2 0x229F DUP4 CODECOPY DUP2 MLOAD SWAP2 MSTORE DUP10 DUP9 PUSH2 0xD8B DUP5 DUP7 SWAP15 PUSH2 0x4B1 DUP3 DUP6 PUSH2 0xD5E SWAP12 SWAP11 MLOAD AND PUSH2 0x2159 JUMP JUMPDEST SWAP13 MLOAD AND SWAP3 DUP14 MLOAD SWAP1 DUP2 MSTORE LOG2 SWAP1 CODESIZE PUSH2 0xD53 JUMP JUMPDEST POP DUP9 PUSH2 0xD4D JUMP JUMPDEST POP PUSH2 0x2710 PUSH2 0xDB6 DUP14 SLOAD DUP11 DUP5 ADD MLOAD SWAP1 PUSH2 0x20CB JUMP JUMPDEST DIV PUSH2 0xD45 JUMP JUMPDEST POP SWAP2 SWAP8 SWAP1 SWAP6 SWAP4 SWAP9 POP DUP4 PUSH2 0xDF2 JUMPI JUMPDEST POP POP POP POP PUSH1 0x0 DUP1 MLOAD PUSH1 0x20 PUSH2 0x22BF DUP4 CODECOPY DUP2 MLOAD SWAP2 MSTORE SWAP4 POP PUSH1 0x1 DUP1 SSTORE JUMPDEST DUP3 MLOAD SWAP2 DUP3 MSTORE TIMESTAMP SWAP1 DUP3 ADD MSTORE LOG1 DUP1 RETURN JUMPDEST SLOAD SWAP1 SLOAD SWAP1 DUP3 AND SWAP7 DUP9 JUMPDEST DUP3 DUP2 LT PUSH2 0xE42 JUMPI JUMPDEST POP POP POP DUP3 PUSH1 0x0 DUP1 MLOAD PUSH1 0x20 PUSH2 0x229F DUP4 CODECOPY DUP2 MLOAD SWAP2 MSTORE SWAP2 DUP8 PUSH2 0xE31 DUP6 PUSH1 0x0 DUP1 MLOAD PUSH1 0x20 PUSH2 0x22BF DUP4 CODECOPY DUP2 MLOAD SWAP2 MSTORE SWAP11 PUSH2 0x2159 JUMP JUMPDEST DUP8 MLOAD SWAP5 DUP6 MSTORE AND SWAP3 LOG2 CODESIZE DUP1 DUP1 DUP1 PUSH2 0xDCA JUMP JUMPDEST DUP2 PUSH1 0x3 PUSH2 0xE4E DUP4 PUSH2 0x1DCD JUMP JUMPDEST POP ADD SLOAD AND PUSH2 0xE64 JUMPI PUSH2 0xE5F SWAP1 PUSH2 0x207C JUMP JUMPDEST PUSH2 0xDFB JUMP JUMPDEST PUSH1 0x0 DUP1 MLOAD PUSH1 0x20 PUSH2 0x22BF DUP4 CODECOPY DUP2 MLOAD SWAP2 MSTORE SWAP9 POP DUP6 SWAP3 POP DUP4 SWAP2 POP SWAP3 PUSH2 0xE94 PUSH1 0x0 DUP1 MLOAD PUSH1 0x20 PUSH2 0x229F DUP4 CODECOPY DUP2 MLOAD SWAP2 MSTORE SWAP5 PUSH2 0x1DCD JUMP JUMPDEST POP SLOAD AND SWAP8 DUP2 SWAP4 POP PUSH2 0xE03 JUMP JUMPDEST DUP6 MLOAD PUSH3 0x461BCD PUSH1 0xE5 SHL DUP2 MSTORE DUP1 DUP9 ADD DUP6 SWAP1 MSTORE PUSH1 0x11 PUSH1 0x24 DUP3 ADD MSTORE PUSH17 0x4E6F207061796D656E742073706C697473 PUSH1 0x78 SHL PUSH1 0x44 DUP3 ADD MSTORE PUSH1 0x64 SWAP1 REVERT JUMPDEST POP SWAP1 SWAP6 SWAP3 POP DUP5 PUSH2 0xEFC DUP3 PUSH1 0x0 DUP1 MLOAD PUSH1 0x20 PUSH2 0x22BF DUP4 CODECOPY DUP2 MLOAD SWAP2 MSTORE SWAP8 SLOAD AND PUSH1 0x7 SLOAD SWAP1 PUSH2 0x2159 JUMP JUMPDEST SLOAD AND PUSH1 0x0 DUP1 MLOAD PUSH1 0x20 PUSH2 0x229F DUP4 CODECOPY DUP2 MLOAD SWAP2 MSTORE DUP3 PUSH1 0x7 SLOAD DUP7 MLOAD SWAP1 DUP2 MSTORE LOG2 PUSH2 0xDE4 JUMP JUMPDEST SWAP1 SWAP6 SWAP3 POP PUSH1 0x0 DUP1 MLOAD PUSH1 0x20 PUSH2 0x22BF DUP4 CODECOPY DUP2 MLOAD SWAP2 MSTORE SWAP5 POP PUSH2 0xF42 DUP2 PUSH1 0x5 SLOAD AND PUSH1 0x7 SLOAD SWAP1 PUSH2 0x2159 JUMP JUMPDEST PUSH1 0x5 SLOAD AND PUSH1 0x0 DUP1 MLOAD PUSH1 0x20 PUSH2 0x229F DUP4 CODECOPY DUP2 MLOAD SWAP2 MSTORE DUP3 PUSH1 0x7 SLOAD DUP7 MLOAD SWAP1 DUP2 MSTORE LOG2 PUSH2 0xDE4 JUMP JUMPDEST DUP7 MLOAD PUSH3 0x461BCD PUSH1 0xE5 SHL DUP2 MSTORE DUP1 DUP10 ADD DUP7 SWAP1 MSTORE PUSH1 0x11 PUSH1 0x24 DUP3 ADD MSTORE PUSH17 0x4E6F206163746976652064697370757465 PUSH1 0x78 SHL PUSH1 0x44 DUP3 ADD MSTORE PUSH1 0x64 SWAP1 REVERT JUMPDEST DUP5 MLOAD PUSH3 0x461BCD PUSH1 0xE5 SHL DUP2 MSTORE DUP1 DUP8 ADD DUP5 SWAP1 MSTORE PUSH1 0xC PUSH1 0x24 DUP3 ADD MSTORE PUSH12 0x27B7363C9030B93134BA32B9 PUSH1 0xA1 SHL PUSH1 0x44 DUP3 ADD MSTORE PUSH1 0x64 SWAP1 REVERT JUMPDEST POP DUP1 DUP3 SLOAD AND CALLER EQ PUSH2 0xCCF JUMP JUMPDEST DUP4 DUP1 REVERT JUMPDEST POP DUP3 CALLVALUE PUSH2 0x213 JUMPI DUP2 PUSH1 0x3 NOT CALLDATASIZE ADD SLT PUSH2 0x213 JUMPI DUP1 MLOAD SWAP1 DUP3 PUSH1 0xE SLOAD PUSH2 0xFFF DUP2 PUSH2 0x1CDB JUMP JUMPDEST DUP1 DUP6 MSTORE SWAP2 PUSH1 0x1 SWAP2 DUP1 DUP4 AND SWAP1 DUP2 ISZERO PUSH2 0x1092 JUMPI POP PUSH1 0x1 EQ PUSH2 0x1035 JUMPI JUMPDEST POP POP POP PUSH2 0x102B DUP3 PUSH2 0x823 SWAP5 SUB DUP4 PUSH2 0x1D47 JUMP JUMPDEST MLOAD SWAP2 DUP3 SWAP2 DUP3 PUSH2 0x1D69 JUMP JUMPDEST SWAP5 POP PUSH1 0xE DUP6 MSTORE PUSH32 0xBB7B4A454DC3493923482F07822329ED19E8244EFF582CC204F8554C3620C3FD JUMPDEST DUP3 DUP7 LT PUSH2 0x107A JUMPI POP POP POP PUSH2 0x102B DUP3 PUSH1 0x20 PUSH2 0x823 SWAP6 DUP3 ADD ADD SWAP5 PUSH2 0x1019 JUMP JUMPDEST DUP1 SLOAD PUSH1 0x20 DUP8 DUP8 ADD DUP2 ADD SWAP2 SWAP1 SWAP2 MSTORE SWAP1 SWAP6 ADD SWAP5 DUP2 ADD PUSH2 0x105D JUMP JUMPDEST PUSH2 0x823 SWAP8 POP DUP7 SWAP4 POP PUSH1 0x20 SWAP3 POP PUSH2 0x102B SWAP5 SWAP2 POP PUSH1 0xFF NOT AND DUP3 DUP5 ADD MSTORE ISZERO ISZERO PUSH1 0x5 SHL DUP3 ADD ADD SWAP5 PUSH2 0x1019 JUMP JUMPDEST POP DUP3 CALLVALUE PUSH2 0x213 JUMPI DUP2 PUSH1 0x3 NOT CALLDATASIZE ADD SLT PUSH2 0x213 JUMPI PUSH1 0x20 SWAP1 PUSH1 0x8 SLOAD SWAP1 MLOAD SWAP1 DUP2 MSTORE RETURN JUMPDEST POP SWAP2 CALLVALUE PUSH2 0x2C3 JUMPI PUSH1 0x20 SWAP1 DUP2 PUSH1 0x3 NOT CALLDATASIZE ADD SLT PUSH2 0xFD9 JUMPI DUP3 CALLDATALOAD SWAP2 PUSH8 0xFFFFFFFFFFFFFFFF SWAP4 DUP5 DUP5 GT PUSH2 0x140A JUMPI CALLDATASIZE PUSH1 0x23 DUP6 ADD SLT ISZERO PUSH2 0x140A JUMPI DUP4 DUP2 ADD CALLDATALOAD SWAP5 DUP6 GT PUSH2 0x140A JUMPI PUSH1 0x24 SWAP1 CALLDATASIZE DUP3 DUP8 DUP8 ADD ADD GT PUSH2 0x1406 JUMPI PUSH1 0x9 SLOAD SWAP1 PUSH1 0xFF DUP3 AND ISZERO DUP1 ISZERO PUSH2 0x13FB JUMPI JUMPDEST ISZERO PUSH2 0x13C4 JUMPI PUSH2 0x114B PUSH1 0xFF DUP4 PUSH1 0x8 SHR AND ISZERO PUSH2 0x1E49 JUMP JUMPDEST PUSH1 0xFF DUP3 PUSH1 0x10 SHR AND PUSH2 0x138F JUMPI DUP1 SLOAD CALLER PUSH1 0x1 PUSH1 0x1 PUSH1 0xA0 SHL SUB SWAP2 DUP3 AND EQ SWAP1 DUP2 ISZERO PUSH2 0x1381 JUMPI JUMPDEST POP ISZERO PUSH2 0x133F JUMPI POP SWAP1 PUSH3 0x10000 DUP7 SWAP3 PUSH3 0xFF0000 NOT AND OR PUSH1 0x9 SSTORE TIMESTAMP PUSH1 0xD SSTORE PUSH2 0x1194 PUSH1 0xE SLOAD PUSH2 0x1CDB JUMP JUMPDEST PUSH1 0x1F DUP2 GT PUSH2 0x12D2 JUMPI JUMPDEST POP DUP7 SWAP5 PUSH1 0x1F DUP4 GT PUSH1 0x1 EQ PUSH2 0x122B JUMPI DUP3 DUP3 PUSH32 0xD4882C6B71DFBB8DF0A01FA4CD97676F243A56DD525DF6B891B2E1700E514E89 SWAP8 DUP11 SWAP3 PUSH2 0x121E JUMPI JUMPDEST POP POP DUP4 PUSH1 0x1 SHL SWAP1 PUSH1 0x0 NOT DUP6 PUSH1 0x3 SHL SHR NOT AND OR PUSH1 0xE SSTORE JUMPDEST DUP3 DUP6 MLOAD SWAP6 DUP1 DUP8 MSTORE DUP7 ADD MSTORE ADD PUSH1 0x60 DUP5 ADD CALLDATACOPY DUP5 PUSH1 0x60 DUP6 DUP5 ADD ADD MSTORE TIMESTAMP SWAP1 DUP3 ADD MSTORE PUSH1 0x60 DUP2 CALLER SWAP5 PUSH1 0x1F DUP1 NOT SWAP2 ADD AND DUP2 ADD SUB ADD SWAP1 LOG2 DUP1 RETURN JUMPDEST DUP4 ADD ADD CALLDATALOAD SWAP1 POP DUP3 CODESIZE PUSH2 0x11D6 JUMP JUMPDEST PUSH1 0xE DUP9 MSTORE PUSH1 0x1F NOT DUP4 AND SWAP6 PUSH32 0xBB7B4A454DC3493923482F07822329ED19E8244EFF582CC204F8554C3620C3FD SWAP1 DUP10 JUMPDEST DUP9 DUP2 LT PUSH2 0x12B6 JUMPI POP DUP5 PUSH32 0xD4882C6B71DFBB8DF0A01FA4CD97676F243A56DD525DF6B891B2E1700E514E89 SWAP9 LT PUSH2 0x129A JUMPI JUMPDEST POP POP PUSH1 0x1 DUP4 DUP2 SHL ADD PUSH1 0xE SSTORE PUSH2 0x11EC JUMP JUMPDEST DUP3 ADD DUP4 ADD CALLDATALOAD PUSH1 0x0 NOT PUSH1 0x3 DUP7 SWAP1 SHL PUSH1 0xF8 AND SHR NOT AND SWAP1 SSTORE CODESIZE DUP1 PUSH2 0x128A JUMP JUMPDEST DUP4 DUP3 ADD DUP6 ADD CALLDATALOAD DUP4 SSTORE DUP10 SWAP6 POP PUSH1 0x1 SWAP1 SWAP3 ADD SWAP2 SWAP1 DUP7 ADD SWAP1 DUP7 ADD PUSH2 0x1259 JUMP JUMPDEST SWAP1 SWAP2 POP PUSH1 0xE DUP8 MSTORE PUSH32 0xBB7B4A454DC3493923482F07822329ED19E8244EFF582CC204F8554C3620C3FD PUSH1 0x1F DUP8 ADD PUSH1 0x5 SHR DUP2 ADD SWAP2 DUP5 DUP9 LT PUSH2 0x1335 JUMPI JUMPDEST SWAP1 PUSH1 0x1F DUP9 SWAP5 SWAP4 SWAP3 ADD PUSH1 0x5 SHR ADD SWAP1 JUMPDEST DUP2 DUP2 LT PUSH2 0x1327 JUMPI POP PUSH2 0x119D JUMP JUMPDEST DUP9 DUP2 SSTORE DUP8 SWAP4 POP PUSH1 0x1 ADD PUSH2 0x131A JUMP JUMPDEST SWAP1 SWAP2 POP DUP2 SWAP1 PUSH2 0x130C JUMP JUMPDEST DUP5 MLOAD PUSH3 0x461BCD PUSH1 0xE5 SHL DUP2 MSTORE SWAP1 DUP2 ADD DUP5 SWAP1 MSTORE PUSH1 0x18 DUP2 DUP5 ADD MSTORE PUSH32 0x4F6E6C7920706172746965732063616E20646973707574650000000000000000 PUSH1 0x44 DUP3 ADD MSTORE PUSH1 0x64 SWAP1 REVERT JUMPDEST SWAP1 POP PUSH1 0x5 SLOAD AND CALLER EQ CODESIZE PUSH2 0x116D JUMP JUMPDEST DUP5 MLOAD PUSH3 0x461BCD PUSH1 0xE5 SHL DUP2 MSTORE SWAP1 DUP2 ADD DUP5 SWAP1 MSTORE PUSH1 0x10 DUP2 DUP5 ADD MSTORE PUSH16 0x105B1C9958591E48191A5CDC1D5D1959 PUSH1 0x82 SHL PUSH1 0x44 DUP3 ADD MSTORE PUSH1 0x64 SWAP1 REVERT JUMPDEST DUP5 MLOAD PUSH3 0x461BCD PUSH1 0xE5 SHL DUP2 MSTORE SWAP1 DUP2 ADD DUP5 SWAP1 MSTORE PUSH1 0x12 DUP2 DUP5 ADD MSTORE PUSH18 0x4E6F7468696E6720746F2064697370757465 PUSH1 0x70 SHL PUSH1 0x44 DUP3 ADD MSTORE PUSH1 0x64 SWAP1 REVERT JUMPDEST POP PUSH1 0x7 SLOAD ISZERO ISZERO PUSH2 0x1136 JUMP JUMPDEST DUP7 DUP1 REVERT JUMPDEST DUP6 DUP1 REVERT JUMPDEST POP DUP3 CALLVALUE PUSH2 0x213 JUMPI DUP2 PUSH1 0x3 NOT CALLDATASIZE ADD SLT PUSH2 0x213 JUMPI PUSH1 0x5 SLOAD SWAP1 MLOAD PUSH1 0x1 PUSH1 0x1 PUSH1 0xA0 SHL SUB SWAP1 SWAP2 AND DUP2 MSTORE PUSH1 0x20 SWAP1 RETURN JUMPDEST POP CALLVALUE PUSH2 0x827 JUMPI DUP1 PUSH1 0x3 NOT CALLDATASIZE ADD SLT PUSH2 0x827 JUMPI PUSH2 0x1450 PUSH2 0x1E1D JUMP JUMPDEST DUP1 SLOAD PUSH1 0x1 PUSH1 0x1 PUSH1 0xA0 SHL SUB NOT DUP2 AND DUP3 SSTORE DUP2 SWAP1 PUSH1 0x1 PUSH1 0x1 PUSH1 0xA0 SHL SUB AND PUSH32 0x8BE0079C531659141344CD1FD0A4F28419497F9722A3DAAFE3B4186F6B6457E0 DUP3 DUP1 LOG3 DUP1 RETURN JUMPDEST POP DUP3 CALLVALUE PUSH2 0x213 JUMPI DUP2 PUSH1 0x3 NOT CALLDATASIZE ADD SLT PUSH2 0x213 JUMPI DUP1 MLOAD SWAP1 DUP3 PUSH1 0x2 SLOAD PUSH2 0x14B3 DUP2 PUSH2 0x1CDB JUMP JUMPDEST DUP1 DUP6 MSTORE SWAP2 PUSH1 0x1 SWAP2 DUP1 DUP4 AND SWAP1 DUP2 ISZERO PUSH2 0x1092 JUMPI POP PUSH1 0x1 EQ PUSH2 0x14DE JUMPI POP POP POP PUSH2 0x102B DUP3 PUSH2 0x823 SWAP5 SUB DUP4 PUSH2 0x1D47 JUMP JUMPDEST SWAP5 POP PUSH1 0x2 DUP6 MSTORE PUSH32 0x405787FA12A823E0F2B7631CC41B3BA8828B3321CA811111FA75CD3AA3BB5ACE JUMPDEST DUP3 DUP7 LT PUSH2 0x1523 JUMPI POP POP POP PUSH2 0x102B DUP3 PUSH1 0x20 PUSH2 0x823 SWAP6 DUP3 ADD ADD SWAP5 PUSH2 0x1019 JUMP JUMPDEST DUP1 SLOAD PUSH1 0x20 DUP8 DUP8 ADD DUP2 ADD SWAP2 SWAP1 SWAP2 MSTORE SWAP1 SWAP6 ADD SWAP5 DUP2 ADD PUSH2 0x1506 JUMP JUMPDEST POP SWAP2 CALLVALUE PUSH2 0x2C3 JUMPI DUP3 PUSH1 0x3 NOT CALLDATASIZE ADD SLT PUSH2 0x2C3 JUMPI PUSH2 0x1555 PUSH2 0x2008 JUMP JUMPDEST PUSH1 0x9 SLOAD SWAP3 PUSH2 0x156B PUSH1 0xFF DUP6 PUSH2 0x879 DUP3 DUP1 SWAP9 AND PUSH2 0x2038 JUMP JUMPDEST DUP1 SLOAD PUSH1 0x1 PUSH1 0x1 PUSH1 0xA0 SHL SUB SWAP1 DUP2 AND CALLER EQ DUP1 ISZERO PUSH2 0x17D9 JUMPI JUMPDEST DUP1 ISZERO PUSH2 0x17AE JUMPI JUMPDEST ISZERO PUSH2 0x176B JUMPI PUSH1 0xA DUP1 SLOAD SWAP1 SWAP2 SWAP1 ISZERO PUSH2 0x1743 JUMPI PUSH2 0x15A1 PUSH2 0x2008 JUMP JUMPDEST PUSH2 0x15AE DUP7 PUSH1 0x9 SLOAD AND PUSH2 0x2038 JUMP JUMPDEST DUP2 SLOAD ISZERO PUSH2 0x170C JUMPI PUSH1 0x7 SWAP6 DUP7 SLOAD SWAP3 DUP5 JUMPDEST DUP2 SLOAD DUP2 LT ISZERO PUSH2 0x1657 JUMPI PUSH2 0x15D2 PUSH2 0x451 DUP3 PUSH2 0x1DCD JUMP JUMPDEST DUP1 DUP9 ADD DUP1 MLOAD ISZERO PUSH2 0x163D JUMPI MLOAD JUMPDEST DUP7 DUP2 GT PUSH2 0x1636 JUMPI JUMPDEST DUP1 PUSH2 0x15FC JUMPI JUMPDEST POP POP PUSH2 0x15F7 SWAP1 PUSH2 0x207C JUMP JUMPDEST PUSH2 0x15BD JUMP JUMPDEST PUSH1 0x0 DUP1 MLOAD PUSH1 0x20 PUSH2 0x229F DUP4 CODECOPY DUP2 MLOAD SWAP2 MSTORE PUSH1 0x20 DUP8 PUSH2 0x1625 DUP5 DUP7 SWAP12 PUSH2 0x4B1 DUP3 DUP6 PUSH2 0x15F7 SWAP12 SWAP11 MLOAD AND PUSH2 0x2159 JUMP JUMPDEST SWAP10 MLOAD AND SWAP3 DUP12 MLOAD SWAP1 DUP2 MSTORE LOG2 SWAP1 CODESIZE PUSH2 0x15EC JUMP JUMPDEST POP DUP6 PUSH2 0x15E6 JUMP JUMPDEST POP PUSH2 0x2710 PUSH2 0x1651 DUP12 SLOAD PUSH1 0x20 DUP5 ADD MLOAD SWAP1 PUSH2 0x20CB JUMP JUMPDEST DIV PUSH2 0x15DE JUMP JUMPDEST POP SWAP2 SWAP4 SWAP7 POP SWAP5 SWAP4 SWAP2 SWAP4 DUP5 PUSH2 0x1674 JUMPI JUMPDEST POP POP PUSH1 0x1 DUP1 SSTORE POP DUP4 SWAP3 POP POP POP RETURN JUMPDEST SLOAD SWAP1 SLOAD SWAP1 DUP4 AND SWAP5 DUP7 JUMPDEST DUP3 DUP2 LT PUSH2 0x16B9 JUMPI JUMPDEST POP POP POP SWAP1 DUP4 PUSH1 0x20 SWAP3 PUSH2 0x16A7 DUP6 PUSH1 0x0 DUP1 MLOAD PUSH1 0x20 PUSH2 0x229F DUP4 CODECOPY DUP2 MLOAD SWAP2 MSTORE SWAP7 SWAP8 PUSH2 0x2159 JUMP JUMPDEST MLOAD SWAP5 DUP6 MSTORE AND SWAP3 LOG2 CODESIZE DUP1 DUP1 DUP1 DUP1 DUP1 PUSH2 0x1666 JUMP JUMPDEST DUP2 PUSH1 0x3 PUSH2 0x16C5 DUP4 PUSH2 0x1DCD JUMP JUMPDEST POP ADD SLOAD AND PUSH2 0x16DB JUMPI PUSH2 0x16D6 SWAP1 PUSH2 0x207C JUMP JUMPDEST PUSH2 0x167D JUMP JUMPDEST PUSH1 0x0 DUP1 MLOAD PUSH1 0x20 PUSH2 0x229F DUP4 CODECOPY DUP2 MLOAD SWAP2 MSTORE SWAP6 SWAP7 POP DUP5 SWAP4 SWAP3 POP PUSH1 0x20 SWAP5 SWAP2 POP PUSH2 0x16FF SWAP1 PUSH2 0x1DCD JUMP JUMPDEST POP SLOAD AND SWAP5 SWAP4 DUP2 SWAP3 SWAP4 PUSH2 0x1685 JUMP JUMPDEST DUP4 MLOAD PUSH3 0x461BCD PUSH1 0xE5 SHL DUP2 MSTORE PUSH1 0x20 DUP2 DUP8 ADD MSTORE PUSH1 0x11 PUSH1 0x24 DUP3 ADD MSTORE PUSH17 0x4E6F207061796D656E742073706C697473 PUSH1 0x78 SHL PUSH1 0x44 DUP3 ADD MSTORE PUSH1 0x64 SWAP1 REVERT JUMPDEST SWAP1 POP PUSH1 0x20 SWAP2 SWAP5 POP DUP4 PUSH2 0xA56 DUP3 PUSH1 0x0 DUP1 MLOAD PUSH1 0x20 PUSH2 0x229F DUP4 CODECOPY DUP2 MLOAD SWAP2 MSTORE SWAP6 SWAP7 SLOAD AND PUSH1 0x7 SLOAD SWAP1 PUSH2 0x2159 JUMP JUMPDEST DUP3 MLOAD PUSH3 0x461BCD PUSH1 0xE5 SHL DUP2 MSTORE PUSH1 0x20 DUP2 DUP7 ADD MSTORE PUSH1 0x1B PUSH1 0x24 DUP3 ADD MSTORE PUSH32 0x4E6F7420617574686F72697A6564206F7220746F6F206561726C790000000000 PUSH1 0x44 DUP3 ADD MSTORE PUSH1 0x64 SWAP1 REVERT JUMPDEST POP PUSH1 0x8 SLOAD PUSH3 0x278D00 DUP2 ADD DUP1 SWAP2 GT PUSH2 0x17C6 JUMPI TIMESTAMP GT PUSH2 0x1588 JUMP JUMPDEST PUSH4 0x4E487B71 PUSH1 0xE0 SHL DUP4 MSTORE PUSH1 0x11 DUP6 MSTORE PUSH1 0x24 DUP4 REVERT JUMPDEST POP DUP1 DUP5 SLOAD AND CALLER EQ PUSH2 0x1581 JUMP JUMPDEST POP DUP3 CALLVALUE PUSH2 0x213 JUMPI DUP2 PUSH1 0x3 NOT CALLDATASIZE ADD SLT PUSH2 0x213 JUMPI PUSH1 0x20 SWAP1 PUSH2 0x5F7 PUSH2 0x226E JUMP JUMPDEST POP DUP3 CALLVALUE PUSH2 0x213 JUMPI DUP2 PUSH1 0x3 NOT CALLDATASIZE ADD SLT PUSH2 0x213 JUMPI PUSH1 0x20 SWAP1 PUSH2 0x5F7 PUSH2 0x2244 JUMP JUMPDEST POP DUP3 CALLVALUE PUSH2 0x213 JUMPI PUSH1 0x80 CALLDATASIZE PUSH1 0x3 NOT ADD SLT PUSH2 0x213 JUMPI PUSH2 0x183A PUSH2 0x1DB2 JUMP JUMPDEST SWAP1 PUSH1 0x24 SWAP2 DUP3 CALLDATALOAD SWAP1 PUSH1 0x44 CALLDATALOAD SWAP1 PUSH1 0x64 CALLDATALOAD SWAP1 DUP2 ISZERO ISZERO DUP1 SWAP3 SUB PUSH2 0x1406 JUMPI PUSH2 0x185B PUSH2 0x1E1D JUMP JUMPDEST PUSH1 0x1 PUSH1 0x1 PUSH1 0xA0 SHL SUB SWAP1 DUP2 AND SWAP6 DUP7 ISZERO PUSH2 0x1A61 JUMPI PUSH1 0xA SLOAD SWAP2 DUP3 ISZERO DUP1 ISZERO PUSH2 0x1A54 JUMPI JUMPDEST ISZERO PUSH2 0x1A12 JUMPI DUP5 ISZERO PUSH2 0x1963 JUMPI JUMPDEST DUP7 MLOAD PUSH2 0x1891 DUP2 PUSH2 0x1D15 JUMP JUMPDEST DUP9 DUP2 MSTORE PUSH1 0x20 DUP2 ADD SWAP3 DUP8 DUP5 MSTORE DUP9 DUP3 ADD SWAP5 DUP8 DUP7 MSTORE PUSH1 0x60 DUP4 ADD SWAP7 DUP8 MSTORE PUSH9 0x10000000000000000 DUP2 LT ISZERO PUSH2 0x1951 JUMPI DUP1 PUSH1 0x1 PUSH2 0x18CB SWAP3 ADD PUSH1 0xA SSTORE PUSH2 0x1DCD JUMP JUMPDEST SWAP13 SWAP1 SWAP13 PUSH2 0x1941 JUMPI POP POP SWAP2 PUSH1 0x3 SWAP4 SWAP2 PUSH32 0x14678E4E3111FE0246D0AB7482532A1DEAE4D3D2F306A302349E69B51C55F3A2 SWAP10 SWAP11 SWAP12 SWAP4 MLOAD AND PUSH12 0xFFFFFFFFFFFFFFFFFFFFFFFF PUSH1 0xA0 SHL DUP5 SLOAD AND OR DUP4 SSTORE MLOAD PUSH1 0x1 DUP4 ADD SSTORE MLOAD PUSH1 0x2 DUP3 ADD SSTORE ADD SWAP1 MLOAD ISZERO ISZERO PUSH1 0xFF DUP1 NOT DUP4 SLOAD AND SWAP2 AND OR SWAP1 SSTORE DUP3 MLOAD SWAP2 DUP3 MSTORE PUSH1 0x20 DUP3 ADD MSTORE LOG2 DUP1 RETURN JUMPDEST PUSH4 0x4E487B71 PUSH1 0xE0 SHL DUP13 MSTORE DUP12 SWAP1 MSTORE DUP11 REVERT JUMPDEST POP PUSH4 0x4E487B71 PUSH1 0xE0 SHL DUP12 MSTORE PUSH1 0x41 DUP13 MSTORE DUP11 REVERT JUMPDEST DUP6 ISZERO ISZERO DUP1 PUSH2 0x1A06 JUMPI JUMPDEST ISZERO PUSH2 0x19CF JUMPI PUSH1 0xB SLOAD PUSH2 0x2710 PUSH2 0x1981 DUP9 DUP4 PUSH2 0x1E89 JUMP JUMPDEST GT PUSH2 0x1998 JUMPI DUP7 PUSH2 0x1990 SWAP2 PUSH2 0x1E89 JUMP JUMPDEST PUSH1 0xB SSTORE PUSH2 0x1886 JUMP JUMPDEST DUP8 MLOAD PUSH3 0x461BCD PUSH1 0xE5 SHL DUP2 MSTORE PUSH1 0x20 DUP2 DUP14 ADD MSTORE PUSH1 0x12 DUP2 DUP6 ADD MSTORE PUSH18 0x546F74616C20657863656564732031303025 PUSH1 0x70 SHL PUSH1 0x44 DUP3 ADD MSTORE PUSH1 0x64 SWAP1 REVERT JUMPDEST DUP7 MLOAD PUSH3 0x461BCD PUSH1 0xE5 SHL DUP2 MSTORE PUSH1 0x20 DUP2 DUP13 ADD MSTORE PUSH1 0x12 DUP2 DUP5 ADD MSTORE PUSH18 0x496E76616C69642070657263656E74616765 PUSH1 0x70 SHL PUSH1 0x44 DUP3 ADD MSTORE PUSH1 0x64 SWAP1 REVERT JUMPDEST POP PUSH2 0x2710 DUP7 GT ISZERO PUSH2 0x196C JUMP JUMPDEST DUP7 MLOAD PUSH3 0x461BCD PUSH1 0xE5 SHL DUP2 MSTORE PUSH1 0x20 DUP2 DUP13 ADD MSTORE PUSH1 0x1E DUP2 DUP5 ADD MSTORE PUSH32 0x43616E6E6F74206D6F6469667920616674657220636F6D706C6574696F6E0000 PUSH1 0x44 DUP3 ADD MSTORE PUSH1 0x64 SWAP1 REVERT JUMPDEST POP PUSH1 0xFF PUSH1 0x9 SLOAD AND ISZERO PUSH2 0x187A JUMP JUMPDEST DUP9 PUSH1 0x11 PUSH1 0x64 SWAP3 PUSH1 0x20 DUP10 MLOAD SWAP4 PUSH3 0x461BCD PUSH1 0xE5 SHL DUP6 MSTORE DUP5 ADD MSTORE DUP3 ADD MSTORE PUSH17 0x125B9D985B1A59081C9958DA5C1A595B9D PUSH1 0x7A SHL PUSH1 0x44 DUP3 ADD MSTORE REVERT JUMPDEST POP DUP3 CALLVALUE PUSH2 0x213 JUMPI DUP2 PUSH1 0x3 NOT CALLDATASIZE ADD SLT PUSH2 0x213 JUMPI PUSH1 0x20 SWAP1 PUSH1 0xFF PUSH1 0x9 SLOAD PUSH1 0xB8 SHR AND SWAP1 MLOAD SWAP1 DUP2 MSTORE RETURN JUMPDEST POP DUP3 CALLVALUE PUSH2 0x213 JUMPI DUP2 PUSH1 0x3 NOT CALLDATASIZE ADD SLT PUSH2 0x213 JUMPI PUSH1 0x20 SWAP1 PUSH1 0x8 SLOAD TIMESTAMP GT SWAP1 DUP2 PUSH2 0x1AE5 JUMPI JUMPDEST MLOAD SWAP1 ISZERO ISZERO DUP2 MSTORE RETURN JUMPDEST PUSH1 0x9 SLOAD PUSH1 0xFF AND ISZERO SWAP2 POP PUSH2 0x1ADD JUMP JUMPDEST POP SWAP2 SWAP1 CALLVALUE PUSH2 0x2C3 JUMPI PUSH1 0x20 CALLDATASIZE PUSH1 0x3 NOT ADD SLT PUSH2 0x2C3 JUMPI PUSH2 0x1B0F PUSH2 0x1DB2 JUMP JUMPDEST PUSH2 0x1B17 PUSH2 0x1E1D JUMP JUMPDEST PUSH1 0x1 PUSH1 0x1 PUSH1 0xA0 SHL SUB AND SWAP2 DUP3 ISZERO PUSH2 0x1B44 JUMPI POP POP PUSH12 0xFFFFFFFFFFFFFFFFFFFFFFFF PUSH1 0xA0 SHL PUSH1 0xC SLOAD AND OR PUSH1 0xC SSTORE DUP1 RETURN JUMPDEST SWAP1 PUSH1 0x20 PUSH1 0x64 SWAP3 MLOAD SWAP2 PUSH3 0x461BCD PUSH1 0xE5 SHL DUP4 MSTORE DUP3 ADD MSTORE PUSH1 0xF PUSH1 0x24 DUP3 ADD MSTORE PUSH15 0x24B73B30B634B21030B93134BA32B9 PUSH1 0x89 SHL PUSH1 0x44 DUP3 ADD MSTORE REVERT JUMPDEST POP DUP3 CALLVALUE PUSH2 0x213 JUMPI DUP2 PUSH1 0x3 NOT CALLDATASIZE ADD SLT PUSH2 0x213 JUMPI PUSH1 0x9 SLOAD SWAP1 MLOAD PUSH1 0x18 SWAP2 SWAP1 SWAP2 SHR PUSH1 0x1 PUSH1 0x1 PUSH1 0xA0 SHL SUB AND DUP2 MSTORE PUSH1 0x20 SWAP1 RETURN JUMPDEST POP DUP3 CALLVALUE PUSH2 0x213 JUMPI DUP2 PUSH1 0x3 NOT CALLDATASIZE ADD SLT PUSH2 0x213 JUMPI DUP1 MLOAD SWAP1 DUP3 PUSH1 0x3 SLOAD PUSH2 0x1BC8 DUP2 PUSH2 0x1CDB JUMP JUMPDEST DUP1 DUP6 MSTORE SWAP2 PUSH1 0x1 SWAP2 DUP1 DUP4 AND SWAP1 DUP2 ISZERO PUSH2 0x1092 JUMPI POP PUSH1 0x1 EQ PUSH2 0x1BF3 JUMPI POP POP POP PUSH2 0x102B DUP3 PUSH2 0x823 SWAP5 SUB DUP4 PUSH2 0x1D47 JUMP JUMPDEST SWAP5 POP PUSH1 0x3 DUP6 MSTORE PUSH32 0xC2575A0E9E593C00F959F8C92F12DB2869C3395A3B0502D05E2516446F71F85B JUMPDEST DUP3 DUP7 LT PUSH2 0x1C38 JUMPI POP POP POP PUSH2 0x102B DUP3 PUSH1 0x20 PUSH2 0x823 SWAP6 DUP3 ADD ADD SWAP5 PUSH2 0x1019 JUMP JUMPDEST DUP1 SLOAD PUSH1 0x20 DUP8 DUP8 ADD DUP2 ADD SWAP2 SWAP1 SWAP2 MSTORE SWAP1 SWAP6 ADD SWAP5 DUP2 ADD PUSH2 0x1C1B JUMP JUMPDEST POP DUP3 CALLVALUE PUSH2 0x213 JUMPI DUP2 PUSH1 0x3 NOT CALLDATASIZE ADD SLT PUSH2 0x213 JUMPI PUSH1 0x20 SWAP1 PUSH1 0x6 SLOAD SWAP1 MLOAD SWAP1 DUP2 MSTORE RETURN JUMPDEST POP DUP3 CALLVALUE PUSH2 0x213 JUMPI DUP2 PUSH1 0x3 NOT CALLDATASIZE ADD SLT PUSH2 0x213 JUMPI PUSH1 0x20 SWAP1 PUSH1 0x7 SLOAD SWAP1 MLOAD SWAP1 DUP2 MSTORE RETURN JUMPDEST POP SWAP2 SWAP1 CALLVALUE PUSH2 0x2C3 JUMPI DUP3 PUSH1 0x3 NOT CALLDATASIZE ADD SLT PUSH2 0x2C3 JUMPI SLOAD SWAP1 MLOAD PUSH1 0x1 PUSH1 0x1 PUSH1 0xA0 SHL SUB SWAP1 SWAP2 AND DUP2 MSTORE PUSH1 0x20 SWAP2 POP RETURN JUMPDEST SWAP1 POP CALLVALUE PUSH2 0x213 JUMPI DUP2 PUSH1 0x3 NOT CALLDATASIZE ADD SLT PUSH2 0x213 JUMPI PUSH1 0x20 SWAP1 PUSH1 0xFF PUSH1 0x9 SLOAD PUSH1 0x10 SHR AND ISZERO ISZERO DUP2 MSTORE RETURN JUMPDEST SWAP1 PUSH1 0x1 DUP3 DUP2 SHR SWAP3 AND DUP1 ISZERO PUSH2 0x1D0B JUMPI JUMPDEST PUSH1 0x20 DUP4 LT EQ PUSH2 0x1CF5 JUMPI JUMP JUMPDEST PUSH4 0x4E487B71 PUSH1 0xE0 SHL PUSH1 0x0 MSTORE PUSH1 0x22 PUSH1 0x4 MSTORE PUSH1 0x24 PUSH1 0x0 REVERT JUMPDEST SWAP2 PUSH1 0x7F AND SWAP2 PUSH2 0x1CEA JUMP JUMPDEST PUSH1 0x80 DUP2 ADD SWAP1 DUP2 LT PUSH8 0xFFFFFFFFFFFFFFFF DUP3 GT OR PUSH2 0x1D31 JUMPI PUSH1 0x40 MSTORE JUMP JUMPDEST PUSH4 0x4E487B71 PUSH1 0xE0 SHL PUSH1 0x0 MSTORE PUSH1 0x41 PUSH1 0x4 MSTORE PUSH1 0x24 PUSH1 0x0 REVERT JUMPDEST SWAP1 PUSH1 0x1F DUP1 NOT SWAP2 ADD AND DUP2 ADD SWAP1 DUP2 LT PUSH8 0xFFFFFFFFFFFFFFFF DUP3 GT OR PUSH2 0x1D31 JUMPI PUSH1 0x40 MSTORE JUMP JUMPDEST PUSH1 0x20 DUP1 DUP3 MSTORE DUP3 MLOAD DUP2 DUP4 ADD DUP2 SWAP1 MSTORE SWAP1 SWAP4 SWAP3 PUSH1 0x0 JUMPDEST DUP3 DUP2 LT PUSH2 0x1D9E JUMPI POP POP PUSH1 0x40 SWAP3 SWAP4 POP PUSH1 0x0 DUP4 DUP3 DUP5 ADD ADD MSTORE PUSH1 0x1F DUP1 NOT SWAP2 ADD AND ADD ADD SWAP1 JUMP JUMPDEST DUP2 DUP2 ADD DUP7 ADD MLOAD DUP5 DUP3 ADD PUSH1 0x40 ADD MSTORE DUP6 ADD PUSH2 0x1D7C JUMP JUMPDEST PUSH1 0x4 CALLDATALOAD SWAP1 PUSH1 0x1 PUSH1 0x1 PUSH1 0xA0 SHL SUB DUP3 AND DUP3 SUB PUSH2 0x1DC8 JUMPI JUMP JUMPDEST PUSH1 0x0 DUP1 REVERT JUMPDEST PUSH1 0xA SLOAD DUP2 LT ISZERO PUSH2 0x1E07 JUMPI PUSH1 0xA PUSH1 0x0 MSTORE PUSH1 0x2 SHL PUSH32 0xC65A7BB8D6351C1CF70C95A316CC6A92839C986682D98BC35F958F4883F9D2A8 ADD SWAP1 PUSH1 0x0 SWAP1 JUMP JUMPDEST PUSH4 0x4E487B71 PUSH1 0xE0 SHL PUSH1 0x0 MSTORE PUSH1 0x32 PUSH1 0x4 MSTORE PUSH1 0x24 PUSH1 0x0 REVERT JUMPDEST PUSH1 0x0 SLOAD PUSH1 0x1 PUSH1 0x1 PUSH1 0xA0 SHL SUB AND CALLER SUB PUSH2 0x1E31 JUMPI JUMP JUMPDEST PUSH1 0x40 MLOAD PUSH4 0x118CDAA7 PUSH1 0xE0 SHL DUP2 MSTORE CALLER PUSH1 0x4 DUP3 ADD MSTORE PUSH1 0x24 SWAP1 REVERT JUMPDEST ISZERO PUSH2 0x1E50 JUMPI JUMP JUMPDEST PUSH1 0x40 MLOAD PUSH3 0x461BCD PUSH1 0xE5 SHL DUP2 MSTORE PUSH1 0x20 PUSH1 0x4 DUP3 ADD MSTORE PUSH1 0x11 PUSH1 0x24 DUP3 ADD MSTORE PUSH17 0x125B9D9BDA58D94818D85B98D95B1B1959 PUSH1 0x7A SHL PUSH1 0x44 DUP3 ADD MSTORE PUSH1 0x64 SWAP1 REVERT JUMPDEST SWAP2 SWAP1 DUP3 ADD DUP1 SWAP3 GT PUSH2 0x1E96 JUMPI JUMP JUMPDEST PUSH4 0x4E487B71 PUSH1 0xE0 SHL PUSH1 0x0 MSTORE PUSH1 0x11 PUSH1 0x4 MSTORE PUSH1 0x24 PUSH1 0x0 REVERT JUMPDEST ISZERO PUSH2 0x1EB3 JUMPI JUMP JUMPDEST PUSH1 0x40 MLOAD PUSH3 0x461BCD PUSH1 0xE5 SHL DUP2 MSTORE PUSH1 0x20 PUSH1 0x4 DUP3 ADD MSTORE PUSH1 0x21 PUSH1 0x24 DUP3 ADD MSTORE PUSH32 0x446F206E6F742073656E642045544820666F7220746F6B656E207061796D656E PUSH1 0x44 DUP3 ADD MSTORE PUSH1 0x1D PUSH1 0xFA SHL PUSH1 0x64 DUP3 ADD MSTORE PUSH1 0x84 SWAP1 REVERT JUMPDEST ISZERO PUSH2 0x1F09 JUMPI JUMP JUMPDEST PUSH1 0x40 MLOAD PUSH3 0x461BCD PUSH1 0xE5 SHL DUP2 MSTORE PUSH1 0x20 PUSH1 0x4 DUP3 ADD MSTORE PUSH1 0x14 PUSH1 0x24 DUP3 ADD MSTORE PUSH20 0x125B98DBDC9C9958DD0811551208185B5BDD5B9D PUSH1 0x62 SHL PUSH1 0x44 DUP3 ADD MSTORE PUSH1 0x64 SWAP1 REVERT JUMPDEST PUSH1 0x40 MLOAD PUSH4 0x23B872DD PUSH1 0xE0 SHL PUSH1 0x20 DUP3 ADD MSTORE PUSH1 0x1 PUSH1 0x1 PUSH1 0xA0 SHL SUB SWAP3 DUP4 AND PUSH1 0x24 DUP3 ADD MSTORE SWAP3 SWAP1 SWAP2 AND PUSH1 0x44 DUP4 ADD MSTORE PUSH1 0x64 DUP1 DUP4 ADD SWAP4 SWAP1 SWAP4 MSTORE SWAP2 DUP2 MSTORE PUSH1 0xA0 DUP2 ADD SWAP2 DUP2 DUP4 LT PUSH8 0xFFFFFFFFFFFFFFFF DUP5 GT OR PUSH2 0x1D31 JUMPI PUSH2 0x1F9E SWAP3 PUSH1 0x40 MSTORE PUSH2 0x1FA0 JUMP JUMPDEST JUMP JUMPDEST SWAP1 PUSH1 0x0 PUSH1 0x20 SWAP2 DUP3 DUP2 MLOAD SWAP2 ADD DUP3 DUP6 GAS CALL ISZERO PUSH2 0x1FFC JUMPI PUSH1 0x0 MLOAD RETURNDATASIZE PUSH2 0x1FF3 JUMPI POP PUSH1 0x1 PUSH1 0x1 PUSH1 0xA0 SHL SUB DUP2 AND EXTCODESIZE ISZERO JUMPDEST PUSH2 0x1FD1 JUMPI POP JUMP JUMPDEST PUSH1 0x40 MLOAD PUSH4 0x5274AFE7 PUSH1 0xE0 SHL DUP2 MSTORE PUSH1 0x1 PUSH1 0x1 PUSH1 0xA0 SHL SUB SWAP1 SWAP2 AND PUSH1 0x4 DUP3 ADD MSTORE PUSH1 0x24 SWAP1 REVERT JUMPDEST PUSH1 0x1 EQ ISZERO PUSH2 0x1FCA JUMP JUMPDEST PUSH1 0x40 MLOAD RETURNDATASIZE PUSH1 0x0 DUP3 RETURNDATACOPY RETURNDATASIZE SWAP1 REVERT JUMPDEST PUSH1 0x2 PUSH1 0x1 SLOAD EQ PUSH2 0x2019 JUMPI PUSH1 0x2 PUSH1 0x1 SSTORE JUMP JUMPDEST PUSH1 0x40 MLOAD PUSH4 0x3EE5AEB5 PUSH1 0xE0 SHL DUP2 MSTORE PUSH1 0x4 SWAP1 REVERT JUMPDEST SWAP2 SWAP1 DUP3 SUB SWAP2 DUP3 GT PUSH2 0x1E96 JUMPI JUMP JUMPDEST ISZERO PUSH2 0x203F JUMPI JUMP JUMPDEST PUSH1 0x40 MLOAD PUSH3 0x461BCD PUSH1 0xE5 SHL DUP2 MSTORE PUSH1 0x20 PUSH1 0x4 DUP3 ADD MSTORE PUSH1 0x15 PUSH1 0x24 DUP3 ADD MSTORE PUSH21 0x125B9D9BDA58D9481B9BDD0818DBDB5C1B195D1959 PUSH1 0x5A SHL PUSH1 0x44 DUP3 ADD MSTORE PUSH1 0x64 SWAP1 REVERT JUMPDEST PUSH1 0x0 NOT DUP2 EQ PUSH2 0x1E96 JUMPI PUSH1 0x1 ADD SWAP1 JUMP JUMPDEST SWAP1 PUSH1 0x40 MLOAD PUSH2 0x2098 DUP2 PUSH2 0x1D15 JUMP JUMPDEST DUP3 SLOAD PUSH1 0x1 PUSH1 0x1 PUSH1 0xA0 SHL SUB AND DUP2 MSTORE PUSH1 0x1 DUP4 ADD SLOAD PUSH1 0x20 DUP3 ADD MSTORE PUSH1 0x2 DUP4 ADD SLOAD PUSH1 0x40 DUP3 ADD MSTORE PUSH1 0x3 SWAP1 SWAP3 ADD SLOAD PUSH1 0xFF AND ISZERO ISZERO PUSH1 0x60 DUP4 ADD MSTORE JUMP JUMPDEST DUP2 DUP2 MUL SWAP3 SWAP2 DUP2 ISZERO SWAP2 DUP5 DIV EQ OR ISZERO PUSH2 0x1E96 JUMPI JUMP JUMPDEST ISZERO PUSH2 0x20E5 JUMPI JUMP JUMPDEST PUSH1 0x40 MLOAD PUSH3 0x461BCD PUSH1 0xE5 SHL DUP2 MSTORE PUSH1 0x20 PUSH1 0x4 DUP3 ADD MSTORE PUSH1 0x13 PUSH1 0x24 DUP3 ADD MSTORE PUSH19 0x125B9D9BDA58D9481A5CC8191A5CDC1D5D1959 PUSH1 0x6A SHL PUSH1 0x44 DUP3 ADD MSTORE PUSH1 0x64 SWAP1 REVERT JUMPDEST PUSH1 0x1 PUSH1 0xFF NOT PUSH1 0x9 SLOAD AND OR PUSH1 0x9 SSTORE PUSH32 0xE1342AE9BC80B9DE7D3947F49A847FDC5B0889DD4A2CD4BD8E9CB58185E009AB PUSH1 0x20 PUSH1 0x40 MLOAD TIMESTAMP DUP2 MSTORE LOG1 JUMP JUMPDEST PUSH1 0x9 SLOAD PUSH1 0x18 SHR PUSH1 0x1 PUSH1 0x1 PUSH1 0xA0 SHL SUB SWAP1 DUP2 AND SWAP1 DUP2 PUSH2 0x2211 JUMPI POP POP PUSH1 0x0 DUP1 DUP1 DUP1 SWAP5 DUP2 SWAP5 GAS CALL SWAP1 RETURNDATASIZE ISZERO PUSH2 0x220B JUMPI RETURNDATASIZE SWAP1 PUSH8 0xFFFFFFFFFFFFFFFF DUP3 GT PUSH2 0x21F7 JUMPI PUSH1 0x40 MLOAD SWAP2 PUSH2 0x21AC PUSH1 0x1F DUP3 ADD PUSH1 0x1F NOT AND PUSH1 0x20 ADD DUP5 PUSH2 0x1D47 JUMP JUMPDEST DUP3 MSTORE PUSH1 0x20 RETURNDATASIZE SWAP3 ADD RETURNDATACOPY JUMPDEST ISZERO PUSH2 0x21BC JUMPI JUMP JUMPDEST PUSH1 0x40 MLOAD PUSH3 0x461BCD PUSH1 0xE5 SHL DUP2 MSTORE PUSH1 0x20 PUSH1 0x4 DUP3 ADD MSTORE PUSH1 0x13 PUSH1 0x24 DUP3 ADD MSTORE PUSH19 0x115512081D1C985B9CD9995C8819985A5B1959 PUSH1 0x6A SHL PUSH1 0x44 DUP3 ADD MSTORE PUSH1 0x64 SWAP1 REVERT JUMPDEST PUSH4 0x4E487B71 PUSH1 0xE0 SHL DUP2 MSTORE PUSH1 0x41 PUSH1 0x4 MSTORE PUSH1 0x24 SWAP1 REVERT JUMPDEST POP PUSH2 0x21B5 JUMP JUMPDEST SWAP3 PUSH2 0x1F9E SWAP4 PUSH1 0x40 MLOAD SWAP4 PUSH4 0xA9059CBB PUSH1 0xE0 SHL PUSH1 0x20 DUP7 ADD MSTORE AND PUSH1 0x24 DUP5 ADD MSTORE PUSH1 0x44 DUP4 ADD MSTORE PUSH1 0x44 DUP3 MSTORE PUSH2 0x223F DUP3 PUSH2 0x1D15 JUMP JUMPDEST PUSH2 0x1FA0 JUMP JUMPDEST PUSH1 0x6 SLOAD DUP1 ISZERO PUSH2 0x2268 JUMPI PUSH1 0x7 SLOAD PUSH2 0x2710 SWAP1 DUP2 DUP2 MUL SWAP2 DUP2 DUP4 DIV EQ SWAP1 ISZERO OR ISZERO PUSH2 0x1E96 JUMPI DIV SWAP1 JUMP JUMPDEST POP PUSH1 0x0 SWAP1 JUMP JUMPDEST PUSH1 0x8 SLOAD DUP1 TIMESTAMP GT DUP1 ISZERO SWAP1 PUSH2 0x2292 JUMPI JUMPDEST PUSH2 0x2268 JUMPI PUSH2 0x228E PUSH3 0x15180 SWAP2 TIMESTAMP PUSH2 0x202B JUMP JUMPDEST DIV SWAP1 JUMP JUMPDEST POP PUSH1 0xFF PUSH1 0x9 SLOAD AND PUSH2 0x227C JUMP INVALID MSIZE 0xD9 0xF8 0xB9 0x4D SAR 0xE6 JUMPDEST DUP15 0xEB SHL EQ 0xE2 0x4D 0x5D PUSH17 0xC2782E96B3ABEF17BA687F3EE33A754AD0 0x5D POP 0xC3 PUSH9 0xC1479ECFF533A37FF 0xD7 0xC0 SWAP8 0xDA INVALID CHAINID PUSH9 0x878F01C70E173C795D 0x4F 0xF9 LOG2 PUSH5 0x6970667358 0x22 SLT KECCAK256 0x4C PC 0xF8 SWAP8 0xE4 PUSH21 0x82D8C7A695E787C19F9B08A22D47FD3C4463FCEECC PREVRANDAO DUP13 DIV 0xC4 0xEF PUSH5 0x736F6C6343 STOP ADDMOD EQ STOP CALLER BLOCKHASH JUMPI DUP8 STATICCALL SLT 0xA8 0x23 0xE0 CALLCODE 0xB7 PUSH4 0x1CC41B3B 0xA8 DUP3 DUP12 CALLER 0x21 0xCA DUP2 GT GT STATICCALL PUSH22 0xCD3AA3BB5ACEA26469706673582212204E9DB4A161AE 0xD PUSH16 0xB610E8866D08154B3FCA3FA2865F62CC SWAP7 0xA7 PUSH6 0xDF418BCE1264 PUSH20 0x6F6C634300081400330000000000000000000000 "},"methodIdentifiers":{"allEscrows(uint256)":"1d3afee6","batchCreateInvoices(string[],string[],address[],address[],uint256[],uint256[],address[])":"b825681f","buyerInvoices(address,uint256)":"35c3c1e1","createInvoiceEscrow(string,string,address,address,uint256,uint256,address,address)":"b876ea64","createInvoiceWithSplits(string,string,address,address,uint256,uint256,address,address,address[],uint256[],uint256[],bool[])":"2829abc2","defaultArbiter()":"b67a2637","emergencyPauseEscrow(string)":"8371f8c1","feeCollector()":"c415b95c","getBuyerInvoiceCount(address)":"3532d559","getBuyerInvoices(address)":"5131ae7b","getEscrowAtIndex(uint256)":"f1955092","getEscrowByInvoiceId(string)":"fcac12f9","getInvoiceDetails(string)":"9c32aaa8","getPlatformStats()":"136d8883","getSellerInvoiceCount(address)":"f88d8700","getSellerInvoices(address)":"cd7e5ab5","getTotalEscrows()":"3f4dbda2","invoiceEscrows(string)":"124c175c","invoiceExists(string)":"33912b1c","owner()":"8da5cb5b","platformFee()":"26232a2e","renounceOwnership()":"715018a6","sellerInvoices(address,uint256)":"54657fdc","transferOwnership(address)":"f2fde38b","updateDefaultArbiter(address)":"9a139568","updateFeeCollector(address)":"d2c35ce8","updatePlatformFee(uint256)":"aa0b5988"}}}}}