{
  "_format": "hh-sol-artifact-1",
  "contractName": "InvoiceEscrow",
  "sourceName": "contracts/invoice/InvoiceEscrow.sol",
  "abi": [
    {
      "inputs": [
        {
          "internalType": "string",
          "name": "_invoiceId",
          "type": "string"
        },
        {
          "internalType": "string",
          "name": "_invoiceNumber",
          "type": "string"
        },
        {
          "internalType": "address",
          "name": "_seller",
          "type": "address"
        },
        {
          "internalType": "address",
          "name": "_buyer",
          "type": "address"
        },
        {
          "internalType": "uint256",
          "name": "_totalAmount",
          "type": "uint256"
        },
        {
          "internalType": "uint256",
          "name": "_dueDate",
          "type": "uint256"
        },
        {
          "internalType": "address",
          "name": "_paymentToken",
          "type": "address"
        },
        {
          "internalType": "address",
          "name": "_arbiter",
          "type": "address"
        }
      ],
      "stateMutability": "nonpayable",
      "type": "constructor"
    },
    {
      "inputs": [
        {
          "internalType": "address",
          "name": "owner",
          "type": "address"
        }
      ],
      "name": "OwnableInvalidOwner",
      "type": "error"
    },
    {
      "inputs": [
        {
          "internalType": "address",
          "name": "account",
          "type": "address"
        }
      ],
      "name": "OwnableUnauthorizedAccount",
      "type": "error"
    },
    {
      "inputs": [],
      "name": "ReentrancyGuardReentrantCall",
      "type": "error"
    },
    {
      "inputs": [
        {
          "internalType": "address",
          "name": "token",
          "type": "address"
        }
      ],
      "name": "SafeERC20FailedOperation",
      "type": "error"
    },
    {
      "anonymous": false,
      "inputs": [
        {
          "indexed": true,
          "internalType": "address",
          "name": "raiser",
          "type": "address"
        },
        {
          "indexed": false,
          "internalType": "string",
          "name": "reason",
          "type": "string"
        },
        {
          "indexed": false,
          "internalType": "uint256",
          "name": "timestamp",
          "type": "uint256"
        }
      ],
      "name": "DisputeRaised",
      "type": "event"
    },
    {
      "anonymous": false,
      "inputs": [
        {
          "indexed": false,
          "internalType": "bool",
          "name": "sellerFavored",
          "type": "bool"
        },
        {
          "indexed": false,
          "internalType": "uint256",
          "name": "timestamp",
          "type": "uint256"
        }
      ],
      "name": "DisputeResolved",
      "type": "event"
    },
    {
      "anonymous": false,
      "inputs": [
        {
          "indexed": false,
          "internalType": "uint256",
          "name": "timestamp",
          "type": "uint256"
        }
      ],
      "name": "InvoiceCancelled",
      "type": "event"
    },
    {
      "anonymous": false,
      "inputs": [
        {
          "indexed": false,
          "internalType": "uint256",
          "name": "timestamp",
          "type": "uint256"
        }
      ],
      "name": "InvoiceCompleted",
      "type": "event"
    },
    {
      "anonymous": false,
      "inputs": [
        {
          "indexed": true,
          "internalType": "address",
          "name": "previousOwner",
          "type": "address"
        },
        {
          "indexed": true,
          "internalType": "address",
          "name": "newOwner",
          "type": "address"
        }
      ],
      "name": "OwnershipTransferred",
      "type": "event"
    },
    {
      "anonymous": false,
      "inputs": [
        {
          "indexed": true,
          "internalType": "address",
          "name": "recipient",
          "type": "address"
        },
        {
          "indexed": false,
          "internalType": "uint256",
          "name": "amount",
          "type": "uint256"
        }
      ],
      "name": "PaymentDistributed",
      "type": "event"
    },
    {
      "anonymous": false,
      "inputs": [
        {
          "indexed": true,
          "internalType": "address",
          "name": "payer",
          "type": "address"
        },
        {
          "indexed": false,
          "internalType": "uint256",
          "name": "amount",
          "type": "uint256"
        },
        {
          "indexed": false,
          "internalType": "uint256",
          "name": "timestamp",
          "type": "uint256"
        }
      ],
      "name": "PaymentReceived",
      "type": "event"
    },
    {
      "anonymous": false,
      "inputs": [
        {
          "indexed": true,
          "internalType": "address",
          "name": "recipient",
          "type": "address"
        },
        {
          "indexed": false,
          "internalType": "uint256",
          "name": "percentage",
          "type": "uint256"
        },
        {
          "indexed": false,
          "internalType": "uint256",
          "name": "fixedAmount",
          "type": "uint256"
        }
      ],
      "name": "PaymentSplitAdded",
      "type": "event"
    },
    {
      "inputs": [
        {
          "internalType": "address",
          "name": "recipient",
          "type": "address"
        },
        {
          "internalType": "uint256",
          "name": "percentage",
          "type": "uint256"
        },
        {
          "internalType": "uint256",
          "name": "fixedAmount",
          "type": "uint256"
        },
        {
          "internalType": "bool",
          "name": "isPrimary",
          "type": "bool"
        }
      ],
      "name": "addPaymentSplit",
      "outputs": [],
      "stateMutability": "nonpayable",
      "type": "function"
    },
    {
      "inputs": [],
      "name": "arbiter",
      "outputs": [
        {
          "internalType": "address",
          "name": "",
          "type": "address"
        }
      ],
      "stateMutability": "view",
      "type": "function"
    },
    {
      "inputs": [],
      "name": "autoRelease",
      "outputs": [],
      "stateMutability": "nonpayable",
      "type": "function"
    },
    {
      "inputs": [],
      "name": "buyer",
      "outputs": [
        {
          "internalType": "address",
          "name": "",
          "type": "address"
        }
      ],
      "stateMutability": "view",
      "type": "function"
    },
    {
      "inputs": [],
      "name": "cancel",
      "outputs": [],
      "stateMutability": "nonpayable",
      "type": "function"
    },
    {
      "inputs": [],
      "name": "disputeRaisedAt",
      "outputs": [
        {
          "internalType": "uint256",
          "name": "",
          "type": "uint256"
        }
      ],
      "stateMutability": "view",
      "type": "function"
    },
    {
      "inputs": [],
      "name": "disputeReason",
      "outputs": [
        {
          "internalType": "string",
          "name": "",
          "type": "string"
        }
      ],
      "stateMutability": "view",
      "type": "function"
    },
    {
      "inputs": [],
      "name": "distributePayments",
      "outputs": [],
      "stateMutability": "nonpayable",
      "type": "function"
    },
    {
      "inputs": [],
      "name": "dueDate",
      "outputs": [
        {
          "internalType": "uint256",
          "name": "",
          "type": "uint256"
        }
      ],
      "stateMutability": "view",
      "type": "function"
    },
    {
      "inputs": [],
      "name": "getDaysOverdue",
      "outputs": [
        {
          "internalType": "uint256",
          "name": "",
          "type": "uint256"
        }
      ],
      "stateMutability": "view",
      "type": "function"
    },
    {
      "inputs": [],
      "name": "getPaymentProgress",
      "outputs": [
        {
          "internalType": "uint256",
          "name": "",
          "type": "uint256"
        }
      ],
      "stateMutability": "view",
      "type": "function"
    },
    {
      "inputs": [
        {
          "internalType": "uint256",
          "name": "index",
          "type": "uint256"
        }
      ],
      "name": "getPaymentSplit",
      "outputs": [
        {
          "internalType": "address",
          "name": "recipient",
          "type": "address"
        },
        {
          "internalType": "uint256",
          "name": "percentage",
          "type": "uint256"
        },
        {
          "internalType": "uint256",
          "name": "fixedAmount",
          "type": "uint256"
        },
        {
          "internalType": "bool",
          "name": "isPrimary",
          "type": "bool"
        }
      ],
      "stateMutability": "view",
      "type": "function"
    },
    {
      "inputs": [],
      "name": "getPaymentSplitsCount",
      "outputs": [
        {
          "internalType": "uint256",
          "name": "",
          "type": "uint256"
        }
      ],
      "stateMutability": "view",
      "type": "function"
    },
    {
      "inputs": [],
      "name": "getRemainingAmount",
      "outputs": [
        {
          "internalType": "uint256",
          "name": "",
          "type": "uint256"
        }
      ],
      "stateMutability": "view",
      "type": "function"
    },
    {
      "inputs": [],
      "name": "invoiceId",
      "outputs": [
        {
          "internalType": "string",
          "name": "",
          "type": "string"
        }
      ],
      "stateMutability": "view",
      "type": "function"
    },
    {
      "inputs": [],
      "name": "invoiceNumber",
      "outputs": [
        {
          "internalType": "string",
          "name": "",
          "type": "string"
        }
      ],
      "stateMutability": "view",
      "type": "function"
    },
    {
      "inputs": [],
      "name": "isCancelled",
      "outputs": [
        {
          "internalType": "bool",
          "name": "",
          "type": "bool"
        }
      ],
      "stateMutability": "view",
      "type": "function"
    },
    {
      "inputs": [],
      "name": "isCompleted",
      "outputs": [
        {
          "internalType": "bool",
          "name": "",
          "type": "bool"
        }
      ],
      "stateMutability": "view",
      "type": "function"
    },
    {
      "inputs": [],
      "name": "isDisputed",
      "outputs": [
        {
          "internalType": "bool",
          "name": "",
          "type": "bool"
        }
      ],
      "stateMutability": "view",
      "type": "function"
    },
    {
      "inputs": [],
      "name": "isOverdue",
      "outputs": [
        {
          "internalType": "bool",
          "name": "",
          "type": "bool"
        }
      ],
      "stateMutability": "view",
      "type": "function"
    },
    {
      "inputs": [],
      "name": "owner",
      "outputs": [
        {
          "internalType": "address",
          "name": "",
          "type": "address"
        }
      ],
      "stateMutability": "view",
      "type": "function"
    },
    {
      "inputs": [],
      "name": "paidAmount",
      "outputs": [
        {
          "internalType": "uint256",
          "name": "",
          "type": "uint256"
        }
      ],
      "stateMutability": "view",
      "type": "function"
    },
    {
      "inputs": [
        {
          "internalType": "uint256",
          "name": "amount",
          "type": "uint256"
        }
      ],
      "name": "pay",
      "outputs": [],
      "stateMutability": "payable",
      "type": "function"
    },
    {
      "inputs": [],
      "name": "payFull",
      "outputs": [],
      "stateMutability": "payable",
      "type": "function"
    },
    {
      "inputs": [
        {
          "internalType": "uint256",
          "name": "",
          "type": "uint256"
        }
      ],
      "name": "paymentSplits",
      "outputs": [
        {
          "internalType": "address",
          "name": "recipient",
          "type": "address"
        },
        {
          "internalType": "uint256",
          "name": "percentage",
          "type": "uint256"
        },
        {
          "internalType": "uint256",
          "name": "fixedAmount",
          "type": "uint256"
        },
        {
          "internalType": "bool",
          "name": "isPrimary",
          "type": "bool"
        }
      ],
      "stateMutability": "view",
      "type": "function"
    },
    {
      "inputs": [],
      "name": "paymentToken",
      "outputs": [
        {
          "internalType": "address",
          "name": "",
          "type": "address"
        }
      ],
      "stateMutability": "view",
      "type": "function"
    },
    {
      "inputs": [
        {
          "internalType": "string",
          "name": "reason",
          "type": "string"
        }
      ],
      "name": "raiseDispute",
      "outputs": [],
      "stateMutability": "nonpayable",
      "type": "function"
    },
    {
      "inputs": [],
      "name": "releaseFunds",
      "outputs": [],
      "stateMutability": "nonpayable",
      "type": "function"
    },
    {
      "inputs": [],
      "name": "renounceOwnership",
      "outputs": [],
      "stateMutability": "nonpayable",
      "type": "function"
    },
    {
      "inputs": [
        {
          "internalType": "bool",
          "name": "sellerFavored",
          "type": "bool"
        }
      ],
      "name": "resolveDispute",
      "outputs": [],
      "stateMutability": "nonpayable",
      "type": "function"
    },
    {
      "inputs": [],
      "name": "seller",
      "outputs": [
        {
          "internalType": "address",
          "name": "",
          "type": "address"
        }
      ],
      "stateMutability": "view",
      "type": "function"
    },
    {
      "inputs": [],
      "name": "tokenDecimals",
      "outputs": [
        {
          "internalType": "uint8",
          "name": "",
          "type": "uint8"
        }
      ],
      "stateMutability": "view",
      "type": "function"
    },
    {
      "inputs": [],
      "name": "totalAmount",
      "outputs": [
        {
          "internalType": "uint256",
          "name": "",
          "type": "uint256"
        }
      ],
      "stateMutability": "view",
      "type": "function"
    },
    {
      "inputs": [],
      "name": "totalSplitPercentage",
      "outputs": [
        {
          "internalType": "uint256",
          "name": "",
          "type": "uint256"
        }
      ],
      "stateMutability": "view",
      "type": "function"
    },
    {
      "inputs": [
        {
          "internalType": "address",
          "name": "newOwner",
          "type": "address"
        }
      ],
      "name": "transferOwnership",
      "outputs": [],
      "stateMutability": "nonpayable",
      "type": "function"
    },
    {
      "inputs": [
        {
          "internalType": "address",
          "name": "newArbiter",
          "type": "address"
        }
      ],
      "name": "updateArbiter",
      "outputs": [],
      "stateMutability": "nonpayable",
      "type": "function"
    },
    {
      "stateMutability": "payable",
      "type": "receive"
    }
  ],
  "bytecode": "0x608060409080825234620003235762002a77803803809162000022828562000692565b833981019061010081830312620003235780516001600160401b03811162000323578262000052918301620006b6565b602082015190926001600160401b038211620003235762000075918301620006b6565b620000828483016200072d565b62000090606084016200072d565b60808401519160a085015193620000b860e0620000b060c089016200072d565b97016200072d565b9633156200067a5760008054336001600160a01b03198216811783558b519290916001600160a01b0316907f8be0079c531659141344cd1fd0a4f28419497f9722a3daafe3b4186f6b6457e09080a3600180556001600160a01b038416156200064757506001600160a01b0384161562000613578415620005da574286111562000596578051906001600160401b0382116200048a5760025490600182811c921680156200058b575b6020831014620004695781601f8493116200052a575b50602090601f8311600114620004ac57600092620004a0575b50508160011b916000199060031b1c1916176002555b8051906001600160401b0382116200048a5760035490600182811c921680156200047f575b6020831014620004695781601f849311620003f7575b50602090601f831160011462000368576000926200035c575b50508160011b916000199060031b1c1916176003555b600480546001600160a01b03199081166001600160a01b039384161790915560058054821693831693909317909255600692909255600892909255600980546301000000600160b81b03198116601886901b6301000000600160b81b0316908117909255600c80549094169583169590951790925591909116919082156200033c575050602060049183519283809263313ce56760e01b82525afa9081156200033157600091620002e9575b506009805460ff60b81b191660b89290921b60ff60b81b169190911790555b516123149081620007438239f35b90506020813d60201162000328575b81620003076020938362000692565b8101031262000323575160ff81168103620003235738620002bc565b600080fd5b3d9150620002f8565b82513d6000823e3d90fd5b6301000000600160c01b031990911617600960b91b1760095550620002db565b015190503880620001fa565b6003600090815293507fc2575a0e9e593c00f959f8c92f12db2869c3395a3b0502d05e2516446f71f85b91905b601f1984168510620003db576001945083601f19811610620003c1575b505050811b0160035562000210565b015160001960f88460031b161c19169055388080620003b2565b8181015183556020948501946001909301929091019062000395565b60036000529091507fc2575a0e9e593c00f959f8c92f12db2869c3395a3b0502d05e2516446f71f85b601f840160051c81016020851062000461575b90849392915b601f830160051c8201811062000451575050620001e1565b6000815585945060010162000439565b508062000433565b634e487b7160e01b600052602260045260246000fd5b91607f1691620001cb565b634e487b7160e01b600052604160045260246000fd5b01519050388062000190565b60026000908152935060008051602062002a5783398151915291905b601f19841685106200050e576001945083601f19811610620004f4575b505050811b01600255620001a6565b015160001960f88460031b161c19169055388080620004e5565b81810151835560209485019460019093019290910190620004c8565b600260005290915060008051602062002a57833981519152601f840160051c81016020851062000583575b90849392915b601f830160051c820181106200057357505062000177565b600081558594506001016200055b565b508062000555565b91607f169162000161565b885162461bcd60e51b815260206004820152601a60248201527f4475652064617465206d75737420626520696e206675747572650000000000006044820152606490fd5b885162461bcd60e51b81526020600482015260126024820152710416d6f756e74206d757374206265203e20360741b6044820152606490fd5b885162461bcd60e51b815260206004820152600d60248201526c24b73b30b634b210313abcb2b960991b6044820152606490fd5b62461bcd60e51b815260206004820152600e60248201526d24b73b30b634b21039b2b63632b960911b6044820152606490fd5b8851631e4fbdf760e01b815260006004820152602490fd5b601f909101601f19168101906001600160401b038211908210176200048a57604052565b919080601f8401121562000323578251906001600160401b0382116200048a5760405191602091620006f2601f8301601f191684018562000692565b818452828287010111620003235760005b8181106200071957508260009394955001015290565b858101830151848201840152820162000703565b51906001600160a01b0382168203620003235756fe608060409080825260049081361015610056575b50361561001f57600080fd5b6020606492519162461bcd60e51b835282015260126024820152712ab9b2903830bc941490333ab731ba34b7b760711b6044820152fd5b600090813560e01c9081630335729e14611cb75750806308551a5314611c8e57806312fa769f14611c6f5780631a39d8ef14611c505780632466847314611ba65780633013ce2914611b79578063325ac88014611af35780633b95731714611abc5780633b97e85614611a975780633f0f17ed1461181f578063529151ec146118025780635d696d23146117e557806369d895751461153b57806370c8628614611491578063715018a6146114375780637150d8ae1461140e578063725a3b4b146110d9578063786716fe146110ba5780637bf6c10414610fdd57806389e1e82a14610c965780638da5cb5b14610c6e57806395ee122114610c475780639ee7fd4014610b715780639f60be5c14610adb578063a2c7274514610abc578063a36693b114610849578063acaef1f81461082a578063b21862a6146107ba578063b95d8dd41461079b578063c290d691146105fe578063dabaae11146105d3578063dd84b5f614610400578063ea8a1af0146102c7578063f2fde38b1461023b578063fa391c64146102175763fe25e00a03610013578234610213578160031936011261021357600c5490516001600160a01b039091168152602090f35b5080fd5b50823461021357816003193601126102135760209060ff6009541690519015158152f35b509190346102c35760203660031901126102c357610257611db2565b90610260611e1d565b6001600160a01b039182169283156102ad57505082546001600160a01b0319811683178455167f8be0079c531659141344cd1fd0a4f28419497f9722a3daafe3b4186f6b6457e08380a380f35b51631e4fbdf760e01b8152908101849052602490fd5b8280fd5b509190346102c357826003193601126102c3578054336001600160a01b03918216149081156103f3575b50156103c05760075461037e576009549060ff8260081c16610347575061ff00191661010017600955514281527f2e9842040508f80e6420769a8673529eb3af5b952f53af83d9c9d3432da7804690602090a180f35b606490602084519162461bcd60e51b83528201526011602482015270105b1c9958591e4818d85b98d95b1b1959607a1b6044820152fd5b6020606492519162461bcd60e51b8352820152601b60248201527f43616e6e6f742063616e63656c206166746572207061796d656e7400000000006044820152fd5b6020606492519162461bcd60e51b8352820152600e60248201526d139bdd08185d5d1a1bdc9a5e995960921b6044820152fd5b90508354163314386102f1565b5091346102c357826003193601126102c35761041a612008565b60ff9161042a8360095416612038565b600a9283541561059c57600790815492865b86548110156104e85761045761045182611dcd565b5061208b565b8087018051156104ce57515b8681116104c7575b80610481575b505061047c9061207c565b61043c565b60008051602061229f8339815191526020836104b68461047c97969b6104b18260018060a01b0380965116612159565b61202b565b995116928a51908152a29038610471565b508561046b565b506127106104e286546020840151906120cb565b04610463565b509293915093836104fc575b856001805580f35b915491546001600160a01b0392831694865b828110610549575b50505090836020926105388560008051602061229f8339815191529697612159565b519485521692a238808080806104f4565b81600361055583611dcd565b5001541661056b576105669061207c565b61050e565b60008051602061229f83398151915295965084939250602094915061058f90611dcd565b5054169493819293610516565b506020606492519162461bcd60e51b835282015260116024820152704e6f207061796d656e742073706c69747360781b6044820152fd5b5082346102135781600319360112610213576020906105f76006546007549061202b565b9051908152f35b50919060203660031901126102c357803590610618612008565b6009549060ff82166107585761063460ff8360081c1615611e49565b82156107205761064683600754611e89565b600654106106e6575060181c6001600160a01b031681816106ca5761066d91503414611f02565b7f5677b5d4cf976ac32defbd95a6a5aaf0d1fee450a11fc26f3c11aae6e6c33d0661069a82600754611e89565b928360075580519283524260208401523392a2600654146106bd575b6001805580f35b6106c5612120565b6106b6565b6106e1916106d83415611eac565b30903390611f45565b61066d565b606490602085519162461bcd60e51b83528201526014602482015273115e18d959591cc81d1bdd185b08185b5bdd5b9d60621b6044820152fd5b606490602085519162461bcd60e51b835282015260126024820152710416d6f756e74206d757374206265203e20360741b6044820152fd5b606490602085519162461bcd60e51b8352820152601960248201527f496e766f69636520616c726561647920636f6d706c65746564000000000000006044820152fd5b508234610213578160031936011261021357602090600d549051908152f35b509034610213576020366003190112610213573590600a5482101561082757506107e390611dcd565b5080546001820154600283015460039093015493516001600160a01b0390921682526020820152604081019190915260ff90911615156060820152608090f35b0390f35b80fd5b508234610213578160031936011261021357602090600b549051908152f35b5091346102c357826003193601126102c357610863612008565b6009549161088360ff8461087982809716612038565b60101c16156120de565b60085462278d008101809111610aa957421115610a6757600a805490939015610a24576108ae612008565b6108bb8160095416612038565b83541561059c57600790815492865b865481101561096b576108df61045182611dcd565b80870180511561095157515b86811161094a575b80610909575b50506109049061207c565b6108ca565b60008051602061229f8339815191526020836109398461090497969b6104b18260018060a01b0380965116612159565b995116928a51908152a290386108f9565b50856108f3565b5061271061096586546020840151906120cb565b046108eb565b50929391509383610984575b5050600180555082915050f35b915491546001600160a01b0392831694865b8281106109d1575b50505090836020926109c08560008051602061229f8339815191529697612159565b519485521692a23880808080610977565b8160036109dd83611dcd565b500154166109f3576109ee9061207c565b610996565b60008051602061229f833981519152959650849392506020949150610a1790611dcd565b505416949381929361099e565b50805460075492935060008051602061229f833981519152926020926001600160a01b03929091610a56918416612159565b5416926007549051908152a26106b6565b6020606492519162461bcd60e51b8352820152601860248201527f477261636520706572696f64206e6f7420656c617073656400000000000000006044820152fd5b634e487b7160e01b855260118252602485fd5b508234610213578160031936011261021357602090600a549051908152f35b50346108275760203660031901126108275750803590600a54821015610b3e5750610451610b0891611dcd565b80516020808301518484015160609485015195516001600160a01b03909416845291830152604082015291151590820152608090f35b606490602084519162461bcd60e51b8352820152600d60248201526c092dcecc2d8d2c840d2dcc8caf609b1b6044820152fd5b5091826003193601126102c357610b86612008565b610b956006546007549061202b565b918215610c1057506009547f5677b5d4cf976ac32defbd95a6a5aaf0d1fee450a11fc26f3c11aae6e6c33d06919060181c6001600160a01b03168381610bfd57610be191503414611f02565b60065460075580519283524260208401523392a26106b6612120565b610c0b916106d83415611eac565b610be1565b6020606492519162461bcd60e51b83528201526012602482015271105b1c9958591e48199d5b1b1e481c185a5960721b6044820152fd5b50823461021357816003193601126102135760209060ff60095460081c1690519015158152f35b508234610213578160031936011261021357905490516001600160a01b039091168152602090f35b5091346102c357602080600319360112610fd9578235908115159485830361082757600c546001600160a01b0390811633148015610fcd575b15610f9b576009549360ff94858160101c1615610f645762ff0000191660095515610f1c57600a805490949015610ed757610d08612008565b610d158160095416612038565b845415610ea057600797885495845b8154811015610dbc57610d3961045182611dcd565b808a01805115610da357515b898111610d9c575b80610d63575b5050610d5e9061207c565b610d24565b60008051602061229f8339815191528988610d8b84869e6104b18285610d5e9b9a5116612159565b9c5116928d51908152a29038610d53565b5088610d4d565b50612710610db68d548a840151906120cb565b04610d45565b509197909593985083610df2575b505050506000805160206122bf8339815191529350600180555b82519182524290820152a180f35b54905490821696885b828110610e42575b5050508260008051602061229f8339815191529187610e31856000805160206122bf8339815191529a612159565b87519485521692a238808080610dca565b816003610e4e83611dcd565b50015416610e6457610e5f9061207c565b610dfb565b6000805160206122bf833981519152985085925083915092610e9460008051602061229f83398151915294611dcd565b50541697819350610e03565b855162461bcd60e51b815280880185905260116024820152704e6f207061796d656e742073706c69747360781b6044820152606490fd5b509095925084610efc826000805160206122bf83398151915297541660075490612159565b541660008051602061229f833981519152826007548651908152a2610de4565b909592506000805160206122bf8339815191529450610f42816005541660075490612159565b6005541660008051602061229f833981519152826007548651908152a2610de4565b865162461bcd60e51b815280890186905260116024820152704e6f20616374697665206469737075746560781b6044820152606490fd5b845162461bcd60e51b8152808701849052600c60248201526b27b7363c9030b93134ba32b960a11b6044820152606490fd5b50808254163314610ccf565b8380fd5b50823461021357816003193601126102135780519082600e54610fff81611cdb565b808552916001918083169081156110925750600114611035575b50505061102b82610823940383611d47565b5191829182611d69565b9450600e85527fbb7b4a454dc3493923482f07822329ed19e8244eff582cc204f8554c3620c3fd5b82861061107a5750505061102b8260206108239582010194611019565b8054602087870181019190915290950194810161105d565b61082397508693506020925061102b94915060ff191682840152151560051b82010194611019565b5082346102135781600319360112610213576020906008549051908152f35b5091346102c35760209081600319360112610fd95782359167ffffffffffffffff9384841161140a573660238501121561140a578381013594851161140a5760249036828787010111611406576009549060ff82161580156113fb575b156113c45761114b60ff8360081c1615611e49565b60ff8260101c1661138f578054336001600160a01b0391821614908115611381575b501561133f57509062010000869262ff000019161760095542600d55611194600e54611cdb565b601f81116112d2575b508694601f831160011461122b5782827fd4882c6b71dfbb8df0a01fa4cd97676f243a56dd525df6b891b2e1700e514e89978a9261121e575b50508360011b906000198560031b1c191617600e555b82855195808752860152016060840137846060858401015242908201526060813394601f80199101168101030190a280f35b83010135905082386111d6565b600e8852601f198316957fbb7b4a454dc3493923482f07822329ed19e8244eff582cc204f8554c3620c3fd90895b8881106112b65750847fd4882c6b71dfbb8df0a01fa4cd97676f243a56dd525df6b891b2e1700e514e89981061129a575b5050600183811b01600e556111ec565b8201830135600019600386901b60f8161c19169055388061128a565b8382018501358355899550600190920191908601908601611259565b909150600e87527fbb7b4a454dc3493923482f07822329ed19e8244eff582cc204f8554c3620c3fd601f870160051c810191848810611335575b90601f889493920160051c01905b818110611327575061119d565b88815587935060010161131a565b909150819061130c565b845162461bcd60e51b81529081018490526018818401527f4f6e6c7920706172746965732063616e206469737075746500000000000000006044820152606490fd5b90506005541633143861116d565b845162461bcd60e51b81529081018490526010818401526f105b1c9958591e48191a5cdc1d5d195960821b6044820152606490fd5b845162461bcd60e51b8152908101849052601281840152714e6f7468696e6720746f206469737075746560701b6044820152606490fd5b506007541515611136565b8680fd5b8580fd5b50823461021357816003193601126102135760055490516001600160a01b039091168152602090f35b5034610827578060031936011261082757611450611e1d565b80546001600160a01b03198116825581906001600160a01b03167f8be0079c531659141344cd1fd0a4f28419497f9722a3daafe3b4186f6b6457e08280a380f35b508234610213578160031936011261021357805190826002546114b381611cdb565b8085529160019180831690811561109257506001146114de5750505061102b82610823940383611d47565b9450600285527f405787fa12a823e0f2b7631cc41b3ba8828b3321ca811111fa75cd3aa3bb5ace5b8286106115235750505061102b8260206108239582010194611019565b80546020878701810191909152909501948101611506565b5091346102c357826003193601126102c357611555612008565b6009549261156b60ff8561087982809816612038565b80546001600160a01b03908116331480156117d9575b80156117ae575b1561176b57600a805490919015611743576115a1612008565b6115ae8660095416612038565b81541561170c57600795865492845b8154811015611657576115d261045182611dcd565b80880180511561163d57515b868111611636575b806115fc575b50506115f79061207c565b6115bd565b60008051602061229f83398151915260208761162584869b6104b182856115f79b9a5116612159565b995116928b51908152a290386115ec565b50856115e6565b506127106116518b546020840151906120cb565b046115de565b50919396509493919384611674575b505060018055508392505050f35b54905490831694865b8281106116b9575b50505090836020926116a78560008051602061229f8339815191529697612159565b519485521692a2388080808080611666565b8160036116c583611dcd565b500154166116db576116d69061207c565b61167d565b60008051602061229f8339815191529596508493925060209491506116ff90611dcd565b5054169493819293611685565b835162461bcd60e51b815260208187015260116024820152704e6f207061796d656e742073706c69747360781b6044820152606490fd5b9050602091945083610a568260008051602061229f8339815191529596541660075490612159565b825162461bcd60e51b8152602081860152601b60248201527f4e6f7420617574686f72697a6564206f7220746f6f206561726c7900000000006044820152606490fd5b5060085462278d0081018091116117c6574211611588565b634e487b7160e01b835260118552602483fd5b50808454163314611581565b5082346102135781600319360112610213576020906105f761226e565b5082346102135781600319360112610213576020906105f7612244565b5082346102135760803660031901126102135761183a611db2565b9060249182359060443590606435908115158092036114065761185b611e1d565b6001600160a01b03908116958615611a6157600a549182158015611a54575b15611a12578415611963575b865161189181611d15565b8881526020810192878452888201948786526060830196875268010000000000000000811015611951578060016118cb9201600a55611dcd565b9c909c61194157505091600393917f14678e4e3111fe0246d0ab7482532a1deae4d3d2f306a302349e69b51c55f3a2999a9b9351166bffffffffffffffffffffffff60a01b845416178355516001830155516002820155019051151560ff8019835416911617905582519182526020820152a280f35b634e487b7160e01b8c528b90528afd5b50634e487b7160e01b8b5260418c528afd5b85151580611a06575b156119cf57600b546127106119818883611e89565b11611998578661199091611e89565b600b55611886565b875162461bcd60e51b81526020818d015260128185015271546f74616c2065786365656473203130302560701b6044820152606490fd5b865162461bcd60e51b81526020818c015260128184015271496e76616c69642070657263656e7461676560701b6044820152606490fd5b5061271086111561196c565b865162461bcd60e51b81526020818c0152601e818401527f43616e6e6f74206d6f6469667920616674657220636f6d706c6574696f6e00006044820152606490fd5b5060ff600954161561187a565b886011606492602089519362461bcd60e51b855284015282015270125b9d985b1a59081c9958da5c1a595b9d607a1b6044820152fd5b50823461021357816003193601126102135760209060ff60095460b81c169051908152f35b50823461021357816003193601126102135760209060085442119081611ae5575b519015158152f35b60095460ff16159150611add565b509190346102c35760203660031901126102c357611b0f611db2565b611b17611e1d565b6001600160a01b0316918215611b445750506bffffffffffffffffffffffff60a01b600c541617600c5580f35b906020606492519162461bcd60e51b8352820152600f60248201526e24b73b30b634b21030b93134ba32b960891b6044820152fd5b508234610213578160031936011261021357600954905160189190911c6001600160a01b03168152602090f35b50823461021357816003193601126102135780519082600354611bc881611cdb565b808552916001918083169081156110925750600114611bf35750505061102b82610823940383611d47565b9450600385527fc2575a0e9e593c00f959f8c92f12db2869c3395a3b0502d05e2516446f71f85b5b828610611c385750505061102b8260206108239582010194611019565b80546020878701810191909152909501948101611c1b565b5082346102135781600319360112610213576020906006549051908152f35b5082346102135781600319360112610213576020906007549051908152f35b509190346102c357826003193601126102c3575490516001600160a01b03909116815260209150f35b90503461021357816003193601126102135760209060ff60095460101c1615158152f35b90600182811c92168015611d0b575b6020831014611cf557565b634e487b7160e01b600052602260045260246000fd5b91607f1691611cea565b6080810190811067ffffffffffffffff821117611d3157604052565b634e487b7160e01b600052604160045260246000fd5b90601f8019910116810190811067ffffffffffffffff821117611d3157604052565b6020808252825181830181905290939260005b828110611d9e57505060409293506000838284010152601f8019910116010190565b818101860151848201604001528501611d7c565b600435906001600160a01b0382168203611dc857565b600080fd5b600a54811015611e0757600a60005260021b7fc65a7bb8d6351c1cf70c95a316cc6a92839c986682d98bc35f958f4883f9d2a80190600090565b634e487b7160e01b600052603260045260246000fd5b6000546001600160a01b03163303611e3157565b60405163118cdaa760e01b8152336004820152602490fd5b15611e5057565b60405162461bcd60e51b8152602060048201526011602482015270125b9d9bda58d94818d85b98d95b1b1959607a1b6044820152606490fd5b91908201809211611e9657565b634e487b7160e01b600052601160045260246000fd5b15611eb357565b60405162461bcd60e51b815260206004820152602160248201527f446f206e6f742073656e642045544820666f7220746f6b656e207061796d656e6044820152601d60fa1b6064820152608490fd5b15611f0957565b60405162461bcd60e51b8152602060048201526014602482015273125b98dbdc9c9958dd0811551208185b5bdd5b9d60621b6044820152606490fd5b6040516323b872dd60e01b60208201526001600160a01b03928316602482015292909116604483015260648083019390935291815260a081019181831067ffffffffffffffff841117611d3157611f9e92604052611fa0565b565b906000602091828151910182855af115611ffc576000513d611ff357506001600160a01b0381163b155b611fd15750565b604051635274afe760e01b81526001600160a01b039091166004820152602490fd5b60011415611fca565b6040513d6000823e3d90fd5b600260015414612019576002600155565b604051633ee5aeb560e01b8152600490fd5b91908203918211611e9657565b1561203f57565b60405162461bcd60e51b8152602060048201526015602482015274125b9d9bda58d9481b9bdd0818dbdb5c1b195d1959605a1b6044820152606490fd5b6000198114611e965760010190565b9060405161209881611d15565b82546001600160a01b03168152600183015460208201526002830154604082015260039092015460ff1615156060830152565b81810292918115918404141715611e9657565b156120e557565b60405162461bcd60e51b8152602060048201526013602482015272125b9d9bda58d9481a5cc8191a5cdc1d5d1959606a1b6044820152606490fd5b600160ff1960095416176009557fe1342ae9bc80b9de7d3947f49a847fdc5b0889dd4a2cd4bd8e9cb58185e009ab6020604051428152a1565b60095460181c6001600160a01b03908116908161221157505060008080809481945af1903d1561220b573d9067ffffffffffffffff82116121f757604051916121ac601f8201601f191660200184611d47565b825260203d92013e5b156121bc57565b60405162461bcd60e51b8152602060048201526013602482015272115512081d1c985b9cd9995c8819985a5b1959606a1b6044820152606490fd5b634e487b7160e01b81526041600452602490fd5b506121b5565b92611f9e936040519363a9059cbb60e01b602086015216602484015260448301526044825261223f82611d15565b611fa0565b60065480156122685760075461271090818102918183041490151715611e96570490565b50600090565b600854804211801590612292575b6122685761228e62015180914261202b565b0490565b5060ff6009541661227c56fe59d9f8b94d1de65b8eeb1b14e24d5d70c2782e96b3abef17ba687f3ee33a754ad05d50c3680c1479ecff533a37ffd7c097dafe4668878f01c70e173c795d4ff9a26469706673582212204c58f897e47482d8c7a695e787c19f9b08a22d47fd3c4463fceecc448c04c4ef64736f6c63430008140033405787fa12a823e0f2b7631cc41b3ba8828b3321ca811111fa75cd3aa3bb5ace",
  "linkReferences": {},
  "deployedLinkReferences": {}
}