{
  "_format": "hh-sol-artifact-1",
  "contractName": "UniversalResolver",
  "sourceName": "contracts/registry/UniversalResolver.sol",
  "abi": [
    {
      "inputs": [
        {
          "internalType": "contract IUniversalRegistry",
          "name": "_registry",
          "type": "address"
        }
      ],
      "stateMutability": "nonpayable",
      "type": "constructor"
    },
    {
      "anonymous": false,
      "inputs": [
        {
          "indexed": true,
          "internalType": "bytes32",
          "name": "node",
          "type": "bytes32"
        },
        {
          "indexed": true,
          "internalType": "uint256",
          "name": "contentType",
          "type": "uint256"
        }
      ],
      "name": "ABIChanged",
      "type": "event"
    },
    {
      "anonymous": false,
      "inputs": [
        {
          "indexed": true,
          "internalType": "bytes32",
          "name": "node",
          "type": "bytes32"
        },
        {
          "indexed": false,
          "internalType": "uint256",
          "name": "coinType",
          "type": "uint256"
        },
        {
          "indexed": false,
          "internalType": "bytes",
          "name": "newAddress",
          "type": "bytes"
        }
      ],
      "name": "AddressChanged",
      "type": "event"
    },
    {
      "anonymous": false,
      "inputs": [
        {
          "indexed": true,
          "internalType": "bytes32",
          "name": "node",
          "type": "bytes32"
        },
        {
          "indexed": false,
          "internalType": "bytes",
          "name": "hash",
          "type": "bytes"
        }
      ],
      "name": "ContenthashChanged",
      "type": "event"
    },
    {
      "anonymous": false,
      "inputs": [
        {
          "indexed": true,
          "internalType": "bytes32",
          "name": "node",
          "type": "bytes32"
        },
        {
          "indexed": false,
          "internalType": "string",
          "name": "name",
          "type": "string"
        }
      ],
      "name": "NameChanged",
      "type": "event"
    },
    {
      "anonymous": false,
      "inputs": [
        {
          "indexed": true,
          "internalType": "bytes32",
          "name": "node",
          "type": "bytes32"
        },
        {
          "indexed": true,
          "internalType": "string",
          "name": "key",
          "type": "string"
        },
        {
          "indexed": false,
          "internalType": "string",
          "name": "value",
          "type": "string"
        }
      ],
      "name": "TextChanged",
      "type": "event"
    },
    {
      "inputs": [
        {
          "internalType": "bytes32",
          "name": "node",
          "type": "bytes32"
        },
        {
          "internalType": "uint256",
          "name": "contentTypes",
          "type": "uint256"
        }
      ],
      "name": "ABI",
      "outputs": [
        {
          "internalType": "uint256",
          "name": "",
          "type": "uint256"
        },
        {
          "internalType": "bytes",
          "name": "",
          "type": "bytes"
        }
      ],
      "stateMutability": "view",
      "type": "function"
    },
    {
      "inputs": [
        {
          "internalType": "bytes32",
          "name": "",
          "type": "bytes32"
        },
        {
          "internalType": "uint256",
          "name": "",
          "type": "uint256"
        }
      ],
      "name": "abis",
      "outputs": [
        {
          "internalType": "bytes",
          "name": "",
          "type": "bytes"
        }
      ],
      "stateMutability": "view",
      "type": "function"
    },
    {
      "inputs": [
        {
          "internalType": "bytes32",
          "name": "node",
          "type": "bytes32"
        }
      ],
      "name": "addr",
      "outputs": [
        {
          "internalType": "address",
          "name": "",
          "type": "address"
        }
      ],
      "stateMutability": "view",
      "type": "function"
    },
    {
      "inputs": [
        {
          "internalType": "bytes32",
          "name": "node",
          "type": "bytes32"
        },
        {
          "internalType": "uint256",
          "name": "coinType",
          "type": "uint256"
        }
      ],
      "name": "addr",
      "outputs": [
        {
          "internalType": "bytes",
          "name": "",
          "type": "bytes"
        }
      ],
      "stateMutability": "view",
      "type": "function"
    },
    {
      "inputs": [
        {
          "internalType": "bytes32",
          "name": "",
          "type": "bytes32"
        },
        {
          "internalType": "uint256",
          "name": "",
          "type": "uint256"
        }
      ],
      "name": "addresses",
      "outputs": [
        {
          "internalType": "bytes",
          "name": "",
          "type": "bytes"
        }
      ],
      "stateMutability": "view",
      "type": "function"
    },
    {
      "inputs": [
        {
          "internalType": "bytes32",
          "name": "node",
          "type": "bytes32"
        }
      ],
      "name": "contenthash",
      "outputs": [
        {
          "internalType": "bytes",
          "name": "",
          "type": "bytes"
        }
      ],
      "stateMutability": "view",
      "type": "function"
    },
    {
      "inputs": [
        {
          "internalType": "address",
          "name": "addr",
          "type": "address"
        }
      ],
      "name": "name",
      "outputs": [
        {
          "internalType": "string",
          "name": "",
          "type": "string"
        }
      ],
      "stateMutability": "view",
      "type": "function"
    },
    {
      "inputs": [
        {
          "internalType": "address",
          "name": "",
          "type": "address"
        }
      ],
      "name": "names",
      "outputs": [
        {
          "internalType": "string",
          "name": "",
          "type": "string"
        }
      ],
      "stateMutability": "view",
      "type": "function"
    },
    {
      "inputs": [],
      "name": "registry",
      "outputs": [
        {
          "internalType": "contract IUniversalRegistry",
          "name": "",
          "type": "address"
        }
      ],
      "stateMutability": "view",
      "type": "function"
    },
    {
      "inputs": [
        {
          "internalType": "bytes32",
          "name": "node",
          "type": "bytes32"
        },
        {
          "internalType": "uint256",
          "name": "contentType",
          "type": "uint256"
        },
        {
          "internalType": "bytes",
          "name": "data",
          "type": "bytes"
        }
      ],
      "name": "setABI",
      "outputs": [],
      "stateMutability": "nonpayable",
      "type": "function"
    },
    {
      "inputs": [
        {
          "internalType": "bytes32",
          "name": "node",
          "type": "bytes32"
        },
        {
          "internalType": "uint256",
          "name": "coinType",
          "type": "uint256"
        },
        {
          "internalType": "bytes",
          "name": "a",
          "type": "bytes"
        }
      ],
      "name": "setAddr",
      "outputs": [],
      "stateMutability": "nonpayable",
      "type": "function"
    },
    {
      "inputs": [
        {
          "internalType": "bytes32",
          "name": "node",
          "type": "bytes32"
        },
        {
          "internalType": "address",
          "name": "a",
          "type": "address"
        }
      ],
      "name": "setAddr",
      "outputs": [],
      "stateMutability": "nonpayable",
      "type": "function"
    },
    {
      "inputs": [
        {
          "internalType": "bytes32",
          "name": "node",
          "type": "bytes32"
        },
        {
          "internalType": "bytes",
          "name": "hash",
          "type": "bytes"
        }
      ],
      "name": "setContenthash",
      "outputs": [],
      "stateMutability": "nonpayable",
      "type": "function"
    },
    {
      "inputs": [
        {
          "internalType": "bytes32",
          "name": "node",
          "type": "bytes32"
        },
        {
          "internalType": "string",
          "name": "name",
          "type": "string"
        }
      ],
      "name": "setName",
      "outputs": [],
      "stateMutability": "nonpayable",
      "type": "function"
    },
    {
      "inputs": [
        {
          "internalType": "bytes32",
          "name": "node",
          "type": "bytes32"
        },
        {
          "internalType": "uint256",
          "name": "coinType",
          "type": "uint256"
        },
        {
          "internalType": "bytes",
          "name": "a",
          "type": "bytes"
        },
        {
          "internalType": "string[]",
          "name": "textKeys",
          "type": "string[]"
        },
        {
          "internalType": "string[]",
          "name": "textValues",
          "type": "string[]"
        }
      ],
      "name": "setRecords",
      "outputs": [],
      "stateMutability": "nonpayable",
      "type": "function"
    },
    {
      "inputs": [
        {
          "internalType": "bytes32",
          "name": "node",
          "type": "bytes32"
        },
        {
          "internalType": "string",
          "name": "key",
          "type": "string"
        },
        {
          "internalType": "string",
          "name": "value",
          "type": "string"
        }
      ],
      "name": "setText",
      "outputs": [],
      "stateMutability": "nonpayable",
      "type": "function"
    },
    {
      "inputs": [
        {
          "internalType": "bytes4",
          "name": "interfaceID",
          "type": "bytes4"
        }
      ],
      "name": "supportsInterface",
      "outputs": [
        {
          "internalType": "bool",
          "name": "",
          "type": "bool"
        }
      ],
      "stateMutability": "pure",
      "type": "function"
    },
    {
      "inputs": [
        {
          "internalType": "bytes32",
          "name": "node",
          "type": "bytes32"
        },
        {
          "internalType": "string",
          "name": "key",
          "type": "string"
        }
      ],
      "name": "text",
      "outputs": [
        {
          "internalType": "string",
          "name": "",
          "type": "string"
        }
      ],
      "stateMutability": "view",
      "type": "function"
    },
    {
      "inputs": [
        {
          "internalType": "bytes32",
          "name": "",
          "type": "bytes32"
        },
        {
          "internalType": "string",
          "name": "",
          "type": "string"
        }
      ],
      "name": "texts",
      "outputs": [
        {
          "internalType": "string",
          "name": "",
          "type": "string"
        }
      ],
      "stateMutability": "view",
      "type": "function"
    }
  ],
  "bytecode": "0x60803461007457601f61179e38819003918201601f19168301916001600160401b038311848410176100795780849260209460405283398101031261007457516001600160a01b0381169081900361007457600080546001600160a01b03191691909117905560405161170e90816100908239f35b600080fd5b634e487b7160e01b600052604160045260246000fdfe6080604052600436101561001257600080fd5b60003560e01c8063019848921461011f57806301ffc9a71461013d57806310f13a8c146101385780632203ab5614610133578063304e6ade1461012e5780633b3b57de1461012957806359d1d43c146101245780635cf3d3461461011f578063623195b01461011a5780636f7662f11461011557806377372213146101105780637b1039991461010b5780638b95dd7114610106578063b76b70d5146100ed578063bc1c58d114610101578063d5fa2b00146100fc578063d799b7d6146100f7578063ea5822c6146100f25763f1cb7e06146100ed57600080fd5b610db6565b611262565b610ff6565b610e30565b610dfa565b610c48565b610c1f565b610ad2565b610a8e565b6108f4565b6101b4565b610752565b610722565b610589565b61051a565b610306565b61021a565b6001600160a01b0381160361015357565b600080fd5b60005b83811061016b5750506000910152565b818101518382015260200161015b565b9060209161019481518092818552858086019101610158565b601f01601f1916010190565b9060206101b192818152019061017b565b90565b34610153576020366003190112610153576004356101d181610142565b60018060a01b031660005260026020526102166101fb6102026040600020604051928380926107c7565b038261088e565b60405191829160208352602083019061017b565b0390f35b346101535760203660031901126101535760043563ffffffff60e01b811680910361015357610216906301ffc9a760e01b81149081156102c8575b81156102b7575b81156102a6575b8115610295575b8115610284575b5060405190151581529081906020820190565b63bc1c58d160e01b14905038610271565b631674750f60e21b8114915061026a565b63691f343160e01b81149150610263565b6378e5bf0360e11b8114915061025c565b631d9dabef60e11b81149150610255565b9181601f84011215610153578235916001600160401b038311610153576020838186019501011161015357565b34610153576060366003190112610153576001600160401b036004356024358281116101535761033a9036906004016102d9565b604492919235848111610153576103559036906004016102d9565b91909360018060a01b0395600096808854166040519182916302571be360e01b835288600484015282602460209586935afa908115610515576103a2928b926104e6575b50163314611324565b858852600381526103b76040892085856114d7565b9185116104e1576103d2856103cc845461078d565b84611361565b8790601f861160011461044a5750918493917fd8c9334b1a9c2f9da342a0a2b32629c1a229b6445dad78947f674b44444a755095610429948a9161043f575b508560011b906000198760031b1c19161790556114f0565b93610439604051928392836114c6565b0390a380f35b905088013538610411565b90601f19861661045f84600052602060002090565b928a905b8a8383106104c95750505091869593917fd8c9334b1a9c2f9da342a0a2b32629c1a229b6445dad78947f674b44444a7550976104299694106104af575b5050600185811b0190556114f0565b890135600019600388901b60f8161c1916905538806104a0565b60018596839496849301358155019501930190610463565b61085d565b610507919250843d861161050e575b6104ff818361088e565b810190611303565b9038610399565b503d6104f5565b611318565b346101535760403660031901126101535761053960243560043561162a565b90610216604051928392835260406020840152604083019061017b565b9060406003198301126101535760043591602435906001600160401b03821161015357610585916004016102d9565b9091565b346101535761059736610556565b9160018060a01b0392600092848454166040519586916302571be360e01b83528560048401528260246020998a935afa908115610515576105e192879261070a5750163314611324565b82845260048552604084206001600160401b0383116104e15761060e83610608835461078d565b83611361565b8495601f841160011461067c57508285967fe379c1624ed7e714cc0937528a32359d69d5281337765313dba4e081b72d7578959691610671575b508360011b906000198560031b1c19161790555b61066b604051928392836114c6565b0390a280f35b905082013538610648565b601f1984169661069183600052602060002090565b9187905b8982106106f2575050847fe379c1624ed7e714cc0937528a32359d69d5281337765313dba4e081b72d7578969798106106d8575b5050600183811b01905561065c565b830135600019600386901b60f8161c1916905538806106c9565b80600184958294958901358155019401920190610695565b610507919250883d8a1161050e576104ff818361088e565b34610153576020366003190112610153576020610740600435611581565b6040516001600160a01b039091168152f35b34610153576102166101fb61020261078161076c36610556565b909160005260036020526040600020916114d7565b604051928380926107c7565b90600182811c921680156107bd575b60208310146107a757565b634e487b7160e01b600052602260045260246000fd5b91607f169161079c565b90600092918054916107d88361078d565b91828252600193848116908160001461083a57506001146107fa575b50505050565b90919394506000526020928360002092846000945b8386106108265750505050010190388080806107f4565b80548587018301529401938590820161080f565b9294505050602093945060ff191683830152151560051b010190388080806107f4565b634e487b7160e01b600052604160045260246000fd5b604081019081106001600160401b038211176104e157604052565b90601f801991011681019081106001600160401b038211176104e157604052565b6101b16101fb91604051928380926107c7565b6060600319820112610153576004359160243591604435906001600160401b03821161015357610585916004016102d9565b3461015357610902366108c2565b600080546040516302571be360e01b8152600481018790529195936020939290916001600160a01b039085908390602490829085165afa90811561051557610953928992610a595750163314611324565b8386526005835260408620858752835260408620926001600160401b0383116104e157829161098c83610986875461078d565b87611361565b8791601f84116001146109e8575087926109dd575b50508160011b916000199060031b1c19161790555b7faa121bbeef5f32f5961a2a28966e769023910fc9479059ee3495d4c1a696efe38380a380f35b0135905038806109a1565b925090601f1984166109ff86600052602060002090565b9389905b828210610a41575050908460019594939210610a27575b505050811b0190556109b6565b0135600019600384901b60f8161c19169055388080610a1a565b80600185978294968801358155019601930190610a03565b610507919250863d881161050e576104ff818361088e565b90610a8c610a8592604051938480926107c7565b038361088e565b565b3461015357604036600319011261015357600435600052600560205260406000206024356000526020526102166101fb6102026040600020604051928380926107c7565b3461015357610ae036610556565b9160018060a01b0392600092848454166040519586916302571be360e01b83528560048401528260246020998a935afa90811561051557610b2a92879261070a5750163314611324565b33845260028552604084206001600160401b0383116104e157610b5183610608835461078d565b8495601f8411600114610bac57508285967fb7d29e911041e8d9b843369e890bcb72c9388692ba48b65ac54e7214c4c348f795969161067157508360011b906000198560031b1c191617905561066b604051928392836114c6565b601f19841696610bc183600052602060002090565b9187905b898210610c07575050847fb7d29e911041e8d9b843369e890bcb72c9388692ba48b65ac54e7214c4c348f7969798106106d8575050600183811b01905561065c565b80600184958294958901358155019401920190610bc5565b34610153576000366003190112610153576000546040516001600160a01b039091168152602090f35b3461015357610c56366108c2565b600080546040516302571be360e01b81526004810187905291959492916020916001600160a01b039083908390602490829085165afa90811561051557610ca69289926104e65750163314611324565b848652600180825260408720848852825260408720916001600160401b0384116104e157610cde84610cd8855461078d565b85611361565b8790601f8511600114610d3557509183806000805160206116b98339815191529796959361066b958b93610d2a575b501b906000198460031b1c19161790555b60405193849384611497565b880135925038610d0d565b90601f198516610d4a85600052602060002090565b928a905b828210610d9f575050918593916000805160206116b983398151915298979661066b969410610d85575b505082811b019055610d1e565b870135600019600386901b60f8161c191690553880610d78565b808685968294968d01358155019501930190610d4e565b3461015357604036600319011261015357600435600052600160205260406000206024356000526020526102166101fb6102026040600020604051928380926107c7565b346101535760203660031901126101535760043560005260046020526102166101fb6102026040600020604051928380926107c7565b346101535760408060031936011261015357600435602435610e5181610142565b6000805484516302571be360e01b8152600481018590529194916020916001600160a01b039083908390602490829085165afa90811561051557610e9e9288926104e65750163314611324565b815192610eaa84610873565b6014845260601b81840152838552600190818152828620603c87528152828620918451916001600160401b0383116104e157610ef083610eea865461078d565b86611361565b80601f8411600114610f4457509180806000805160206116b983398151915297959361066b97958b93610f39575b501b916000199060031b1c19161790555b51918291826114ae565b870151925038610f1e565b90601f939293198316610f5c86600052602060002090565b928a905b828210610faf5750509183916000805160206116b983398151915298969461066b98969410610f96575b5050811b019055610f2f565b86015160001960f88460031b161c191690553880610f8a565b808785968294968d01518155019501930190610f60565b9181601f84011215610153578235916001600160401b038311610153576020808501948460051b01011161015357565b346101535760a0366003190112610153576001600160401b03602435600480356044358481116101535761102d90369084016102d9565b9490606435828111610153576110469036908601610fc6565b969092608435908111610153576110609036908701610fc6565b92909660018060a01b03966024886000541698602060409a8b51938480926302571be360e01b82528d888301525afa908115610515576110aa926000926112085750163314611324565b848a036111cd57509082918693611177575b5050505060005b8681106110cc57005b8086857fd8c9334b1a9c2f9da342a0a2b32629c1a229b6445dad78947f674b44444a75508561115b6111538661114b8f998a6111456111348f6111406111729f9161113a8f8f946111218f8b9390849161152a565b9790966000526003602052604060002090565b9361152a565b906114d7565b6113b5565b8d61152a565b94909761152a565b9290956114f0565b9361116a8b51928392836114c6565b0390a3611505565b6110c3565b6111c1836111b66000805160206116b98339815191529585611140866111a78b6000526001602052604060002090565b90600052602052604060002090565b895193849384611497565b0390a2823880806110bc565b606490602089519162461bcd60e51b83528201526015602482015274082e4e4c2f240d8cadccee8d040dad2e6dac2e8c6d605b1b6044820152fd5b61050791925060203d811161050e576104ff818361088e565b6001600160401b0381116104e157601f01601f191660200190565b602090611256928260405194838680955193849201610158565b82019081520301902090565b34610153576040366003190112610153576024356001600160401b038111610153573660238201121561015357806004013561129d81611221565b916112ab604051938461088e565b8183523660248383010111610153576102169260006020846112f79560246112f2960183860137830101526112ec6004356000526003602052604060002090565b9061123c565b6108af565b604051918291826101a0565b9081602091031261015357516101b181610142565b6040513d6000823e3d90fd5b1561132b57565b60405162461bcd60e51b815260206004820152600e60248201526d139bdd08185d5d1a1bdc9a5cd95960921b6044820152606490fd5b90601f811161136f57505050565b600091825260208220906020601f850160051c830194106113ab575b601f0160051c01915b8281106113a057505050565b818155600101611394565b909250829061138b565b9092916001600160401b0381116104e1576113d4816103cc845461078d565b6000601f821160011461140e5781929394600092611403575b50508160011b916000199060031b1c1916179055565b0135905038806113ed565b601f1982169461142384600052602060002090565b91805b87811061145e575083600195969710611444575b505050811b019055565b0135600019600384901b60f8161c1916905538808061143a565b90926020600181928686013581550194019101611426565b908060209392818452848401376000828201840152601f01601f1916010190565b6040906101b1949281528160208201520191611476565b9060406101b192603c8152816020820152019061017b565b9160206101b1938181520191611476565b6020919283604051948593843782019081520301902090565b81604051928392833781016000815203902090565b60001981146115145760010190565b634e487b7160e01b600052601160045260246000fd5b919081101561156b5760051b81013590601e19813603018212156101535701908135916001600160401b038311610153576020018236038113610153579190565b634e487b7160e01b600052603260045260246000fd5b60005260016020526040600020603c6000526020526101fb6115ad6040600020604051928380926107c7565b80518015611600576014116115c3576014015190565b60405162461bcd60e51b8152602060048201526015602482015274496e76616c6964206164647265737320627974657360581b6044820152606490fd5b5050600090565b60405190602082018281106001600160401b038211176104e15760405260008252565b60005b610100811061164657505050611641611607565b600091565b6001811b80841615158061168d575b611668575061166390611505565b61162d565b939250506000526101b160206005815260409081600020908560005252600020610a71565b50826000526116b1602060058152604090816000209084600052526000205461078d565b151561165556fe65412581168e88a1e60c6459d7f44ae83ad0832e670826c05a4e2476b57af752a2646970667358221220ee2d82d00bd7763f99577467d26d549a3ade31f4c4b5b653daf857a596a248c764736f6c63430008140033",
  "linkReferences": {},
  "deployedLinkReferences": {}
}