{
  "_format": "hh-sol-artifact-1",
  "contractName": "UniversalRegistry",
  "sourceName": "contracts/registry/UniversalRegistry.sol",
  "abi": [
    {
      "inputs": [
        {
          "internalType": "string",
          "name": "_tld",
          "type": "string"
        },
        {
          "internalType": "bytes32",
          "name": "_tldNode",
          "type": "bytes32"
        }
      ],
      "stateMutability": "nonpayable",
      "type": "constructor"
    },
    {
      "anonymous": false,
      "inputs": [
        {
          "indexed": true,
          "internalType": "address",
          "name": "controller",
          "type": "address"
        }
      ],
      "name": "ControllerAdded",
      "type": "event"
    },
    {
      "anonymous": false,
      "inputs": [
        {
          "indexed": true,
          "internalType": "address",
          "name": "controller",
          "type": "address"
        }
      ],
      "name": "ControllerRemoved",
      "type": "event"
    },
    {
      "anonymous": false,
      "inputs": [
        {
          "indexed": true,
          "internalType": "bytes32",
          "name": "node",
          "type": "bytes32"
        },
        {
          "indexed": false,
          "internalType": "string",
          "name": "name",
          "type": "string"
        },
        {
          "indexed": true,
          "internalType": "address",
          "name": "owner",
          "type": "address"
        },
        {
          "indexed": false,
          "internalType": "uint256",
          "name": "expires",
          "type": "uint256"
        }
      ],
      "name": "NameRegistered",
      "type": "event"
    },
    {
      "anonymous": false,
      "inputs": [
        {
          "indexed": true,
          "internalType": "bytes32",
          "name": "node",
          "type": "bytes32"
        },
        {
          "indexed": false,
          "internalType": "uint256",
          "name": "expires",
          "type": "uint256"
        }
      ],
      "name": "NameRenewed",
      "type": "event"
    },
    {
      "anonymous": false,
      "inputs": [
        {
          "indexed": true,
          "internalType": "bytes32",
          "name": "node",
          "type": "bytes32"
        },
        {
          "indexed": false,
          "internalType": "address",
          "name": "resolver",
          "type": "address"
        }
      ],
      "name": "NewResolver",
      "type": "event"
    },
    {
      "anonymous": false,
      "inputs": [
        {
          "indexed": true,
          "internalType": "bytes32",
          "name": "node",
          "type": "bytes32"
        },
        {
          "indexed": true,
          "internalType": "address",
          "name": "newOwner",
          "type": "address"
        }
      ],
      "name": "Transfer",
      "type": "event"
    },
    {
      "inputs": [],
      "name": "GRACE_PERIOD",
      "outputs": [
        {
          "internalType": "uint256",
          "name": "",
          "type": "uint256"
        }
      ],
      "stateMutability": "view",
      "type": "function"
    },
    {
      "inputs": [],
      "name": "MIN_REGISTRATION_DURATION",
      "outputs": [
        {
          "internalType": "uint256",
          "name": "",
          "type": "uint256"
        }
      ],
      "stateMutability": "view",
      "type": "function"
    },
    {
      "inputs": [
        {
          "internalType": "address",
          "name": "controller",
          "type": "address"
        }
      ],
      "name": "addController",
      "outputs": [],
      "stateMutability": "nonpayable",
      "type": "function"
    },
    {
      "inputs": [
        {
          "internalType": "bytes32",
          "name": "node",
          "type": "bytes32"
        }
      ],
      "name": "available",
      "outputs": [
        {
          "internalType": "bool",
          "name": "",
          "type": "bool"
        }
      ],
      "stateMutability": "view",
      "type": "function"
    },
    {
      "inputs": [
        {
          "internalType": "address",
          "name": "",
          "type": "address"
        }
      ],
      "name": "controllers",
      "outputs": [
        {
          "internalType": "bool",
          "name": "",
          "type": "bool"
        }
      ],
      "stateMutability": "view",
      "type": "function"
    },
    {
      "inputs": [
        {
          "internalType": "bytes32",
          "name": "node",
          "type": "bytes32"
        }
      ],
      "name": "nameExpires",
      "outputs": [
        {
          "internalType": "uint256",
          "name": "",
          "type": "uint256"
        }
      ],
      "stateMutability": "view",
      "type": "function"
    },
    {
      "inputs": [
        {
          "internalType": "bytes32",
          "name": "node",
          "type": "bytes32"
        }
      ],
      "name": "owner",
      "outputs": [
        {
          "internalType": "address",
          "name": "",
          "type": "address"
        }
      ],
      "stateMutability": "view",
      "type": "function"
    },
    {
      "inputs": [
        {
          "internalType": "bytes32",
          "name": "",
          "type": "bytes32"
        }
      ],
      "name": "records",
      "outputs": [
        {
          "internalType": "address",
          "name": "owner",
          "type": "address"
        },
        {
          "internalType": "address",
          "name": "resolver",
          "type": "address"
        },
        {
          "internalType": "uint64",
          "name": "expiry",
          "type": "uint64"
        }
      ],
      "stateMutability": "view",
      "type": "function"
    },
    {
      "inputs": [
        {
          "internalType": "bytes32",
          "name": "node",
          "type": "bytes32"
        },
        {
          "internalType": "string",
          "name": "name",
          "type": "string"
        },
        {
          "internalType": "address",
          "name": "owner",
          "type": "address"
        },
        {
          "internalType": "uint256",
          "name": "duration",
          "type": "uint256"
        }
      ],
      "name": "register",
      "outputs": [
        {
          "internalType": "uint256",
          "name": "",
          "type": "uint256"
        }
      ],
      "stateMutability": "nonpayable",
      "type": "function"
    },
    {
      "inputs": [],
      "name": "registryOwner",
      "outputs": [
        {
          "internalType": "address",
          "name": "",
          "type": "address"
        }
      ],
      "stateMutability": "view",
      "type": "function"
    },
    {
      "inputs": [
        {
          "internalType": "address",
          "name": "controller",
          "type": "address"
        }
      ],
      "name": "removeController",
      "outputs": [],
      "stateMutability": "nonpayable",
      "type": "function"
    },
    {
      "inputs": [
        {
          "internalType": "bytes32",
          "name": "node",
          "type": "bytes32"
        },
        {
          "internalType": "uint256",
          "name": "duration",
          "type": "uint256"
        }
      ],
      "name": "renew",
      "outputs": [
        {
          "internalType": "uint256",
          "name": "",
          "type": "uint256"
        }
      ],
      "stateMutability": "nonpayable",
      "type": "function"
    },
    {
      "inputs": [
        {
          "internalType": "bytes32",
          "name": "node",
          "type": "bytes32"
        }
      ],
      "name": "resolver",
      "outputs": [
        {
          "internalType": "address",
          "name": "",
          "type": "address"
        }
      ],
      "stateMutability": "view",
      "type": "function"
    },
    {
      "inputs": [
        {
          "internalType": "bytes32",
          "name": "node",
          "type": "bytes32"
        },
        {
          "internalType": "address",
          "name": "resolver",
          "type": "address"
        }
      ],
      "name": "setResolver",
      "outputs": [],
      "stateMutability": "nonpayable",
      "type": "function"
    },
    {
      "inputs": [],
      "name": "tld",
      "outputs": [
        {
          "internalType": "string",
          "name": "",
          "type": "string"
        }
      ],
      "stateMutability": "view",
      "type": "function"
    },
    {
      "inputs": [],
      "name": "tldNode",
      "outputs": [
        {
          "internalType": "bytes32",
          "name": "",
          "type": "bytes32"
        }
      ],
      "stateMutability": "view",
      "type": "function"
    },
    {
      "inputs": [
        {
          "internalType": "bytes32",
          "name": "node",
          "type": "bytes32"
        },
        {
          "internalType": "address",
          "name": "newOwner",
          "type": "address"
        }
      ],
      "name": "transfer",
      "outputs": [],
      "stateMutability": "nonpayable",
      "type": "function"
    },
    {
      "inputs": [
        {
          "internalType": "address",
          "name": "newOwner",
          "type": "address"
        }
      ],
      "name": "transferOwnership",
      "outputs": [],
      "stateMutability": "nonpayable",
      "type": "function"
    }
  ],
  "bytecode": "0x608060405234620002455762000eea803803806200001d816200024a565b928339810190604081830312620002455780516001600160401b0391908281116200024557810191601f9084828501121562000245578351928184116200021a57602093601f199562000076868887850116016200024a565b9782895286838301011162000245579085929160005b82811062000230575050826000918901015201519185519182116200021a57600054946001958681811c911680156200020f575b86821014620001f957828111620001ae575b50849183116001146200014657508190600495966000926200013a575b5050600019600383901b1c191690851b176000555b6002553360018060a01b0319845416178355336000525260406000209060ff19825416179055604051610c799081620002718239f35b015190503880620000ef565b82169560008052846000209660005b81811062000198575091869791846004989594106200017e575b505050811b0160005562000104565b015160001960f88460031b161c191690553880806200016f565b8383015189559787019792860192860162000155565b60008052856000208380860160051c820192888710620001ef575b0160051c019087905b828110620001e2575050620000d2565b60008155018790620001d2565b92508192620001c9565b634e487b7160e01b600052602260045260246000fd5b90607f1690620000c0565b634e487b7160e01b600052604160045260246000fd5b8181018501518a82018601528794016200008c565b600080fd5b6040519190601f01601f191682016001600160401b038111838210176200021a5760405256fe60406080815260048036101561001457600080fd5b600091823560e01c80630178b8bf146109a157806301e647251461094f57806302571be31461091e578063114902c5146108ff5780631896f70a1461084c5780632d551432146106f15780636932854f146106c8578063727e4ea71461069057806379ce9fac146105de5780638a95b09f146105c05780639ec388df146103c9578063a7fc7a0714610359578063c1a287e21461033b578063da8c229e146102fe578063dc5853c7146102d5578063f2fde38b14610280578063f544d82f146101565763f6a74ed7146100e657600080fd5b34610152576020366003190112610152576100ff6109dc565b6001546001600160a01b0391906101199083163314610c02565b1691828452602052822060ff1981541690557f33d83959be2573f5453b12eb9d43b3499bc57d96bd2f067ba44803c859e811138280a280f35b8280fd5b5082903461027c578060031936011261027c578235602435933384528060205261018560ff84862054166109f2565b6101946224ea00861015610a31565b818452600360205282842080549091906001600160a01b03161561024357506020946101e3600161020e93019167ffffffffffffffff9687845460a01c16905042811160001461023c57610a72565b815467ffffffffffffffff60a01b191695811660a01b67ffffffffffffffff60a01b16959095179055565b7f5a773044a6c2a5ab1c7812c9417486344a3aa701e02afef1026ba9e1bebeed94848351858152a251908152f35b5042610a72565b606490602085519162461bcd60e51b8352820152601360248201527213985b59481b9bdd081c9959da5cdd195c9959606a1b6044820152fd5b5080fd5b83346102d25760203660031901126102d25761029a6109dc565b600154906001600160a01b03906102b43383851614610c02565b16906102c1821515610b11565b6001600160a01b0319161760015580f35b80fd5b83823461027c578160031936011261027c5760015490516001600160a01b039091168152602090f35b5090346101525760203660031901126101525760209260ff918391906001600160a01b0361032a6109dc565b168252855220541690519015158152f35b83823461027c578160031936011261027c57602090516276a7008152f35b5034610152576020366003190112610152576103736109dc565b6001546001600160a01b03919061038d9083163314610c02565b16918284526020528220600160ff198254161790557f0a8bb31534c0ed46f380cb867bd5c803a189ced9a764e30b3a4991a9901d74748280a280f35b50346101525760803660031901126101525767ffffffffffffffff928235602480358681116105bc57366023820112156105bc57808601358781116105b857368382840101116105b8576001600160a01b039660443588811696919087900361027c576064359933835260209a828c5261044860ff8b862054166109f2565b6104576224ea00821015610a31565b881561058657610468899142610a72565b9a88855260038d528a8520938454918216610514575b506001600160a01b0319161782556001909101805467ffffffffffffffff60a01b1916918a1660a01b67ffffffffffffffff60a01b169190911790557f4ca007e15dd1d80b3512005d0b3de91c6d800221327eeb30339cbf2e7cff6286939260609290918189519586948b8652828c8701520185850137828201840152898201899052601f01601f19168101030190a351908152f35b90915082600185015460a01c166276a70081018091116105745742111561053d5790899161047e565b8a5162461bcd60e51b81529081018d9052601281890152714e616d65206e6f7420617661696c61626c6560701b6044820152606490fd5b634e487b7160e01b8652601182528886fd5b895162461bcd60e51b81528084018d9052600d818901526c24b73b30b634b21037bbb732b960991b6044820152606490fd5b8480fd5b8380fd5b83823461027c578160031936011261027c57602090516224ea008152f35b509034610152578160031936011261015257356105f96109c1565b8184526003602052828420546001600160a01b03919061061c9083163314610a95565b828552600360205261064267ffffffffffffffff6001868820015460a01c164210610ad4565b169161064f831515610b11565b8184526003602052832080546001600160a01b031916831790557fd4735d920b0f87494915f556dd9b54c8f309026070caea5c737245152564d2668380a380f35b5090346101525760203660031901126101525760018260209467ffffffffffffffff933581526003865220015460a01c169051908152f35b5082346102d25760203660031901126102d257506106e860209235610bba565b90519015158152f35b5034610152578260031936011261015257805183805460019581871c878316978815610842575b6020938483108a1461082f57848798999a84895291826000146108135750506001146107c0575b5050601f801995869203011683019583871067ffffffffffffffff8811176107ad575085929391838652818452845191828186015281955b8387106107955750508394508582601f949501015201168101030190f35b86810182015189880189015295810195889550610777565b634e487b7160e01b835260419052602482fd5b8480528492507f290decd9548b62a8d60345a988386fc84ba6bc95484008f6362f93160ef3e5635b8284106107fd5750505083018101388061073f565b80548885018601528796509284019281016107e8565b925093505060ff191682860152151560051b840101388061073f565b634e487b7160e01b865260228952602486fd5b90607f1690610718565b50903461015257816003193601126101525760207f335721b01866dc23fbee8b6b2c7b1e14d6f05c28cd35a2c934239f94095602a091359261088c6109c1565b908486526003835260018060a01b036108ab8183892054163314610a95565b858752600384526108d067ffffffffffffffff6001848a20015460a01c164210610ad4565b85875260038452600182882001921691826bffffffffffffffffffffffff60a01b82541617905551908152a280f35b83823461027c578160031936011261027c576020906002549051908152f35b5082346102d25760203660031901126102d2575061093e60209235610b51565b90516001600160a01b039091168152f35b5090346101525760203660031901126101525760609282913581526003602052209067ffffffffffffffff60018060a01b036001818554169401549083519485528116602085015260a01c1690820152f35b5082346102d25760203660031901126102d2575061093e60209235610b89565b602435906001600160a01b03821682036109d757565b600080fd5b600435906001600160a01b03821682036109d757565b156109f957565b60405162461bcd60e51b815260206004820152601060248201526f2737ba10309031b7b73a3937b63632b960811b6044820152606490fd5b15610a3857565b60405162461bcd60e51b8152602060048201526012602482015271111d5c985d1a5bdb881d1bdbc81cda1bdc9d60721b6044820152606490fd5b91908201809211610a7f57565b634e487b7160e01b600052601160045260246000fd5b15610a9c57565b60405162461bcd60e51b815260206004820152601060248201526f2737ba103237b6b0b4b71037bbb732b960811b6044820152606490fd5b15610adb57565b60405162461bcd60e51b815260206004820152600e60248201526d111bdb585a5b88195e1c1a5c995960921b6044820152606490fd5b15610b1857565b60405162461bcd60e51b815260206004820152601160248201527024b73b30b634b2103732bb9037bbb732b960791b6044820152606490fd5b6000526003602052604060002067ffffffffffffffff600182015460a01c164211610b8357546001600160a01b031690565b50600090565b60005260036020526001604060002001544267ffffffffffffffff8260a01c1610610b83576001600160a01b031690565b600090815260036020526040902080546001600160a01b031615610bfc57600167ffffffffffffffff91015460a01c166276a7008101809111610a7f57421190565b50600190565b15610c0957565b60405162461bcd60e51b81526020600482015260126024820152712737ba103932b3b4b9ba393c9037bbb732b960711b6044820152606490fdfea2646970667358221220a7332d0d6f1bab1a10e191c3f4be6bdcf77638a5775731510b3dc0ef7b3fdd7864736f6c63430008140033",
  "linkReferences": {},
  "deployedLinkReferences": {}
}